:020000040800F2
:1000000000000820112F0008B92C0008C12C00089E
:10001000C92C0008D12C0008D92C000800000000D1
:10002000000000000000000000000000E12C0008BB
:10003000EF2C000800000000FD2C00080B2D00082C
:10004000612F0008612F0008612F0008612F000850
:10005000612F0008612F0008612F0008612F000840
:10006000612F0008612F0008612F0008612F000830
:10007000232D0008612F0008612F0008612F000860
:10008000612F0008612F0008612F0008612F000810
:10009000612F0008612F0008612F0008612F000800
:1000A000612F000839770008612F0008612F0008D0
:1000B00085770008612F0008612F0008612F000874
:1000C000612F0008612F0008612F0008612F0008D0
:1000D000612F00082F2D0008612F0008612F0008F4
:1000E000612F0008612F0008612F0008612F0008B0
:1000F000612F0008612F0008612F0008612F0008A0
:10010000612F0008612F0008612F0008612F00088F
:10011000612F0008612F0008612F0008612F00087F
:10012000612F00083B2D0008492D0008FD7A0008CA
:10013000552D0008612F0008612F0008612F00086D
:10014000612F0008612F0008612F0008612F00084F
:10015000612F0008ED790008612F00080D470008A5
:10016000612F0008612F0008612F0008612F00082F
:10017000612F0008612F0008612F000800000000B7
:10018000612F0008612F000811300008612F00085E
:10019000612F0008612F0008612F0008612F0008FF
:1001A0000000000000000000612F0008612F00081F
:1001B000612F0008612F0008612F0008612F0008DF
:1001C000612F0008612F000800000000612F000867
:1001D000612F0008612F0008612F0008612F0008BF
:1001E000612F0008612F0008612F0008612F0008AF
:0801F00000000000612F00086F
:1002000010B5054C237833B9044B13B10448AFF350
:1002100000800123237010BDB043002000000000C7
:10022000982D010808B5034B1BB103490348AFF3F0
:10023000008008BD00000000B4430020982D010894
:1002400010F8012B11F8013B012A28BF9A42F7D080
:10025000D01A7047000000000000000000000000FD
:1002600001F0FF01102A2BDB10F0070F08D010F867
:10027000013B013A8B422DD010F0070F42B3F6D16B
:10028000F0B441EA012141EA014122F007047FF084
:1002900000070023F0E80256083C85EA010586EADB
:1002A000010685FA47F5A3FA87F586FA47F6A5FA17
:1002B00087F68EB9EED1F0BC01F0FF0102F0070223
:1002C00032B110F8013B013A83EA010313B1F8D1CE
:1002D0000020704701387047002D06BF35460338AF
:1002E000073815F0010F07D1013015F4807F02BFE8
:1002F000013015F4C03F0130F0BC0138704700BF39
:10030000034613F8012B002AFBD1181A0138704755
:100310007BB972B90029BEBF00204FF0004106E052
:1003200008BF00281CBF6FF000414FF0FF3000F005
:10033000D3B9ADF1080C6DE904CE002909DB002B1F
:100340001ADB00F04DF8DDF804E0DDE9022304B02B
:100350007047404261EB4101002B1BDB00F040F88D
:10036000DDF804E0DDE9022304B0404261EB410125
:10037000524263EB43037047524263EB430300F086
:100380002FF8DDF804E0DDE9022304B0404261EB20
:1003900041017047524263EB430300F021F8DDF85E
:1003A00004E0DDE9022304B0524263EB43037047EB
:1003B00053B94AB9002908BF00281CBF4FF0FF31CC
:1003C0004FF0FF3000F088B9ADF1080C6DE904CEB4
:1003D00000F006F8DDF804E0DDE9022304B0704720
:1003E0002DE9F047089D8E4604468846002B4AD1E9
:1003F0008A42174662D9B2FA82F64EB1C6F120039C
:1004000001FA06F820FA03F3B74043EA0808B440BB
:100410004FEA174E1FFA87FCB8FBFEF1230C0EFBC8
:10042000118843EA084301FB0CF29A4209D9FB18F0
:1004300001F1FF3080F0EA809A4240F2E780023911
:100440003B449A1AA3B2B2FBFEF00EFB102243EA21
:10045000024300FB0CFC9C4509D9FB1800F1FF325C
:1004600080F0D6809C4540F2D3803B44023840EA7D
:100470000140A3EB0C0300211DB1F3400022C5E9AC
:100480000032BDE8F0878B4205D90DB1C5E9000106
:1004900000210846F5E7B3FA83F1002946D17345F8
:1004A00002D3824200F20581841A6EEB030201201E
:1004B0009046002DE5D0C5E90048E2E7002A00F0AB
:1004C0009080B2FA82F6002E40F0A4808A1A030CC3
:1004D0004FEA174E80B2BCB20121B2FBFEFC0EFB0C
:1004E0001C2243EA024304FB0CF29A4207D9FB1890
:1004F0000CF1FF3802D29A4200F2E080C4469B1A07
:10050000B3FBFEF20EFB123340EA034302FB04F49A
:100510009C4207D9FB1802F1FF3002D29C4200F244
:10052000CA8002461B1B42EA0C40A5E7C1F1200627
:100530008B4022FA06F71F430EFA01F420FA06F365
:100540002EFA06FE4FEA1749234300FA01F81FFA74
:1005500087FCBEFBF9F01C0C09FB10EE44EA0E44CC
:1005600000FB0CFEA64502FA01F209D93C1900F184
:10057000FF3A80F09C80A64540F2998002383C44C6
:10058000A4EB0E041FFA83FEB4FBF9F309FB13443A
:100590004EEA044403FB0CFCA44508D93C1903F1C2
:1005A000FF3E80F08280A4457FD9023B3C4443EA71
:1005B0000040A4EB0C04A0FB02EC64457346E1464A
:1005C00062D35FD05DB1B8EB030264EB090404FAB7
:1005D00006F622FA01F31E43CC40C5E9006400216F
:1005E0004FE7B1FBF2FC010C41EA0E4180B240EA58
:1005F00001423B4638463C46B846BE462026B1FB43
:10060000F7F1A2EB080241EA0C4166E7014618E760
:1006100010462CE7C6F120022EFA02F3B740B14093
:1006200020FA02F24FEA174E0A43B3FBFEF8BCB2BF
:100630000EFB1833110C41EA034108FB04F9B040EA
:1006400089454FEA104380B23ED9791808F1FF3C42
:1006500001D289451FD8A1EB0901B1FBFEF909FBC5
:1006600004F80EFB191192B242EA0142424529D226
:10067000BA1809F1FF31C4D24245C2D2A9F1020130
:100680003A44BEE7F0459DD2BEEB02036CEB070C8B
:100690000138E14696E7A7EB09094944A8F1020CA5
:1006A000B1FBFEF909FB04F8DBE773467FE7504630
:1006B00066E70846FDE63B44023A33E7ACF1020C3C
:1006C0003B441CE749469CE7A1EB0901C446B1FB4A
:1006D000FEF909FB04F8C4E7704700BF80B400AF1F
:1006E000044BDB681B0A03F007031846BD465DF8A0
:1006F000047B704700ED00E080B483B000AF034698
:10070000FB7197F90730002B0BDBFB7903F01F021D
:10071000074997F907305B09012000FA02F241F816
:10072000232000BF0C37BD465DF8047B704700BF37
:1007300000E100E080B483B000AF03463960FB7194
:1007400097F90730002B0ADB3B68DAB20C4997F9BE
:1007500007301201D2B20B4483F800230AE03B6851
:10076000DAB20849FB7903F00F03043B1201D2B25D
:100770000B441A7600BF0C37BD465DF8047B70470A
:1007800000E100E000ED00E080B489B000AFF86067
:10079000B9607A60FB6803F00703FB61FB69C3F192
:1007A0000703042B28BF0423BB61FB690433062B1A
:1007B00002D9FB69033B00E000237B614FF0FF326D
:1007C000BB6902FA03F3DA43BB681A407B699A40BB
:1007D0004FF0FF317B6901FA03F3D9437B680B408B
:1007E000134318462437BD465DF8047B704780B438
:1007F00089B000AFF860B9607A60FB682C331946A5
:10080000BB6803F440734FF44072BA61BA6992FA5C
:10081000A2F27A617A69B2FA82F2D2B2D3409B0034
:100820000B44FB61FB691A68BB6803F01F031F21BF
:1008300001FA03F3DB431A407B6803F01F01BB6836
:1008400003F01F0301FA03F31A43FB691A6000BFA8
:100850002437BD465DF8047B704780B483B000AF99
:10086000786039607B689B6823F480623B681A4338
:100870007B689A6000BF0C37BD465DF8047B70470B
:1008800080B48DB000AFF860B9607A60FB680C335B
:100890001946BB6803F000734FF00072BA61BA6981
:1008A00092FAA2F27A617A69B2FA82F2D2B2D340B3
:1008B0009B000B44FB62FB6A1A68BB6803F0F87389
:1008C0004FF0F8713962396A91FAA1F1F961F96969
:1008D000B1FA81F1C9B2CB40072101FA03F3DB433E
:1008E0001A40BB6803F0F8734FF0F871B962B96A47
:1008F00091FAA1F17962796AB1FA81F1C9B2CB407A
:10090000796801FA03F31A43FB6A1A6000BF3437AF
:10091000BD465DF8047B704780B485B000AFF860D9
:10092000B9607A600D4ABB6813441B781A46FB68AD
:1009300013441B6823F0C0020849BB680B441B78B2
:100940001946FB680B4419467B6813430B6000BFD4
:100950001437BD465DF8047B704700BF04500108A2
:1009600080B485B000AFF860B9607A600D4ABB68AA
:1009700013441B781A46FB6813441B6823F49072D7
:100980000849BB680B441B781946FB680B441946A1
:100990007B6813430B6000BF1437BD465DF8047BD2
:1009A000704700BF0450010880B485B000AFF86004
:1009B000B9607A600D4ABB6813441B781A46FB681D
:1009C00013441B6823F400720849BB680B441B786E
:1009D0001946FB680B4419467B6813430B6000BF44
:1009E0001437BD465DF8047B704700BF0450010812
:1009F00080B485B000AFF860B9607A600D4ABB681A
:100A000013441B781A46FB6813441B6823F4806266
:100A10000849BB680B441B781946FB680B44194610
:100A20007B6813430B6000BF1437BD465DF8047B41
:100A3000704700BF0450010880B485B000AFF86073
:100A4000B9607A600D4ABB6813441B781A46FB688C
:100A500013441B6823F4C0520849BB680B441B783D
:100A60001946FB680B4419467B6813430B6000BFB3
:100A70001437BD465DF8047B704700BF0450010881
:100A800080B485B000AFF860B9607A600D4ABB6889
:100A900013441B781A46FB6813441B6823F4C042B6
:100AA0000849BB680B441B781946FB680B44194680
:100AB0007B6813430B6000BF1437BD465DF8047BB1
:100AC000704700BF0450010880B485B000AFF860E3
:100AD000B9607A600D4ABB6813441B781A46FB68FC
:100AE00013441B6823F440320849BB680B441B784D
:100AF0001946FB680B4419467B6813430B6000BF23
:100B00001437BD465DF8047B704700BF04500108F0
:100B100080B485B000AFF860B9607A600D4ABB68F8
:100B200013441B781A46FB6813441B6823F0F052E9
:100B30000849BB680B441B781946FB680B441946EF
:100B40007B6813430B6000BF1437BD465DF8047B20
:100B5000704700BF0450010880B483B000AF7860D4
:100B600039600C4A3B6813441B781A467B6813446F
:100B70005B6908493A680A44127811467A680A445F
:100B800023F00403536100BF0C37BD465DF8047BBE
:100B9000704700BF0450010880B483B000AF786094
:100BA0007B681B6843F001027B681A6000BF0C374A
:100BB000BD465DF8047B704780B483B000AF7860B9
:100BC0007B681B6823F400327B681A6000BF0C3717
:100BD000BD465DF8047B704780B483B000AF786099
:100BE0007B681B6823F400227B681A6000BF0C3707
:100BF000BD465DF8047B704780B485B000AFF860F7
:100C0000B9607A60FB68DA68064B1340B9687A68A5
:100C10000A431A43FB68DA6000BF1437BD465DF82B
:100C2000047B704701F8FFFF80B483B000AF7860A9
:100C30007B68DB6823F400427B68DA6000BF0C3716
:100C4000BD465DF8047B704780B483B000AF786028
:100C50007B685B6843F000727B685A6000BF0C37AA
:100C6000BD465DF8047B704780B483B000AF786008
:100C70007B681B6843F040027B681A6000BF0C373A
:100C8000BD465DF8047B704780B483B000AF7860E8
:100C900039607B685B6823F010023B681A437B680D
:100CA0005A6000BF0C37BD465DF8047B704780B4C6
:100CB00083B000AF78607B685B6843F008027B68B4
:100CC0005A6000BF0C37BD465DF8047B704780B4A6
:100CD00083B000AF78607B685B6823F008027B68B4
:100CE0005A6000BF0C37BD465DF8047B704780B486
:100CF00083B000AF78607B681B6843F080027B683C
:100D00001A6000BF0C37BD465DF8047B704780B4A5
:100D100083B000AF78607B681B6823F080027B683B
:100D20001A6000BF0C37BD465DF8047B70470000B9
:100D300080B485B000AF786039603B68012B28D063
:100D40003B68042B23D03B68102B1ED03B68402B04
:100D500019D03B68B3F5807F13D03B68B3F5806F43
:100D60000DD03B68B3F5805F07D03B68B3F5803F9B
:100D700001D107230EE008230CE006230AE0052337
:100D800008E0042306E0032304E0022302E0012339
:100D900000E00023FB737B6818331946FB7B0B4A8A
:100DA000D35C0B44BB60BB681A68FB7B0849CB5C17
:100DB000194604238B40DB431A40BB681A6000BF0E
:100DC0001437BD465DF8047B704700BF0C50010826
:100DD0001850010880B485B000AF786039603B6876
:100DE000012B28D03B68042B23D03B68102B1ED04E
:100DF0003B68402B19D03B68B3F5807F13D03B682C
:100E0000B3F5806F0DD03B68B3F5805F07D03B68CA
:100E1000B3F5803F01D107230EE008230CE0062341
:100E20000AE0052308E0042306E0032304E002238C
:100E300002E0012300E00023FB737B6818331946AE
:100E4000FB7B0A4AD35C0B44BB60BB681A68FB7B24
:100E50000749CB5C194608238B401A43BB681A60CC
:100E600000BF1437BD465DF8047B70470C50010885
:100E70001850010880B483B000AF786039607B6897
:100E80009A68064B13403A681A437B689A6000BF21
:100E90000C37BD465DF8047B704700BFF8BFFEFF0E
:100EA00080B483B000AF786039607B685B6823F002
:100EB00070023B681A437B685A6000BF0C37BD461E
:100EC0005DF8047B704780B483B000AF7860396010
:100ED0007B685B6823F470023B681A437B685A6046
:100EE00000BF0C37BD465DF8047B704780B483B00B
:100EF00000AF78607B689B6823F080027B689A6013
:100F000000BF0C37BD465DF8047B704780B483B0EA
:100F100000AF78607B681B6843F001027B681A6051
:100F200000BF0C37BD465DF8047B704780B483B0CA
:100F300000AF78607B685B6823F490427B685A60FE
:100F40007B689B6823F02A027B689A6000BF0C379D
:100F5000BD465DF8047B704780B483B000AF786015
:100F600039607B683A689A6100BF0C37BD465DF80E
:100F7000047B704780B483B000AF786039603B6811
:100F80001A047B689A6100BF0C37BD465DF8047B8C
:100F90007047000080B485B000AF7860084B1A6BD2
:100FA00007497B6813430B63054B1A6B7B6813403F
:100FB000FB60FB6800BF1437BD465DF8047B7047DB
:100FC0000038024080B485B000AF7860084B1A6CDE
:100FD00007497B6813430B64054B1A6C7B6813400D
:100FE000FB60FB6800BF1437BD465DF8047B7047AB
:100FF0000038024080B485B000AF7860084B5A6C6E
:1010000007497B6813434B64054B5A6C7B6813405C
:10101000FB60FB6800BF1437BD465DF8047B70477A
:101020000038024080B500AF0BF0B8FC00F02EF89D
:1010300001F010FB01F092FA00F054FB00F00AFC02
:1010400000F0CEFC00F07EFD00F090F800F0F8FD1E
:1010500000F0D8FF01F0B0F800F070FE01F048F9A0
:1010600001F0E2F900F0D6F900F084FA00F042FF56
:1010700000F086FF00F014FB00F0CEFB01F071FFE2
:1010800001F07DFF01F08EFF00BFFDE780B594B059
:1010900000AF07F11C033422002118460FF0C8FBF3
:1010A00007F1080300221A605A609A60DA601A6138
:1010B0002C4B1B6C2B4A43F080531364294B1B6C45
:1010C00003F080537B607B68274B1B68264A43F400
:1010D00040431360244B1B6803F440433B603B6870
:1010E0000923FB614FF480333B6201233B630223FE
:1010F0007B634FF48003BB630C23FB63C0233B641F
:1011000002237B640223BB640223FB6407F11C03FC
:1011100018460BF093FF0346002B01D001F082FD2F
:101120000BF03CFF0346002B01D001F07BFD0F23A9
:10113000BB600223FB6000233B614FF4A0537B6143
:101140004FF48053BB6107F10803062118460CF0E9
:1011500023FA0346002B01D001F064FD00BF503795
:10116000BD4680BD003802400070004080B592B09E
:1011700000AF07F13C0300221A605A609A6007F141
:10118000280300221A605A609A60DA601A6107F137
:10119000180300221A605A609A60DA603B46002207
:1011A0001A605A609A60DA601A615A614FF480706E
:1011B000FFF720FF0420FFF7EDFE0220FFF7EAFE15
:1011C00001233B6003237B6000233B613B461946C0
:1011D00084480DF06AF902233B6003237B600023FF
:1011E0003B613B4619467F480DF05FF904233B60A5
:1011F00003237B6000233B613B46194679480DF091
:1012000054F908233B6003237B6000233B613B468A
:10121000194674480DF049F910233B6003237B60A5
:1012200000233B613B4619466E480DF03EF92023F2
:101230003B6003237B6000233B613B4619466948C2
:101240000DF033F901233B6003237B6000233B61F6
:101250003B46194664480DF028F902233B600323FE
:101260007B6000233B613B4619465F480DF01DF94A
:10127000002204215D48FFF74BFC002204215B485B
:10128000FFF74AFB002204215848FFF71DFC4FF4EA
:10129000807204215548FFF763FB00220421534864
:1012A000FFF782FB4FF4806204215048FFF7A0FB58
:1012B0004FF4006204214D48FFF7BEFB4FF400528B
:1012C00004214A48FFF7DCFB04214848FFF744FCAF
:1012D0000023FB6300233B644FF480737B6407F1BE
:1012E0003C03194642480CF067FF0023BB624FF4F1
:1012F000E003FB6200233B6300237B634FF44073F6
:10130000BB6307F12803194639480CF081FF00211F
:101310003748FFF7A2FA4FF48033BB610023FB612B
:1013200007F11803194633480CF0FEFE0A224FF469
:1013300000712F48FFF75BFA01220A212C48FFF7C2
:101340009FFA2D4A40F205212948FFF750FA012261
:1013500029492748FFF794FA284A40F20A212448ED
:10136000FFF745FA012225492148FFF789FA244A67
:1013700040F20F211E48FFF73AFA012220491C488B
:10138000FFF77EFA1F4A4FF405711948FFF72FFA4D
:1013900001221C491648FFF773FA1B4A40F2192133
:1013A0001348FFF724FA012217491148FFF768FA9A
:1013B000164A4FF480710E48FFF719FA01221349BB
:1013C0000B48FFF75DFA124A40F205110848FFF793
:1013D0000EFA01220E490648FFF752FA00BF4837BD
:1013E000BD4680BD00080240000402400064024087
:1013F00000200140002301400B0030000C00600081
:101400000D0090000E00C0000F00F00008008003E7
:101410000900B00380B58EB000AF07F12C030022A5
:101420001A605A609A6007F1180300221A605A6025
:101430009A60DA601A613B4600221A605A609A602C
:10144000DA601A615A614FF40070FFF7D3FD012092
:10145000FFF7A0FD04233B6003237B6000233B6177
:101460003B4619463E480DF020F808233B60032315
:101470007B6000233B613B46194639480DF015F867
:101480004FF0007202213748FFF742FB0022022191
:101490003448FFF741FA002202213248FFF714FBDB
:1014A0004FF4807202212F48FFF75AFA00220221DE
:1014B0002C48FFF779FA4FF4806202212948FFF7A0
:1014C00097FA4FF4006202212648FFF7B5FA4FF46D
:1014D000005202212348FFF7D3FA02212148FFF7E7
:1014E0003BFB0023FB6200233B634FF480737B6371
:1014F00007F12C0319461C480CF05EFE0023BB616B
:101500004FF48013FB6100233B6200237B624FF4A6
:101510004073BB6207F11803194613480CF078FEBC
:101520004FF480611048FFF798F9104A4FF40071AA
:101530000D48FFF75CF901220C490B48FFF7A0F9B1
:101540000B4A40F205210848FFF751F900220849EB
:101550000548FFF795F900BF3837BD4680BD00BF8D
:10156000000002400064024000210140030090029C
:101570000200600280B58EB000AF07F12C0300229C
:101580001A605A609A6007F1180300221A605A60C4
:101590009A60DA601A613B4600221A605A609A60CB
:1015A000DA601A615A614FF48060FFF723FD012071
:1015B000FFF7F0FC02233B6003237B6000233B61C9
:1015C0003B46194632480CF070FF4FF08062012113
:1015D0003048FFF79DFA002201212E48FFF79CF9C1
:1015E000002201212B48FFF76FFA4FF4807201218E
:1015F0002848FFF7B5F9002201212648FFF7D4F962
:101600004FF4806201212348FFF7F2F94FF40062A2
:1016100001212048FFF710FA4FF4005201211D4824
:10162000FFF72EFA01211B48FFF796FA0023FB6211
:1016300000233B6300237B6307F12C031946164804
:101640000CF0BAFD0023BB610023FB6100233B6269
:1016500000237B624FF44073BB6207F11803194605
:101660000D480CF0D5FD4FF480610B48FFF7F5F8FD
:101670000A4A4FF400710848FFF7B9F801220749F8
:101680000548FFF7FDF800BF3837BD4680BD00BFF5
:1016900000000240006402400022014001003002CC
:1016A00080B500AF0D4B0E4A1A600C4B00221A7128
:1016B0000A4B00225A71094B00225A61074B002243
:1016C0009A61064B01221A6204480BF0ABFA0346FA
:1016D000002B01D001F0A6FA00BF80BDCC43002052
:1016E0000030024080B5B2B000AF07F1AC03002279
:1016F0001A605A609A60DA601A615A619A6107F159
:10170000940300221A605A609A60DA601A615A6182
:101710003B1D9022002118460FF08AF84FF48043B9
:101720007B600023BB663B1D18460CF0E7F80346C0
:10173000002B01D001F076FA0220FFF72BFC4023AA
:10174000C7F894300223C7F898300323C7F89C30B9
:101750000123C7F8A0300023C7F8A4300423C7F83A
:10176000A83007F19403194628480CF09EFE802308
:10177000C7F894300223C7F898300323C7F89C3089
:101780000123C7F8A0300023C7F8A4300423C7F80A
:10179000A83007F1940319461C480CF086FE4FF45C
:1017A0000010FFF70FFC1A48FFF74EFA0022002145
:1017B0001748FFF721FA1648FFF736FA1448FFF7E3
:1017C0000BFA1348FFF7F8F90023C7F8AC30114BB8
:1017D000C7F8B0300023C7F8B4300023C7F8B830DA
:1017E0000023C7F8BC300023C7F8C0300023C7F877
:1017F000C43007F1AC03194605480CF06DFF0448EE
:10180000FFF7CAF900BFC837BD4680BD00040240DB
:1018100000540040D619400080B500AF0B4B0C4A75
:101820001A600A4B00225A60084B40F6FF72DA60D9
:10183000064B40F6FF729A6004480BF0E5FA034647
:10184000002B01D001F0EEF900BF80BDF043002075
:101850000030004080B590B000AF07F11803282297
:10186000002118460EF0E4FF3B4600221A605A6041
:101870009A60DA601A615A614FF48050FFF7BAFB40
:101880000120FFF787FB10233B6002237B600323CB
:10189000BB600023FB6000233B6105237B613B466B
:1018A00019464C480CF001FE20233B6002237B606C
:1018B0000323BB600023FB6000233B6105237B61A6
:1018C0003B46194643480CF0F0FD40233B600223A1
:1018D0007B600323BB600023FB6000233B61052387
:1018E0007B613B4619463B480CF0DFFD80233B60A3
:1018F00002237B600323BB600023FB6000233B616A
:1019000005237B613B46194632480CF0CEFD4FF073
:10191000C06203213048FFF7FBF8402203212E4824
:10192000FEF7FAFF4FF4003203212B48FFF7CCF803
:10193000002203212848FFF713F80022032126483C
:10194000FFF732F84FF4806203212348FFF750F885
:10195000002203212048FFF76FF8002203211E48D0
:10196000FFF78EF803211C48FFF7F6F8FEF7B6FEE6
:101970000346002200211846FEF706FF03461946DB
:101980002320FEF7D7FE2320FEF7B6FE0023BB611F
:101990000023FB614FF4E0633B6202237B62002380
:1019A000BB620023FB6200237B630023BB6307232E
:1019B000FB6307F11803194608480DF065FA00218A
:1019C0000648FFF761F90548FFF781F900BF403786
:1019D000BD4680BD0000024000640240003001406E
:1019E00080B590B000AF07F11803282200211846F7
:1019F0000EF01EFF3B4600221A605A609A60DA60C1
:101A00001A615A614FF48040FFF7DCFA0220FFF7B9
:101A1000C1FA4FF400533B6002237B600323BB6099
:101A20000023FB6000233B6105237B613B46194695
:101A300041480CF03AFD4FF480433B6002237B6049
:101A40000323BB600023FB6000233B6105237B6114
:101A50003B46194638480CF028FD4FF400433B60E4
:101A600002237B600323BB600023FB6000233B61F8
:101A700005237B613B4619462F480CF016FD4FF0BD
:101A8000905201212D48FFF743F8002201212B48F5
:101A9000FEF742FF4FF4403201212848FFF714F8C7
:101AA0004FF4807201212548FEF75AFF00220121E0
:101AB0002248FEF779FF4FF4806201211F48FEF7AC
:101AC00097FF4FF4006201211C48FEF7B5FF4FF469
:101AD000005201211948FEF7D3FF01211748FFF7F3
:101AE0003BF80023BB614FF48273FB614FF47063DA
:101AF0003B6200237B620023BB624FF40073FB62F6
:101B000000233B6300237B630023BB630723FB634A
:101B100007F1180319460A480DF0B6F900210848E4
:101B2000FFF7B2F80648FFF7C2F80548FFF79CF840
:101B300000BF4037BD4680BD000402400060024047
:101B40000038004080B590B000AF07F1180328229C
:101B5000002118460EF06CFE3B4600221A605A60C7
:101B60009A60DA601A615A614FF40040FFF72AFA6E
:101B70000420FFF70FFA4FF480633B6002237B6081
:101B80000323BB600023FB6000233B6106237B61D2
:101B90003B46194628480CF088FC4FF400633B6034
:101BA00002237B600323BB600023FB6000233B61B7
:101BB00006237B613B4619461F480CF076FC4FF428
:101BC00080533B6002237B600323BB600023FB60E8
:101BD00000233B6106237B613B46194616480CF007
:101BE00064FC0023BB614FF48273FB614FF4E0633C
:101BF0003B6200237B620023BB624FF40073FB62F5
:101C000000233B6300237B630023BB630723FB6349
:101C100007F11803194609480DF036F90021074865
:101C2000FFF732F80548FFF742F80448FFF71CF8C1
:101C300000BF4037BD4680BD00080240003C004068
:101C400080B590B000AF07F1180328220021184694
:101C50000EF0EEFD3B4600221A605A609A60DA6090
:101C60001A615A614FF40050FFF7C4F91020FFF7D2
:101C700091F94FF480533B6002237B600323BB60E8
:101C80000023FB6000233B6105237B613B46194633
:101C900028480CF00AFC4FF400533B6002237B60A1
:101CA0000323BB600023FB6000233B6105237B61B2
:101CB0003B4619461F480CF0F8FB4FF480433B604D
:101CC00002237B600323BB600023FB6000233B6196
:101CD00005237B613B46194616480CF0E6FB0023C2
:101CE000BB614FF48273FB614FF4E0633B620023FE
:101CF0007B620123BB624FF40073FB6220233B63D2
:101D000000237B630023BB630723FB6307F11803F6
:101D1000194609480DF0B8F800210748FEF7B4FF4E
:101D20000548FEF7D4FF0448FEF79EFF00BF40378A
:101D3000BD4680BD001002400034014080B590B027
:101D400000AF07F118032822002118460EF070FD9D
:101D50003B4600221A605A609A60DA601A615A6142
:101D60004FF40010FFF746F90220FFF713F908239C
:101D70003B6002237B600323BB600023FB600023E6
:101D80003B6108237B613B46194657480CF08DFBAD
:101D900010233B6002237B600323BB600023FB60B6
:101DA00000233B6108237B613B4619464E480CF0FB
:101DB0007CFB20233B6002237B600323BB6000236A
:101DC000FB6000233B6108237B613B461946464884
:101DD0000CF06BFB4FF0007205214448FEF798FEB3
:101DE000402205214148FEF797FD4FF4403205217E
:101DF0003E48FEF769FE002205213C48FEF7B0FD93
:101E0000002205213948FEF7CFFD4FF480620521FD
:101E10003648FEF7EDFD002205213448FEF70CFEA2
:101E2000002205213148FEF72BFE05212F48FEF741
:101E300093FE4FF0007206212C48FEF769FE002247
:101E400006212A48FEF768FD4FF440320621274854
:101E5000FEF73AFE002206212448FEF781FD00220B
:101E600006212248FEF7A0FD4FF4806206211F489C
:101E7000FEF7BEFD002206211C48FEF7DDFD002214
:101E800006211A48FEF7FCFD06211848FEF764FEFD
:101E90000023BB614FF48273FB614FF4E0633B624C
:101EA00000237B620023BB624FF40073FB620023BC
:101EB0003B6300237B630023BB630723FB6307F1C2
:101EC000180319460A480CF0DFFF00210848FEF706
:101ED000DBFE0748FEF7EBFE0548FEF7C5FE00BF38
:101EE0004037BD4680BD00BF000402400064024090
:101EF0000054014080B586B000AF3B1D00221A603F
:101F00005A609A60DA601A610120FFF773F8FEF7F1
:101F1000E5FB0346002200211846FEF735FC034688
:101F200019461920FEF706FC1920FEF7E5FB0023F1
:101F3000BB800023BB604FF6FF73FB6000233B6157
:101F400000237B613B1D19460C480DF091F80B48AE
:101F5000FEF7DDFE00210948FEF78CFF002107484F
:101F6000FEF79EFF00210548FEF7ADFF0348FEF790
:101F7000BDFF00BF1837BD4680BD00BF0000014057
:101F800080B586B000AF3B1D00221A605A609A608F
:101F9000DA601A610120FFF715F8FEF79FFB034690
:101FA000002202211846FEF7EFFB034619461C20CB
:101FB000FEF7C0FB1C20FEF79FFB0023BB80002325
:101FC000BB604FF0FF33FB6000233B613B1D1946B4
:101FD0004FF080400DF04CF84FF08040FEF787FE48
:101FE00000214FF08040FEF745FF00214FF0804078
:101FF000FEF756FF4FF08040FEF778FF00BF18371E
:10200000BD4680BD80B594B000AF07F13C0300220F
:102010001A605A609A60DA601A6107F11C03202284
:10202000002118460EF004FC3B1D00221A605A6085
:102030009A60DA601A615A610420FEF7C3FF0A232E
:10204000BB8700233B644CF250337B644FF4007336
:10205000BB6407F13C03194655480DF009F8544894
:10206000FEF755FE00215248FEF704FF01215048BB
:10207000FEF7B0FE6023FB6100233B6200237B621E
:102080000023BB620023FB6207F11C031A460121F7
:1020900047480DF087F801214548FEF749FE102119
:1020A0004348FEF797FE07F11C031A4610214048EB
:1020B0000DF078F810213E48FEF73AFE4FF480719B
:1020C0003B48FEF787FE07F11C031A464FF4807168
:1020D00037480DF067F84FF480713548FEF728FE59
:1020E0004FF480513248FEF775FE07F11C031A4683
:1020F0004FF480512E480DF055F84FF480512C4884
:10210000FEF716FE00212A48FEF7CAFE2848FEF711
:10211000EDFE0820FEF73EFF4FF480537B60022364
:10212000BB600023FB6000233B6100237B61022333
:10213000BB613B1D19461F480CF0B7F94FF4005323
:102140007B600223BB600023FB6000233B61002314
:102150007B610223BB613B1D194616480CF0A5F9B3
:102160004FF480437B600223BB600023FB600023AD
:102170003B6100237B610223BB613B1D19460D4877
:102180000CF093F94FF400437B600223BB60002303
:10219000FB6000233B6100237B610223BB613B1D8D
:1021A000194604480CF081F900BF5037BD4680BD88
:1021B00000080040000C024080B5B2B000AF07F14B
:1021C000AC0300221A605A609A60DA601A615A61A0
:1021D0009A6107F1940300221A605A609A60DA60EB
:1021E0001A615A613B1D9022002118460EF020FB17
:1021F0004FF480537B6000233B663B1D18460BF079
:102200007DFB0346002B01D000F00CFD4FF0804019
:10221000FEF7D8FE1020FEF7BDFE8023C7F89430ED
:102220000223C7F898300323C7F89C300023C7F86F
:10223000A0300123C7F8A4300823C7F8A83007F15D
:102240009403194628480CF030F94FF48073C7F80E
:1022500094300223C7F898300323C7F89C3000233A
:10226000C7F8A0300023C7F8A4300823C7F8A83067
:1022700007F1940319461C480CF017F9FEF72EFAE3
:10228000034600220B211846FEF77EFA0346194644
:102290005220FEF74FFA5220FEF72EFA4FF4E133A8
:1022A000C7F8AC300023C7F8B0300023C7F8B4300B
:1022B0000023C7F8B8300C23C7F8BC300023C7F898
:1022C000C0300023C7F8C43007F1AC0319460748F3
:1022D0000DF088FA0548FEF729FE0448FEF716FEC1
:1022E00000BFC837BD4680BD0010024000780040E6
:1022F00080B5B2B000AF07F1AC0300221A605A609B
:102300009A60DA601A615A619A6107F194030022B7
:102310001A605A609A60DA601A615A613B1D902215
:10232000002118460EF084FA40237B600023BB6432
:102330003B1D18460BF0E2FA0346002B01D000F0DB
:1023400071FC1020FEF756FE0120FEF723FE4FF42D
:102350000073C7F894300223C7F898300323C7F8F6
:102360009C300023C7F8A0300023C7F8A43007230F
:10237000C7F8A83007F19403194629480CF095F8DE
:102380004FF48063C7F894300223C7F898300323D2
:10239000C7F89C300023C7F8A0300123C7F8A43049
:1023A0000723C7F8A83007F1940319461C480CF01E
:1023B0007CF8FEF793F9034600220B211846FEF73E
:1023C000E3F9034619462520FEF7B4F92520FEF768
:1023D00093F94FF4E133C7F8AC300023C7F8B030BD
:1023E0000023C7F8B4300023C7F8B8300C23C7F86F
:1023F000BC300023C7F8C0300023C7F8C43007F151
:10240000AC03194607480DF0EDF90648FEF78EFDBE
:102410000448FEF77BFD00BFC837BD4680BD00BF46
:10242000000002400010014080B5B2B000AF07F1DB
:10243000AC0300221A605A609A60DA601A615A612D
:102440009A6107F1940300221A605A609A60DA6078
:102450001A615A613B1D9022002118460EF0E8F9DE
:102460004FF400637B600023FB653B1D18460BF0B7
:1024700045FA0346002B01D000F0D4FB2020FEF7E4
:10248000B9FD0420FEF786FD4023C7F894300223EF
:10249000C7F898300323C7F89C300023C7F8A03052
:1024A0000023C7F8A4300823C7F8A83007F1940325
:1024B000194628480BF0F9FF8023C7F8943002230F
:1024C000C7F898300323C7F89C300023C7F8A03022
:1024D0000023C7F8A4300823C7F8A83007F19403F5
:1024E00019461C480BF0E1FFFEF7F8F803460022FE
:1024F0000B211846FEF748F9034619464720FEF718
:1025000019F94720FEF7F8F84FF4E133C7F8AC307B
:102510000023C7F8B0300023C7F8B4300023C7F851
:10252000B8300C23C7F8BC300023C7F8C0300023F4
:10253000C7F8C43007F1AC03194607480DF052F94B
:102540000548FEF7F3FC0448FEF7E0FC00BFC8377F
:10255000BD4680BD000802400014014080B500AFB8
:102560004FF48000FEF716FD4FF40010FEF712FD49
:10257000FEF7B4F80346002200211846FEF704F9DE
:10258000034619460C20FEF7D5F80C20FEF7B4F8E8
:10259000FEF7A4F80346002200211846FEF7F4F8DF
:1025A000034619463920FEF7C5F83920FEF7A4F88E
:1025B000FEF794F8034600220A211846FEF7E4F8D5
:1025C000034619463A20FEF7B5F83A20FEF794F88C
:1025D000FEF784F80346002200211846FEF7D4F8DF
:1025E000034619463B20FEF7A5F83B20FEF784F88A
:1025F000FEF774F8034600220A211846FEF7C4F8D5
:10260000034619463C20FEF795F83C20FEF774F887
:10261000FEF764F80346002209211846FEF7B4F8D5
:10262000034619464420FEF785F84420FEF764F877
:10263000FEF754F80346002201211846FEF7A4F8DD
:10264000034619464520FEF775F84520FEF754F875
:1026500000BF80BD80B586B000AF3B4600221A6047
:102660005A609A60DA601A615A611020FEF792FC93
:102670000420FEF78FFC8020FEF78CFC0120FEF783
:1026800089FC0220FEF786FC0820FEF783FC04216B
:10269000C048FEF76FFC0821BE48FEF76BFC102116
:1026A000BC48FEF767FC2021BA48FEF763FC4021D6
:1026B000B848FEF75FFC4FF40051B748FEF75AFCEC
:1026C0004FF48041B448FEF755FC4FF40041B24846
:1026D000FEF750FC4FF40061B048FEF74BFC4FF49E
:1026E0008061AF48FEF746FC4FF40061AD48FEF74D
:1026F00041FC4FF40041AB48FEF73CFC0121A848E7
:10270000FEF738FC0221A648FEF734FC1021A4484D
:10271000FEF730FC2021A248FEF72CFC4021A04807
:10272000FEF728FC04219D48FEF716FC4FF480615B
:102730009848FEF711FC4FF400619648FEF70CFC38
:102740004FF400419348FEF707FC4FF48061934833
:10275000FEF702FC4FF480519048FEF7FDFB4FF46A
:1027600080718F48FEF7F8FB4FF400718C48FEF73C
:10277000F3FB4FF480718848FEF7EEFB0421884894
:10278000FEF7EAFB80218648FEF7E6FB4FF48071F6
:102790008248FEF7E1FB4FF400718048FEF7DCFB56
:1027A00001217C48FEF7D8FB02217A48FEF7D4FBD2
:1027B00004233B6001237B600023BB600023FB609C
:1027C00000233B613B46194672480BF06EFE08231E
:1027D0003B6001237B600023BB600023FB60002380
:1027E0003B613B4619466B480BF05FFE10233B6094
:1027F00001237B600023BB600023FB6000233B615F
:102800003B46194663480BF050FE20233B600123F2
:102810007B600023BB600023FB6000233B613B46E1
:1028200019465C480BF041FE40233B6001237B606E
:102830000023BB600023FB6000233B613B4619463D
:1028400054480BF032FE4FF400533B6001237B6091
:102850000023BB600023FB6000233B613B4619461D
:102860004D480BF022FE4FF480433B6001237B6018
:102870000023BB600023FB6000233B613B461946FD
:1028800045480BF012FE4FF400433B6001237B6090
:102890000023BB600023FB6000233B613B461946DD
:1028A0003D480BF002FE04233B6001237B600023C4
:1028B000BB600023FB6000233B613B461946374861
:1028C0000BF0F3FD4FF480633B6001237B6000233A
:1028D000BB600023FB6000233B613B4619462D484B
:1028E0000BF0E3FD4FF400633B6001237B600323A7
:1028F000BB600023FB6000233B613B461946254833
:102900000BF0D3FD4FF400433B6001237B600023B9
:10291000BB600023FB6000233B613B4619461D481A
:102920000BF0C3FD4FF480633B6001237B60002309
:10293000BB600023FB6001233B613B4619461748FF
:102940000BF0B3FD4FF400633B6001237B60002379
:10295000BB600023FB6002233B613B4619460F48E6
:102960000BF0A3FD4FF480533B6001237B600023F9
:10297000BB600023FB6000233B613B4619460748D0
:102980000BF093FD4FF480733B6001237B600323C6
:102990000AE000BF001002400008024000040240AC
:1029A000000C024000000240BB600023FB600023DB
:1029B0003B613B46194696480BF077FD4FF4007398
:1029C0003B6001237B600323BB600023FB6000238B
:1029D0003B613B4619468E480BF067FD4FF4806320
:1029E0003B6001237B600023BB600023FB6000236E
:1029F0003B613B46194686480BF057FD4FF4006398
:102A00003B6000237B6000233B613B4619468048C6
:102A10000BF04BFD4FF480733B6001237B60002380
:102A2000BB600023FB6001233B613B4619467948AC
:102A30000BF03BFD4FF400733B6000237B600023F1
:102A40003B613B46194673480BF02FFD4FF48073F2
:102A50003B6000237B6000233B613B4619466E4888
:102A60000BF023FD4FF400633B6001237B600023E8
:102A7000BB600023FB6000233B613B461946664870
:102A80000BF013FD4FF400433B6001237B600023F8
:102A9000BB600023FB6000233B613B4619465E4858
:102AA0000BF003FD01233B6001237B600023BB602F
:102AB0000023FB6000233B613B46194654480BF062
:102AC000F4FC02233B6001237B600023BB600023F6
:102AD000FB6000233B613B4619464D480BF0E5FC8B
:102AE00004233B6001237B600023BB600023FB6069
:102AF00000233B613B46194645480BF0D6FC0823B2
:102B00003B6000237B6000233B613B461946404805
:102B10000BF0CBFC10233B6001237B600023BB60E8
:102B20000023FB6000233B613B46194638480BF00D
:102B3000BCFC20233B6001237B600023BB6000239F
:102B4000FB6000233B613B46194631480BF0ADFC6E
:102B500040233B6001237B600023BB600023FB60BC
:102B600000233B613B46194629480BF09EFC80231D
:102B70003B6001237B600023BB600023FB600023DC
:102B80003B613B46194622480BF08FFC4FF48073A3
:102B90003B6001237B600023BB600023FB600023BC
:102BA0003B613B4619461D480BF07FFC4FF4007318
:102BB0003B6001237B600023BB600023FB6000239C
:102BC0003B613B46194615480BF06FFC01233B6007
:102BD00001237B600023BB600023FB6000233B617B
:102BE0003B4619460E480BF060FC02233B60012374
:102BF0007B600023BB600023FB6000233B613B46FE
:102C0000194607480BF051FC00BF1837BD4680BD80
:102C1000000C024000080240000002400004024094
:102C20000010024080B400AF72B600BF00BFFDE7E5
:102C300080B483B000AF0F4B1B6C0E4A43F080533F
:102C400013640C4B1B6C03F080537B607B68094B57
:102C50005B6C084A43F480435364064B5B6C03F49B
:102C600080433B603B6800BF0C37BD465DF8047B8A
:102C7000704700BF0038024080B485B000AF786074
:102C80007B681B680A4A93420BD10A4B1B6B094AAB
:102C900043F480531363074B1B6B03F48053FB60B7
:102CA000FB6800BF1437BD465DF8047B704700BF6A
:102CB000003002400038024080B400AF00BFFDE7A2
:102CC00080B400AF00BFFDE780B400AF00BFFDE7F8
:102CD00080B400AF00BFFDE780B400AF00BFFDE7E8
:102CE00080B400AF00BFBD465DF8047B704780B480
:102CF00000AF00BFBD465DF8047B704780B400AFF5
:102D000000BFBD465DF8047B704780B500AF04F09E
:102D1000CFFA04F01DFA09F027F909F07DFE00BF93
:102D200080BD80B500AF04F061FC00BF80BD80B500
:102D300000AF04F0C3FD00BF80BD80B400AF00BF92
:102D4000BD465DF8047B704780B500AF04F00AFA19
:102D500000BF80BD80B500AF04F01EFB00BF80BD8A
:102D600080B400AF01231846BD465DF8047B704770
:102D700080B582B000AF786039600DF0B9FD0346D0
:102D800016221A604FF0FF3318460837BD4680BD43
:102D900080B582B000AF78604FF0FF317868FFF700
:102DA000E7FF00BFFDE780B586B000AFF860B9600F
:102DB0007A6000237B610AE0AFF300800146BB68C4
:102DC0005A1CBA60CAB21A707B6901337B617A6996
:102DD0007B689A42F0DB7B6818461837BD4680BD99
:102DE00080B586B000AFF860B9607A6000237B617F
:102DF00009E0BB685A1CBA601B781846AFF3008024
:102E00007B6901337B617A697B689A42F1DB7B687D
:102E100018461837BD4680BD80B483B000AF7860D7
:102E20004FF0FF3318460C37BD465DF8047B704702
:102E300080B483B000AF786039603B684FF40052D3
:102E40005A60002318460C37BD465DF8047B704776
:102E500080B483B000AF7860012318460C37BD46BC
:102E60005DF8047B704780B485B000AFF860B9604E
:102E70007A60002318461437BD465DF8047B70471E
:102E800080B586B000AF7860144A154BD31A7B61C9
:102E90007B693B61134B1B68002B02D1114B124A1B
:102EA0001A60104B1A687B6813443A699A4207D239
:102EB0000DF01EFD03460C221A604FF0FF3309E0AF
:102EC000084B1B68FB60074B1A687B681344054A74
:102ED0001360FB6818461837BD4680BD0000082007
:102EE000000400000044002088E2022080B400AF0B
:102EF000064BD3F88830054A43F47003C2F8883093
:102F000000BFBD465DF8047B704700BF00ED00E0E8
:102F1000DFF834D0FFF7EAFF0C480D490D4A0023D3
:102F200002E0D458C4500433C4188C42F9D30A4A7E
:102F30000A4C002301E013600432A242FBD30DF0DF
:102F4000DDFCFEF76FF8704700000820000000204D
:102F5000AC43002048730108B043002088E20220FF
:102F6000FEE780B500AF01F095FA02F0FFF800F03F
:102F7000CDF801F08DFE03F0BBFE00BF80BD80B533
:102F800000AF042001F0B8FA022002F015F9052084
:102F900000F0DEF8062001F0C1FE0A2003F0E0FE9A
:102FA00000BF80BD80B500AF08F0BEFE00BF80BD91
:102FB00080B582B000AF78607B680449184608F09D
:102FC00045FF002318460837BD4680BD3C50010828
:102FD00080B582B000AF78607B680449184608F07D
:102FE00035FF002318460837BD4680BD5050010804
:102FF00080B582B000AF78607B680449184608F05D
:1030000025FF002318460837BD4680BD64500108DF
:1030100080B500AF074BDB69184608F08CFA054B0A
:10302000DB69184608F0B6FA034B4FF0FF321A621C
:1030300000BF80BD604400200078004080B582B0B1
:1030400000AF786039607B681833184608F068FF75
:1030500000BF0837BD4680BD80B584B000AF786042
:1030600039607B685B69FB607B685B69396878689D
:1030700098470346FB72FB7A002B08D1FB68064990
:10308000786898477B685B6904497868984700BF0F
:103090001037BD4680BD00BF9C5001088850010814
:1030A00080B584B002AF786039607B68002B03D1B3
:1030B0000021134803F08CFE78683B685A683B682F
:1030C0009B68009313460F4A0F4908F07BFE7B680C
:1030D00018337A681721184608F0E0FE3B681A6832
:1030E0007B685A617B68002283F828207B6818334C
:1030F000184608F015FF00BF0837BD4680BD00BF69
:1031000078500108593000083D30000880B586B07D
:1031100002AF12230093022324220949094808F030
:103120006CFA094A3B1D07CA83E807003B1D194694
:103130000648FFF7B5FF00BF1037BD4680BD00BF92
:10314000F444002018450020B02D0108B4440020AC
:1031500080B582B000AF0346FB71FB791946034886
:1031600008F04AFE00BF0837BD4680BDB4440020C9
:1031700080B582B000AF786039603B681B88012B56
:1031800002D0172B02D01BE001231AE07B6893F8D2
:103190002830002B09D10D4B1B68184603F0D1F9DC
:1031A0007B68012283F8282008E0084B1B6818463A
:1031B00003F056FA7B68002283F82820012300E000
:1031C000022318460837BD4680BD00BF040000201A
:1031D00080B500AF0C4B1B68184603F0B2F90346EC
:1031E000002B01D001230CE0084B1B88074A1288F2
:1031F0001946074808F074FE064B012283F8282080
:103200000023184680BD00BF0400002008000020F5
:10321000CC440020B444002080B500AF074808F03B
:103220007FFE074B1B68184603F01AFA054B002275
:1032300083F828200023184680BD00BFCC4400201E
:1032400004000020B444002080B483B000AF0346E3
:10325000FB80044AFB88138000BF0C37BD465DF835
:10326000047B70470800002080B400AFBFF34F8F8D
:1032700000BF064BDB6803F4E0620449044B1343D0
:10328000CB60BFF34F8F00BF00BFFDE700ED00E054
:103290000400FA0580B584B000AFF860B9607A60C8
:1032A00003F0CEFF00BF1037BD4680BD80B5ADF541
:1032B000826D00AF07F58263A3F20443186007F53F
:1032C0008263A3F58163196007F58263A3F20C435F
:1032D0001A6007F58263A3F5806318464FF4806394
:1032E0001A4600210DF0A4FA07F110031A464FF414
:1032F0008061002004F02EFB07F58263A3F20443F3
:103300000849186807F002FF07F58263A3F2044337
:103310000549186807F0FAFE00BF07F58267BD4649
:1033200080BD00BFBC2D0108CC2D010880B5ADF5D6
:10333000836D00AF07F58363A3F20C43186007F5B4
:103340008363A3F58263196007F58363A3F21443D3
:103350001A6007F114031A464FF48061002004F04C
:103360000BFB07F58363A3F20C431F49186807F0B2
:10337000CDFE0023C7F8143424E007F58363A3F2DD
:103380000442D7F8143413441B781A4607F58363B4
:10339000A3F20C431549186807F0B8FED7F81434A7
:1033A000013303F00F03002B07D107F58363A3F26A
:1033B0000C430F49186807F0A9FED7F814340133FD
:1033C000C7F81434D7F81434B3F5806FD5DB07F59C
:1033D0008363A3F20C430649186807F097FE00BF09
:1033E00007F58367BD4680BDD02D0108E82D010893
:1033F000F02D010880B588B000AFF860B9607A6040
:1034000007F11403074A0A2118460DF08BF807F15B
:1034100014031946F86806F002FC00BF2037BD46C9
:1034200080BD00BF8435010880B584B000AFF8606E
:10343000B9607A60FFF718FF80B588B000AFF86018
:10344000B9607A60B86806F0DBFC0346FB77FB7F67
:10345000012B04D01149F86807F058FE1BE0012148
:10346000B86806F097FCB861B8690CF081FA0346B9
:103470007B617B69012B04D90949F86807F046FE96
:1034800009E0084B1B687A69D2B283F868200649C4
:10349000F86807F03BFE2037BD4680BD8C3501083B
:1034A000AC3501080C000020C035010880B588B09B
:1034B00000AFF860B9607A600023BB610023FB8233
:1034C000B86806F09DFC03467B757B7D012B04D01C
:1034D0002E49F86807F01AFE54E00121B86806F09A
:1034E00059FC38613B691B78612B22D10023FB77A3
:1034F0001BE0FB7F184603F0E1FE0346FB82B7F9B1
:10350000163013F5004F06D1FB7F1A462049F868A4
:1035100007F0FCFD06E0FA7FB7F916301D49F868A0
:1035200007F0F4FDFB7F0133FB77FB7F072BE0D92E
:1035300028E03B691B782F2B20D93B691B78372B60
:103540001CD838690CF014FA0346BB61B86903F063
:10355000B5FE0346FB82B7F9163013F5004F05D1CF
:10356000BA690B49F86807F0D1FD0BE0B7F91630DE
:10357000BA690849F86807F0C9FD03E00649F86828
:1035800007F0C4FD2037BD4680BD00BF8C35010863
:10359000C8350108DC350108AC35010880B588B0B4
:1035A00000AFF860B9607A60B86806F029FC03469D
:1035B000FB61FB69012B04D01549F86807F0A6FDF3
:1035C00023E0144B1B68184603F08AF8034683F087
:1035D0000103DBB2002B04D00F49F86807F096FD19
:1035E00013E00121B86806F0D5FBB861B8690CF0AA
:1035F000BFF903467B61074B1B687969184602F0E7
:10360000B5FC0649F86807F081FD2037BD4680BD4E
:103610008C3501080C000020F0350108C035010888
:1036200080B584B000AFF860B9607A600A4B1B685F
:10363000184602F0B4FC0346002B04D00749F86892
:1036400007F064FD03E00649F86807F05FFD00BF7E
:103650001037BD4680BD00BF0C000020C0350108FA
:103660003C36010880B588B000AFF860B9607A6078
:10367000B86806F0C5FB0346BB61BB69012B04D0EB
:103680003849F86807F042FD69E0374B1B68184677
:1036900003F026F8034683F00103DBB2002B04D0CD
:1036A0003249F86807F032FD59E00121B86806F0A8
:1036B00071FB786100233B617B691B78612B25D10D
:1036C0000023FB611EE0284B1B68F969184602F0D5
:1036D000ACFC38613B69002B0CD1234B1B680022EA
:1036E000F969184603F090F8FA692149F86807F07B
:1036F0000DFD04E0FA691F49F86807F007FDFB6952
:103700000133FB61FB69032BDDD928E07B691B7862
:103710002F2B24D97B691B78332B20D878690CF0A8
:1037200027F90346FB61104B1B68F969184602F044
:103730007CFC38613B69002B0CD10B4B1B680022D1
:10374000F969184603F060F8FA690949F86807F062
:10375000DDFC04E0FA690749F86807F0D7FC203778
:10376000BD4680BD8C3501080C00002044360108A0
:103770008C360108A036010880B588B000AFF8602B
:10378000B9607A60B86806F03BFB0346FB61FB69F1
:10379000012B04D01549F86807F0B8FC22E001219C
:1037A000B86806F0F7FAB861B8690CF0E1F80346BA
:1037B000FB82FB8AB3F5FA7F04D3FB8A40F6B8326A
:1037C000934204D90A49F86807F0A0FC0AE0094BC3
:1037D0001B68FA8A1146184603F03AF80649F86859
:1037E00007F094FC2037BD4680BD00BFB836010805
:1037F000E03601080C000020C035010880B586B015
:1038000000AFF860B9607A60084B1B68184603F097
:103810003BF80346FB82FB8A1A460549F86807F025
:1038200075FC00BF1837BD4680BD00BF0C000020EE
:103830001437010880B588B000AFF860B9607A60CD
:10384000B86806F0DDFA0346BB61BB69042B04D0FF
:103850003149F86807F05AFC5BE0304B1B681846AA
:1038600002F024FF0346FB750023FB614AE0FB697D
:103870009BB201339BB21946B86806F08BFA034637
:1038800018460CF075F80346D9B207F11002FB692F
:1038900013440A461A7007F11002FB6913441B789F
:1038A000012B05D9FA691E49F86807F02FFC30E0B2
:1038B00007F11002FB6913441B78002B08D1174B4A
:1038C0001B68FA69D2B21146184602F02DFC16E0C8
:1038D000FB7DFA699A4205D1FA691249F86807F046
:1038E00015FC0CE00D4B1B68FA69D2B21146184664
:1038F00002F0F9FBFA690C49F86807F007FCFB696C
:103900000133FB61FB69032BB1D90849F86807F063
:10391000FDFB2037BD4680BD383701080C00002074
:103920005C37010884370108A8370108C035010851
:1039300080B586B000AFF860B9607A60134B1B6841
:10394000184602F014FC0346FB7400237B6115E06B
:10395000FA7C7B6942FA03F303F00103002B05D0E4
:103960007A690B49F86807F0D1FB04E07A690949E4
:10397000F86807F0CBFB7B6901337B617B69032B24
:10398000E6D900BF00BF1837BD4680BD0C0000203F
:10399000A8370108C037010880B58CB000AFF860C7
:1039A000B9607A60354B1B68184602F099FE0346F1
:1039B00083F00103DBB2002B04D03149F86807F033
:1039C000A5FB58E0B86806F01BFA0346FB62FB6AE9
:1039D000032B04D02B49F86807F098FB4BE001213A
:1039E000B86806F0D7F9B862B86A0BF0C1FF0346B1
:1039F0007B627B6A032B04D92349F86807F086FBB6
:103A000039E00221B86806F0C5F93862386A0BF06F
:103A1000AFFF0346FB61FB69012B04D91B49F86822
:103A200007F074FB27E00321B86806F0B3F9B8612A
:103A3000B8690BF09DFF0346FB82FB8A40F6B83263
:103A4000934204D91249F86807F060FB13E00B4B6E
:103A50001868FB8AFA69796A02F056FE38613B6998
:103A6000002B04D00B49F86807F050FB03E00A492B
:103A7000F86807F04BFB3037BD4680BD0C000020D6
:103A8000D8370108FC370108283801084C380108EC
:103A9000703801083C360108C035010880B58AB08D
:103AA00000AFF860B9607A602A4B1B68184602F0D4
:103AB00017FE034683F00103DBB2002B04D0264936
:103AC000F86807F023FB41E0B86806F099F903466F
:103AD0007B627B6A022B04D02049F86807F016FB52
:103AE00034E00121B86806F055F93862386A0BF005
:103AF0003FFF0346FB61FB69032B04D91849F868B3
:103B000007F004FB22E00221B86806F043F9B8612F
:103B1000B8690BF02DFF03467B610E4B18687B697B
:103B2000002B14BF01230023DBB21A46F96902F00F
:103B30006BFE38613B69002B04D00A49F86807F036
:103B4000E5FA03E00849F86807F0E0FA2837BD46CF
:103B500080BD00BF0C000020D83701089C38010848
:103B6000283801083C360108C035010880B58CB002
:103B700000AFF860B9607A60B86806F041F90346B2
:103B8000BB62BB6A032B04D04149F86807F0BEFA58
:103B90007AE00121B86806F0FDF87862786A0BF0E7
:103BA000E7FE03467B847B8C4EF66022934204D969
:103BB0003849F86807F0AAFA66E00221B86806F00A
:103BC000E9F8F861344B1B68184602F0D0FA034656
:103BD000FB76FB691B786F2B07D1042387F82F3006
:103BE0002E49F86807F092FA1EE0FB691B782F2B2C
:103BF0001AD9FB691B78332B16D8F8690BF0B8FE7D
:103C0000034687F82F30FA7E97F82F3042FA03F3F5
:103C100003F00103002B07D097F82F301A462049F4
:103C2000F86807F073FA2FE00321B86806F0B2F8DD
:103C3000786178690BF09CFE03463B613B69B3F504
:103C4000FA7F04D33B6940F6B832934204D9154950
:103C5000F86807F05BFA17E07B8C1846FFF7F4FA78
:103C60000D4B1B6897F82F201146184602F034FCC4
:103C7000094B1B683A6992B21146184602F045FC9E
:103C80000949F86807F042FA3037BD4680BD00BFE9
:103C9000BC380108F03801080C0000202039010868
:103CA00038390108E0360108C035010880B584B014
:103CB00000AFF860B9607A60FFF78AFA0349F868E4
:103CC00007F024FA00BF1037BD4680BDC03501089B
:103CD00080B584B000AFF860B9607A60FFF79CFAF5
:103CE0000349F86807F012FA00BF1037BD4680BDDF
:103CF000C035010880B586B000AFF860B9607A6061
:103D00000F4B1B68184602F0D1FC0346FB750C4BA9
:103D10001B68184602F0D7FC0346BB82FB7D042BD0
:103D200004D10849F86807F0F1F905E0FA7DBB8A8B
:103D30000549F86807F0EAF91837BD4680BD00BFAD
:103D40000C000020203901085C39010880B588B0DA
:103D500000AFF860B9607A60B86806F051F80346C1
:103D6000FB61FB69012B04D01249F86807F0CEF91A
:103D70001CE00121B86806F00DF8B861B8690BF0D5
:103D8000F7FD0346FB75FB7D642B04D90A49F868EF
:103D900007F0BCF90AE0094B1B68FA7D114618468A
:103DA00002F0F2F90649F86807F0B0F92037BD468D
:103DB00080BD00BF88390108AC3901080C00002023
:103DC000C035010880B586B000AFF860B9607A6090
:103DD000084B1B68184602F0EDF90346FB75FB7DA6
:103DE0001A460549F86807F091F900BF1837BD4633
:103DF00080BD00BF0C000020D039010880B588B01C
:103E000000AFF860B9607A60B86805F0F9FF034662
:103E1000BB61BB69042B04D02649F86807F076F92A
:103E200045E00023FB613BE0FB699BB201339BB2A1
:103E30001946B86805F0AEFF034618460BF098FD2A
:103E40000346D9B207F11402FB6913440A461A70FB
:103E500007F11402FB6913441B78012B05D9FA6999
:103E60001549F86807F052F921E007F11402FB69DF
:103E700013441B78002B08D1104B1B68FA69D2B28F
:103E80001146184602F0C4F907E00C4B1B68FA69AA
:103E9000D2B21146184602F09AF9FB690133FB6170
:103EA000FB69032BC0D90649F86807F02FF92037C2
:103EB000BD4680BDEC3901085C3701080C000020CC
:103EC000C035010880B586B000AFF860B9607A608F
:103ED000124B1B68184602F0BEF90346FB74002320
:103EE0007B6113E0FA7C7B6942FA03F303F0010380
:103EF000002B04D00A49F86807F008F903E00949E3
:103F0000F86807F003F97B6901337B617B69032B58
:103F1000E8D900BF00BF1837BD4680BD0C000020A7
:103F2000143A01082C3A010880B58AB000AFF86055
:103F3000B9607A60B86805F063FF03467B627B6A0C
:103F4000022B04D01E49F86807F0E0F834E00121A4
:103F5000B86805F01FFF3862386A0BF009FD0346A8
:103F6000FB83B7F91E30B3F57A7F04DD1549F86895
:103F700007F0CCF820E00221B86805F00BFFB8612B
:103F8000B8690BF0F5FC0346FB82B7F9163013F560
:103F90007A7F04DA0C49F86807F0B8F80CE00B4BAC
:103FA0001B68B7F91620B7F91E10184602F0B4F9CD
:103FB0000749F86807F0AAF82837BD4680BD00BF5A
:103FC000483A0108803A0108AC3A01080C00002088
:103FD000C035010880B586B000AFF860B9607A607E
:103FE0000C4B1B6807F114021146184602F0AAF99F
:103FF000B7F914301A460849F86807F087F8B7F996
:1040000016301A460549F86807F080F800BF1837DF
:10401000BD4680BD0C000020DC3A0108FC3A0108D6
:1040200080B588B000AFF860B9607A60B86805F014
:10403000E7FE0346FB61FB69012B04D00E49F868DB
:1040400007F064F815E00121B86805F0A3FEB86137
:10405000B8690BF08DFC0346FB82084B1B68B7F96F
:1040600016201146184602F003F90549F86807F0D2
:104070004DF82037BD4680BD1C3B01080C000020D8
:10408000C035010880B586B000AFF860B9607A60CD
:10409000084B1B68184602F0FBF80346FB82B7F991
:1040A00016301A460449F86807F030F800BF183790
:1040B000BD4680BD0C000020443B010880B58AB09D
:1040C00000AFF860B9607A60B86805F099FE034601
:1040D0007B627B6A022B04D01C49F86807F016F853
:1040E00030E00121B86805F055FE3862386A0BF0FF
:1040F0003FFC0346FB61FB69072B04D91449F868B0
:1041000007F004F81EE00221B86805F043FEB8612C
:10411000B8690BF02DFC03467B617B69072B04D942
:104120000C49F86806F0F2FF0CE00B4B1B68FA69CB
:10413000D1B27A69D2B2184602F0B7F80749F868E6
:1041400006F0E4FF2837BD4680BD00BF643B010890
:104150007C3B0108A03B01080C000020C035010891
:1041600080B586B000AFF860B9607A600023BB828A
:104170000B4B1B6807F114021146184602F0B6F803
:104180003B7D1A460749F86806F0C0FF7B7D1A465A
:104190000549F86806F0BAFF00BF1837BD4680BD74
:1041A0000C000020C43B0108D83B010880B588B052
:1041B00000AFF860B9607A60B86805F021FE034688
:1041C000FB61FB69012B04D01249F86806F09EFFE1
:1041D0001CE00121B86805F0DDFDB861B8690BF09D
:1041E000C7FB0346FB75FB7D012B04D90A49F86820
:1041F00006F08CFF0AE0094B1B68FA7D1146184651
:1042000002F04AF90649F86806F080FF2037BD46FB
:1042100080BD00BFEC3B0108043C01080C000020FD
:10422000C035010880B586B000AFF860B9607A602B
:104230000A4B1B68184602F043F90346FB75FB7DE9
:10424000002B01D0064B00E0064B1A460649F868E1
:1042500006F05CFF00BF1837BD4680BD0C00002093
:10426000303C0108343C0108383C010880B584B07A
:1042700000AFF860B9607A60064B1B68184601F021
:1042800051FE0549F86806F041FF00BF1037BD46F2
:1042900080BD00BF0C000020C035010880B584B08F
:1042A00000AFF860B9607A60064B1B68184601F0F1
:1042B00015FE0549F86806F029FF00BF1037BD4616
:1042C00080BD00BF0C000020C035010880B400AFE5
:1042D000024B1846BD465DF8047B7047B05001089C
:1042E00080B400AF23231846BD465DF8047B7047B9
:1042F00080B483B000AF78607B68DB6903F0200393
:10430000202B01D1012300E0002318460C37BD46C5
:104310005DF8047B704780B483B000AF78607B6841
:104320005B6ADBB218460C37BD465DF8047B70470C
:1043300080B500AF4FF480620849094807F082FA5F
:104340004FF480520749084807F07CFA064B044AAC
:104350000649074806F0F1FF00BF80BD0C4600206B
:10436000E44500200C4A0020F845002000140140DC
:10437000D4450020B0B588B000AF1B4B3C1D1D4696
:104380000FCD0FC495E8070084E80700FFF79EFFF4
:104390000346BB61FFF7A4FF0346BB833B1D1846E2
:1043A00005F0FBFA0346114A1360104B1B68002B03
:1043B00005D101210E4802F00BFD012310E00B4B4B
:1043C0001B680C4A1A60094B1C683B1D184605F017
:1043D000B3FA03461A460849204606F097FE002322
:1043E00018462037BD46B0BD34410108105A0020A0
:1043F000F8530108FD4300081441010880B582B05C
:1044000000AF78600B46FB70FB781946034807F055
:1044100017F800BF0837BD4680BD00BFD445002057
:1044200080B584B002AF786039607B68002B03D11F
:104430000021154802F0CCFC78683B68DA683B68DC
:104440001B6900931346114A114907F0BBFC7B68B6
:1044500020337A680621184607F020FD3B685A6829
:104460007B68DA613B689A687B689A613B681A6886
:104470007B685A617B682033184607F051FD00BF06
:104480000837BD4680BD00BFF853010899450008B4
:104490001945000880B588B002AFFFF749FF022335
:1044A00000931E233C220D490D4807F0A6F8FFF7A4
:1044B00061FF0C4B7B600C4B1B68BB600B4BFB60C4
:1044C0000B4B3B61064B7B613B1D19460948FFF7CF
:1044D000A7FF00BF1837BD4680BD00BF7C45002048
:1044E000B8450020E1450008105A0020D4450020BE
:1044F000784500203445002080B582B000AF0346E7
:10450000FB71FB791946034807F076FC00BF0837BA
:10451000BD4680BD3445002080B582B000AF7860D4
:1045200039607B68002B03D10721154802F050FC4D
:104530007B689B69184606F01CFF7B6820330A22C3
:104540000A21184607F0CCFC0E4B1B680E49184692
:1045500006F0DCFD0B4B1B680C49184606F0D6FD37
:10456000084B1B680A49184606F0D0FD054B1B682E
:104570000849184606F0CAFD00BF0837BD4680BD91
:10458000F8530108105A00205041010880410108E9
:10459000A0410108BC41010880B584B000AF78603B
:1045A00039607B685B69FB607B685B693968786848
:1045B00098470346FB72FB7A002B08D1FB6806493B
:1045C000786898477B685B6904497868984700BFBA
:1045D0001037BD4680BD00BF0454010800540108D7
:1045E00080B582B000AF786039607B68002B03D162
:1045F0000321244802F0ECFB3B68002B03D104218B
:10460000204802F0E5FB3B681B88013B072B34D8B0
:1046100001A252F823F000BF394600087B4600088B
:104620004B4600087B4600087B46000859460008B8
:1046300067460008714600087B6820330A220A2179
:10464000184607F04DFC012318E07B68203318461C
:1046500007F066FC012311E00B4B1B68184605F0C0
:104660004EFA01230AE07B68084A5A61002305E0FC
:104670007B68074A5A61002300E002231846083786
:10468000BD4680BDF8530108105A00202547000898
:104690003548000880B582B000AF0B48FFF728FE10
:1046A0000346002B0BD00848FFF735FE0346FB718D
:1046B000064B1B68FA791146184605F0FDF900BF54
:1046C0000837BD4680BD00BF00140140105A0020CD
:1046D00080B584B000AF78607B689B69184606F0AF
:1046E00059FFF860FB68002B08D0064B1B78002BA5
:1046F00004D07B680449184607F0A8FB00BF1037B8
:10470000BD4680BD0C5A00200854010880B500AF9A
:10471000FFF7C0FF0248FFF7DBFF00BF80BD00BF0F
:104720003445002080B584B000AF78603960002344
:10473000FB603B681B88012B27D0092B46D074E017
:10474000786800F00DFA1BE07B689A697B6893F843
:104750003D3019467B680B4493F8383019461046B3
:1047600006F06EFEF860FB68002B01D001235DE0CF
:104770007B6893F83D300133DAB27B6883F83D20E3
:104780007B6893F83D30042BDED97B685B6B002B94
:10479000D6D11BE07B689A697B6893F83D30194657
:1047A0007B680B4493F838301946104606F048FEF3
:1047B000F860FB68002B01D0012337E07B6893F899
:1047C0003D300133DAB27B6883F83D207B6893F893
:1047D0003D30042BDED924E0786800F0C1F91BE0FD
:1047E0007B689A697B6893F83D3019467B680B4477
:1047F00093F838301946104606F022FEF860FB6840
:10480000002B01D0012311E07B6893F83D30013388
:10481000DAB27B6883F83D207B6893F83D30042B47
:10482000DED97B685B6B002BD6D10223184610378C
:10483000BD4680BD80B586B000AF786039603B680A
:104840001B88013B0A2B00F2018101A252F823F0E0
:104850007D4800084D4A00084D4A00084D4A0008AE
:104860004D4A00084D4A00084D4A00084D4A0008CC
:104870008B49000827490008034A0008764B1B6C47
:104880005B00764A1A40764B13433B613B691B0C35
:10489000DBB23B733B691B0ADBB27B733B69DBB268
:1048A000BB730023FB750DE07B689A69FB7D1833B1
:1048B0003B4413F80C3C1946104606F0C1FDFB7D45
:1048C0000133FB75FB7D022BEED9664B1B68184646
:1048D000FEF76EFB0123BAE0786800F016F91DE0E0
:1048E0007B689A697B6893F8403019467B680B4473
:1048F00093F83E301946104606F0A2FD0346002B01
:1049000004D0594B01221A700123A0E07B6893F870
:1049100040300133DAB27B6883F840207B6893F83B
:104920004030012BDCD97B685B6B002BD4D14D4B25
:104930001B681846FEF75CFB012388E07B689A69D8
:104940007B6893F8403019467B680B4493F83E30FF
:104950001946104606F074FD0346002B01D00123D2
:1049600075E07B6893F840300133DAB27B6883F8F6
:1049700040207B685B6B002B07D13B4B00221A70F9
:10498000384B1B681846FEF733FB7B6893F84030C2
:10499000012BD3D92FE0786800F0B7F81AE07B68D4
:1049A0009A697B6893F8403019467B680B4493F80A
:1049B0003E301946104606F043FD0346002B01D059
:1049C000012344E07B6893F840300133DAB27B681E
:1049D00083F840207B6893F84030012BDFD97B6857
:1049E0005B6B002B07D1204B00221A701D4B1B68FC
:1049F0001846FEF7FDFA7B685B6B002BCBD10123D9
:104A000025E07B68B3F842301B0A9BB2DBB23B73F4
:104A10007B68B3F84230DBB27B730023BB750DE0DB
:104A20007B689A69BB7D18333B4413F80C3C1946EC
:104A3000104606F005FDBB7D0133BB75BB7D012B28
:104A4000EED97B68094A5A61002300E00223184628
:104A50001837BD4680BD00BF04440020FEFF3F0064
:104A60000000C0FF100000200C5A0020E1450008A3
:104A700080B485B000AF78600B467B807B881B0AD2
:104A80009BB2DBB23B737B88DBB27B730023FB738F
:104A900031E07B681B881AB2FB7B10333B4413F870
:104AA000043C1BB21B021BB253401BB29AB27B6880
:104AB0001A800023BB7318E07B681B881BB2002B95
:104AC0000ADA7B681B881BB25B001AB241F2210331
:104AD00053401BB29BB203E07B681B885B009BB218
:104AE0007A681380BB7B0133BB73BB7B072BE3D995
:104AF000FB7B0133FB73FB7B012BCAD900BF00BFDB
:104B00001437BD465DF8047B704780B584B000AFB4
:104B100078607B681B6B991C7A6811631B88FB812A
:104B20007B685B6B5A1E7B685A637B684233FA89E9
:104B300011461846FFF79CFFFB891B0A9BB2DAB2AD
:104B40007B6883F83E20FB89DAB27B6883F83F20DC
:104B50007B68002283F8402000BF1037BD4680BD2F
:104B6000B0B588B000AF78602B4B07F10C041D4640
:104B70000FCD0FC42B6823707B681B6B991C7A6860
:104B800011631B88FB837B685B6B5A1E7B685A63CF
:104B9000FB8B1B0B9BB203F00F0320333B4413F83A
:104BA000142C7B6883F83820FB8B1B0A9BB203F024
:104BB0000F0320333B4413F8142C7B6883F839200F
:104BC000FB8B1B099BB203F00F0320333B4413F80C
:104BD000142C7B6883F83A20FB8B03F00F032033FF
:104BE0003B4413F8142C7B6883F83B207B6820221D
:104BF00083F83C207B68002283F83D207B685B6B58
:104C0000002B04D1054B1B681846FEF7F1F900BFD5
:104C10002037BD46B0BD00BFE841010810000020AC
:104C200080B584B002AF7860396078683B685A68B4
:104C30003B689B6800931346134A144907F0C2F877
:104C40007B6814337A682621184607F027F97B68B9
:104C500024337A682721184607F020F93B681A6840
:104C60007B685A637B684FF47A729A637B68FF2291
:104C700083F83C207B681433184607F051F900BFD5
:104C80000837BD4680BD00BF3D4D0008D54C00082B
:104C900080B586B002AF02230093012302220949A6
:104CA000094806F0AAFC094A3B1D07CA83E8070029
:104CB0003B1D19460648FFF7B3FF00BF1037BD463E
:104CC00080BD00BF74DA002054DA0020FC410108E6
:104CD00014DA002080B582B000AF7860396006F049
:104CE000FDFE7B6803F114007B689B6B99B27B68C7
:104CF0009B6B9BB21A4607F0F3F802F0BDFD064825
:104D000006F037FB02F096FD02F0A6FD02F0C2FAB3
:104D100000BF0837BD4680BDCCDF012080B582B022
:104D200000AF0346FB71FB791946034807F064F8AE
:104D300000BF0837BD4680BD14DA002080B582B0C0
:104D400000AF786039603B681B88262B04D102F0E5
:104D50008AFD786800F008F8012318460837BD4638
:104D600080BD00000000000090B58DB000AF7860FD
:104D700007F11C0300221A605A609A60DA6007F19A
:104D80000C0300221A605A609A60DA602C4B93ED93
:104D9000007B9FED295B87EE056B07F11C03032168
:104DA0001846B0EE460B00F059F8264B93ED007B09
:104DB00007F10C0303211846B0EE470B00F04EF844
:104DC00007F10C0307F11C021F49204806F07EFB87
:104DD0001F491E4806F07AFB002387F82F301DE09C
:104DE0007B6893F83C301A4697F82F3042FA03F369
:104DF00003F00103002B0CD097F82F4097F82F30C9
:104E0000184602F05BFA0346224612490F4806F0A4
:104E10005DFB97F82F30013387F82F3097F82F304C
:104E2000072BDDD90C49094806F050FB00BF343789
:104E3000BD4690BDAFF30080000000000000594067
:104E400028E1022020E1022008420108CCDF0120F5
:104E5000244201082C4201083842010880B58CB078
:104E600000AF87ED040BF8600B46FB7297ED047BF7
:104E7000B5EEC07BF1EE10FA0AD5FB685A1CFA6059
:104E80002D221A7097ED047BB1EE477B87ED047BF2
:104E900097ED047BFCEEC77B17EE903A3B623B6AD2
:104EA00007EE903AB8EE677B97ED046B36EE477BE2
:104EB00087ED0A7B3A6A2549F8680BF069FB02E046
:104EC000FB680133FB60FB681B78002BF8D1FB7A91
:104ED000002B34D0FB685A1CFA602E221A70002373
:104EE00087F8273026E097ED0A7BB2EE046B27EEB9
:104EF000067B87ED0A7B97ED0A7BFCEEC77BC7ED4F
:104F0000017A3B79FB77FB685A1CFA60FA7F3032F2
:104F1000D2B21A70FB7F07EE903AB8EEE77B97EDBE
:104F20000A6B36EE477B87ED0A7B97F82730013313
:104F300087F8273097F82720FB7A9A42D3D3FB686B
:104F400000221A7000BF3037BD4680BD3C420108C8
:104F500080B582B000AF786039607B68002283F84A
:104F600068200121786801F001F8786801F029F8DB
:104F700001F0F0FC0346002B46D001F035FF424B18
:104F8000B3F91420414BA3F858203F4BB3F90E203E
:104F90003E4BA3F852203C4BB3F90C203B4BA3F8FB
:104FA0005020394B1A79394B83F84820364B5A79BF
:104FB000364B83F84920344B9B68344AD364324BD8
:104FC0001A7C324B83F854202F4BDA8A2F4BA3F8EC
:104FD0005A202D4B5A7C2D4B83F855202A4B9A7C16
:104FE0002A4B83F85620284B9B69284AD365264BC9
:104FF0001A7F264B83F86020234BDA8B234BA3F8D0
:10500000622001F015FF34E07B68FA22A3F85820F3
:105010007B680022A3F852207B684FF47A72A3F8D1
:1050200050207B68002283F848207B68012283F8A7
:1050300049207B680122DA647B68012283F85420CE
:105040007B68012283F855207B684FF41672A3F821
:105050005A207B68142283F856207B680122DA6587
:105060007B68042283F860207B684FF41672A3F8F3
:1050700062207B68203364226421184606F030FFEA
:1050800000BF0837BD4680BD0040024078DA0020EE
:1050900080B584B000AF786039607B685B69FB6085
:1050A0007B685B693968786898470346FB72FB7ACE
:1050B000002B08D1FB680649786898477B685B69D4
:1050C00004497868984700BF1037BD4680BD00BFCF
:1050D0002C5401081854010880B586B002AF7860DE
:1050E00039607B68002B03D100211D4801F070FE60
:1050F00078683B685A683B689B6800931346194A76
:10510000194906F05FFE7B6820337A68152118463E
:1051100006F0C4FE3B681A687B685A617B6800220F
:1051200083F844200023FB600EE03A68FB680233FA
:105130009B0013445A687968FB680C339B000B444E
:105140005A60FB680133FB60FB68032BEDD97B6879
:105150002033184606F0E4FE00BF1037BD4680BD80
:105160000C54010891500008514F0008B0B58AB0A6
:1051700002AF122300930A23B4220B490B4806F016
:105180003CFA0B4B3C1D1D460FCD0FC495E80700A4
:1051900084E807003B1D19460648FFF79DFF00BF46
:1051A0002037BD46B0BD00BF14DB0020E4DA00208C
:1051B0004042010878DA002080B582B000AF034693
:1051C000FB71FB791946034806F016FE00BF08374D
:1051D000BD4680BD78DA002080B582B000AF78602F
:1051E00039607B68DB6D002B0CD07B680E4A5A61FE
:1051F0000E4800F097FE0E4B1B680E49184605F04E
:1052000085FF0BE07B680C4A5A61084800F066FE97
:10521000074B1B680949184605F078FF012318461B
:105220000837BD4680BD00BF0D54000878DA002065
:10523000105A00205C4201084152000888420108CF
:1052400090B585B000AF786039603B681B88162B3D
:1052500028D0162B00F3C080012B02D0032B1AD0CC
:10526000BAE0082001F016FC5E4B1B685E4A194646
:10527000786800F0E1FD7B682033184606F050FEA8
:10528000786801F099F8786801F0E3F87B6801220A
:105290009A610123A1E04FF4FA71082001F0DCFBD0
:1052A00001239AE03B689B78042B40F093804D4BA0
:1052B0001C687B6893F84830184601F0FFFF0346EE
:1052C0004A4A2146786800F0B7FD464B1B68484AB9
:1052D0001946786800F0B0FD7B6893F83030002BF9
:1052E00009D10121786800F041FE786800F069FE7C
:1052F000786801F061F87B6893F8483018467B685D
:1053000093F8493019467B68B3F950207B68B3F9AC
:10531000523002F003F80346002B19D0314B1C68C1
:105320007B6893F84830184601F0C8FF03462F4ABF
:105330002146786800F080FD2A4B1B682D4A1946EB
:10534000786800F079FD7B682B4A5A61002344E0BD
:105350007B6893F84830184601F0B0FF0346FB81A4
:105360007B68B3F95830B7F90E209A4218DD1D4B0F
:105370001C687B6893F84830184601F09FFF03468D
:105380001A4A2146786800F057FD164B1B681B4AE5
:105390001946786800F050FD7B68194A5A6117E099
:1053A000104B1C687B6893F84830184601F086FF64
:1053B00003460E4A2146786800F03EFD094B1B6803
:1053C000104A1946786800F037FD7B680E4A5A612A
:1053D000002302E0022300E0022318461437BD46F2
:1053E00090BD00BF105A0020B4420108C442010819
:1053F000D44201080C430108695C000830430108ED
:105400000D54000850430108FD55000890B585B0C3
:1054100000AF786039603B681B88013B152B00F2B8
:10542000D48001A252F823F081540008CB55000823
:10543000B9540008CB550008CB550008CB550008DF
:10544000CB550008CB550008CB550008CB550008BC
:10545000CB550008CB550008CB550008CB550008AC
:10546000CB550008CB550008CB550008CB5500089C
:10547000CB550008CB550008C75400087D550008DF
:10548000062006F031FB534B1B68534A19467868D7
:1054900000F0D2FC7B680022DA61786800F0E5FD5C
:1054A000786800F065FF7B68203364226421184629
:1054B00006F016FD012389E07B682033184606F0CC
:1054C0002FFD012382E0082001F0FEFA7B6893F8AB
:1054D000483018467B6893F8493019467B68B3F921
:1054E00050207B68B3F9523001F018FF0346002BBF
:1054F00019D0384B1C687B6893F84830184601F087
:10550000DDFE0346354A2146786800F095FC314BB4
:105510001B68334A1946786800F08EFC7B68314A74
:105520005A61002352E07B6893F84830184601F036
:10553000C5FE0346FB817B68B3F95830B7F90E20EE
:105540009A4201DD012341E0224B1C687B6893F8FD
:105550004830184601F0B2FE0346204A21467868DA
:1055600000F06AFC1B4B1B681F4A1946786800F064
:1055700063FC7B681D4A5A61002327E03B689B78E7
:10558000052B20D1134B1C687B6893F848301846D4
:1055900001F094FE0346114A2146786800F04CFC65
:1055A0000C4B1B68124A1946786800F045FC094B01
:1055B0001B68104A1946786800F03EFC7B680E4A6A
:1055C0005A61002302E0022300E002231846143748
:1055D000BD4690BD105A002074430108C442010822
:1055E00084430108695C0008A8430108FD550008D0
:1055F000CC430108044401084152000890B585B02D
:1056000000AF786039603B681B88013B152B00F2C6
:10561000FB8001A252F823F07156000809580008D7
:10562000A35600080958000809580008095800083E
:1056300009580008095800080958000809580008C6
:1056400009580008095800080958000809580008B6
:1056500009580008095800080958000809580008A6
:105660000958000809580008B1560008BB5700083F
:10567000684B1B68684A1946786800F0DDFB7B6858
:105680000022DA61786800F097FE786800F0E1FEA9
:105690007B68203364226421184606F021FC012334
:1056A000B3E07B682033184606F03AFC0123ACE0F7
:1056B000082001F009FA7B6893F8483018467B68A7
:1056C00093F8493019467B68B3F950207B68B3F9E9
:1056D000523001F023FE0346002B19D04D4B1C68BD
:1056E0007B6893F84830184601F0E8FD03464B4AC2
:1056F0002146786800F0A0FB464B1B68484A1946D3
:10570000786800F099FB7B68464A5A6100237CE088
:105710007B6893F84830184601F0D0FD0346FB81C2
:105720007B68B3F95830B7F90E209A4219DD394B2E
:105730001C687B6893F84830184601F0BFFD0346AB
:10574000364A2146786800F077FB324B1B68364AB0
:105750001946786800F070FB7B68344A5A61002370
:1057600053E07B68DB695A1C7B68DA617B68DB6924
:105770001D2B08D87B68B3F958301A46B7F90E309C
:10578000D31A0A2B19DD234B1C687B6893F8483029
:10579000184601F093FD0346204A2146786800F040
:1057A0004BFB1C4B1B68224A1946786800F044FBEF
:1057B0007B68204A5A61002327E03B689B78052BD1
:1057C00020D1144B1C687B6893F84830184601F0D0
:1057D00075FD0346114A2146786800F02DFB0D4BFC
:1057E0001B68154A1946786800F026FB094B1B68B0
:1057F000124A1946786800F01FFB7B68104A5A610C
:10580000002302E0022300E0022318461437BD46BD
:1058100090BD00BF105A002024440108C442010872
:1058200038440108695C0008604401080D54000810
:105830008444010845580008A8440108E4440108CC
:105840004152000890B585B000AF786039603B6880
:105850001B88013B152B00F2D48001A252F823F0E3
:10586000B9580008035A0008F1580008035A000804
:10587000035A0008035A0008035A0008035A000894
:10588000035A0008035A0008035A0008035A000884
:10589000035A0008035A0008035A0008035A000874
:1058A000035A0008035A0008035A0008035A000864
:1058B000FF580008B5590008072006F015F9534BAA
:1058C0001B68534A1946786800F0B6FA7B680022D4
:1058D000DA61786800F070FD786800F091FD7B680F
:1058E000203364226421184606F0FAFA012389E085
:1058F0007B682033184606F013FB012382E0082062
:1059000001F0E2F87B6893F8483018467B6893F81A
:10591000493019467B68B3F950207B68B3F952309F
:1059200001F0FCFC0346002B19D0384B1C687B6847
:1059300093F84830184601F0C1FC0346354A214629
:10594000786800F079FA314B1B68334A1946786859
:1059500000F072FA7B68314A5A61002352E07B689A
:1059600093F84830184601F0A9FC0346FB817B6898
:10597000B3F95830B7F90E209A4201DA012341E019
:10598000224B1C687B6893F84830184601F096FC5F
:105990000346204A2146786800F04EFA1B4B1B68EC
:1059A0001F4A1946786800F047FA7B681D4A5A6119
:1059B000002327E03B689B78052B20D1134B1C6804
:1059C0007B6893F84830184601F078FC0346114A8A
:1059D0002146786800F030FA0C4B1B68124A1946D1
:1059E000786800F029FA094B1B68104A1946786854
:1059F00000F022FA7B680E4A5A61002302E002237B
:105A000000E0022318461437BD4690BD105A00200E
:105A100008450108C442010818450108695C0008EE
:105A20003C450108355A00086045010898450108C1
:105A30004152000890B585B000AF786039603B688E
:105A40001B88013B152B00F2F18001A252F823F0D4
:105A5000A95A00082D5C0008D55A00082D5C0008E2
:105A60002D5C00082D5C00082D5C00082D5C0008F2
:105A70002D5C00082D5C00082D5C00082D5C0008E2
:105A80002D5C00082D5C00082D5C00082D5C0008D2
:105A90002D5C00082D5C00082D5C00082D5C0008C2
:105AA000E35A0008DF5B0008634B1B68634A194632
:105AB000786800F0C1F9786800F07EFC786800F042
:105AC000C8FC7B68203364226421184606F008FA7B
:105AD0000123ACE07B682033184606F021FA01234D
