:020000040800F2
:1000000000000820152F0008B92C0008C12C00089A
:10001000C92C0008D12C0008D92C000800000000D1
:10002000000000000000000000000000E12C0008BB
:10003000EF2C000800000000FD2C00080B2D00082C
:10004000652F0008652F0008652F0008652F000840
:10005000652F0008652F0008652F0008652F000830
:10006000652F0008652F0008652F0008652F000820
:10007000272D0008652F0008652F0008652F000850
:10008000652F0008652F0008652F0008652F000800
:10009000652F0008652F0008652F0008652F0008F0
:1000A000652F000891760008652F0008652F00086D
:1000B000DD760008652F0008652F0008652F000811
:1000C000652F0008652F0008652F0008652F0008C0
:1000D000652F0008332D0008652F0008652F0008E4
:1000E000652F0008652F0008652F0008652F0008A0
:1000F000652F0008652F0008652F0008652F000890
:10010000652F0008652F0008652F0008652F00087F
:10011000652F0008652F0008652F0008652F00086F
:10012000652F00083F2D00084D2D0008F5790008C7
:10013000592D0008652F0008652F0008652F00085D
:10014000652F0008652F0008652F0008652F00083F
:10015000652F0008E5780008652F0008F14E0008BB
:10016000652F0008652F0008652F0008652F00081F
:10017000652F0008652F0008652F000800000000AB
:10018000652F0008652F000845330008652F00081B
:10019000652F0008652F0008652F0008652F0008EF
:1001A0000000000000000000652F0008652F000817
:1001B000652F0008652F0008652F0008652F0008CF
:1001C000652F0008652F000800000000652F00085B
:1001D000652F0008652F0008652F0008652F0008AF
:1001E000652F0008652F0008652F0008652F00089F
:0801F00000000000652F00086B
:1002000010B5054C237833B9044B13B10448AFF350
:1002100000800123237010BD104300200000000067
:100220002416010808B5034B1BB103490348AFF37B
:10023000008008BD000000001443002024160108BF
:1002400010F8012B11F8013B012A28BF9A42F7D080
:10025000D01A7047000000000000000000000000FD
:1002600001F0FF01102A2BDB10F0070F08D010F867
:10027000013B013A8B422DD010F0070F42B3F6D16B
:10028000F0B441EA012141EA014122F007047FF084
:1002900000070023F0E80256083C85EA010586EADB
:1002A000010685FA47F5A3FA87F586FA47F6A5FA17
:1002B00087F68EB9EED1F0BC01F0FF0102F0070223
:1002C00032B110F8013B013A83EA010313B1F8D1CE
:1002D0000020704701387047002D06BF35460338AF
:1002E000073815F0010F07D1013015F4807F02BFE8
:1002F000013015F4C03F0130F0BC0138704700BF39
:10030000034613F8012B002AFBD1181A0138704755
:100310007BB972B90029BEBF00204FF0004106E052
:1003200008BF00281CBF6FF000414FF0FF3000F005
:10033000D3B9ADF1080C6DE904CE002909DB002B1F
:100340001ADB00F04DF8DDF804E0DDE9022304B02B
:100350007047404261EB4101002B1BDB00F040F88D
:10036000DDF804E0DDE9022304B0404261EB410125
:10037000524263EB43037047524263EB430300F086
:100380002FF8DDF804E0DDE9022304B0404261EB20
:1003900041017047524263EB430300F021F8DDF85E
:1003A00004E0DDE9022304B0524263EB43037047EB
:1003B00053B94AB9002908BF00281CBF4FF0FF31CC
:1003C0004FF0FF3000F088B9ADF1080C6DE904CEB4
:1003D00000F006F8DDF804E0DDE9022304B0704720
:1003E0002DE9F047089D8E4604468846002B4AD1E9
:1003F0008A42174662D9B2FA82F64EB1C6F120039C
:1004000001FA06F820FA03F3B74043EA0808B440BB
:100410004FEA174E1FFA87FCB8FBFEF1230C0EFBC8
:10042000118843EA084301FB0CF29A4209D9FB18F0
:1004300001F1FF3080F0EA809A4240F2E780023911
:100440003B449A1AA3B2B2FBFEF00EFB102243EA21
:10045000024300FB0CFC9C4509D9FB1800F1FF325C
:1004600080F0D6809C4540F2D3803B44023840EA7D
:100470000140A3EB0C0300211DB1F3400022C5E9AC
:100480000032BDE8F0878B4205D90DB1C5E9000106
:1004900000210846F5E7B3FA83F1002946D17345F8
:1004A00002D3824200F20581841A6EEB030201201E
:1004B0009046002DE5D0C5E90048E2E7002A00F0AB
:1004C0009080B2FA82F6002E40F0A4808A1A030CC3
:1004D0004FEA174E80B2BCB20121B2FBFEFC0EFB0C
:1004E0001C2243EA024304FB0CF29A4207D9FB1890
:1004F0000CF1FF3802D29A4200F2E080C4469B1A07
:10050000B3FBFEF20EFB123340EA034302FB04F49A
:100510009C4207D9FB1802F1FF3002D29C4200F244
:10052000CA8002461B1B42EA0C40A5E7C1F1200627
:100530008B4022FA06F71F430EFA01F420FA06F365
:100540002EFA06FE4FEA1749234300FA01F81FFA74
:1005500087FCBEFBF9F01C0C09FB10EE44EA0E44CC
:1005600000FB0CFEA64502FA01F209D93C1900F184
:10057000FF3A80F09C80A64540F2998002383C44C6
:10058000A4EB0E041FFA83FEB4FBF9F309FB13443A
:100590004EEA044403FB0CFCA44508D93C1903F1C2
:1005A000FF3E80F08280A4457FD9023B3C4443EA71
:1005B0000040A4EB0C04A0FB02EC64457346E1464A
:1005C00062D35FD05DB1B8EB030264EB090404FAB7
:1005D00006F622FA01F31E43CC40C5E9006400216F
:1005E0004FE7B1FBF2FC010C41EA0E4180B240EA58
:1005F00001423B4638463C46B846BE462026B1FB43
:10060000F7F1A2EB080241EA0C4166E7014618E760
:1006100010462CE7C6F120022EFA02F3B740B14093
:1006200020FA02F24FEA174E0A43B3FBFEF8BCB2BF
:100630000EFB1833110C41EA034108FB04F9B040EA
:1006400089454FEA104380B23ED9791808F1FF3C42
:1006500001D289451FD8A1EB0901B1FBFEF909FBC5
:1006600004F80EFB191192B242EA0142424529D226
:10067000BA1809F1FF31C4D24245C2D2A9F1020130
:100680003A44BEE7F0459DD2BEEB02036CEB070C8B
:100690000138E14696E7A7EB09094944A8F1020CA5
:1006A000B1FBFEF909FB04F8DBE773467FE7504630
:1006B00066E70846FDE63B44023A33E7ACF1020C3C
:1006C0003B441CE749469CE7A1EB0901C446B1FB4A
:1006D000FEF909FB04F8C4E7704700BF80B400AF1F
:1006E000044BDB681B0A03F007031846BD465DF8A0
:1006F000047B704700ED00E080B483B000AF034698
:10070000FB7197F90730002B0BDBFB7903F01F021D
:10071000074997F907305B09012000FA02F241F816
:10072000232000BF0C37BD465DF8047B704700BF37
:1007300000E100E080B483B000AF03463960FB7194
:1007400097F90730002B0ADB3B68DAB20C4997F9BE
:1007500007301201D2B20B4483F800230AE03B6851
:10076000DAB20849FB7903F00F03043B1201D2B25D
:100770000B441A7600BF0C37BD465DF8047B70470A
:1007800000E100E000ED00E080B489B000AFF86067
:10079000B9607A60FB6803F00703FB61FB69C3F192
:1007A0000703042B28BF0423BB61FB690433062B1A
:1007B00002D9FB69033B00E000237B614FF0FF326D
:1007C000BB6902FA03F3DA43BB681A407B699A40BB
:1007D0004FF0FF317B6901FA03F3D9437B680B408B
:1007E000134318462437BD465DF8047B704780B438
:1007F00089B000AFF860B9607A60FB682C331946A5
:10080000BB6803F440734FF44072BA61BA6992FA5C
:10081000A2F27A617A69B2FA82F2D2B2D3409B0034
:100820000B44FB61FB691A68BB6803F01F031F21BF
:1008300001FA03F3DB431A407B6803F01F01BB6836
:1008400003F01F0301FA03F31A43FB691A6000BFA8
:100850002437BD465DF8047B704780B483B000AF99
:10086000786039607B689B6823F480623B681A4338
:100870007B689A6000BF0C37BD465DF8047B70470B
:1008800080B48DB000AFF860B9607A60FB680C335B
:100890001946BB6803F000734FF00072BA61BA6981
:1008A00092FAA2F27A617A69B2FA82F2D2B2D340B3
:1008B0009B000B44FB62FB6A1A68BB6803F0F87389
:1008C0004FF0F8713962396A91FAA1F1F961F96969
:1008D000B1FA81F1C9B2CB40072101FA03F3DB433E
:1008E0001A40BB6803F0F8734FF0F871B962B96A47
:1008F00091FAA1F17962796AB1FA81F1C9B2CB407A
:10090000796801FA03F31A43FB6A1A6000BF3437AF
:10091000BD465DF8047B704780B485B000AFF860D9
:10092000B9607A600D4ABB6813441B781A46FB68AD
:1009300013441B6823F0C0020849BB680B441B78B2
:100940001946FB680B4419467B6813430B6000BFD4
:100950001437BD465DF8047B704700BFB835010809
:1009600080B485B000AFF860B9607A600D4ABB68AA
:1009700013441B781A46FB6813441B6823F49072D7
:100980000849BB680B441B781946FB680B441946A1
:100990007B6813430B6000BF1437BD465DF8047BD2
:1009A000704700BFB835010880B485B000AFF8606B
:1009B000B9607A600D4ABB6813441B781A46FB681D
:1009C00013441B6823F400720849BB680B441B786E
:1009D0001946FB680B4419467B6813430B6000BF44
:1009E0001437BD465DF8047B704700BFB835010879
:1009F00080B485B000AFF860B9607A600D4ABB681A
:100A000013441B781A46FB6813441B6823F4806266
:100A10000849BB680B441B781946FB680B44194610
:100A20007B6813430B6000BF1437BD465DF8047B41
:100A3000704700BFB835010880B485B000AFF860DA
:100A4000B9607A600D4ABB6813441B781A46FB688C
:100A500013441B6823F4C0520849BB680B441B783D
:100A60001946FB680B4419467B6813430B6000BFB3
:100A70001437BD465DF8047B704700BFB8350108E8
:100A800080B485B000AFF860B9607A600D4ABB6889
:100A900013441B781A46FB6813441B6823F4C042B6
:100AA0000849BB680B441B781946FB680B44194680
:100AB0007B6813430B6000BF1437BD465DF8047BB1
:100AC000704700BFB835010880B485B000AFF8604A
:100AD000B9607A600D4ABB6813441B781A46FB68FC
:100AE00013441B6823F440320849BB680B441B784D
:100AF0001946FB680B4419467B6813430B6000BF23
:100B00001437BD465DF8047B704700BFB835010857
:100B100080B485B000AFF860B9607A600D4ABB68F8
:100B200013441B781A46FB6813441B6823F0F052E9
:100B30000849BB680B441B781946FB680B441946EF
:100B40007B6813430B6000BF1437BD465DF8047B20
:100B5000704700BFB835010880B483B000AF78603B
:100B600039600C4A3B6813441B781A467B6813446F
:100B70005B6908493A680A44127811467A680A445F
:100B800023F00403536100BF0C37BD465DF8047BBE
:100B9000704700BFB835010880B483B000AF7860FB
:100BA0007B681B6843F001027B681A6000BF0C374A
:100BB000BD465DF8047B704780B483B000AF7860B9
:100BC0007B681B6823F400327B681A6000BF0C3717
:100BD000BD465DF8047B704780B483B000AF786099
:100BE0007B681B6823F400227B681A6000BF0C3707
:100BF000BD465DF8047B704780B485B000AFF860F7
:100C0000B9607A60FB68DA68064B1340B9687A68A5
:100C10000A431A43FB68DA6000BF1437BD465DF82B
:100C2000047B704701F8FFFF80B483B000AF7860A9
:100C30007B68DB6823F400427B68DA6000BF0C3716
:100C4000BD465DF8047B704780B483B000AF786028
:100C50007B685B6843F000727B685A6000BF0C37AA
:100C6000BD465DF8047B704780B483B000AF786008
:100C70007B681B6843F040027B681A6000BF0C373A
:100C8000BD465DF8047B704780B483B000AF7860E8
:100C900039607B685B6823F010023B681A437B680D
:100CA0005A6000BF0C37BD465DF8047B704780B4C6
:100CB00083B000AF78607B685B6843F008027B68B4
:100CC0005A6000BF0C37BD465DF8047B704780B4A6
:100CD00083B000AF78607B685B6823F008027B68B4
:100CE0005A6000BF0C37BD465DF8047B704780B486
:100CF00083B000AF78607B681B6843F080027B683C
:100D00001A6000BF0C37BD465DF8047B704780B4A5
:100D100083B000AF78607B681B6823F080027B683B
:100D20001A6000BF0C37BD465DF8047B70470000B9
:100D300080B485B000AF786039603B68012B28D063
:100D40003B68042B23D03B68102B1ED03B68402B04
:100D500019D03B68B3F5807F13D03B68B3F5806F43
:100D60000DD03B68B3F5805F07D03B68B3F5803F9B
:100D700001D107230EE008230CE006230AE0052337
:100D800008E0042306E0032304E0022302E0012339
:100D900000E00023FB737B6818331946FB7B0B4A8A
:100DA000D35C0B44BB60BB681A68FB7B0849CB5C17
:100DB000194604238B40DB431A40BB681A6000BF0E
:100DC0001437BD465DF8047B704700BFC03501088D
:100DD000CC35010880B485B000AF786039603B68DD
:100DE000012B28D03B68042B23D03B68102B1ED04E
:100DF0003B68402B19D03B68B3F5807F13D03B682C
:100E0000B3F5806F0DD03B68B3F5805F07D03B68CA
:100E1000B3F5803F01D107230EE008230CE0062341
:100E20000AE0052308E0042306E0032304E002238C
:100E300002E0012300E00023FB737B6818331946AE
:100E4000FB7B0A4AD35C0B44BB60BB681A68FB7B24
:100E50000749CB5C194608238B401A43BB681A60CC
:100E600000BF1437BD465DF8047B7047C0350108EC
:100E7000CC35010880B483B000AF786039607B68FE
:100E80009A68064B13403A681A437B689A6000BF21
:100E90000C37BD465DF8047B704700BFF8BFFEFF0E
:100EA00080B483B000AF786039607B685B6823F002
:100EB00070023B681A437B685A6000BF0C37BD461E
:100EC0005DF8047B704780B483B000AF7860396010
:100ED0007B685B6823F470023B681A437B685A6046
:100EE00000BF0C37BD465DF8047B704780B483B00B
:100EF00000AF78607B689B6823F080027B689A6013
:100F000000BF0C37BD465DF8047B704780B483B0EA
:100F100000AF78607B681B6843F001027B681A6051
:100F200000BF0C37BD465DF8047B704780B483B0CA
:100F300000AF78607B685B6823F490427B685A60FE
:100F40007B689B6823F02A027B689A6000BF0C379D
:100F5000BD465DF8047B704780B483B000AF786015
:100F600039607B683A689A6100BF0C37BD465DF80E
:100F7000047B704780B483B000AF786039603B6811
:100F80001A047B689A6100BF0C37BD465DF8047B8C
:100F90007047000080B485B000AF7860084B1A6BD2
:100FA00007497B6813430B63054B1A6B7B6813403F
:100FB000FB60FB6800BF1437BD465DF8047B7047DB
:100FC0000038024080B485B000AF7860084B1A6CDE
:100FD00007497B6813430B64054B1A6C7B6813400D
:100FE000FB60FB6800BF1437BD465DF8047B7047AB
:100FF0000038024080B485B000AF7860084B5A6C6E
:1010000007497B6813434B64054B5A6C7B6813405C
:10101000FB60FB6800BF1437BD465DF8047B70477A
:101020000038024080B500AF0AF0F8FB00F02EF85F
:1010300001F010FB01F092FA00F054FB00F00AFC02
:1010400000F0CEFC00F07EFD00F090F800F0F8FD1E
:1010500000F0D8FF01F0B0F800F070FE01F048F9A0
:1010600001F0E2F900F0D6F900F084FA00F042FF56
:1010700000F086FF00F014FB00F0CEFB01F073FFE0
:1010800001F07BFF01F086FF00BFFDE780B594B063
:1010900000AF07F11C033422002118460EF008FBB4
:1010A00007F1080300221A605A609A60DA601A6138
:1010B0002C4B1B6C2B4A43F080531364294B1B6C45
:1010C00003F080537B607B68274B1B68264A43F400
:1010D00040431360244B1B6803F440433B603B6870
:1010E0000923FB614FF480333B6201233B630223FE
:1010F0007B634FF48003BB630C23FB63C0233B641F
:1011000002237B640223BB640223FB6407F11C03FC
:1011100018460AF0D3FE0346002B01D001F082FDF1
:101120000AF07CFE0346002B01D001F07BFD0F236B
:10113000BB600223FB6000233B614FF4A0537B6143
:101140004FF48053BB6107F10803062118460BF0EA
:1011500063F90346002B01D001F064FD00BF503756
:10116000BD4680BD003802400070004080B592B09E
:1011700000AF07F13C0300221A605A609A6007F141
:10118000280300221A605A609A60DA601A6107F137
:10119000180300221A605A609A60DA603B46002207
:1011A0001A605A609A60DA601A615A614FF480706E
:1011B000FFF720FF0420FFF7EDFE0220FFF7EAFE15
:1011C00001233B6003237B6000233B613B461946C0
:1011D00084480CF0AAF802233B6003237B600023C1
:1011E0003B613B4619467F480CF09FF804233B6067
:1011F00003237B6000233B613B46194679480CF092
:1012000094F808233B6003237B6000233B613B464B
:10121000194674480CF089F810233B6003237B6067
:1012200000233B613B4619466E480CF07EF82023B4
:101230003B6003237B6000233B613B4619466948C2
:101240000CF073F801233B6003237B6000233B61B8
:101250003B46194664480CF068F802233B600323C0
:101260007B6000233B613B4619465F480CF05DF80C
:10127000002204215D48FFF74BFC002204215B485B
:10128000FFF74AFB002204215848FFF71DFC4FF4EA
:10129000807204215548FFF763FB00220421534864
:1012A000FFF782FB4FF4806204215048FFF7A0FB58
:1012B0004FF4006204214D48FFF7BEFB4FF400528B
:1012C00004214A48FFF7DCFB04214848FFF744FCAF
:1012D0000023FB6300233B644FF480737B6407F1BE
:1012E0003C03194642480BF0A7FE0023BB624FF4B3
:1012F000E003FB6200233B6300237B634FF44073F6
:10130000BB6307F12803194639480BF0C1FE0021E1
:101310003748FFF7A2FA4FF48033BB610023FB612B
:1013200007F11803194633480BF03EFE0A224FF42A
:1013300000712F48FFF75BFA01220A212C48FFF7C2
:101340009FFA2D4A40F205212948FFF750FA012261
:1013500029492748FFF794FA284A40F20A212448ED
:10136000FFF745FA012225492148FFF789FA244A67
:1013700040F20F211E48FFF73AFA012220491C488B
:10138000FFF77EFA1F4A4FF405711948FFF72FFA4D
:1013900001221C491648FFF773FA1B4A40F2192133
:1013A0001348FFF724FA012217491148FFF768FA9A
:1013B000164A4FF480710E48FFF719FA01221349BB
:1013C0000B48FFF75DFA124A40F205110848FFF793
:1013D0000EFA01220E490648FFF752FA00BF4837BD
:1013E000BD4680BD00080240000402400064024087
:1013F00000200140002301400B0030000C00600081
:101400000D0090000E00C0000F00F00008008003E7
:101410000900B00380B58EB000AF07F12C030022A5
:101420001A605A609A6007F1180300221A605A6025
:101430009A60DA601A613B4600221A605A609A602C
:10144000DA601A615A614FF40070FFF7D3FD012092
:10145000FFF7A0FD04233B6003237B6000233B6177
:101460003B4619463E480BF060FF08233B600323D0
:101470007B6000233B613B46194639480BF055FF22
:101480004FF0007202213748FFF742FB0022022191
:101490003448FFF741FA002202213248FFF714FBDB
:1014A0004FF4807202212F48FFF75AFA00220221DE
:1014B0002C48FFF779FA4FF4806202212948FFF7A0
:1014C00097FA4FF4006202212648FFF7B5FA4FF46D
:1014D000005202212348FFF7D3FA02212148FFF7E7
:1014E0003BFB0023FB6200233B634FF480737B6371
:1014F00007F12C0319461C480BF09EFD0023BB612D
:101500004FF48013FB6100233B6200237B624FF4A6
:101510004073BB6207F11803194613480BF0B8FD7E
:101520004FF480611048FFF798F9104A4FF40071AA
:101530000D48FFF75CF901220C490B48FFF7A0F9B1
:101540000B4A40F205210848FFF751F900220849EB
:101550000548FFF795F900BF3837BD4680BD00BF8D
:10156000000002400064024000210140030090029C
:101570000200600280B58EB000AF07F12C0300229C
:101580001A605A609A6007F1180300221A605A60C4
:101590009A60DA601A613B4600221A605A609A60CB
:1015A000DA601A615A614FF48060FFF723FD012071
:1015B000FFF7F0FC02233B6003237B6000233B61C9
:1015C0003B46194632480BF0B0FE4FF080620121D5
:1015D0003048FFF79DFA002201212E48FFF79CF9C1
:1015E000002201212B48FFF76FFA4FF4807201218E
:1015F0002848FFF7B5F9002201212648FFF7D4F962
:101600004FF4806201212348FFF7F2F94FF40062A2
:1016100001212048FFF710FA4FF4005201211D4824
:10162000FFF72EFA01211B48FFF796FA0023FB6211
:1016300000233B6300237B6307F12C031946164804
:101640000BF0FAFC0023BB610023FB6100233B622B
:1016500000237B624FF44073BB6207F11803194605
:101660000D480BF015FD4FF480610B48FFF7F5F8BE
:101670000A4A4FF400710848FFF7B9F801220749F8
:101680000548FFF7FDF800BF3837BD4680BD00BFF5
:1016900000000240006402400022014001003002CC
:1016A00080B500AF0D4B0E4A1A600C4B00221A7128
:1016B0000A4B00225A71094B00225A61074B002243
:1016C0009A61064B01221A6204480AF0EBF90346BC
:1016D000002B01D001F0A6FA00BF80BD2C430020F2
:1016E0000030024080B5B2B000AF07F1AC03002279
:1016F0001A605A609A60DA601A615A619A6107F159
:10170000940300221A605A609A60DA601A615A6182
:101710003B1D9022002118460DF0CAFF4FF4804374
:101720007B600023BB663B1D18460BF027F8034681
:10173000002B01D001F076FA0220FFF72BFC4023AA
:10174000C7F894300223C7F898300323C7F89C30B9
:101750000123C7F8A0300023C7F8A4300423C7F83A
:10176000A83007F19403194628480BF0DEFD8023CA
:10177000C7F894300223C7F898300323C7F89C3089
:101780000123C7F8A0300023C7F8A4300423C7F80A
:10179000A83007F1940319461C480BF0C6FD4FF41E
:1017A0000010FFF70FFC1A48FFF74EFA0022002145
:1017B0001748FFF721FA1648FFF736FA1448FFF7E3
:1017C0000BFA1348FFF7F8F90023C7F8AC30114BB8
:1017D000C7F8B0300023C7F8B4300023C7F8B830DA
:1017E0000023C7F8BC300023C7F8C0300023C7F877
:1017F000C43007F1AC03194605480BF0ADFE0448B0
:10180000FFF7CAF900BFC837BD4680BD00040240DB
:1018100000540040FF63106080B500AF0B4B0C4AD2
:101820001A600A4B00225A60084B40F6FF72DA60D9
:10183000064B40F6FF729A6004480AF025FA034608
:10184000002B01D001F0EEF900BF80BD5043002015
:101850000030004080B590B000AF07F11803282297
:10186000002118460DF024FF3B4600221A605A6002
:101870009A60DA601A615A614FF48050FFF7BAFB40
:101880000120FFF787FB10233B6002237B600323CB
:10189000BB600023FB6000233B6105237B613B466B
:1018A00019464C480BF041FD20233B6002237B602E
:1018B0000323BB600023FB6000233B6105237B61A6
:1018C0003B46194643480BF030FD40233B60022362
:1018D0007B600323BB600023FB6000233B61052387
:1018E0007B613B4619463B480BF01FFD80233B6064
:1018F00002237B600323BB600023FB6000233B616A
:1019000005237B613B46194632480BF00EFD4FF034
:10191000C06203213048FFF7FBF8402203212E4824
:10192000FEF7FAFF4FF4003203212B48FFF7CCF803
:10193000002203212848FFF713F80022032126483C
:10194000FFF732F84FF4806203212348FFF750F885
:10195000002203212048FFF76FF8002203211E48D0
:10196000FFF78EF803211C48FFF7F6F8FEF7B6FEE6
:101970000346002200211846FEF706FF03461946DB
:101980002320FEF7D7FE2320FEF7B6FE0023BB611F
:101990000023FB614FF4E0633B6202237B62002380
:1019A000BB620023FB6200237B630023BB6307232E
:1019B000FB6307F11803194608480CF0A5F900214C
:1019C0000648FFF761F90548FFF781F900BF403786
:1019D000BD4680BD0000024000640240003001406E
:1019E00080B590B000AF07F11803282200211846F7
:1019F0000DF05EFE3B4600221A605A609A60DA6083
:101A00001A615A614FF48040FFF7DCFA0220FFF7B9
:101A1000C1FA4FF400533B6002237B600323BB6099
:101A20000023FB6000233B6105237B613B46194695
:101A300041480BF07AFC4FF480433B6002237B600B
:101A40000323BB600023FB6000233B6105237B6114
:101A50003B46194638480BF068FC4FF400433B60A6
:101A600002237B600323BB600023FB6000233B61F8
:101A700005237B613B4619462F480BF056FC4FF07F
:101A8000905201212D48FFF743F8002201212B48F5
:101A9000FEF742FF4FF4403201212848FFF714F8C7
:101AA0004FF4807201212548FEF75AFF00220121E0
:101AB0002248FEF779FF4FF4806201211F48FEF7AC
:101AC00097FF4FF4006201211C48FEF7B5FF4FF469
:101AD000005201211948FEF7D3FF01211748FFF7F3
:101AE0003BF80023BB614FF48273FB614FF47063DA
:101AF0003B6200237B620023BB624FF40073FB62F6
:101B000000233B6300237B630023BB630723FB634A
:101B100007F1180319460A480CF0F6F800210848A6
:101B2000FFF7B2F80648FFF7C2F80548FFF79CF840
:101B300000BF4037BD4680BD000402400060024047
:101B40000038004080B590B000AF07F1180328229C
:101B5000002118460DF0ACFD3B4600221A605A6089
:101B60009A60DA601A615A614FF40040FFF72AFA6E
:101B70000420FFF70FFA4FF480633B6002237B6081
:101B80000323BB600023FB6000233B6106237B61D2
:101B90003B46194628480BF0C8FB4FF400633B60F6
:101BA00002237B600323BB600023FB6000233B61B7
:101BB00006237B613B4619461F480BF0B6FB4FF4EA
:101BC00080533B6002237B600323BB600023FB60E8
:101BD00000233B6106237B613B46194616480BF008
:101BE000A4FB0023BB614FF48273FB614FF4E063FD
:101BF0003B6200237B620023BB624FF40073FB62F5
:101C000000233B6300237B630023BB630723FB6349
:101C100007F11803194609480CF076F80021074827
:101C2000FFF732F80548FFF742F80448FFF71CF8C1
:101C300000BF4037BD4680BD00080240003C004068
:101C400080B590B000AF07F1180328220021184694
:101C50000DF02EFD3B4600221A605A609A60DA6051
:101C60001A615A614FF40050FFF7C4F91020FFF7D2
:101C700091F94FF480533B6002237B600323BB60E8
:101C80000023FB6000233B6105237B613B46194633
:101C900028480BF04AFB4FF400533B6002237B6063
:101CA0000323BB600023FB6000233B6105237B61B2
:101CB0003B4619461F480BF038FB4FF480433B600E
:101CC00002237B600323BB600023FB6000233B6196
:101CD00005237B613B46194616480BF026FB002383
:101CE000BB614FF48273FB614FF4E0633B620023FE
:101CF0007B620123BB624FF40073FB6220233B63D2
:101D000000237B630023BB630723FB6307F11803F6
:101D1000194609480BF0F8FF00210748FEF7B4FF09
:101D20000548FEF7D4FF0448FEF79EFF00BF40378A
:101D3000BD4680BD001002400034014080B590B027
:101D400000AF07F118032822002118460DF0B0FC5F
:101D50003B4600221A605A609A60DA601A615A6142
:101D60004FF40010FFF746F90220FFF713F908239C
:101D70003B6002237B600323BB600023FB600023E6
:101D80003B6108237B613B46194657480BF0CDFA6F
:101D900010233B6002237B600323BB600023FB60B6
:101DA00000233B6108237B613B4619464E480BF0FC
:101DB000BCFA20233B6002237B600323BB6000232B
:101DC000FB6000233B6108237B613B461946464884
:101DD0000BF0ABFA4FF0007205214448FEF798FE75
:101DE000402205214148FEF797FD4FF4403205217E
:101DF0003E48FEF769FE002205213C48FEF7B0FD93
:101E0000002205213948FEF7CFFD4FF480620521FD
:101E10003648FEF7EDFD002205213448FEF70CFEA2
:101E2000002205213148FEF72BFE05212F48FEF741
:101E300093FE4FF0007206212C48FEF769FE002247
:101E400006212A48FEF768FD4FF440320621274854
:101E5000FEF73AFE002206212448FEF781FD00220B
:101E600006212248FEF7A0FD4FF4806206211F489C
:101E7000FEF7BEFD002206211C48FEF7DDFD002214
:101E800006211A48FEF7FCFD06211848FEF764FEFD
:101E90000023BB614FF48273FB614FF4E0633B624C
:101EA00000237B620023BB624FF40073FB620023BC
:101EB0003B6300237B630023BB630723FB6307F1C2
:101EC000180319460A480BF01FFF00210848FEF7C7
:101ED000DBFE0748FEF7EBFE0548FEF7C5FE00BF38
:101EE0004037BD4680BD00BF000402400064024090
:101EF0000054014080B586B000AF3B1D00221A603F
:101F00005A609A60DA601A610120FFF773F8FEF7F1
:101F1000E5FB0346002200211846FEF735FC034688
:101F200019461920FEF706FC1920FEF7E5FB0023F1
:101F3000BB800023BB604FF6FF73FB6000233B6157
:101F400000237B613B1D19460C480BF0D1FF0B4869
:101F5000FEF7DDFE00210948FEF78CFF002107484F
:101F6000FEF79EFF00210548FEF7ADFF0348FEF790
:101F7000BDFF00BF1837BD4680BD00BF0000014057
:101F800080B586B000AF3B1D00221A605A609A608F
:101F9000DA601A610120FFF715F8FEF79FFB034690
:101FA000002202211846FEF7EFFB034619461C20CB
:101FB000FEF7C0FB1C20FEF79FFB0023BB80002325
:101FC000BB604FF0FF33FB6000233B613B1D1946B4
:101FD0004FF080400BF08CFF4FF08040FEF787FE03
:101FE00000214FF08040FEF745FF00214FF0804078
:101FF000FEF756FF4FF08040FEF778FF00BF18371E
:10200000BD4680BD80B594B000AF07F13C0300220F
:102010001A605A609A60DA601A6107F11C03202284
:10202000002118460DF044FB3B1D00221A605A6047
:102030009A60DA601A615A610420FEF7C3FF0A232E
:10204000BB8700233B644CF250337B644FF4007336
:10205000BB6407F13C03194655480BF049FF54484F
:10206000FEF755FE00215248FEF704FF01215048BB
:10207000FEF7B0FE6023FB6100233B6200237B621E
:102080000023BB620023FB6207F11C031A460121F7
:1020900047480BF0C7FF01214548FEF749FE1021D4
:1020A0004348FEF797FE07F11C031A4610214048EB
:1020B0000BF0B8FF10213E48FEF73AFE4FF4807156
:1020C0003B48FEF787FE07F11C031A464FF4807168
:1020D00037480BF0A7FF4FF480713548FEF728FE14
:1020E0004FF480513248FEF775FE07F11C031A4683
:1020F0004FF480512E480BF095FF4FF480512C483F
:10210000FEF716FE00212A48FEF7CAFE2848FEF711
:10211000EDFE0820FEF73EFF4FF480537B60022364
:10212000BB600023FB6000233B6100237B61022333
:10213000BB613B1D19461F480BF0F7F84FF40053E5
:102140007B600223BB600023FB6000233B61002314
:102150007B610223BB613B1D194616480BF0E5F875
:102160004FF480437B600223BB600023FB600023AD
:102170003B6100237B610223BB613B1D19460D4877
:102180000BF0D3F84FF400437B600223BB600023C5
:10219000FB6000233B6100237B610223BB613B1D8D
:1021A000194604480BF0C1F800BF5037BD4680BD4A
:1021B00000080040000C024080B5B2B000AF07F14B
:1021C000AC0300221A605A609A60DA601A615A61A0
:1021D0009A6107F1940300221A605A609A60DA60EB
:1021E0001A615A613B1D9022002118460DF060FAD9
:1021F0004FF480537B6000233B663B1D18460AF07A
:10220000BDFA0346002B01D000F00CFD4FF08040DA
:10221000FEF7D8FE1020FEF7BDFE8023C7F89430ED
:102220000223C7F898300323C7F89C300023C7F86F
:10223000A0300123C7F8A4300823C7F8A83007F15D
:102240009403194628480BF070F84FF48073C7F8D0
:1022500094300223C7F898300323C7F89C3000233A
:10226000C7F8A0300023C7F8A4300823C7F8A83067
:1022700007F1940319461C480BF057F8FEF72EFAA5
:10228000034600220B211846FEF77EFA0346194644
:102290005220FEF74FFA5220FEF72EFA4FF4E133A8
:1022A000C7F8AC300023C7F8B0300023C7F8B4300B
:1022B0000023C7F8B8300C23C7F8BC300023C7F898
:1022C000C0300023C7F8C43007F1AC0319460748F3
:1022D0000CF0C8F90548FEF729FE0448FEF716FE83
:1022E00000BFC837BD4680BD0010024000780040E6
:1022F00080B5B2B000AF07F1AC0300221A605A609B
:102300009A60DA601A615A619A6107F194030022B7
:102310001A605A609A60DA601A615A613B1D902215
:10232000002118460DF0C4F940237B600023BB64F4
:102330003B1D18460AF022FA0346002B01D000F09C
:1023400071FC1020FEF756FE0120FEF723FE4FF42D
:102350000073C7F894300223C7F898300323C7F8F6
:102360009C300023C7F8A0300023C7F8A43007230F
:10237000C7F8A83007F19403194629480AF0D5FF99
:102380004FF48063C7F894300223C7F898300323D2
:10239000C7F89C300023C7F8A0300123C7F8A43049
:1023A0000723C7F8A83007F1940319461C480AF020
:1023B000BCFFFEF793F9034600220B211846FEF7F7
:1023C000E3F9034619462520FEF7B4F92520FEF768
:1023D00093F94FF4E133C7F8AC300023C7F8B030BD
:1023E0000023C7F8B4300023C7F8B8300C23C7F86F
:1023F000BC300023C7F8C0300023C7F8C43007F151
:10240000AC03194607480CF02DF90648FEF78EFD7F
:102410000448FEF77BFD00BFC837BD4680BD00BF46
:10242000000002400010014080B5B2B000AF07F1DB
:10243000AC0300221A605A609A60DA601A615A612D
:102440009A6107F1940300221A605A609A60DA6078
:102450001A615A613B1D9022002118460DF028F99F
:102460004FF400637B600023FB653B1D18460AF0B8
:1024700085F90346002B01D000F0D4FB2020FEF7A5
:10248000B9FD0420FEF786FD4023C7F894300223EF
:10249000C7F898300323C7F89C300023C7F8A03052
:1024A0000023C7F8A4300823C7F8A83007F1940325
:1024B000194628480AF039FF8023C7F894300223D0
:1024C000C7F898300323C7F89C300023C7F8A03022
:1024D0000023C7F8A4300823C7F8A83007F19403F5
:1024E00019461C480AF021FFFEF7F8F803460022BF
:1024F0000B211846FEF748F9034619464720FEF718
:1025000019F94720FEF7F8F84FF4E133C7F8AC307B
:102510000023C7F8B0300023C7F8B4300023C7F851
:10252000B8300C23C7F8BC300023C7F8C0300023F4
:10253000C7F8C43007F1AC03194607480CF092F80D
:102540000548FEF7F3FC0448FEF7E0FC00BFC8377F
:10255000BD4680BD000802400014014080B500AFB8
:102560004FF48000FEF716FD4FF40010FEF712FD49
:10257000FEF7B4F80346002200211846FEF704F9DE
:10258000034619460C20FEF7D5F80C20FEF7B4F8E8
:10259000FEF7A4F80346002200211846FEF7F4F8DF
:1025A000034619463920FEF7C5F83920FEF7A4F88E
:1025B000FEF794F8034600220A211846FEF7E4F8D5
:1025C000034619463A20FEF7B5F83A20FEF794F88C
:1025D000FEF784F80346002200211846FEF7D4F8DF
:1025E000034619463B20FEF7A5F83B20FEF784F88A
:1025F000FEF774F8034600220A211846FEF7C4F8D5
:10260000034619463C20FEF795F83C20FEF774F887
:10261000FEF764F80346002209211846FEF7B4F8D5
:10262000034619464420FEF785F84420FEF764F877
:10263000FEF754F80346002201211846FEF7A4F8DD
:10264000034619464520FEF775F84520FEF754F875
:1026500000BF80BD80B586B000AF3B4600221A6047
:102660005A609A60DA601A615A611020FEF792FC93
:102670000420FEF78FFC8020FEF78CFC0120FEF783
:1026800089FC0220FEF786FC0820FEF783FC04216B
:10269000C048FEF76FFC0821BE48FEF76BFC102116
:1026A000BC48FEF767FC2021BA48FEF763FC4021D6
:1026B000B848FEF75FFC4FF40051B748FEF75AFCEC
:1026C0004FF48041B448FEF755FC4FF40041B24846
:1026D000FEF750FC4FF40061B048FEF74BFC4FF49E
:1026E0008061AF48FEF746FC4FF40061AD48FEF74D
:1026F00041FC4FF40041AB48FEF73CFC0121A848E7
:10270000FEF738FC0221A648FEF734FC1021A4484D
:10271000FEF730FC2021A248FEF72CFC4021A04807
:10272000FEF728FC04219D48FEF716FC4FF480615B
:102730009848FEF711FC4FF400619648FEF70CFC38
:102740004FF400419348FEF707FC4FF48061934833
:10275000FEF702FC4FF480519048FEF7FDFB4FF46A
:1027600080718F48FEF7F8FB4FF400718C48FEF73C
:10277000F3FB4FF480718848FEF7EEFB0421884894
:10278000FEF7EAFB80218648FEF7E6FB4FF48071F6
:102790008248FEF7E1FB4FF400718048FEF7DCFB56
:1027A00001217C48FEF7D8FB02217A48FEF7D4FBD2
:1027B00004233B6001237B600023BB600023FB609C
:1027C00000233B613B46194672480AF0AEFD0823E0
:1027D0003B6001237B600023BB600023FB60002380
:1027E0003B613B4619466B480AF09FFD10233B6056
:1027F00001237B600023BB600023FB6000233B615F
:102800003B46194663480AF090FD20233B600123B4
:102810007B600023BB600023FB6000233B613B46E1
:1028200019465C480AF081FD40233B6001237B6030
:102830000023BB600023FB6000233B613B4619463D
:1028400054480AF072FD4FF400533B6001237B6053
:102850000023BB600023FB6000233B613B4619461D
:102860004D480AF062FD4FF480433B6001237B60DA
:102870000023BB600023FB6000233B613B461946FD
:1028800045480AF052FD4FF400433B6001237B6052
:102890000023BB600023FB6000233B613B461946DD
:1028A0003D480AF042FD04233B6001237B60002386
:1028B000BB600023FB6000233B613B461946374861
:1028C0000AF033FD4FF480633B6001237B600023FB
:1028D000BB600023FB6000233B613B4619462D484B
:1028E0000AF023FD4FF400633B6001237B60032368
:1028F000BB600023FB6000233B613B461946254833
:102900000AF013FD4FF400433B6001237B6000237A
:10291000BB600023FB6000233B613B4619461D481A
:102920000AF003FD4FF480633B6001237B600023CA
:10293000BB600023FB6001233B613B4619461748FF
:102940000AF0F3FC4FF400633B6001237B6000233B
:10295000BB600023FB6002233B613B4619460F48E6
:102960000AF0E3FC4FF480533B6001237B600023BB
:10297000BB600023FB6000233B613B4619460748D0
:102980000AF0D3FC4FF480733B6001237B60032388
:102990000AE000BF001002400008024000040240AC
:1029A000000C024000000240BB600023FB600023DB
:1029B0003B613B46194696480AF0B7FC4FF400735A
:1029C0003B6001237B600323BB600023FB6000238B
:1029D0003B613B4619468E480AF0A7FC4FF48063E2
:1029E0003B6001237B600023BB600023FB6000236E
:1029F0003B613B46194686480AF097FC4FF400635A
:102A00003B6000237B6000233B613B4619468048C6
:102A10000AF08BFC4FF480733B6001237B60002342
:102A2000BB600023FB6001233B613B4619467948AC
:102A30000AF07BFC4FF400733B6000237B600023B3
:102A40003B613B46194673480AF06FFC4FF48073B4
:102A50003B6000237B6000233B613B4619466E4888
:102A60000AF063FC4FF400633B6001237B600023AA
:102A7000BB600023FB6000233B613B461946664870
:102A80000AF053FC4FF400433B6001237B600023BA
:102A9000BB600023FB6000233B613B4619465E4858
:102AA0000AF043FC01233B6001237B600023BB60F1
:102AB0000023FB6000233B613B46194654480AF063
:102AC00034FC02233B6001237B600023BB600023B6
:102AD000FB6000233B613B4619464D480AF025FC4C
:102AE00004233B6001237B600023BB600023FB6069
:102AF00000233B613B46194645480AF016FC082373
:102B00003B6000237B6000233B613B461946404805
:102B10000AF00BFC10233B6001237B600023BB60A9
:102B20000023FB6000233B613B46194638480AF00E
:102B3000FCFB20233B6001237B600023BB60002360
:102B4000FB6000233B613B46194631480AF0EDFB30
:102B500040233B6001237B600023BB600023FB60BC
:102B600000233B613B46194629480AF0DEFB8023DF
:102B70003B6001237B600023BB600023FB600023DC
:102B80003B613B46194622480AF0CFFB4FF4807365
:102B90003B6001237B600023BB600023FB600023BC
:102BA0003B613B4619461D480AF0BFFB4FF40073DA
:102BB0003B6001237B600023BB600023FB6000239C
:102BC0003B613B46194615480AF0AFFB01233B60C9
:102BD00001237B600023BB600023FB6000233B617B
:102BE0003B4619460E480AF0A0FB02233B60012336
:102BF0007B600023BB600023FB6000233B613B46FE
:102C0000194607480AF091FB00BF1837BD4680BD42
:102C1000000C024000080240000002400004024094
:102C20000010024080B400AF72B600BF00BFFDE7E5
:102C300080B483B000AF0F4B1B6C0E4A43F080533F
:102C400013640C4B1B6C03F080537B607B68094B57
:102C50005B6C084A43F480435364064B5B6C03F49B
:102C600080433B603B6800BF0C37BD465DF8047B8A
:102C7000704700BF0038024080B485B000AF786074
:102C80007B681B680A4A93420BD10A4B1B6B094AAB
:102C900043F480531363074B1B6B03F48053FB60B7
:102CA000FB6800BF1437BD465DF8047B704700BF6A
:102CB000003002400038024080B400AF00BFFDE7A2
:102CC00080B400AF00BFFDE780B400AF00BFFDE7F8
:102CD00080B400AF00BFFDE780B400AF00BFFDE7E8
:102CE00080B400AF00BFBD465DF8047B704780B480
:102CF00000AF00BFBD465DF8047B704780B400AFF5
:102D000000BFBD465DF8047B704780B500AF04F09E
:102D10007BFA04F0D7F908F027FD08F0BDFD04F0B8
:102D200025FF00BF80BD80B500AF04F00BFC00BFE5
:102D300080BD80B500AF04F03DFD00BF80BD80B414
:102D400000AF00BFBD465DF8047B704780B500AFA3
:102D500004F0C2F900BF80BD80B500AF04F0C8FA2E
:102D600000BF80BD80B400AF01231846BD465DF8AA
:102D7000047B704780B582B000AF786039600CF09A
:102D8000F7FC034616221A604FF0FF331846083747
:102D9000BD4680BD80B582B000AF78604FF0FF3196
:102DA0007868FFF7E7FF00BFFDE780B586B000AFAA
:102DB000F860B9607A6000237B610AE0AFF30080BD
:102DC0000146BB685A1CBA60CAB21A707B690133EB
:102DD0007B617A697B689A42F0DB7B68184618371A
:102DE000BD4680BD80B586B000AFF860B9607A603E
:102DF00000237B6109E0BB685A1CBA601B78184647
:102E0000AFF300807B6901337B617A697B689A420A
:102E1000F1DB7B6818461837BD4680BD80B483B0AF
:102E200000AF78604FF0FF3318460C37BD465DF8B1
:102E3000047B704780B483B000AF786039603B6832
:102E40004FF400525A60002318460C37BD465DF817
:102E5000047B704780B483B000AF786001231846CC
:102E60000C37BD465DF8047B704780B485B000AF79
:102E7000F860B9607A60002318461437BD465DF8E3
:102E8000047B704780B586B000AF7860144A154B5C
:102E9000D31A7B617B693B61134B1B68002B02D10A
:102EA000114B124A1A60104B1A687B6813443A6936
:102EB0009A4207D20CF05CFC03460C221A604FF0D9
:102EC000FF3309E0084B1B68FB60074B1A687B68FF
:102ED0001344054A1360FB6818461837BD4680BD89
:102EE000000008200004000060430020F8DF0220FA
:102EF00080B400AF064BD3F88830054A43F4700322
:102F0000C2F8883000BFBD465DF8047B704700BF43
:102F100000ED00E0DFF834D0FFF7EAFF0C480D4980
:102F20000D4A002302E0D458C4500433C4188C4224
:102F3000F9D30A4A0A4C002301E013600432A2428A
:102F4000FBD30CF01BFCFEF76DF870470000082067
:102F50000000002010430020104101081043002011
:102F6000F8DF0220FEE780B500AF01F085FE02F039
:102F700079FA03F085FD00BF80BD80B500AF042065
:102F800001F0ACFE062002F0ADFA0A2003F0B0FD1D
:102F900000BF80BD80B500AF08F0C6FA00BF80BD9D
:102FA00080B584B000AFF860B9607A60FB70FB68F0
:102FB000BA68DA63FB687A681A64FB68FA7883F89F
:102FC0004520084B1B684FF6FF72A3F84220FB68B0
:102FD0000549184608F03AFB002318461037BD464D
:102FE00080BD00BF040000200436010880B582B017
:102FF00000AF78607B680022DA637B684FF4804220
:103000001A647B68012283F84520084B1B684FF641
:10301000FF72A3F842207B680549184608F016FBAA
:10302000002318460837BD4680BD00BF04000020BD
:103030000436010880B582B000AF78607B6804492F
:10304000184608F003FB002318460837BD4680BD2C
:103050001836010880B582B000AF78607B680449FB
:10306000184608F0F3FA002318460837BD4680BD1D
:103070002C36010880B582B000AF78607B680449C7
:10308000184608F0E3FA002318460837BD4680BD0D
:103090004036010880B584B000AFF860B9607A604E
:1030A000BB68012B02D87B68642B01D9062318E08A
:1030B000FB6893F84D30002B06D0002003F094FEFF
:1030C000FB68002283F84D207968B86803F094FF0C
:1030D0007B68D9B2FA68BB68134449330A461A7050
:1030E000002318461037BD4680BD80B582B000AFC2
:1030F000786039603B68242B01D9062314E07B6893
:1031000093F84D30012B06D0012003F06DFE7B6853
:10311000012283F84D20386803F0AAFE3B68DAB23A
:103120007B6883F84B20002318460837BD4680BDD6
:1031300080B582B000AF786039603B68082B01D958
:10314000062314E07B6893F84D30012B06D0012054
:1031500003F04AFE7B68012283F84D20386803F0B3
:10316000BFFE3B68DAB27B6883F84C200023184628
:103170000837BD4680BD80B582B000AF78607B68FF
:1031800093F84D30012B06D0012003F02DFE7B6813
:10319000012283F84D2003F0D5FE7B68FF2283F8DF
:1031A0004C20002318460837BD4680BDB0B582B01C
:1031B00000AF786039603B681B68002B04D03B6827
:1031C0001B68194A934201D9062328E03B681B7902
:1031D000002B03D03B681B79242B01D906231EE06A
:1031E0003B685B79642B01D9062318E03B68DB68F8
:1031F000B3F5006F01D9062311E03B681B69002B72
:1032000001D106230BE07B683A6803F128041546D8
:103210000FCD0FC42B68236000F054F8002318462C
:103220000837BD46B0BD00BF50F80C00B0B483B045
:1032300000AF786039603A687B68154603F128046E
:103240000FCC0FC523682B6000BF0C37BD46B0BC48
:103250007047000080B584B000AF78607B68283389
:10326000FB60FB681B68002B04D0FB681B68134ADB
:10327000934201D906231CE0FB681B79002B03D085
:10328000FB681B79242B01D9062312E0FB685B79CC
:10329000642B01D906230CE0FB68DB68B3F5006FF3
:1032A00001D9062305E07B680549184608F0CEF9E8
:1032B000002318461037BD4680BD00BF50F80C00F3
:1032C000F035010880B582B000AF03F055FC0F4B1C
:1032D0004FF0BC321A600E4B9B6A0C4A53600C4B89
:1032E000DA8D0A4B1A810A4B1A8E084B5A81084B09
:1032F0005A8E064B9A8100237B60044A7B681361D7
:1033000003F05EFC00BF0837BD4680BD00400240B0
:103310006443002080B586B000AF786007F10C03ED
:1033200000221A605A609A600E23BB817B6807F105
:103330000C021146184608F089F900231846183780
:10334000BD4680BD80B500AF074BDB69184607F06E
:10335000F2FC054BDB69184607F01CFD034B4FF0F0
:10336000FF321A6200BF80BDC043002000780040D9
:1033700080B500AF0C4B1B68184602F0C2FF034635
:10338000002B01D001230CE0084B1B88074A128850
:103390001946074808F0A4F9064B012283F82820B3
:1033A0000023184680BD00BF080000200C0000204C
:1033B0002C4400201444002080B500AF074808F0DA
:1033C000AFF9074B1B68184603F02AF8054B00229B
:1033D00083F828200023184680BD00BF2C4400201D
:1033E000080000201444002080B483B000AF0346DE
:1033F000FB80044AFB88138000BF0C37BD465DF894
:10340000047B70470C00002080B400AFBFF34F8FE7
:1034100000BF064BDB6803F4E0620449044B13432E
:10342000CB60BFF34F8F00BF00BFFDE700ED00E0B2
:103430000400FA0580B584B000AFF860B9607A6026
:1034400003F0B8FE00BF1037BD4680BD80B5ADF5B6
:10345000826D00AF07F58263A3F20443186007F59D
:103460008263A3F58163196007F58263A3F20C43BD
:103470001A6007F58263A3F5806318464FF48063F2
:103480001A4600210CF014F907F110031A464FF404
:103490008061002004F0DAF907F58263A3F20443A7
:1034A0000849186807F032FA07F58263A3F204436B
:1034B0000549186807F02AFA00BF07F58267BD467C
:1034C00080BD00BF401601085016010880B5ADF55B
:1034D000836D00AF07F58363A3F20C43186007F513
:1034E0008363A3F58263196007F58363A3F2144332
:1034F0001A6007F114031A464FF48061002004F0AB
:10350000B7F907F58363A3F20C431F49186807F066
:10351000FDF90023C7F8143424E007F58363A3F210
:103520000442D7F8143413441B781A4607F5836312
:10353000A3F20C431549186807F0E8F9D7F81434DA
:10354000013303F00F03002B07D107F58363A3F2C8
:103550000C430F49186807F0D9F9D7F81434013330
:10356000C7F81434D7F81434B3F5806FD5DB07F5FA
:103570008363A3F20C430649186807F0C7F900BF3C
:1035800007F58367BD4680BD541601086C16010817
:103590007416010880B588B000AFF860B9607A6031
:1035A00007F11403074A0A2118460BF0FBFE07F146
:1035B00014031946F86805F032FF00BF2037BD46F6
:1035C00080BD00BFAC20010880B584B000AFF860BA
:1035D000B9607A60FFF718FF80B588B000AFF86077
:1035E000B9607A600023BB610023FB82B86806F0F3
:1035F00007F803467B757B7D012B04D02E49F868C4
:1036000007F084F954E00121B86805F0C3FF386180
:103610003B691B78612B22D10023FB771BE0FB7FEA
:10362000184603F0F7FD0346FB82B7F9163013F591
:10363000004F06D1FB7F1A462049F86807F066F96B
:1036400006E0FA7FB7F916301D49F86807F05EF911
:10365000FB7F0133FB77FB7F072BE0D928E03B6939
:103660001B782F2B20D93B691B78372B1CD8386946
:103670000BF0BEF80346BB61B86903F0CBFD03460F
:10368000FB82B7F9163013F5004F05D1BA690B4923
:10369000F86807F03BF90BE0B7F91630BA6908494A
:1036A000F86807F033F903E00649F86807F02EF9E7
:1036B0002037BD4680BD00BFB4200108D4200108DA
:1036C000E8200108FC20010880B588B000AFF86050
:1036D000B9607A60B86805F093FF0346FB61FB6947
:1036E000012B04D01549F86807F010F923E0144BBA
:1036F0001B68184602F0D4FE034683F00103DBB2D8
:10370000002B04D00F49F86807F000F913E00121FD
:10371000B86805F03FFFB861B8690BF069F8034677
:103720007B61074B1B687969184602F0FFFA06496E
:10373000F86807F0EBF82037BD4680BDB4200108DB
:1037400010000020102101085C21010880B584B020
:1037500000AFF860B9607A600A4B1B68184602F047
:10376000FEFA0346002B04D00749F86807F0CEF8AC
:1037700003E00649F86807F0C9F800BF1037BD46F6
:1037800080BD00BF100000205C21010864210108F9
:1037900080B588B000AFF860B9607A60B86805F0AD
:1037A0002FFF0346BB61BB69012B04D03849F86881
:1037B00007F0ACF869E0374B1B68184602F070FE62
:1037C000034683F00103DBB2002B04D03249F868D2
:1037D00007F09CF859E00121B86805F0DBFE78613C
:1037E00000233B617B691B78612B25D10023FB61A2
:1037F0001EE0284B1B68F969184602F0F6FA38619A
:103800003B69002B0CD1234B1B680022F969184639
:1038100002F0DAFEFA692149F86807F077F804E067
:10382000FA691F49F86807F071F8FB690133FB6119
:10383000FB69032BDDD928E07B691B782F2B24D96A
:103840007B691B78332B20D878690AF0D1FF0346B7
:10385000FB61104B1B68F969184602F0C6FA386123
:103860003B69002B0CD10B4B1B680022F9691846F1
:1038700002F0AAFEFA690949F86807F047F804E07F
:10388000FA690749F86807F041F82037BD4680BD5E
:10389000B4200108100000206C210108B4210108A7
:1038A000C821010880B588B000AFF860B9607A60BF
:1038B000B86805F0A5FE0346FB61FB69012B04D047
:1038C0001549F86807F022F822E00121B86805F0F0
:1038D00061FEB861B8690AF08BFF0346FB82FB8A80
:1038E000B3F5FA7F04D3FB8A40F6B832934204D989
:1038F0000A49F86807F00AF80AE0094B1B68FA8AD7
:103900001146184602F084FE0649F86806F0FEFFEC
:103910002037BD4680BD00BFE02101080822010814
:10392000100000205C21010880B586B000AFF8606F
:10393000B9607A60084B1B68184602F085FE0346A2
:10394000FB82FB8A1A460549F86806F0DFFF00BFD4
:103950001837BD4680BD00BF100000203C22010882
:1039600080B588B000AFF860B9607A60B86805F0DB
:1039700047FE0346BB61BB69042B04D03149F8689C
:1039800006F0C4FF5BE0304B1B68184602F06EFD8A
:103990000346FB750023FB614AE0FB699BB20133E0
:1039A0009BB21946B86805F0F5FD034618460AF0C3
:1039B0001FFF0346D9B207F11002FB6913440A4600
:1039C0001A7007F11002FB6913441B78012B05D90B
:1039D000FA691E49F86806F099FF30E007F1100215
:1039E000FB6913441B78002B08D1174B1B68FA693D
:1039F000D2B21146184602F077FA16E0FB7DFA695A
:103A00009A4205D1FA691249F86806F07FFF0CE086
:103A10000D4B1B68FA69D2B21146184602F043FA00
:103A2000FA690C49F86806F071FFFB690133FB6124
:103A3000FB69032BB1D90849F86806F067FF203706
:103A4000BD4680BD602201081000002084220108CC
:103A5000AC220108D02201085C21010880B586B0A3
:103A600000AFF860B9607A60134B1B68184602F02B
:103A70005EFA0346FB7400237B6115E0FA7C7B69E8
:103A800042FA03F303F00103002B05D07A690B49D6
:103A9000F86806F03BFF04E07A690949F86806F027
:103AA00035FF7B6901337B617B69032BE6D900BF5E
:103AB00000BF1837BD4680BD10000020D02201088D
:103AC000E822010880B58CB000AFF860B9607A6078
:103AD000354B1B68184602F0E3FC034683F00103F4
:103AE000DBB2002B04D03149F86806F00FFF58E034
:103AF000B86805F085FD0346FB62FB6A032B04D022
:103B00002B49F86806F002FF4BE00121B86805F088
:103B100041FDB862B86A0AF06BFE03467B627B6ABD
:103B2000032B04D92349F86806F0F0FE39E002219E
:103B3000B86805F02FFD3862386A0AF059FE03466E
:103B4000FB61FB69012B04D91B49F86806F0DEFE16
:103B500027E00321B86805F01DFDB861B8690AF0D7
:103B600047FE0346FB82FB8A40F6B832934204D9F3
:103B70001249F86806F0CAFE13E00B4B1868FB8A7E
:103B8000FA69796A02F0A0FC38613B69002B04D025
:103B90000B49F86806F0BAFE03E00A49F86806F037
:103BA000B5FE3037BD4680BD10000020002301085F
:103BB00024230108502301087423010898230108D5
:103BC000642101085C21010880B58AB000AFF8606B
:103BD000B9607A602A4B1B68184602F061FC034604
:103BE00083F00103DBB2002B04D02649F86806F00D
:103BF0008DFE41E0B86805F003FD03467B627B6AF9
:103C0000022B04D02049F86806F080FE34E0012140
:103C1000B86805F0BFFC3862386A0AF0E9FD03466F
:103C2000FB61FB69032B04D91849F86806F06EFEA6
:103C300022E00221B86805F0ADFCB861B8690AF06D
:103C4000D7FD03467B610E4B18687B69002B14BFC0
:103C500001230023DBB21A46F96902F0B5FC386192
:103C60003B69002B04D00A49F86806F04FFE03E0D8
:103C70000849F86806F04AFE2837BD4680BD00BFF7
:103C80001000002000230108C4230108502301086C
:103C9000642101085C21010880B58CB000AFF86098
:103CA000B9607A60B86805F0ABFC0346BB62BB6ADA
:103CB000032B04D04149F86806F028FE7AE0012180
:103CC000B86805F067FC7862786A0AF091FD0346EF
:103CD0007B847B8C4EF66022934204D93849F86885
:103CE00006F014FE66E00221B86805F053FCF861A6
:103CF000344B1B68184602F01AF90346FB76FB6941
:103D00001B786F2B07D1042387F82F302E49F868D2
:103D100006F0FCFD1EE0FB691B782F2B1AD9FB690E
:103D20001B78332B16D8F8690AF062FD034687F832
:103D30002F30FA7E97F82F3042FA03F303F0010395
:103D4000002B07D097F82F301A462049F86806F064
:103D5000DDFD2FE00321B86805F01CFC786178696F
:103D60000AF046FD03463B613B69B3F5FA7F04D395
:103D70003B6940F6B832934204D91549F86806F019
:103D8000C5FD17E07B8C1846FFF72EFB0D4B1B681B
:103D900097F82F201146184602F07EFA094B1B684F
:103DA0003A6992B21146184602F08FFA0949F8684A
:103DB00006F0ACFD3037BD4680BD00BFE4230108EE
:103DC000182401081000002048240108602401087C
:103DD000082201085C21010880B584B000AFF860BA
:103DE000B9607A60FFF7C4FA0349F86806F08EFDFF
:103DF00000BF1037BD4680BD5C21010880B584B08E
:103E000000AFF860B9607A60FFF7D6FA0349F86846
:103E100006F07CFD00BF1037BD4680BD5C21010867
:103E200080B586B000AFF860B9607A600F4B1B6850
:103E3000184602F01BFB0346FB750C4B1B6818462B
:103E400002F021FB0346BB82FB7D042B04D1084911
:103E5000F86806F05BFD05E0FA7DBB8A0549F86865
:103E600006F054FD1837BD4680BD00BF100000208D
:103E7000482401088424010880B588B000AFF860A8
:103E8000B9607A60B86805F0BBFB0346FB61FB696B
:103E9000012B04D01249F86806F038FD1CE001211E
:103EA000B86805F077FBB861B8690AF0A1FC034671
:103EB000FB75FB7D642B04D90A49F86806F026FDE2
:103EC0000AE0094B1B68FA7D1146184602F03CF8DF
:103ED0000649F86806F01AFD2037BD4680BD00BFD0
:103EE000B0240108D4240108100000205C2101083E
:103EF00080B586B000AFF860B9607A60084B1B6887
:103F0000184602F037F80346FB75FB7D1A46054953
:103F1000F86806F0FBFC00BF1837BD4680BD00BF47
:103F200010000020F824010880B588B000AFF860C8
:103F3000B9607A60B86805F063FB0346BB61BB6992
:103F4000042B04D02649F86806F0E0FC45E0002385
:103F5000FB613BE0FB699BB201339BB21946B86839
:103F600005F018FB034618460AF042FC0346D9B296
:103F700007F11402FB6913440A461A7007F1140290
:103F8000FB6913441B78012B05D9FA691549F868B8
:103F900006F0BCFC21E007F11402FB6913441B7816
:103FA000002B08D1104B1B68FA69D2B21146184693
:103FB00002F00EF807E00C4B1B68FA69D2B211460A
:103FC000184601F0E4FFFB690133FB61FB69032B39
:103FD000C0D90649F86806F099FC2037BD4680BD77
:103FE0001425010884220108100000205C2101082A
:103FF00080B586B000AFF860B9607A60124B1B687C
:10400000184602F008F80346FB7400237B6113E0B6
:10401000FA7C7B6942FA03F303F00103002B04D01E
:104020000A49F86806F072FC03E00949F86806F0EE
:104030006DFC7B6901337B617B69032BE8D900BF91
:1040400000BF1837BD4680BD100000203C25010888
:104050005425010880B58AB000AFF860B9607A6075
:10406000B86805F0CDFA03467B627B6A022B04D068
:104070001E49F86806F04AFC34E00121B86805F0F2
:1040800089FA3862386A0AF0B3FB0346FB83B7F952
:104090001E30B3F57A7F04DD1549F86806F036FC6A
:1040A00020E00221B86805F075FAB861B8690AF035
:1040B0009FFB0346FB82B7F9163013F57A7F04DACB
:1040C0000C49F86806F022FC0CE00B4B1B68B7F9B2
:1040D0001620B7F91E10184601F0FEFF0749F868D0
:1040E00006F014FC2837BD4680BD00BF70250108CE
:1040F000A8250108D4250108100000205C21010832
:1041000080B586B000AFF860B9607A600C4B1B6870
:1041100007F114021146184601F0F4FFB7F9143004
:104120001A460849F86806F0F1FBB7F916301A4646
:104130000549F86806F0EAFB00BF1837BD4680BDA8
:1041400010000020042601082426010880B588B04C
:1041500000AFF860B9607A60B86805F051FA0346BC
:10416000FB61FB69012B04D00E49F86806F0CEFB19
:1041700015E00121B86805F00DFAB861B8690AF0D8
:1041800037FB0346FB82084B1B68B7F91620114624
:10419000184601F04DFF0549F86806F0B7FB2037D7
:1041A000BD4680BD44260108100000205C210108A6
:1041B00080B586B000AFF860B9607A60084B1B68C4
:1041C000184601F045FF0346FB82B7F916301A4640
:1041D0000449F86806F09AFB00BF1837BD4680BD59
:1041E000100000206C26010880B58AB000AFF8608E
:1041F000B9607A60B86805F003FA03467B627B6AAF
:10420000022B04D01C49F86806F080FB30E0012145
:10421000B86805F0BFF93862386A0AF0E9FA03466F
:10422000FB61FB69072B04D91449F86806F06EFBA3
:104230001EE00221B86805F0ADF9B861B8690AF06E
:10424000D7FA03467B617B69072B04D90C49F868D0
:1042500006F05CFB0CE00B4B1B68FA69D1B27A6983
:10426000D2B2184601F001FF0749F86806F04EFB8C
:104270002837BD4680BD00BF8C260108A426010852
:10428000C8260108100000205C21010880B586B016
:1042900000AFF860B9607A600023BB820B4B1B68EB
:1042A00007F114021146184601F000FF3B7D1A4643
:1042B0000749F86806F02AFB7B7D1A460549F8682D
:1042C00006F024FB00BF1837BD4680BD100000205B
:1042D000EC2601080027010880B588B000AFF8601F
:1042E000B9607A60B86805F08BF90346FB61FB6939
:1042F000012B04D01249F86806F008FB1CE00121EC
:10430000B86805F047F9B861B8690AF071FA034670
:10431000FB75FB7D012B04D90A49F86806F0F6FA13
:104320000AE0094B1B68FA7D1146184601F094FF1C
:104330000649F86806F0EAFA2037BD4680BD00BF9E
:10434000142701082C270108100000205C21010817
:1043500080B586B000AFF860B9607A600A4B1B6820
:10436000184601F08DFF0346FB75FB7D002B01D045
:10437000064B00E0064B1A460649F86806F0C6FAF6
:1043800000BF1837BD4680BD100000205827010827
:104390005C2701086027010880B584B000AFF86091
:1043A000B9607A60064B1B68184601F09BFC054912
:1043B000F86806F0ABFA00BF1037BD4680BD00BFFD
:1043C000100000205C21010880B584B000AFF860C7
:1043D000B9607A60064B1B68184601F05FFC05491E
:1043E000F86806F093FA00BF1037BD4680BD00BFE5
:1043F000100000205C21010880B588B000AFF86093
:10440000B9607A60B86805F0FBF80346FB61FB69A8
:10441000012B04D01349F86806F078FA1EE0012158
:10442000B86805F0B7F8B861B8690AF0E1F9034671
:10443000FB82B7F91630642B04DD0B49F86806F0EF
:1044400065FA0BE0094B1B68B7F9162000211846E6
:10445000FEF720FE0649F86806F058FA2037BD46F8
:1044600080BD00BF7C270108A4270108140000209C
:104470005C21010880B588B000AFF860B9607A604F
:10448000B86805F0BDF80346FB61FB69012B04D059
:104490001349F86806F03AFA1EE00121B86805F001
:1044A00079F8B861B8690AF0A3F90346FB82B7F955
:1044B0001630642B04DD0B49F86806F027FA0BE090
:1044C000094B1B68B7F9162001211846FEF7E2FDDB
:1044D0000649F86806F01AFA2037BD4680BD00BFCD
:1044E000C8270108A4270108140000205C21010846
:1044F00080B588B000AFF860B9607A600023FB83B4
:104500000023BB83B86805F07BF80346FB76FB7E8F
:10451000012B04D02049F86806F0F8F939E00121B0
:10452000B86805F037F878617B691B78612B0ED18C
:1045300002F076FD0346FB8302F09AFD0346BB833F
:10454000FA8BBB8B1549F86806F0E0F921E07B692E
:104550001B78302B0AD102F063FD0346FB83FB8BF3
:104560001A460F49F86806F0D1F912E07B691B780A
:10457000312B0AD102F07CFD0346BB83BB8B1A466C
:104580000849F86806F0C2F903E00749F86806F040
:10459000BDF92037BD4680BDB420010810280108B0
:1045A0004828010864280108FC20010880B588B06B
:1045B00000AFF860B9607A60B86805F021F803468A
:1045C000FB61FB69012B04D01349F86806F09EF9E2
:1045D0001EE00121B86804F0DDFFB861B8690AF097
:1045E00007F978617B69242B02DC7B69002B04DCF2
:1045F0000A49F86806F08AF90AE0094B1B687A69EB
:1046000011461846FEF771FD0649F86806F07EF976
:104610002037BD4680BD00BF80280108A4280108BE
:10462000140000205C21010880B588B000AFF8605C
:10463000B9607A60B86804F0E3FF0346FB61FB6988
:10464000012B04D01349F86806F060F91EE001213F
:10465000B86804F09FFFB861B8690AF0C9F87861DA
:104660007B69082B02DC7B69002B04DC0A49F868B3
:1046700006F04CF90AE0094B1B687A6911461846A6
:10468000FEF756FD0649F86806F040F92037BD46AA
:1046900080BD00BFC8280108EC28010814000020D4
:1046A0005C21010880B584B000AFF860B9607A6021
:1046B00002F000FC0349F86806F028F900BF103743
:1046C000BD4680BD5C21010880B584B000AFF860B4
:1046D000B9607A60064B1B681846FEF74CFD054929
:1046E000F86806F013F900BF1037BD4680BD00BF63
:1046F000140000205C21010880B592B000AFF86082
:10470000B9607A60B86804F07BFF03467B647B6C19
:10471000062B04D05E49F86806F0F8F8B5E00121F0
:10472000B86804F037FF034618460AF061F80346FC
:104730003B643B6CB3F57A7F03D33B6C554A9342A1
:1047400004D95549F86806F0E1F89EE00221B868FE
:1047500004F020FF034618460AF04AF80346FB63BC
:10476000FB6B002B02D0FB6B242B04D94B49F86860
:1047700006F0CCF889E00321B86804F00BFF03468B
:1047800018460AF035F80346BB63BB6B642B04D9AB
:104790004349F86806F0BAF877E00421B86804F0F5
:1047A000F9FE034618460AF023F803467B637B6B49
:1047B000002B04D13B49F86806F0A8F865E0052114
:1047C000B86804F0E7FE034618460AF011F80346FD
:1047D0003B633B6B002B04D13349F86806F096F835
:1047E00053E00621B86804F0D5FE0346184609F0E8
:1047F000FFFF0346FB62FB6A002B04D12B49F868DC
:1048000006F084F841E07A6B3B6B1A44FB6A134470
:104810003A6C02FB03F3264AA2FB03231B0CBB6288
:10482000BB6AB3F5006F04D92249F86806F06EF848
:104830002BE03B6C7B61FB6BDBB23B76BB6BDBB293
:104840007B767B6B9BB27B833B6B9BB2BB83FB6AB0
:104850009BB2FB83BB6A3B62174A3B6CB2FBF3F330
:104860007B62164B1B6807F1140211461846FEF7CF
:104870009DFC0346002B04D11149F86806F046F868
:1048800003E01049F86806F041F84837BD4680BD9E
:104890000C29010850F80C0078290108A02901080A
:1048A000BC290108DC290108002A0108282A01087E
:1048B000D34D62104C2A010840420F001400002022
:1048C0005C21010864210108F0B591B006AFF860E1
:1048D000B9607A60104B1B6807F114021146184644
:1048E000FEF7A4FC7A693B7E1E467B7E19467B8BD5
:1048F0001846BB8B1C46FB8B1D463B6A04930395F5
:1049000002940190009133460449F86805F0FEFFD7
:1049100000BF2C37BD46F0BD14000020742A0108EA
:1049200080B584B000AFF860B9607A600C4B1B684A
:104930001846FEF78FFC0346002B04D00949F8689F
:1049400005F0E4FF07E0084B1B681846FEF7E2FCA1
:10495000064B01221A7000BF1037BD4680BD00BF54
:1049600014000020102B01081800002040440020F3
:1049700080B588B000AFF860B9607A60B86804F0BC
:104980003FFE0346FB61FB69032B04D03349F86803
:1049900005F0BCFF5FE0324B1B6893F84830052BF5
:1049A00010D02F4B1B6893F84830032B0AD02C4BA8
:1049B0001B6893F84830042B04D02A49F86805F0A6
:1049C000A5FF48E00121B86804F0E4FD034618465D
:1049D00009F00EFF0346BB61BB69B3F5001F04D3AA
:1049E0002149F86805F092FF35E00221B86804F02B
:1049F000D1FD0346184609F0FBFE03467B61BB6907
:104A0000C3F500137A699A4203D87B69B3F5007F36
:104A100008D2BB69C3F500131A461449F86805F0BB
:104A200075FF18E00321B86804F0B4FD034618468A
:104A300009F0DEFE0346FB74FB7C012B04D90C4914
:104A4000F86805F063FF06E0054B1868FB7C7A699F
:104A5000B969FEF7A5FA2037BD4680BD302B0108A5
:104A600014000020682B0108882B0108B42B0108D2
:104A7000E02B010880B584B000AFF860B9607A60BF
:104A8000084B1B78002B05D0074B1B681846FEF718
:104A9000ADFA04E00549F86805F038FF00BF1037AB
:104AA000BD4680BD4044002014000020182C0108A1
:104AB00080B400AF024B1846BD465DF8047B7047DA
:104AC0005436010880B400AF2E231846BD465DF869
:104AD000047B704780B483B000AF78607B68DB698B
:104AE00003F02003202B01D1012300E0002318460E
:104AF0000C37BD465DF8047B704780B483B000AFCF
:104B000078607B685B6ADBB218460C37BD465DF89F
:104B1000047B704780B500AF4FF4806208490948B4
:104B200006F090FA4FF480520749084806F08AFAD6
:104B3000064B044A0649074805F0FFFF00BF80BD49
:104B40001C450020F44400201C490020084500209A
:104B500000140140E4440020B0B588B000AF1B4B06
:104B60003C1D1D460FCD0FC495E8070084E80700E3
:104B7000FFF79EFF0346BB61FFF7A4FF0346BB831D
:104B80003B1D184604F009FB0346114A1360104B05
:104B90001B68002B05D101210E4801F0E1FF012324
:104BA00010E00B4B1B680C4A1A60094B1C683B1D3C
:104BB000184604F0C1FA03461A460849204605F093
:104BC000A5FE002318462037BD46B0BD5C2C010869
:104BD00020590020A43A0108E14B00083C2C0108B0
:104BE00080B582B000AF78600B46FB70FB78194649
:104BF000034806F025F800BF0837BD4680BD00BF5A
:104C0000E444002080B584B002AF786039607B68EE
:104C1000002B03D10021154801F0A2FF78683B6802
:104C2000DA683B681B6900931346114A114906F084
:104C3000C9FC7B6820337A680621184606F02EFDF1
:104C40003B685A687B68DA613B689A687B689A615E
:104C50003B681A687B685A617B682033184606F007
:104C60005FFD00BF0837BD4680BD00BFA43A010804
:104C70007D4D0008FD4C000880B588B002AFFFF7FD
:104C800049FF022300931E233C220D490D4806F0E4
:104C9000B4F8FFF761FF0C4B7B600C4B1B68BB60EB
:104CA0000B4BFB600B4B3B61064B7B613B1D19467D
:104CB0000948FFF7A7FF00BF1837BD4680BD00BFFA
:104CC0008C440020C8440020C54D00082059002015
:104CD000E4440020884400204444002080B582B091
:104CE00000AF0346FB71FB791946034806F084FCCC
:104CF00000BF0837BD4680BD4444002080B582B067
:104D000000AF786039607B68002B03D1072115481C
:104D100001F026FF7B689B69184605F02AFF7B6837
:104D200020330A220A21184606F0DAFC0E4B1B68D3
:104D30000E49184605F0EAFD0B4B1B680C49184656
:104D400005F0E4FD084B1B680A49184605F0DEFD36
:104D5000054B1B680849184605F0D8FD00BF083709
:104D6000BD4680BDA43A010820590020782C0108D6
:104D7000A82C0108C82C0108E42C010880B584B0D7
:104D800000AF786039607B685B69FB607B685B695A
:104D90003968786898470346FB72FB7A002B08D184
:104DA000FB680649786898477B685B6904497868BE
:104DB000984700BF1037BD4680BD00BFB03A01081C
:104DC000AC3A010880B582B000AF786039607B688A
:104DD000002B03D10321244801F0C2FE3B68002BC5
:104DE00003D10421204801F0BBFE3B681B88013B36
:104DF000072B34D801A252F823F000BF1D4E000843
:104E00005F4E00082F4E00085F4E00085F4E0008FE
:104E10003D4E00084B4E0008554E00087B6820337D
:104E20000A220A21184606F05BFC012318E07B6881
:104E30002033184606F074FC012311E00B4B1B686D
:104E4000184604F05CFA01230AE07B68084A5A61BC
:104E5000002305E07B68074A5A61002300E0022333
:104E600018460837BD4680BDA43A010820590020E5
:104E7000094F00081950000880B582B000AF0B48F8
:104E8000FFF728FE0346002B0BD00848FFF735FE3E
:104E90000346FB71064B1B68FA791146184604F06D
:104EA0000BFA00BF0837BD4680BD00BF00140140AB
:104EB0002059002080B584B000AF78607B689B6982
:104EC000184605F067FFF860FB68002B08D0064B1A
:104ED0001B78002B04D07B680449184606F0B6FB0B
:104EE00000BF1037BD4680BD1C590020B43A0108F0
:104EF00080B500AFFFF7C0FF0248FFF7DBFF00BF40
:104F000080BD00BF4444002080B584B000AF78600D
:104F100039600023FB603B681B88012B27D0092BDD
:104F200046D074E0786800F00DFA1BE07B689A695F
:104F30007B6893F83D3019467B680B4493F8383012
:104F40001946104605F07CFEF860FB68002B01D086
:104F500001235DE07B6893F83D300133DAB27B6872
:104F600083F83D207B6893F83D30042BDED97B68C5
:104F70005B6B002BD6D11BE07B689A697B6893F84A
:104F80003D3019467B680B4493F83830194610467B
:104F900005F056FEF860FB68002B01D0012337E0D6
:104FA0007B6893F83D300133DAB27B6883F83D20AB
:104FB0007B6893F83D30042BDED924E0786800F05C
:104FC000C1F91BE07B689A697B6893F83D3019460C
:104FD0007B680B4493F838301946104605F030FED4
:104FE000F860FB68002B01D0012311E07B6893F887
:104FF0003D300133DAB27B6883F83D207B6893F85B
:105000003D30042BDED97B685B6B002BD6D10223AD
:1050100018461037BD4680BD80B586B000AF7860B9
:1050200039603B681B88013B0A2B00F2018101A219
:1050300052F823F061500008315200083152000844
:105040003152000831520008315200083152000834
:10505000315200086F5100080B510008E751000859
:10506000764B1B6C5B00764A1A40764B13433B61D0
:105070003B691B0CDBB23B733B691B0ADBB27B73E6
:105080003B69DBB2BB730023FB750DE07B689A695B
:10509000FB7D18333B4413F80C3C1946104605F0D1
:1050A000CFFDFB7D0133FB75FB7D022BEED9664BFB
:1050B0001B681846FDF7BEFF0123BAE0786800F0D0
:1050C00016F91DE07B689A697B6893F840301946B1
:1050D0007B680B4493F83E301946104605F0B0FD4E
:1050E0000346002B04D0594B01221A700123A0E083
:1050F0007B6893F840300133DAB27B6883F8402054
:105100007B6893F84030012BDCD97B685B6B002B0C
:10511000D4D14D4B1B681846FDF7ACFF012388E046
:105120007B689A697B6893F8403019467B680B442A
:1051300093F83E301946104605F082FD0346002BD9
:1051400001D0012375E07B6893F840300133DAB277
:105150007B6883F840207B685B6B002B07D13B4B5F
:1051600000221A70384B1B681846FDF783FF7B68D6
:1051700093F84030012BD3D92FE0786800F0B7F8CE
:105180001AE07B689A697B6893F8403019467B681F
:105190000B4493F83E301946104605F051FD034686
:1051A000002B01D0012344E07B6893F840300133A9
:1051B000DAB27B6883F840207B6893F84030012B9B
:1051C000DFD97B685B6B002B07D1204B00221A7064
:1051D0001D4B1B681846FDF74DFF7B685B6B002B72
:1051E000CBD1012325E07B68B3F842301B0A9BB288
:1051F000DBB23B737B68B3F84230DBB27B730023D6
:10520000BB750DE07B689A69BB7D18333B4413F88E
:105210000C3C1946104605F013FDBB7D0133BB75F0
:10522000BB7D012BEED97B68094A5A61002300E05F
:10523000022318461837BD4680BD00BF64430020D6
:10524000FEFF3F000000C0FF1C0000201C59002092
:10525000C54D000880B485B000AF78600B467B80F8
:105260007B881B0A9BB2DBB23B737B88DBB27B7310
:105270000023FB7331E07B681B881AB2FB7B103381
:105280003B4413F8043C1BB21B021BB253401BB23D
:105290009AB27B681A800023BB7318E07B681B8876
:1052A0001BB2002B0ADA7B681B881BB25B001AB2A8
:1052B00041F2210353401BB29BB203E07B681B8881
:1052C0005B009BB27A681380BB7B0133BB73BB7BF3
:1052D000072BE3D9FB7B0133FB73FB7B012BCAD983
:1052E00000BF00BF1437BD465DF8047B704780B532
:1052F00084B000AF78607B681B6B991C7A6811637F
:105300001B88FB817B685B6B5A1E7B685A637B68DA
:105310004233FA8911461846FFF79CFFFB891B0AA6
:105320009BB2DAB27B6883F83E20FB89DAB27B68F5
:1053300083F83F207B68002283F8402000BF1037AD
:10534000BD4680BDB0B588B000AF78602B4B07F18B
:105350000C041D460FCD0FC42B6823707B681B6B9C
:10536000991C7A6811631B88FB837B685B6B5A1EF0
:105370007B685A63FB8B1B0B9BB203F00F0320333C
:105380003B4413F8142C7B6883F83820FB8B1B0AF2
:105390009BB203F00F0320333B4413F8142C7B68BB
:1053A00083F83920FB8B1B099BB203F00F032033DA
:1053B0003B4413F8142C7B6883F83A20FB8B03F0F2
:1053C0000F0320333B4413F8142C7B6883F83B20F5
:1053D0007B68202283F83C207B68002283F83D20F4
:1053E0007B685B6B002B04D1054B1B681846FDF7EF
:1053F00041FE00BF2037BD46B0BD00BF102D0108E3
:105400001C00002080B584B002AF786039607868F5
:105410003B685A683B689B68009313460F4A1049E3
:1054200006F0D0F87B6814337A682621184606F017
:1054300035F93B681A687B685A627B684FF47A7268
:105440009A627B68FF2283F82C207B68143318460D
:1054500006F066F900BF0837BD4680BD0555000857
:10546000A954000880B586B002AF0223009301233F
:1054700002220949094805F0C0FC094A3B1D07CA38
:1054800083E807003B1D19460648FFF7BBFF00BF36
:105490001037BD4680BD00BF74D9002054D900200C
:1054A000242D010824D9002080B582B000AF786097
:1054B000396005F013FF7B6803F114007B689B6A79
:1054C00099B27B689B6A9BB21A4606F009F902F012
:1054D0004FF9034805F04DFB00BF0837BD4680BDBE
:1054E00004DE012080B582B000AF0346FB71FB797A
:1054F0001946034806F080F800BF0837BD4680BD56
:1055000024D9002080B582B000AF786039603B6854
:105510001B88262B02D1786800F006F80123184674
:105520000837BD4680BD000080B582B000AF78600E
:105530000349044805F0CAFB00BF0837BD4680BDDB
:10554000302D010804DE012080B584B000AF786002
:1055500039603B681B88162B20D0162B63DC012B8F
:1055600002D0032B13D05EE0082001F05BF97B68CA
:105570002033184606F0D4F8786800F0FDFD78680E
:1055800000F047FE7B6801229A6101234CE04FF452
:10559000FA71082001F028F9012345E03B689B7867
:1055A000042B3ED17B6893F83030002B09D10121C8
:1055B000786800F0BBFB786800F0E3FB786800F0E7
:1055C000DBFD7B6893F8483018467B6893F84930D8
:1055D00019467B68B3F950207B68B3F9523001F06B
:1055E00049FE0346002B04D07B68114A5A61002310
:1055F0001AE07B6893F84830184601F00BFE03462A
:10560000FB817B68B3F95830B7F90E209A4203DD6D
:105610007B68084A5A6102E07B68074A5A610023A6
:1056200002E0022300E0022318461037BD4680BD89
:10563000695B00083D5600087957000880B584B0C2
:1056400000AF786039603B681B88013B152B00F286
:10565000878001A252F823F0B15600086157000874
:10566000DB560008615700086157000861570008C1
:10567000615700086157000861570008615700082A
:10568000615700086157000861570008615700081A
:10569000615700086157000861570008615700080A
:1056A0006157000861570008E95600084B57000889
:1056B000062005F019FE7B680022DA61786800F0A8
:1056C000B4FB786800F034FD7B68203364226421E9
:1056D000184606F005F8012343E07B68203318469E
:1056E00006F01EF801233CE0082001F0B5F87B68C5
:1056F00093F8483018467B6893F8493019467B6820
:10570000B3F950207B68B3F9523001F0B3FD034682
:10571000002B04D07B68154A5A61002321E07B6886
:1057200093F84830184601F075FD0346FB817B680D
:10573000B3F95830B7F90E209A4201DD012310E089
:105740007B680B4A5A6100230BE03B689B78052B72
:1057500004D17B68074A5A61002302E0022300E07B
:10576000022318461037BD4680BD00BF695B0008A4
:10577000795700084955000880B584B000AF7860BB
:1057800039603B681B88013B152B00F2998001A210
:1057900052F823F0ED570008C158000811580008CE
:1057A000C1580008C1580008C1580008C158000875
:1057B000C1580008C1580008C1580008C158000865
:1057C000C1580008C1580008C1580008C158000855
:1057D000C1580008C1580008C1580008C158000845
:1057E000C15800081F580008AB5800087B68002209
:1057F000DA61786800F0C0FC786800F00AFD7B6828
:10580000203364226421184605F06AFF012358E022
:105810007B682033184605F083FF012351E0082000
:1058200001F01AF87B6893F8483018467B6893F8C3
:10583000493019467B68B3F950207B68B3F9523080
:1058400001F018FD0346002B04D07B681F4A5A6103
:10585000002336E07B6893F84830184601F0DAFC04
:105860000346FB817B68B3F95830B7F90E209A42A2
:1058700004DD7B68164A5A61002322E07B68DB69FD
:105880005A1C7B68DA617B68DB691D2B08D87B6852
:10589000B3F958301A46B7F90E30D31A0A2B04DD83
:1058A0007B680C4A5A6100230BE03B689B78052B10
:1058B00004D17B68084A5A61002302E0022300E019
:1058C000022318461037BD4680BD00BF695B000843
:1058D0003D560008DD5800084955000880B584B0E1
:1058E00000AF786039603B681B88013B152B00F2E4
:1058F000878001A252F823F051590008015A00088C
:105900007B590008015A0008015A0008015A000892
:10591000015A0008015A0008015A0008015A0008FB
:10592000015A0008015A0008015A0008015A0008EB
:10593000015A0008015A0008015A0008015A0008DB
:10594000015A0008015A000889590008EB5900085B
:10595000072005F0C9FC7B680022DA61786800F056
:105960000BFC786800F02CFC7B68203364226421F7
:10597000184605F0B5FE012343E07B682033184646
:1059800005F0CEFE01233CE0082000F065FF7B68B7
:1059900093F8483018467B6893F8493019467B687D
:1059A000B3F950207B68B3F9523001F063FC034631
:1059B000002B04D07B68154A5A61002321E07B68E4
:1059C00093F84830184601F025FC0346FB817B68BC
:1059D000B3F95830B7F90E209A4201DA012310E0EA
:1059E0007B680B4A5A6100230BE03B689B78052BD0
:1059F00004D17B68074A5A61002302E0022300E0D9
:105A0000022318461037BD4680BD00BF695B000801
:105A1000195A00084955000880B584B000AF786075
:105A200039603B681B88013B152B00F28F8001A277
:105A300052F823F08D5A00084D5B0008AB5A00085D
:105A40004D5B00084D5B00084D5B00084D5B000896
:105A50004D5B00084D5B00084D5B00084D5B000886
:105A60004D5B00084D5B00084D5B00084D5B000876
:105A70004D5B00084D5B00084D5B00084D5B000866
:105A80004D5B0008B95A0008375B0008786800F0E1
:105A900073FB786800F0BDFB7B68203364226421CF
:105AA000184605F01DFE012351E07B68203318469F
:105AB00005F036FE01234AE0082000F0CDFE7B68A9
:105AC00093F8483018467B6893F8493019467B684C
:105AD000B3F950207B68B3F9523001F0CBFB034699
