:020000040800F2
:10000000000008202D310008D52E0008DD2E000844
:10001000E52E0008ED2E0008F52E00080000000077
:10002000000000000000000000000000FD2E00089D
:100030000B2F000800000000192F0008272F0008D0
:100040007D3100087D3100087D3100087D310008D8
:100050007D3100087D3100087D3100087D310008C8
:100060007D3100087D3100087D3100087D310008B8
:100070003F2F00087D3100087D3100087D310008E8
:100080007D3100087D3100087D3100087D31000898
:100090007D3100087D3100087D3100087D31000888
:1000A0007D310008E18500087D3100087D310008C0
:1000B0002D8600087D3100087D3100087D31000863
:1000C0007D3100087D3100087D3100087D31000858
:1000D0007D3100084B2F00087D3100087D3100087C
:1000E0007D3100087D3100087D3100087D31000838
:1000F0007D3100087D3100087D3100087D31000828
:100100007D3100087D3100087D3100087D31000817
:100110007D3100087D3100087D3100087D31000807
:100120007D310008572F0008652F0008A5890008B9
:10013000712F00087D3100087D3100087D310008F5
:100140007D3100087D3100087D3100087D310008D7
:100150007D310008958800087D310008255300088E
:100160007D3100087D3100087D3100087D310008B7
:100170007D3100087D3100087D310008000000005D
:100180007D3100087D310008713500087D3100089F
:100190007D3100087D3100087D3100087D31000887
:1001A00000000000000000007D3100087D310008E3
:1001B0007D3100087D3100087D3100087D31000867
:1001C0007D3100087D310008000000007D3100080D
:1001D0007D3100087D3100087D3100087D31000847
:1001E0007D3100087D3100087D3100087D31000837
:0801F000000000007D31000851
:1002000010B5054C237833B9044B13B10448AFF350
:1002100000800123237010BDB843002000000000BF
:100220009046010808B5034B1BB103490348AFF3DF
:10023000008008BD00000000BC430020904601087B
:1002400010F8012B11F8013B012A28BF9A42F7D080
:10025000D01A7047000000000000000000000000FD
:1002600001F0FF01102A2BDB10F0070F08D010F867
:10027000013B013A8B422DD010F0070F42B3F6D16B
:10028000F0B441EA012141EA014122F007047FF084
:1002900000070023F0E80256083C85EA010586EADB
:1002A000010685FA47F5A3FA87F586FA47F6A5FA17
:1002B00087F68EB9EED1F0BC01F0FF0102F0070223
:1002C00032B110F8013B013A83EA010313B1F8D1CE
:1002D0000020704701387047002D06BF35460338AF
:1002E000073815F0010F07D1013015F4807F02BFE8
:1002F000013015F4C03F0130F0BC0138704700BF39
:10030000034613F8012B002AFBD1181A0138704755
:1003100080F0004002E000BF81F0004142001FBFBA
:100320005FEA410392EA030F7FEA226C7FEA236CC3
:100330006AD04FEA1262D2EB1363C1BFD2184140B8
:1003400048404140B8BF5B42192B88BF704710F04E
:10035000004F40F4000020F07F4018BF404211F0F1
:10036000004F41F4000121F07F4118BF494292EA59
:10037000030F3FD0A2F1010241FA03FC10EB0C0085
:10038000C3F1200301FA03F100F0004302D5494212
:1003900060EB4000B0F5000F13D3B0F1807F06D3BF
:1003A00040084FEA310102F10102FE2A51D2B1F1B7
:1003B000004F40EBC25008BF20F0010040EA0300AC
:1003C0007047490040EB0000013A28BFB0F5000F2C
:1003D000EDD2B0FA80FCACF1080CB2EB0C0200FAE2
:1003E0000CF0AABF00EBC25052421843BCBFD04031
:1003F0001843704792F0000F81F4000106BF80F4AB
:1004000000000132013BB5E74FEA41037FEA226C6D
:1004100018BF7FEA236C21D092EA030F04D092F038
:10042000000F08BF0846704790EA010F1CBF00206C
:10043000704712F07F4F04D1400028BF40F00040C9
:10044000704712F100723CBF00F50000704700F0E9
:10045000004343F0FE4040F4000070477FEA226210
:1004600016BF08467FEA23630146420206BF5FEAE1
:10047000412390EA010F40F4800070474FF00003E1
:1004800004E000BF10F0004348BF40425FEA000CA8
:1004900008BF704743F0964301464FF000001CE050
:1004A00050EA010208BF70474FF000030AE000BFA6
:1004B00050EA010208BF704711F0004302D54042E4
:1004C00061EB41015FEA010C02BF84460146002056
:1004D00043F0B64308BFA3F18053A3F50003BCFA71
:1004E0008CF2083AA3EBC25310DB01FA02FC63441E
:1004F00000FA02FCC2F12002BCF1004F20FA02F225
:1005000043EB020008BF20F00100704702F1200217
:1005100001FA02FCC2F1200250EA4C0021FA02F278
:1005200043EB020008BF20EADC7070477BB972B968
:100530000029BEBF00204FF0004106E008BF0028A0
:100540001CBF6FF000414FF0FF3000F0D3B9ADF1A8
:10055000080C6DE904CE002909DB002B1ADB00F042
:100560004DF8DDF804E0DDE9022304B070474042B5
:1005700061EB4101002B1BDB00F040F8DDF804E0EB
:10058000DDE9022304B0404261EB4101524263EBDA
:1005900043037047524263EB430300F02FF8DDF84A
:1005A00004E0DDE9022304B0404261EB4101704701
:1005B000524263EB430300F021F8DDF804E0DDE98B
:1005C000022304B0524263EB4303704753B94AB964
:1005D000002908BF00281CBF4FF0FF314FF0FF304B
:1005E00000F088B9ADF1080C6DE904CE00F006F812
:1005F000DDF804E0DDE9022304B070472DE9F0479F
:10060000089D8E4604468846002B4AD18A421746EA
:1006100062D9B2FA82F64EB1C6F1200301FA06F8A9
:1006200020FA03F3B74043EA0808B4404FEA174EF4
:100630001FFA87FCB8FBFEF1230C0EFB118843EA7E
:10064000084301FB0CF29A4209D9FB1801F1FF3073
:1006500080F0EA809A4240F2E78002393B449A1ADD
:10066000A3B2B2FBFEF00EFB102243EA024300FBF2
:100670000CFC9C4509D9FB1800F1FF3280F0D680B4
:100680009C4540F2D3803B44023840EA0140A3EB52
:100690000C0300211DB1F3400022C5E90032BDE882
:1006A000F0878B4205D90DB1C5E90001002108464C
:1006B000F5E7B3FA83F1002946D1734502D38242AC
:1006C00000F20581841A6EEB030201209046002D92
:1006D000E5D0C5E90048E2E7002A00F09080B2FAD0
:1006E00082F6002E40F0A4808A1A030C4FEA174EBF
:1006F00080B2BCB20121B2FBFEFC0EFB1C2243EA1D
:10070000024304FB0CF29A4207D9FB180CF1FF38A4
:1007100002D29A4200F2E080C4469B1AB3FBFEF27A
:100720000EFB123340EA034302FB04F49C4207D958
:10073000FB1802F1FF3002D29C4200F2CA8002464E
:100740001B1B42EA0C40A5E7C1F120068B4022FAB0
:1007500006F71F430EFA01F420FA06F32EFA06FEFE
:100760004FEA1749234300FA01F81FFA87FCBEFB42
:10077000F9F01C0C09FB10EE44EA0E4400FB0CFEE1
:10078000A64502FA01F209D93C1900F1FF3A80F0BE
:100790009C80A64540F2998002383C44A4EB0E04AC
:1007A0001FFA83FEB4FBF9F309FB13444EEA044439
:1007B00003FB0CFCA44508D93C1903F1FF3E80F073
:1007C0008280A4457FD9023B3C4443EA0040A4EB2D
:1007D0000C04A0FB02EC64457346E14662D35FD093
:1007E0005DB1B8EB030264EB090404FA06F622FAE1
:1007F00001F31E43CC40C5E9006400214FE7B1FB83
:10080000F2FC010C41EA0E4180B240EA01423B4653
:1008100038463C46B846BE462026B1FBF7F1A2EB6F
:10082000080241EA0C4166E7014618E710462CE74A
:10083000C6F120022EFA02F3B740B14020FA02F2CC
:100840004FEA174E0A43B3FBFEF8BCB20EFB183357
:10085000110C41EA034108FB04F9B04089454FEA15
:10086000104380B23ED9791808F1FF3C01D2894586
:100870001FD8A1EB0901B1FBFEF909FB04F80EFB3F
:10088000191192B242EA0142424529D2BA1809F13D
:10089000FF31C4D24245C2D2A9F102013A44BEE7B7
:1008A000F0459DD2BEEB02036CEB070C0138E1462C
:1008B00096E7A7EB09094944A8F1020CB1FBFEF940
:1008C00009FB04F8DBE773467FE7504666E7084616
:1008D000FDE63B44023A33E7ACF1020C3B441CE733
:1008E00049469CE7A1EB0901C446B1FBFEF909FBAF
:1008F00004F8C4E7704700BF80B400AF044BDB6866
:100900001B0A03F007031846BD465DF8047B7047D9
:1009100000ED00E080B483B000AF0346FB7197F9AF
:100920000730002B0BDBFB7903F01F02074997F917
:1009300007305B09012000FA02F241F8232000BFD2
:100940000C37BD465DF8047B704700BF00E100E056
:1009500080B483B000AF03463960FB7197F907306C
:10096000002B0ADB3B68DAB20C4997F90730120119
:10097000D2B20B4483F800230AE03B68DAB208499C
:10098000FB7903F00F03043B1201D2B20B441A7639
:1009900000BF0C37BD465DF8047B704700E100E006
:1009A00000ED00E080B489B000AFF860B9607A6013
:1009B000FB6803F00703FB61FB69C3F10703042B2A
:1009C00028BF0423BB61FB690433062B02D9FB69F2
:1009D000033B00E000237B614FF0FF32BB6902FA6A
:1009E00003F3DA43BB681A407B699A404FF0FF314A
:1009F0007B6901FA03F3D9437B680B401343184624
:100A00002437BD465DF8047B704780B489B000AFE1
:100A1000F860B9607A60FB682C331946BB6803F450
:100A200040734FF44072BA61BA6992FAA2F27A61E5
:100A30007A69B2FA82F2D2B2D3409B000B44FB61D6
:100A4000FB691A68BB6803F01F031F2101FA03F357
:100A5000DB431A407B6803F01F01BB6803F01F03F0
:100A600001FA03F31A43FB691A6000BF2437BD463D
:100A70005DF8047B704780B483B000AF7860396064
:100A80007B689B6823F480623B681A437B689A60AA
:100A900000BF0C37BD465DF8047B704780B48DB055
:100AA00000AFF860B9607A60FB680C331946BB6828
:100AB00003F000734FF00072BA61BA6992FAA2F2C1
:100AC0007A617A69B2FA82F2D2B2D3409B000B44C7
:100AD000FB62FB6A1A68BB6803F0F8734FF0F871A9
:100AE0003962396A91FAA1F1F961F969B1FA81F1D2
:100AF000C9B2CB40072101FA03F3DB431A40BB68BC
:100B000003F0F8734FF0F871B962B96A91FAA1F184
:100B10007962796AB1FA81F1C9B2CB40796801FA98
:100B200003F31A43FB6A1A6000BF3437BD465DF811
:100B3000047B704780B485B000AFF860B9607A601C
:100B40000D4ABB6813441B781A46FB6813441B68A4
:100B500023F0C0020849BB680B441B781946FB68A8
:100B60000B4419467B6813430B6000BF1437BD4626
:100B70005DF8047B704700BFF46B010880B485B05A
:100B800000AFF860B9607A600D4ABB6813441B7807
:100B90001A46FB6813441B6823F490720849BB682B
:100BA0000B441B781946FB680B4419467B681343BA
:100BB0000B6000BF1437BD465DF8047B704700BF73
:100BC000F46B010880B485B000AFF860B9607A605A
:100BD0000D4ABB6813441B781A46FB6813441B6814
:100BE00023F400720849BB680B441B781946FB6864
:100BF0000B4419467B6813430B6000BF1437BD4696
:100C00005DF8047B704700BFF46B010880B485B0C9
:100C100000AFF860B9607A600D4ABB6813441B7876
:100C20001A46FB6813441B6823F480620849BB68BA
:100C30000B441B781946FB680B4419467B68134329
:100C40000B6000BF1437BD465DF8047B704700BFE2
:100C5000F46B010880B485B000AFF860B9607A60C9
:100C60000D4ABB6813441B781A46FB6813441B6883
:100C700023F4C0520849BB680B441B781946FB6833
:100C80000B4419467B6813430B6000BF1437BD4605
:100C90005DF8047B704700BFF46B010880B485B039
:100CA00000AFF860B9607A600D4ABB6813441B78E6
:100CB0001A46FB6813441B6823F4C0420849BB680A
:100CC0000B441B781946FB680B4419467B68134399
:100CD0000B6000BF1437BD465DF8047B704700BF52
:100CE000F46B010880B485B000AFF860B9607A6039
:100CF0000D4ABB6813441B781A46FB6813441B68F3
:100D000023F440320849BB680B441B781946FB6842
:100D10000B4419467B6813430B6000BF1437BD4674
:100D20005DF8047B704700BFF46B010880B485B0A8
:100D300000AFF860B9607A600D4ABB6813441B7855
:100D40001A46FB6813441B6823F0F0520849BB683D
:100D50000B441B781946FB680B4419467B68134308
:100D60000B6000BF1437BD465DF8047B704700BFC1
:100D7000F46B010880B483B000AF786039600C4A2E
:100D80003B6813441B781A467B6813445B69084927
:100D90003A680A44127811467A680A4423F0040338
:100DA000536100BF0C37BD465DF8047B704700BF40
:100DB000F46B010880B483B000AF78607B681B6877
:100DC00043F001027B681A6000BF0C37BD465DF836
:100DD000047B704780B483B000AF78607B681B6889
:100DE00023F400327B681A6000BF0C37BD465DF803
:100DF000047B704780B483B000AF78607B681B6869
:100E000023F400227B681A6000BF0C37BD465DF8F2
:100E1000047B704780B485B000AFF860B9607A6039
:100E2000FB68DA68064B1340B9687A680A431A43CC
:100E3000FB68DA6000BF1437BD465DF8047B70477D
:100E400001F8FFFF80B483B000AF78607B68DB6897
:100E500023F400427B68DA6000BF0C37BD465DF8C2
:100E6000047B704780B483B000AF78607B685B68B8
:100E700043F000727B685A6000BF0C37BD465DF8D6
:100E8000047B704780B483B000AF78607B681B68D8
:100E900043F040027B681A6000BF0C37BD465DF826
:100EA000047B704780B483B000AF786039607B68A2
:100EB0005B6823F010023B681A437B685A6000BFEE
:100EC0000C37BD465DF8047B704780B483B000AF3B
:100ED00078607B685B6843F008027B685A6000BFFB
:100EE0000C37BD465DF8047B704780B483B000AF1B
:100EF00078607B685B6823F008027B685A6000BFFB
:100F00000C37BD465DF8047B704780B483B000AFFA
:100F100078607B681B6843F080027B681A6000BFC2
:100F20000C37BD465DF8047B704780B483B000AFDA
:100F300078607B681B6823F080027B681A6000BFC2
:100F40000C37BD465DF8047B7047000080B485B067
:100F500000AF786039603B68012B28D03B68042BD8
:100F600023D03B68102B1ED03B68402B19D03B6828
:100F7000B3F5807F13D03B68B3F5806F0DD03B682D
:100F8000B3F5805F07D03B68B3F5803F01D10723FD
:100F90000EE008230CE006230AE0052308E0042302
:100FA00006E0032304E0022302E0012300E0002323
:100FB000FB737B6818331946FB7B0B4AD35C0B44ED
:100FC000BB60BB681A68FB7B0849CB5C19460423ED
:100FD0008B40DB431A40BB681A6000BF1437BD4624
:100FE0005DF8047B704700BFFC6B0108086C0108CA
:100FF00080B485B000AF786039603B68012B28D0A1
:101000003B68042B23D03B68102B1ED03B68402B41
:1010100019D03B68B3F5807F13D03B68B3F5806F80
:101020000DD03B68B3F5805F07D03B68B3F5803FD8
:1010300001D107230EE008230CE006230AE0052374
:1010400008E0042306E0032304E0022302E0012376
:1010500000E00023FB737B6818331946FB7B0A4AC8
:10106000D35C0B44BB60BB681A68FB7B0749CB5C55
:10107000194608238B401A43BB681A6000BF143717
:10108000BD465DF8047B7047FC6B0108086C0108E5
:1010900080B483B000AF786039607B689A68064B93
:1010A00013403A681A437B689A6000BF0C37BD460C
:1010B0005DF8047B704700BFF8BFFEFF80B483B0CB
:1010C00000AF786039607B685B6823F070023B6832
:1010D0001A437B685A6000BF0C37BD465DF8047B3D
:1010E000704780B483B000AF786039607B685B681C
:1010F00023F470023B681A437B685A6000BF0C37C8
:10110000BD465DF8047B704780B483B000AF786063
:101110007B689B6823F080027B689A6000BF0C3775
:10112000BD465DF8047B704780B483B000AF786043
:101130007B681B6843F001027B681A6000BF0C37B4
:10114000BD465DF8047B704780B483B000AF786023
:101150007B685B6823F490427B685A607B689B687D
:1011600023F02A027B689A6000BF0C37BD465DF809
:10117000047B704780B483B000AF786039607B68CF
:101180003A689A6100BF0C37BD465DF8047B704732
:1011900080B483B000AF786039603B681A047B6824
:1011A0009A6100BF0C37BD465DF8047B70470000B4
:1011B00080B485B000AF7860084B1A6B07497B6834
:1011C00013430B63054B1A6B7B681340FB60FB6892
:1011D00000BF1437BD465DF8047B704700380240FD
:1011E00080B485B000AF7860084B1A6C07497B6803
:1011F00013430B64054B1A6C7B681340FB60FB6860
:1012000000BF1437BD465DF8047B704700380240CC
:1012100080B485B000AF7860084B5A6C07497B6892
:1012200013434B64054B5A6C7B681340FB60FB68AF
:1012300000BF1437BD465DF8047B7047003802409C
:1012400080B500AF0DF026F800F02EF801F010FB8D
:1012500001F092FA00F054FB00F00AFC00F0CEFC22
:1012600000F07EFD00F090F800F0F8FD00F0D8FFEF
:1012700001F0B0F800F070FE01F048F901F0E2F979
:1012800000F0D6F900F084FA00F042FF00F086FF8B
:1012900000F014FB00F0CEFB01F071FF01F07DFFC8
:1012A00001F08EFF00BFFDE780B594B000AF07F1FD
:1012B0001C0334220021184610F036FF07F1080302
:1012C00000221A605A609A60DA601A612C4B1B6C1B
:1012D0002B4A43F080531364294B1B6C03F080535B
:1012E0007B607B68274B1B68264A43F440431360AE
:1012F000244B1B6803F440433B603B680923FB61BC
:101300004FF480333B6201233B6302237B634FF442
:101310008003BB630C23FB63C0233B6402237B6419
:101320000223BB640223FB6407F11C0318460DF083
:1013300001FB0346002B01D001F082FD0DF0AAFA5B
:101340000346002B01D001F07BFD0F23BB6002237D
:10135000FB6000233B614FF4A0537B614FF480534B
:10136000BB6107F10803062118460DF091FD034605
:10137000002B01D001F064FD00BF5037BD4680BD99
:10138000003802400070004080B592B000AF07F115
:101390003C0300221A605A609A6007F12803002279
:1013A0001A605A609A60DA601A6107F11803002225
:1013B0001A605A609A60DA603B4600221A605A60EE
:1013C0009A60DA601A615A614FF48070FFF720FF6B
:1013D0000420FFF7EDFE0220FFF7EAFE01233B6049
:1013E00003237B6000233B613B46194684480EF093
:1013F000D8FC02233B6003237B6000233B613B4618
:1014000019467F480EF0CDFC04233B6003237B602C
:1014100000233B613B46194679480EF0C2FC082385
:101420003B6003237B6000233B613B4619467448C5
:101430000EF0B7FC10233B6003237B6000233B616D
:101440003B4619466E480EF0ACFC20233B6003235C
:101450007B6000233B613B46194669480EF0A1FCC6
:1014600001233B6003237B6000233B613B4619461D
:1014700064480EF096FC02233B6003237B6000234C
:101480003B613B4619465F480EF08BFC002204216D
:101490005D48FFF74BFC002204215B48FFF74AFB45
:1014A000002204215848FFF71DFC4FF480720421EC
:1014B0005548FFF763FB002204215348FFF782FBE6
:1014C0004FF4806204215048FFF7A0FB4FF4006204
:1014D00004214D48FFF7BEFB4FF4005204214A4857
:1014E000FFF7DCFB04214848FFF744FC0023FB63C3
:1014F00000233B644FF480737B6407F13C0319467F
:1015000042480EF0D5FA0023BB624FF4E003FB62C1
:1015100000233B6300237B634FF44073BB6307F1FD
:101520002803194639480EF0EFFA00213748FFF733
:10153000A2FA4FF48033BB610023FB6107F118036B
:10154000194633480EF06CFA0A224FF400712F4806
:10155000FFF75BFA01220A212C48FFF79FFA2D4A78
:1015600040F205212948FFF750FA0122294927486E
:10157000FFF794FA284A40F20A212448FFF745FA77
:10158000012225492148FFF789FA244A40F20F2118
:101590001E48FFF73AFA012220491C48FFF77EFA5D
:1015A0001F4A4FF405711948FFF72FFA01221C4911
:1015B0001648FFF773FA1B4A40F219211348FFF748
:1015C00024FA012217491148FFF768FA164A4FF426
:1015D00080710E48FFF719FA012213490B48FFF7F3
:1015E0005DFA124A40F205110848FFF70EFA01228F
:1015F0000E490648FFF752FA00BF4837BD4680BD86
:101600000008024000040240006402400020014043
:10161000002301400B0030000C0060000D00900022
:101620000E00C0000F00F000080080030900B003A6
:1016300080B58EB000AF07F12C0300221A605A600B
:101640009A6007F1180300221A605A609A60DA6003
:101650001A613B4600221A605A609A60DA601A6189
:101660005A614FF40070FFF7D3FD0120FFF7A0FD92
:1016700004233B6003237B6000233B613B46194608
:101680003E480EF08EFB08233B6003237B60002363
:101690003B613B46194639480EF083FB4FF0007220
:1016A00002213748FFF742FB002202213448FFF7AE
:1016B00041FA002202213248FFF714FB4FF48072F6
:1016C00002212F48FFF75AFA002202212C48FFF787
:1016D00079FA4FF4806202212948FFF797FA4FF414
:1016E000006202212648FFF7B5FA4FF400520221AA
:1016F0002348FFF7D3FA02212148FFF73BFB0023E1
:10170000FB6200233B634FF480737B6307F12C0380
:1017100019461C480EF0CCF90023BB614FF480132E
:10172000FB6100233B6200237B624FF44073BB628A
:1017300007F11803194613480EF0E6F94FF48061DB
:101740001048FFF798F9104A4FF400710D48FFF761
:101750005CF901220C490B48FFF7A0F90B4A40F253
:1017600005210848FFF751F9002208490548FFF70D
:1017700095F900BF3837BD4680BD00BF000002406C
:101780000064024000210140030090020200600258
:1017900080B58EB000AF07F12C0300221A605A60AA
:1017A0009A6007F1180300221A605A609A60DA60A2
:1017B0001A613B4600221A605A609A60DA601A6128
:1017C0005A614FF48060FFF723FD0120FFF7F0FC22
:1017D00002233B6003237B6000233B613B461946A9
:1017E00032480EF0DEFA4FF0806201213048FFF7F8
:1017F0009DFA002201212E48FFF79CF900220121C9
:101800002B48FFF76FFA4FF4807201212848FFF749
:10181000B5F9002201212648FFF7D4F94FF4806280
:1018200001212348FFF7F2F94FF40062012120481B
:10183000FFF710FA4FF4005201211D48FFF72EFA6E
:1018400001211B48FFF796FA0023FB6200233B634C
:1018500000237B6307F12C03194616480EF028F984
:101860000023BB610023FB6100233B6200237B62FA
:101870004FF44073BB6207F1180319460D480EF090
:1018800043F94FF480610B48FFF7F5F80A4A4FF42B
:1018900000710848FFF7B9F8012207490548FFF72A
:1018A000FDF800BF3837BD4680BD00BF00000240D4
:1018B00000640240002201400100300280B500AF08
:1018C0000D4B0E4A1A600C4B00221A710A4B002273
:1018D0005A71094B00225A61074B00229A61064B4C
:1018E00001221A6204480CF019FE0346002B01D0B5
:1018F00001F0A6FA00BF80BDD443002000300240B2
:1019000080B5B2B000AF07F1AC0300221A605A6094
:101910009A60DA601A615A619A6107F194030022B1
:101920001A605A609A60DA601A615A613B1D90220F
:101930000021184610F0F8FB4FF480437B60002331
:10194000BB663B1D18460DF055FC0346002B01D02D
:1019500001F076FA0220FFF72BFC4023C7F8943001
:101960000223C7F898300323C7F89C300123C7F837
:10197000A0300023C7F8A4300423C7F8A83007F12B
:101980009403194628480EF00CFA8023C7F89430C7
:101990000223C7F898300323C7F89C300123C7F807
:1019A000A0300023C7F8A4300423C7F8A83007F1FB
:1019B000940319461C480EF0F4F94FF40010FFF799
:1019C0000FFC1A48FFF74EFA002200211748FFF7D4
:1019D00021FA1648FFF736FA1448FFF70BFA1348B6
:1019E000FFF7F8F90023C7F8AC30114BC7F8B03057
:1019F0000023C7F8B4300023C7F8B8300023C7F875
:101A0000BC300023C7F8C0300023C7F8C43007F14A
:101A1000AC03194605480EF0DBFA0448FFF7CAF993
:101A200000BFC837BD4680BD0004024000540040DE
:101A3000D619400080B500AF0B4B0C4A1A600A4B18
:101A400000225A60084B40F6FF72DA60064B40F6FF
:101A5000FF729A6004480CF053FE0346002B01D03D
:101A600001F0EEF900BF80BDF843002000300040D7
:101A700080B590B000AF07F1180328220021184666
:101A800010F052FB3B4600221A605A609A60DA60FE
:101A90001A615A614FF48050FFF7BAFB0120FFF73B
:101AA00087FB10233B6002237B600323BB60002382
:101AB000FB6000233B6105237B613B4619464C4894
:101AC0000EF06FF920233B6002237B600323BB6091
:101AD0000023FB6000233B6105237B613B461946E5
:101AE00043480EF05EF940233B6002237B600323F2
:101AF000BB600023FB6000233B6105237B613B4609
:101B000019463B480EF04DF980233B6002237B6071
:101B10000323BB600023FB6000233B6105237B6143
:101B20003B46194632480EF03CF94FF0C0620321A3
:101B30003048FFF7FBF8402203212E48FEF7FAFF5A
:101B40004FF4003203212B48FFF7CCF80022032189
:101B50002848FFF713F8002203212648FFF732F840
:101B60004FF4806203212348FFF750F8002203213D
:101B70002048FFF76FF8002203211E48FFF78EF878
:101B800003211C48FFF7F6F8FEF7B6FE03460022D5
:101B900000211846FEF706FF034619462320FEF7EC
:101BA000D7FE2320FEF7B6FE0023BB610023FB61B6
:101BB0004FF4E0633B6202237B620023BB6200239D
:101BC000FB6200237B630023BB630723FB6307F1F6
:101BD0001803194608480EF0D3FD00210648FFF708
:101BE00061F90548FFF781F900BF4037BD4680BD68
:101BF00000000240006402400030014080B590B017
:101C000000AF07F1180328220021184610F08CFAC3
:101C10003B4600221A605A609A60DA601A615A6183
:101C20004FF48040FFF7DCFA0220FFF7C1FA4FF4CF
:101C300000533B6002237B600323BB600023FB60F7
:101C400000233B6105237B613B46194641480EF06A
:101C5000A8F84FF480433B6002237B600323BB6002
:101C60000023FB6000233B6105237B613B46194653
:101C700038480EF096F84FF400433B6002237B6037
:101C80000323BB600023FB6000233B6105237B61D2
:101C90003B4619462F480EF084F84FF09052012130
:101CA0002D48FFF743F8002201212B48FEF742FFA1
:101CB0004FF4403201212848FFF714F84FF48072A6
:101CC00001212548FEF75AFF002201212248FEF794
:101CD00079FF4FF4806201211F48FEF797FF4FF410
:101CE000006201211C48FEF7B5FF4FF400520121AC
:101CF0001948FEF7D3FF01211748FFF73BF80023EF
:101D0000BB614FF48273FB614FF470633B6200234D
:101D10007B620023BB624FF40073FB6200233B63D2
:101D200000237B630023BB630723FB6307F11803D6
:101D300019460A480EF024FD00210848FFF7B2F8C2
:101D40000648FFF7C2F80548FFF79CF800BF403788
:101D5000BD4680BD000402400060024000380040E3
:101D600080B590B000AF07F1180328220021184673
:101D700010F0DAF93B4600221A605A609A60DA6085
:101D80001A615A614FF40040FFF72AFA0420FFF766
:101D90000FFA4FF480633B6002237B600323BB6038
:101DA0000023FB6000233B6106237B613B46194611
:101DB00028480DF0F6FF4FF400633B6002237B6080
:101DC0000323BB600023FB6000233B6106237B6190
:101DD0003B4619461F480DF0E4FF4FF480533B602B
:101DE00002237B600323BB600023FB6000233B6175
:101DF00006237B613B46194616480DF0D2FF0023AF
:101E0000BB614FF48273FB614FF4E0633B620023DC
:101E10007B620023BB624FF40073FB6200233B63D1
:101E200000237B630023BB630723FB6307F11803D5
:101E3000194609480EF0A4FC00210748FFF732F8C4
:101E40000548FFF742F80448FFF71CF800BF403789
:101E5000BD4680BD00080240003C004080B590B007
:101E600000AF07F1180328220021184610F05CF992
:101E70003B4600221A605A609A60DA601A615A6121
:101E80004FF40050FFF7C4F91020FFF791F94FF419
:101E900080533B6002237B600323BB600023FB6015
:101EA00000233B6105237B613B46194628480DF022
:101EB00078FF4FF400533B6002237B600323BB6039
:101EC0000023FB6000233B6105237B613B461946F1
:101ED0001F480DF066FF4FF480433B6002237B6098
:101EE0000323BB600023FB6000233B6105237B6170
:101EF0003B46194616480DF054FF0023BB614FF4D2
:101F00008273FB614FF4E0633B6200237B62012339
:101F1000BB624FF40073FB6220233B6300237B63AF
:101F20000023BB630723FB6307F118031946094825
:101F30000EF026FC00210748FEF7B4FF0548FEF727
:101F4000D4FF0448FEF79EFF00BF4037BD4680BD6A
:101F5000001002400034014080B590B000AF07F19E
:101F6000180328220021184610F0DEF83B46002214
:101F70001A605A609A60DA601A615A614FF4001070
:101F8000FFF746F90220FFF713F908233B6002230D
:101F90007B600323BB600023FB6000233B610823BD
:101FA0007B613B46194657480DF0FBFE10233B6012
:101FB00002237B600323BB600023FB6000233B61A3
:101FC00008237B613B4619464E480DF0EAFE20236C
:101FD0003B6002237B600323BB600023FB60002384
:101FE0003B6108237B613B46194646480DF0D9FE0C
:101FF0004FF0007205214448FEF798FE402205216B
:102000004148FEF797FD4FF4403205213E48FEF768
:1020100069FE002205213C48FEF7B0FD00220521A3
:102020003948FEF7CFFD4FF4806205213648FEF7B0
:10203000EDFD002205213448FEF70CFE00220521AB
:102040003148FEF72BFE05212F48FEF793FE4FF097
:10205000007206212C48FEF769FE002206212A485C
:10206000FEF768FD4FF4403206212748FEF73AFE9E
:10207000002206212448FEF781FD00220621224885
:10208000FEF7A0FD4FF4806206211F48FEF7BEFD5B
:10209000002206211C48FEF7DDFD002206211A4819
:1020A000FEF7FCFD06211848FEF764FE0023BB6125
:1020B0004FF48273FB614FF4E0633B6200237B6269
:1020C0000023BB624FF40073FB6200233B630023D9
:1020D0007B630023BB630723FB6307F118031946E7
:1020E0000A480EF04DFB00210848FEF7DBFE0748CA
:1020F000FEF7EBFE0548FEF7C5FE00BF4037BD46C4
:1021000080BD00BF00040240006402400054014052
:1021100080B586B000AF3B1D00221A605A609A60FD
:10212000DA601A610120FFF773F8FEF7E5FB03465A
:10213000002200211846FEF735FC034619461920F7
:10214000FEF706FC1920FEF7E5FB0023BB80002309
:10215000BB604FF6FF73FB6000233B6100237B6194
:102160003B1D19460C480EF0FFFB0B48FEF7DDFE49
:1021700000210948FEF78CFF00210748FEF79EFF6B
:1021800000210548FEF7ADFF0348FEF7BDFF00BF85
:102190001837BD4680BD00BF0000014080B586B045
:1021A00000AF3B1D00221A605A609A60DA601A6123
:1021B0000120FFF715F8FEF79FFB034600220221DE
:1021C0001846FEF7EFFB034619461C20FEF7C0FB3E
:1021D0001C20FEF79FFB0023BB800023BB604FF059
:1021E000FF33FB6000233B613B1D19464FF08040ED
:1021F0000EF0BAFB4FF08040FEF787FE00214FF053
:102200008040FEF745FF00214FF08040FEF756FF6B
:102210004FF08040FEF778FF00BF1837BD4680BD05
:1022200080B594B000AF07F13C0300221A605A60F9
:102230009A60DA601A6107F11C0320220021184617
:102240000FF072FF3B1D00221A605A609A60DA603C
:102250001A615A610420FEF7C3FF0A23BB870023DB
:102260003B644CF250337B644FF40073BB6407F162
:102270003C03194655480EF077FB5448FEF755FECF
:1022800000215248FEF704FF01215048FEF7B0FE3E
:102290006023FB6100233B6200237B620023BB625F
:1022A0000023FB6207F11C031A46012147480EF088
:1022B000F5FB01214548FEF749FE10214348FEF792
:1022C00097FE07F11C031A46102140480EF0E6FB6A
:1022D00010213E48FEF73AFE4FF480713B48FEF76E
:1022E00087FE07F11C031A464FF4807137480EF041
:1022F000D5FB4FF480713548FEF728FE4FF480512E
:102300003248FEF775FE07F11C031A464FF4805160
:102310002E480EF0C3FB4FF480512C48FEF716FEFA
:1023200000212A48FEF7CAFE2848FEF7EDFE0820E5
:10233000FEF73EFF4FF480537B600223BB60002317
:10234000FB6000233B6100237B610223BB613B1DDB
:1023500019461F480DF025FD4FF400537B60022302
:10236000BB600023FB6000233B6100237B610223F1
:10237000BB613B1D194616480DF013FD4FF4804319
:102380007B600223BB600023FB6000233B610023D2
:102390007B610223BB613B1D19460D480DF001FD19
:1023A0004FF400437B600223BB600023FB600023EB
:1023B0003B6100237B610223BB613B1D194604483E
:1023C0000DF0EFFC00BF5037BD4680BD0008004057
:1023D000000C024080B5B2B000AF07F1AC030022A0
:1023E0001A605A609A60DA601A615A619A6107F15C
:1023F000940300221A605A609A60DA601A615A6186
:102400003B1D9022002118460FF08EFE4FF48053A2
:102410007B6000233B663B1D18460CF0EBFE034639
:10242000002B01D000F00CFD4FF08040FEF7D8FEED
:102430001020FEF7BDFE8023C7F894300223C7F8B2
:1024400098300323C7F89C300023C7F8A03001233D
:10245000C7F8A4300823C7F8A83007F19403194639
:1024600028480DF09EFC4FF48073C7F89430022387
:10247000C7F898300323C7F89C300023C7F8A03072
:102480000023C7F8A4300823C7F8A83007F1940345
:1024900019461C480DF085FCFEF72EFA0346002273
:1024A0000B211846FEF77EFA034619465220FEF726
:1024B0004FFA5220FEF72EFA4FF4E133C7F8AC3052
:1024C0000023C7F8B0300023C7F8B4300023C7F8A2
:1024D000B8300C23C7F8BC300023C7F8C030002345
:1024E000C7F8C43007F1AC03194607480EF0F6FDF3
:1024F0000548FEF729FE0448FEF716FE00BFC83760
:10250000BD4680BD001002400078004080B5B2B0EA
:1025100000AF07F1AC0300221A605A609A60DA60DB
:102520001A615A619A6107F1940300221A605A6095
:102530009A60DA601A615A613B1D902200211846A8
:102540000FF0F2FD40237B600023BB643B1D184667
:102550000CF050FE0346002B01D000F071FC10205F
:10256000FEF756FE0120FEF723FE4FF40073C7F876
:1025700094300223C7F898300323C7F89C30002317
:10258000C7F8A0300023C7F8A4300723C7F8A83045
:1025900007F19403194629480DF003FC4FF48063BA
:1025A000C7F894300223C7F898300323C7F89C304B
:1025B0000023C7F8A0300123C7F8A4300723C7F8C9
:1025C000A83007F1940319461C480DF0EAFBFEF70A
:1025D00093F9034600220B211846FEF7E3F9034660
:1025E00019462520FEF7B4F92520FEF793F94FF49C
:1025F000E133C7F8AC300023C7F8B0300023C7F888
:10260000B4300023C7F8B8300C23C7F8BC3000231F
:10261000C7F8C0300023C7F8C43007F1AC0319462F
:1026200007480EF05BFD0648FEF78EFD0448FEF7F6
:102630007BFD00BFC837BD4680BD00BF0000024023
:102640000010014080B5B2B000AF07F1AC0300222A
:102650001A605A609A60DA601A615A619A6107F1E9
:10266000940300221A605A609A60DA601A615A6113
:102670003B1D9022002118460FF056FD4FF40063D9
:102680007B600023FB653B1D18460CF0B3FD034641
:10269000002B01D000F0D4FB2020FEF7B9FD042070
:1026A000FEF786FD4023C7F894300223C7F8983020
:1026B0000323C7F89C300023C7F8A0300023C7F8D5
:1026C000A4300823C7F8A83007F194031946284816
:1026D0000DF067FB8023C7F894300223C7F89830C9
:1026E0000323C7F89C300023C7F8A0300023C7F8A5
:1026F000A4300823C7F8A83007F1940319461C48F2
:102700000DF04FFBFEF7F8F8034600220B211846A8
:10271000FEF748F9034619464720FEF719F9472006
:10272000FEF7F8F84FF4E133C7F8AC300023C7F8F0
:10273000B0300023C7F8B4300023C7F8B8300C23FA
:10274000C7F8BC300023C7F8C0300023C7F8C43036
:1027500007F1AC03194607480EF0C0FC0548FEF728
:10276000F3FC0448FEF7E0FC00BFC837BD4680BD5F
:10277000000802400014014080B500AF4FF4800013
:10278000FEF716FD4FF40010FEF712FDFEF7B4F849
:102790000346002200211846FEF704F903461946B5
:1027A0000C20FEF7D5F80C20FEF7B4F8FEF7A4F8DD
:1027B0000346002200211846FEF7F4F803461946A6
:1027C0003920FEF7C5F83920FEF7A4F8FEF794F893
:1027D000034600220A211846FEF7E4F8034619468C
:1027E0003A20FEF7B5F83A20FEF794F8FEF784F8A1
:1027F0000346002200211846FEF7D4F80346194686
:102800003B20FEF7A5F83B20FEF784F8FEF774F8AE
:10281000034600220A211846FEF7C4F8034619466B
:102820003C20FEF795F83C20FEF774F8FEF764F8BC
:102830000346002209211846FEF7B4F8034619465C
:102840004420FEF785F84420FEF764F8FEF754F8BC
:102850000346002201211846FEF7A4F80346194654
:102860004520FEF775F84520FEF754F800BF80BDFF
:1028700080B586B000AF3B4600221A605A609A606D
:10288000DA601A615A611020FEF792FC0420FEF70C
:102890008FFC8020FEF78CFC0120FEF789FC0220D3
:1028A000FEF786FC0820FEF783FC0421C048FEF7F3
:1028B0006FFC0821BE48FEF76BFC1021BC48FEF7F8
:1028C00067FC2021BA48FEF763FC4021B848FEF7B8
:1028D0005FFC4FF40051B748FEF75AFC4FF48041BB
:1028E000B448FEF755FC4FF40041B248FEF750FCE7
:1028F0004FF40061B048FEF74BFC4FF48061AF48E5
:10290000FEF746FC4FF40061AD48FEF741FC4FF482
:102910000041AB48FEF73CFC0121A848FEF738FC1B
:102920000221A648FEF734FC1021A448FEF730FC33
:102930002021A248FEF72CFC4021A048FEF728FCED
:1029400004219D48FEF716FC4FF480619848FEF77D
:1029500011FC4FF400619648FEF70CFC4FF4004167
:102960009348FEF707FC4FF480619348FEF702FCA2
:102970004FF480519048FEF7FDFB4FF480718F4873
:10298000FEF7F8FB4FF400718C48FEF7F3FB4FF4B1
:1029900080718848FEF7EEFB04218848FEF7EAFBC9
:1029A00080218648FEF7E6FB4FF480718248FEF7EF
:1029B000E1FB4FF400718048FEF7DCFB01217C480D
:1029C000FEF7D8FB02217A48FEF7D4FB04233B60D4
:1029D00001237B600023BB600023FB6000233B617D
:1029E0003B46194672480DF0DCF908233B60012391
:1029F0007B600023BB600023FB6000233B613B4600
:102A000019466B480DF0CDF910233B6001237B6024
:102A10000023BB600023FB6000233B613B4619465B
:102A200063480DF0BEF920233B6001237B60002347
:102A3000BB600023FB6000233B613B4619465C48BA
:102A40000DF0AFF940233B6001237B600023BB60A6
:102A50000023FB6000233B613B46194654480DF0C0
:102A6000A0F94FF400533B6001237B600023BB605F
:102A70000023FB6000233B613B4619464D480DF0A7
:102A800090F94FF480433B6001237B600023BB60DF
:102A90000023FB6000233B613B46194645480DF08F
:102AA00080F94FF400433B6001237B600023BB604F
:102AB0000023FB6000233B613B4619463D480DF077
:102AC00070F904233B6001237B600023BB6000237B
:102AD000FB6000233B613B46194637480DF061F926
:102AE0004FF480633B6001237B600023BB600023C5
:102AF000FB6000233B613B4619462D480DF051F920
:102B00004FF400633B6001237B600323BB60002321
:102B1000FB6000233B613B46194625480DF041F917
:102B20004FF400433B6001237B600023BB60002324
:102B3000FB6000233B613B4619461D480DF031F90F
:102B40004FF480633B6001237B600023BB60002364
:102B5000FB6001233B613B46194617480DF021F904
:102B60004FF400633B6001237B600023BB600023C4
:102B7000FB6002233B613B4619460F480DF011F9FB
:102B80004FF480533B6001237B600023BB60002334
:102B9000FB6000233B613B46194607480DF001F9F5
:102BA0004FF480733B6001237B6003230AE000BF86
:102BB000001002400008024000040240000C0240E5
:102BC00000000240BB600023FB6000233B613B46EA
:102BD000194696480DF0E5F84FF400733B60012369
:102BE0007B600323BB600023FB6000233B613B460B
:102BF00019468E480DF0D5F84FF480633B600123F1
:102C00007B600023BB600023FB6000233B613B46ED
:102C1000194686480DF0C5F84FF400633B60002369
:102C20007B6000233B613B46194680480DF0B9F8B4
:102C30004FF480733B6001237B600023BB60002363
:102C4000FB6001233B613B46194679480DF0A9F82A
:102C50004FF400733B6000237B6000233B613B46E5
:102C6000194673480DF09DF84FF480733B600023C4
:102C70007B6000233B613B4619466E480DF091F89E
:102C80004FF400633B6001237B600023BB600023A3
:102C9000FB6000233B613B46194666480DF081F816
:102CA0004FF400433B6001237B600023BB600023A3
:102CB000FB6000233B613B4619465E480DF071F80E
:102CC00001233B6001237B600023BB600023FB608A
:102CD00000233B613B46194654480DF062F802233D
:102CE0003B6001237B600023BB600023FB6000236B
:102CF0003B613B4619464D480DF053F804233B60B9
:102D000001237B600023BB600023FB6000233B6149
:102D10003B46194645480DF044F808233B60002324
:102D20007B6000233B613B46194640480DF039F873
:102D300010233B6001237B600023BB600023FB600A
:102D400000233B613B46194638480DF02AF8202302
:102D50003B6001237B600023BB600023FB600023FA
:102D60003B613B46194631480DF01BF840233B6060
:102D700001237B600023BB600023FB6000233B61D9
:102D80003B46194629480DF00CF880233B6001238F
:102D90007B600023BB600023FB6000233B613B465C
:102DA000194622480CF0FDFF4FF480733B6001236D
:102DB0007B600023BB600023FB6000233B613B463C
:102DC00019461D480CF0EDFF4FF400733B600123E2
:102DD0007B600023BB600023FB6000233B613B461C
:102DE000194615480CF0DDFF01233B6001237B6091
:102DF0000023BB600023FB6000233B613B46194678
:102E00000E480CF0CEFF02233B6001237B600023C1
:102E1000BB600023FB6000233B613B46194607482B
:102E20000CF0BFFF00BF1837BD4680BD000C02404C
:102E3000000802400000024000040240001002406E
:102E400080B400AF72B600BF00BFFDE780B483B0AE
:102E500000AF0F4B1B6C0E4A43F0805313640C4BB6
:102E60001B6C03F080537B607B68094B5B6C084AEA
:102E700043F480435364064B5B6C03F480433B6034
:102E80003B6800BF0C37BD465DF8047B704700BF50
:102E90000038024080B485B000AF78607B681B6862
:102EA0000A4A93420BD10A4B1B6B094A43F48053E5
:102EB0001363074B1B6B03F48053FB60FB6800BF7D
:102EC0001437BD465DF8047B704700BF00300240F8
:102ED0000038024080B400AF00BFFDE780B400AF0F
:102EE00000BFFDE780B400AF00BFFDE780B400AFD6
:102EF00000BFFDE780B400AF00BFFDE780B400AFC6
:102F000000BFBD465DF8047B704780B400AF00BFD2
:102F1000BD465DF8047B704780B400AF00BFBD467E
:102F20005DF8047B704780B500AF05F015F905F03A
:102F300063F809F06DFF0BF0EBF900BF80BD80B5C1
:102F400000AF05F0A7FA00BF80BD80B500AF05F067
:102F500009FC00BF80BD80B400AF00BFBD465DF876
:102F6000047B704780B500AF05F050F800BF80BD0E
:102F700080B500AF05F064F900BF80BD80B400AF3C
:102F800001231846BD465DF8047B704780B582B0CA
:102F900000AF786039600FF027F9034616221A60F7
:102FA0004FF0FF3318460837BD4680BD80B582B06C
:102FB00000AF78604FF0FF317868FFF7E7FF00BFA0
:102FC000FDE780B586B000AFF860B9607A60002395
:102FD0007B610AE0AFF300800146BB685A1CBA600F
:102FE000CAB21A707B6901337B617A697B689A4245
:102FF000F0DB7B6818461837BD4680BD80B586B0CB
:1030000000AFF860B9607A6000237B6109E0BB68BB
:103010005A1CBA601B781846AFF300807B690133F5
:103020007B617A697B689A42F1DB7B6818461837C6
:10303000BD4680BD80B483B000AF78604FF0FF33F1
:1030400018460C37BD465DF8047B704780B483B0EA
:1030500000AF786039603B684FF400525A6000233B
:1030600018460C37BD465DF8047B704780B483B0CA
:1030700000AF7860012318460C37BD465DF8047B2D
:10308000704780B485B000AFF860B9607A60002303
:1030900018461437BD465DF8047B704780B586B08E
:1030A00000AF7860144A154BD31A7B617B693B6192
:1030B000134B1B68002B02D1114B124A1A60104BA4
:1030C0001A687B6813443A699A4207D20FF08CF869
:1030D00003460C221A604FF0FF3309E0084B1B68CF
:1030E000FB60074B1A687B681344054A1360FB6852
:1030F00018461837BD4680BD0000082000040000B7
:1031000008440020F0E2022080B400AF064BD3F860
:103110008830054A43F47003C2F8883000BFBD46CA
:103120005DF8047B704700BF00ED00E0DFF834D0AD
:10313000FFF7EAFF0C480D490D4A002302E0D4587E
:10314000C4500433C4188C42F9D30A4A0A4C0023F1
:1031500001E013600432A242FBD30FF04BF8FEF7FC
:103160006FF870470000082000000020B4430020E2
:1031700080900108B8430020F0E20220FEE780B50D
:1031800000AF01F093FF02F021FE00F06FFA02F0B1
:103190008BFB04F0DDFB00BF80BD80B500AF0420D9
:1031A00001F0B6FF022002F037FE052000F080FAA1
:1031B000062002F0C3FB0A2004F002FC00BF80BD21
:1031C00080B500AF09F004FD00BF80BD80B584B0BC
:1031D00000AFF860B9607A60FB70FB68BA68DA63C8
:1031E000FB687A681A64FB68FA7883F84520084B14
:1031F0001B684FF6FF72A3F84220FB68054918468A
:1032000009F078FD002318461037BD4680BD00BF89
:1032100004000020406C010880B582B000AF7860E7
:103220007B680022DA637B684FF480421A647B6813
:10323000012283F84520084B1B684FF6FF72A3F864
:1032400042207B680549184609F054FD00231846C2
:103250000837BD4680BD00BF04000020406C010857
:1032600080B582B000AF78607B680449184609F0E9
:1032700041FD002318460837BD4680BD546C010847
:1032800080B582B000AF78607B680449184609F0C9
:1032900031FD002318460837BD4680BD686C010823
:1032A00080B582B000AF78607B680449184609F0A9
:1032B00021FD002318460837BD4680BD7C6C0108FF
:1032C00080B584B000AFF860B9607A60BB68012B4C
:1032D00002D87B68642B01D9062318E0FB6893F8B9
:1032E0004D30002B06D0002004F018FDFB680022B2
:1032F00083F84D207968B86804F018FE7B68D9B26D
:10330000FA68BB68134449330A461A70002318460A
:103310001037BD4680BD80B582B000AF786039609F
:103320003B68242B01D9062314E07B6893F84D30C9
:10333000012B06D0012004F0F1FC7B68012283F808
:103340004D20386804F02EFD3B68DAB27B6883F8C4
:103350004B20002318460837BD4680BD80B582B09B
:1033600000AF786039603B68082B01D9062314E070
:103370007B6893F84D30012B06D0012004F0CEFC81
:103380007B68012283F84D20386804F043FD3B68D8
:10339000DAB27B6883F84C20002318460837BD4614
:1033A00080BD80B582B000AF78607B6893F84D3007
:1033B000012B06D0012004F0B1FC7B68012283F8C8
:1033C0004D2004F059FD7B68FF2283F84C20002338
:1033D00018460837BD4680BDB0B582B000AF7860F2
:1033E00039603B681B68002B04D03B681B68194A96
:1033F000934201D9062328E03B681B79002B03D0B8
:103400003B681B79242B01D906231EE03B685B79BE
:10341000642B01D9062318E03B68DB68B3F5006F25
:1034200001D9062311E03B681B69002B01D106235B
:103430000BE07B683A6803F1280415460FCD0FC4F2
:103440002B68236000F054F8002318460837BD4667
:10345000B0BD00BF50F80C00B0B483B000AF7860CE
:1034600039603A687B68154603F128040FCC0FC514
:1034700023682B6000BF0C37BD46B0BC704700000E
:1034800080B584B000AF78607B682833FB60FB6850
:103490001B68002B04D0FB681B68134A934201D9B8
:1034A00006231CE0FB681B79002B03D0FB681B790B
:1034B000242B01D9062312E0FB685B79642B01D928
:1034C00006230CE0FB68DB68B3F5006F01D9062327
:1034D00005E07B680549184609F00CFC00231846F6
:1034E0001037BD4680BD00BF50F80C002C6C0108A1
:1034F00080B582B000AF04F0A7FA0F4B4FF0BC329A
:103500001A600E4B9B6A0C4A53600C4BDA8D0A4BC7
:103510001A810A4B1A8E084B5A81084B5A8E064B59
:103520009A8100237B60044A7B68136104F0B0FA3F
:1035300000BF0837BD4680BD004002400C4400205B
:1035400080B586B000AF786007F10C0300221A60E6
:103550005A609A600E23BB817B6807F10C0211460A
:10356000184609F0C7FB002318461837BD4680BD32
:1035700080B500AF074BDB69184608F030FF054BFC
:10358000DB69184608F05AFF034B4FF0FF321A620E
:1035900000BF80BD684400200078004080B582B044
:1035A00000AF786039607B681833184609F00CFC6E
:1035B00000BF0837BD4680BD80B584B000AF7860DD
:1035C00039607B685B69FB607B685B693968786838
:1035D00098470346FB72FB7A002B08D1FB6806492B
:1035E000786898477B685B6904497868984700BFAA
:1035F0001037BD4680BD00BFB46C0108A06C010847
:1036000080B584B002AF786039607B68002B03D14D
:103610000021134804F00CFA78683B685A683B684C
:103620009B68009313460F4A0F4909F01FFB7B6804
:1036300018337A681721184609F084FB3B681A682A
:103640007B685A617B68002283F828207B681833E6
:10365000184609F0B9FB00BF0837BD4680BD00BF62
:10366000906C0108B93500089D35000880B586B01A
:1036700002AF12230093022324220949094808F0CB
:1036800010FF094A3B1D07CA83E807003B1D194686
:103690000648FFF7B5FF00BF1037BD4680BD00BF2D
:1036A000FC44002020450020A8460108BC4400201E
:1036B00080B582B000AF0346FB71FB791946034821
:1036C00009F0EEFA00BF0837BD4680BDBC440020BB
:1036D00080B582B000AF786039603B681B88012BF1
:1036E00002D0172B02D01BE001231AE07B6893F86D
:1036F0002830002B09D10D4B1B68184603F051FDF3
:103700007B68012283F8282008E0084B1B681846D4
:1037100003F0D6FD7B68002283F82820012300E017
:10372000022318460837BD4680BD00BF08000020B0
:1037300080B500AF0C4B1B68184603F032FD034602
:10374000002B01D001230CE0084B1B88074A12888C
:103750001946074809F018FB064B012283F8282078
:103760000023184680BD00BF080000200C00002088
:10377000D4440020BC44002080B500AF074809F0C5
:1037800023FB074B1B68184603F09AFD054B0022EC
:1037900083F828200023184680BD00BFD4440020B1
:1037A00008000020BC44002080B483B000AF034672
:1037B000FB80044AFB88138000BF0C37BD465DF8D0
:1037C000047B70470C00002080B400AFBFF34F8F24
:1037D00000BF064BDB6803F4E0620449044B13436B
:1037E000CB60BFF34F8F00BF00BFFDE700ED00E0EF
:1037F0000400FA0580B584B000AFF860B9607A6063
:1038000004F072FC00BF1037BD4680BD80B5ADF539
:10381000826D00AF07F58263A3F20443186007F5D9
:103820008263A3F58163196007F58263A3F20C43F9
:103830001A6007F58263A3F5806318464FF480632E
:103840001A4600210EF070FC07F110031A464FF4DF
:103850008061002004F0D2FF07F58263A3F20443E5
:103860000849186808F0A6FB07F58263A3F2044331
:103870000549186808F09EFB00BF07F58267BD4642
:1038800080BD00BFB4460108C446010880B5ADF54F
:10389000836D00AF07F58363A3F20C43186007F54F
:1038A0008363A3F58263196007F58363A3F214436E
:1038B0001A6007F114031A464FF48061002004F0E7
:1038C000AFFF07F58363A3F20C431F49186808F0A4
:1038D00071FB0023C7F8143424E007F58363A3F2D7
:1038E0000442D7F8143413441B781A4607F583634F
:1038F000A3F20C431549186808F05CFBD7F81434A0
:10390000013303F00F03002B07D107F58363A3F204
:103910000C430F49186808F04DFBD7F814340133F5
:10392000C7F81434D7F81434B3F5806FD5DB07F536
:103930008363A3F20C430649186808F03BFB00BF01
:1039400007F58367BD4680BDC8460108E04601080B
:10395000E846010880B588B000AFF860B9607A60C9
:1039600007F11403074A0A2118460EF057FA07F127
:1039700014031946F86807F0A6F800BF2037BD46C3
:1039800080BD00BF6051010880B584B000AFF86011
:10399000B9607A60FFF718FF80B588B000AFF860B3
:1039A000B9607A60B86807F07FF90346FB77FB7F60
:1039B000012B04D01149F86808F0FCFA1BE0012142
:1039C000B86807F03BF9B861B8690DF04DFC0346E3
:1039D0007B617B69012B04D90949F86808F0EAFA90
:1039E00009E0084B1B687A69D2B283F8682006495F
:1039F000F86808F0DFFA2037BD4680BD685101083D
:103A000088510108100000209C51010880B588B041
:103A100000AFF860B9607A600023BB610023FB82CD
:103A2000B86807F041F903467B757B7D012B04D014
:103A30002E49F86808F0BEFA54E00121B86807F092
:103A4000FDF838613B691B78612B22D10023FB779D
:103A50001BE0FB7F184604F085FB0346FB82B7F9A9
:103A6000163013F5004F06D1FB7F1A462049F8683F
:103A700008F0A0FA06E0FA7FB7F916301D49F86899
:103A800008F098FAFB7F0133FB77FB7F072BE0D927
:103A900028E03B691B782F2B20D93B691B78372BFB
:103AA0001CD838690DF0E0FB0346BB61B86904F02F
:103AB00059FB0346FB82B7F9163013F5004F05D1C9
:103AC000BA690B49F86808F075FA0BE0B7F91630D7
:103AD000BA690849F86808F06DFA03E00649F86821
:103AE00008F068FA2037BD4680BD00BF6851010864
:103AF000A4510108B85101088851010880B588B067
:103B000000AFF860B9607A60B86807F0CDF8034696
:103B1000FB61FB69012B04D01549F86808F04AFAEB
:103B200023E0144B1B68184603F00AFC034683F09D
:103B30000103DBB2002B04D00F49F86808F03AFA11
:103B400013E00121B86807F079F8B861B8690DF0A1
:103B50008BFB03467B61074B1B687969184603F0B2
:103B600035F80649F86808F025FA2037BD4680BDCB
:103B70006851010810000020CC5101089C51010837
:103B800080B584B000AFF860B9607A600A4B1B68FA
:103B9000184603F034F80346002B04D00749F868B0
:103BA00008F008FA03E00649F86808F003FA00BFD5
:103BB0001037BD4680BD00BF100000209C51010899
:103BC0001852010880B588B000AFF860B9607A601B
:103BD000B86807F069F80346BB61BB69012B04D0E4
:103BE0003849F86808F0E6F969E0374B1B68184671
:103BF00003F0A6FB034683F00103DBB2002B04D0E5
:103C00003249F86808F0D6F959E00121B86807F0A0
:103C100015F8786100233B617B691B78612B25D106
:103C20000023FB611EE0284B1B68F969184603F06E
:103C30002CF838613B69002B0CD1234B1B68002208
:103C4000F969184603F010FCFA692149F86808F090
:103C5000B1F904E0FA691F49F86808F0ABF9FB69AB
:103C60000133FB61FB69032BDDD928E07B691B78FD
:103C70002F2B24D97B691B78332B20D878690DF042
:103C8000F3FA0346FB61104B1B68F969184602F012
:103C9000FCFF38613B69002B0CD10B4B1B680022E9
:103CA000F969184603F0E0FBFA690949F86808F079
:103CB00081F904E0FA690749F86808F07BF92037D0
:103CC000BD4680BD68510108100000202052010847
:103CD000685201087C52010880B588B000AFF860D6
:103CE000B9607A60B86806F0DFFF0346FB61FB69E4
:103CF000012B04D01549F86808F05CF922E0012195
:103D0000B86806F09BFFB861B8690DF0ADFA0346DC
:103D1000FB82FB8AB3F5FA7F04D3FB8A40F6B83204
:103D2000934204D90A49F86808F044F90AE0094BBB
:103D30001B68FA8A1146184603F0BAFB0649F86870
:103D400008F038F92037BD4680BD00BF9452010805
:103D5000BC520108100000209C51010880B586B0BB
:103D600000AFF860B9607A60084B1B68184603F032
:103D7000BBFB0346FB82FB8A1A460549F86808F03C
:103D800019F900BF1837BD4680BD00BF10000020E4
:103D9000F052010880B588B000AFF860B9607A6071
:103DA000B86806F081FF0346BB61BB69042B04D0F1
:103DB0003149F86808F0FEF85BE0304B1B681846A4
:103DC00003F0A4FA0346FB750023FB614AE0FB699C
:103DD0009BB201339BB21946B86806F02FFF034629
:103DE00018460DF041FA0346D9B207F11002FB69FB
:103DF00013440A461A7007F11002FB6913441B783A
:103E0000012B05D9FA691E49F86808F0D3F830E0AB
:103E100007F11002FB6913441B78002B08D1174BE4
:103E20001B68FA69D2B21146184602F0ADFF16E0DF
:103E3000FB7DFA699A4205D1FA691249F86808F0DF
:103E4000B9F80CE00D4B1B68FA69D2B2114618465E
:103E500002F079FFFA690C49F86808F0ABF8FB69E1
:103E60000133FB61FB69032BB1D90849F86808F0FD
:103E7000A1F82037BD4680BD145301081000002072
:103E80003853010860530108845301089C5101080C
:103E900080B586B000AFF860B9607A60134B1B68DC
:103EA000184602F094FF0346FB7400237B6115E083
:103EB000FA7C7B6942FA03F303F00103002B05D07F
:103EC0007A690B49F86808F075F804E07A690949DD
:103ED000F86808F06FF87B6901337B617B69032B1D
:103EE000E6D900BF00BF1837BD4680BD10000020D6
:103EF000845301089C53010880B58CB000AFF86072
:103F0000B9607A60354B1B68184603F019FA03460E
:103F100083F00103DBB2002B04D03149F86808F0CC
:103F200049F858E0B86806F0BFFE0346FB62FB6A3A
:103F3000032B04D02B49F86808F03CF84BE0012132
:103F4000B86806F07BFEB862B86A0DF08DF90346DA
:103F50007B627B6A032B04D92349F86808F02AF8AE
:103F600039E00221B86806F069FE3862386A0DF05F
:103F70007BF90346FB61FB69012B04D91B49F868F7
:103F800008F018F827E00321B86806F057FEB8617A
:103F9000B8690DF069F90346FB82FB8A40F6B83236
:103FA000934204D91249F86808F004F813E00B4B67
:103FB0001868FB8AFA69796A03F0D6F938613B69B7
:103FC000002B04D00B49F86807F0F4FF03E00A491E
:103FD000F86807F0EFFF3037BD4680BD10000020C5
:103FE000B4530108D85301080454010828540108A7
:103FF0004C540108185201089C51010880B58AB040
:1040000000AFF860B9607A602A4B1B68184603F06D
:1040100097F9034683F00103DBB2002B04D0264955
:10402000F86807F0C7FF41E0B86806F03DFE0346B8
:104030007B627B6A022B04D02049F86807F0BAFF44
:1040400034E00121B86806F0F9FD3862386A0DF0F5
:104050000BF90346FB61FB69032B04D91849F86887
:1040600007F0A8FF22E00221B86806F0E7FDB8617A
:10407000B8690DF0F9F803467B610E4B18687B694F
:10408000002B14BF01230023DBB21A46F96903F0A9
:10409000EBF938613B69002B04D00A49F86807F056
:1040A00089FF03E00849F86807F084FF2837BD4618
:1040B00080BD00BF10000020B453010878540108EF
:1040C00004540108185201089C51010880B58CB0B5
:1040D00000AFF860B9607A60B86806F0E5FD0346A5
:1040E000BB62BB6A032B04D04149F86807F062FF4A
:1040F0007AE00121B86806F0A1FD7862786A0DF0D7
:10410000B3F803467B847B8C4EF66022934204D93D
:104110003849F86807F04EFF66E00221B86806F0FB
:104120008DFDF861344B1B68184602F050FE0346C3
:10413000FB76FB691B786F2B07D1042387F82F30A0
:104140002E49F86807F036FF1EE0FB691B782F2B1D
:104150001AD9FB691B78332B16D8F8690DF084F84F
:10416000034687F82F30FA7E97F82F3042FA03F390
:1041700003F00103002B07D097F82F301A4620498F
:10418000F86807F017FF2FE00321B86806F056FD26
:10419000786178690DF068F803463B613B69B3F5D7
:1041A000FA7F04D33B6940F6B832934204D91549EB
:1041B000F86807F0FFFE17E07B8C1846FFF7F4FA6B
:1041C0000D4B1B6897F82F201146184602F0B4FFDC
:1041D000094B1B683A6992B21146184602F0C5FFB6
:1041E0000949F86807F0E6FE3037BD4680BD00BFDC
:1041F00098540108CC54010810000020FC54010818
:1042000014550108BC5201089C51010880B584B0C6
:1042100000AFF860B9607A60FFF78AFA0349F8687E
:1042200007F0C8FE00BF1037BD4680BD9C51010895
:1042300080B584B000AFF860B9607A60FFF79CFA8F
:104240000349F86807F0B6FE00BF1037BD4680BDD1
:104250009C51010880B586B000AFF860B9607A6003
:104260000F4B1B68184603F051F80346FB750C4BC7
:104270001B68184603F057F80346BB82FB7D042BEE
:1042800004D10849F86807F095FE05E0FA7DBB8A7D
:104290000549F86807F08EFE1837BD4680BD00BF9F
:1042A00010000020FC5401083855010880B588B082
:1042B00000AFF860B9607A60B86806F0F5FC0346B4
:1042C000FB61FB69012B04D01249F86807F072FE0C
:1042D0001CE00121B86806F0B1FCB861B8690CF0C7
:1042E000C3FF0346FB75FB7D642B04D90A49F868BC
:1042F00007F060FE0AE0094B1B68FA7D114618467C
:1043000002F072FD0649F86807F054FE2037BD46FA
:1043100080BD00BF645501088855010810000020C9
:104320009C51010880B586B000AFF860B9607A6032
:10433000084B1B68184602F06DFD0346FB75FB7DBC
:104340001A460549F86807F035FE00BF1837BD4624
:1043500080BD00BF10000020AC55010880B588B0BA
:1043600000AFF860B9607A60B86806F09DFC03465B
:10437000BB61BB69042B04D02649F86807F01AFE1C
:1043800045E00023FB613BE0FB699BB201339BB23C
:104390001946B86806F052FC034618460CF064FF54
:1043A0000346D9B207F11402FB6913440A461A7096
:1043B00007F11402FB6913441B78012B05D9FA6934
:1043C0001549F86807F0F6FD21E007F11402FB69D2
:1043D00013441B78002B08D1104B1B68FA69D2B22A
:1043E0001146184602F044FD07E00C4B1B68FA69C1
:1043F000D2B21146184602F01AFDFB690133FB6187
:10440000FB69032BC0D90649F86807F0D3FD2037B4
:10441000BD4680BDC8550108385301081000002072
:104420009C51010880B586B000AFF860B9607A6031
:10443000124B1B68184602F03EFD0346FB74002336
:104440007B6113E0FA7C7B6942FA03F303F001031A
:10445000002B04D00A49F86807F0ACFD03E00949D5
:10446000F86807F0A7FD7B6901337B617B69032B4B
:10447000E8D900BF00BF1837BD4680BD100000203E
:10448000F05501080856010880B58AB000AFF86001
:10449000B9607A60B86806F007FC03467B627B6A05
:1044A000022B04D01E49F86807F084FD34E0012196
:1044B000B86806F0C3FB3862386A0CF0D5FE0346D4
:1044C000FB83B7F91E30B3F57A7F04DD1549F86830
:1044D00007F070FD20E00221B86806F0AFFBB8617C
:1044E000B8690CF0C1FE0346FB82B7F9163013F52C
:1044F0007A7F04DA0C49F86807F05CFD0CE00B4B9E
:104500001B68B7F91620B7F91E10184602F034FDE3
:104510000749F86807F04EFD2837BD4680BD00BF4B
:10452000245601085C560108885601081000002036
:104530009C51010880B586B000AFF860B9607A6020
:104540000C4B1B6807F114021146184602F02AFDB5
:10455000B7F914301A460849F86807F02BFDB7F987
:1045600016301A460549F86807F024FD00BF1837D1
:10457000BD4680BD10000020B8560108D85601087D
:1045800080B588B000AFF860B9607A60B86806F0AE
:104590008BFB0346FB61FB69012B04D00E49F868D5
:1045A00007F008FD15E00121B86806F047FBB86187
:1045B000B8690CF059FE0346FB82084B1B68B7F93B
:1045C00016201146184602F083FC0549F86807F0EA
:1045D000F1FC2037BD4680BDF856010810000020D0
:1045E0009C51010880B586B000AFF860B9607A6070
:1045F000084B1B68184602F07BFC0346FB82B7F9A8
:1046000016301A460449F86807F0D4FC00BF183782
:10461000BD4680BD100000202057010880B58AB03B
:1046200000AFF860B9607A60B86806F03DFB0346F9
:104630007B627B6A022B04D01C49F86807F0BAFC45
:1046400030E00121B86806F0F9FA3862386A0CF0F7
:104650000BFE0346FB61FB69072B04D91449F8687C
:1046600007F0A8FC1EE00221B86806F0E7FAB8617E
:10467000B8690CF0F9FD03467B617B69072B04D90F
:104680000C49F86807F096FC0CE00B4B1B68FA69C4
:10469000D1B27A69D2B2184602F037FC0749F868FD
:1046A00007F088FC2837BD4680BD00BF4057010891
:1046B000585701087C570108100000209C51010840
:1046C00080B586B000AFF860B9607A600023BB8225
:1046D0000B4B1B6807F114021146184602F036FC1A
:1046E0003B7D1A460749F86807F064FC7B7D1A4653
:1046F0000549F86807F05EFC00BF1837BD4680BD6D
:1047000010000020A0570108B457010880B588B0F8
:1047100000AFF860B9607A60B86806F0C5FA034681
:10472000FB61FB69012B04D01249F86807F042FCD9
:104730001CE00121B86806F081FAB861B8690CF094
:1047400093FD0346FB75FB7D012B04D90A49F868EC
:1047500007F030FC0AE0094B1B68FA7D1146184649
:1047600002F0CAFC0649F86807F024FC2037BD4671
:1047700080BD00BFC8570108E057010810000020A5
:104780009C51010880B586B000AFF860B9607A60CE
:104790000A4B1B68184602F0C3FC0346FB75FB7D01
:1047A000002B01D0064B00E0064B1A460649F8687C
:1047B00007F000FC00BF1837BD4680BD1000002088
:1047C0000C580108105801081458010880B584B02D
:1047D00000AFF860B9607A60064B1B68184602F0BB
:1047E000D1F90549F86807F0E5FB00BF1037BD4671
:1047F00080BD00BF100000209C51010880B584B02E
:1048000000AFF860B9607A60064B1B68184602F08A
:1048100095F90549F86807F0CDFB00BF1037BD4694
:1048200080BD00BF100000209C51010880B588B0F9
:1048300000AFF860B9607A60B86806F035FA0346F0
:10484000FB61FB69012B04D01349F86807F0B2FB48
:104850001EE00121B86806F0F1F9B861B8690CF002
:1048600003FD0346FB82B7F91630642B04DD0B49C8
:10487000F86807F09FFB0BE0094B1B68B7F916209F
:1048800000211846FEF71CFD0649F86807F092FB68
:104890002037BD4680BD00BF305801085858010878
:1048A000140000209C51010880B588B000AFF8606A
:1048B000B9607A60B86806F0F7F90346FB61FB69F6
:1048C000012B04D01349F86807F074FB1EE00121A6
:1048D000B86806F0B3F9B861B8690CF0C5FC0346D6
:1048E000FB82B7F91630642B04DD0B49F86807F03A
:1048F00061FB0BE0094B1B68B7F916200121184634
:10490000FEF7DEFC0649F86807F054FB2037BD4689
:1049100080BD00BF7C5801085858010814000020D1
:104920009C51010880B588B000AFF860B9607A602A
:104930000023FB830023BB83B86806F0B5F9034668
:10494000FB76FB7E012B04D02049F86807F032FB90
:1049500039E00121B86806F071F978617B691B784C
:10496000612B0ED103F0F6FA0346FB8303F01AFB2A
:104970000346BB83FA8BBB8B1549F86807F01AFB1B
:1049800021E07B691B78302B0AD103F0E3FA034660
:10499000FB83FB8B1A460F49F86807F00BFB12E00C
:1049A0007B691B78312B0AD103F0FCFA0346BB83E9
:1049B000BB8B1A460849F86807F0FCFA03E0074980
:1049C000F86807F0F7FA2037BD4680BD6851010846
:1049D000C4580108FC5801081859010888510108F9
:1049E00080B588B000AFF860B9607A60B86806F04A
:1049F0005BF90346FB61FB69012B04D01349F8689E
:104A000007F0D8FA1EE00121B86806F017F9B8617E
:104A1000B8690CF029FC78617B69242B02DC7B6986
:104A2000002B04DC0A49F86807F0C4FA0AE0094BD5
:104A30001B687A6911461846FEF76DFC0649F8684E
:104A400007F0B8FA2037BD4680BD00BF34590108D1
:104A500058590108140000209C51010880B588B005
:104A600000AFF860B9607A60B86806F01DF90346D7
:104A7000FB61FB69012B04D01349F86807F09AFA2F
:104A80001EE00121B86806F0D9F8B861B8690CF0E9
:104A9000EBFB78617B69082B02DC7B69002B04DC73
:104AA0000A49F86807F086FA0AE0094B1B687A6938
:104AB00011461846FEF752FC0649F86807F07AFAE4
:104AC0002037BD4680BD00BF7C590108A0590108B0
:104AD000140000209C51010880B584B000AFF8603C
:104AE000B9607A6003F080F90349F86807F062FA68
:104AF00000BF1037BD4680BD9C51010880B584B011
:104B000000AFF860B9607A60064B1B681846FEF784
:104B100048FC0549F86807F04DFA00BF1037BD465C
:104B200080BD00BF140000209C51010880B592B0E8
:104B300000AFF860B9607A60B86806F0B5F803466F
:104B40007B647B6C062B04D05E49F86807F032FA70
:104B5000B5E00121B86806F071F8034618460CF07C
:104B600083FB03463B643B6CB3F57A7F03D33B6C1A
:104B7000554A934204D95549F86807F01BFA9EE05C
:104B80000221B86806F05AF8034618460CF06CFB90
:104B90000346FB63FB6B002B02D0FB6B242B04D979
:104BA0004B49F86807F006FA89E00321B86806F077
:104BB00045F8034618460CF057FB0346BB63BB6B36
:104BC000642B04D94349F86807F0F4F977E004212D
:104BD000B86806F033F8034618460CF045FB034668
:104BE0007B637B6B002B04D13B49F86807F0E2F94B
:104BF00065E00521B86806F021F8034618460CF078
:104C000033FB03463B633B6B002B04D13349F8680D
:104C100007F0D0F953E00621B86806F00FF8034614
:104C200018460CF021FB0346FB62FB6A002B04D103
:104C30002B49F86807F0BEF941E07A6B3B6B1A44E8
:104C4000FB6A13443A6C02FB03F3264AA2FB0323DC
:104C50001B0CBB62BB6AB3F5006F04D92249F8682C
:104C600007F0A8F92BE03B6C7B61FB6BDBB23B767A
:104C7000BB6BDBB27B767B6B9BB27B833B6B9BB26C
:104C8000BB83FB6A9BB2FB83BB6A3B62174A3B6CEC
:104C9000B2FBF3F37B62164B1B6807F1140211465B
:104CA0001846FEF799FB0346002B04D11149F8681A
:104CB00007F080F903E01049F86807F07BF94837FE
:104CC000BD4680BDC059010850F80C002C5A01089F
:104CD000545A0108705A0108905A0108B45A010840
:104CE000DC5A0108D34D6210005B010840420F00FE
:104CF000140000209C51010818520108F0B591B031
:104D000006AFF860B9607A60104B1B6807F11402B7
:104D100011461846FEF7A0FB7A693B7E1E467B7E55
:104D200019467B8B1846BB8B1C46FB8B1D463B6A8A
:104D30000493039502940190009133460449F86866
:104D400007F038F900BF2C37BD46F0BD1400002035
:104D5000285B010880B584B000AFF860B9607A6064
:104D60000C4B1B681846FEF78BFB0346002B04D048
:104D70000949F86807F01EF907E0084B1B68184658
:104D8000FEF7DEFB064B01221A7000BF1037BD464E
:104D900080BD00BF14000020C45B01081800002083
:104DA0003C45002080B588B000AFF860B9607A60FB
:104DB000B86805F079FF0346FB61FB69032B04D05B
:104DC0003349F86807F0F6F85FE0324B1B6893F858
:104DD0004830052B10D02F4B1B6893F84830032B1D
:104DE0000AD02C4B1B6893F84830042B04D02A4976
:104DF000F86807F0DFF848E00121B86805F01EFF09
:104E0000034618460CF030FA0346BB61BB69B3F5A4
:104E1000001F04D32149F86807F0CCF835E00221DF
:104E2000B86805F00BFF034618460CF01DFA034660
:104E30007B61BB69C3F500137A699A4203D87B6929
:104E4000B3F5007F08D2BB69C3F500131A461449B5
:104E5000F86807F0AFF818E00321B86805F0EEFE37
:104E6000034618460CF000FA0346FB74FB7C012B4A
:104E700004D90C49F86807F09DF806E0054B18685E
:104E8000FB7C7A69B969FEF7A1F92037BD4680BD80
:104E9000E45B0108140000201C5C01083C5C010874
:104EA000685C0108945C010880B584B000AFF860CC
:104EB000B9607A60084B1B78002B05D0074B1B6844
:104EC0001846FEF7A9F904E00549F86807F072F8FA
:104ED00000BF1037BD4680BD3C45002014000020B7
:104EE000CC5C010880B400AF024B1846BD465DF8AB
:104EF000047B7047C86C010880B400AF2F231846AC
:104F0000BD465DF8047B704780B483B000AF786025
:104F10007B68DB6903F02003202B01D1012300E033
:104F2000002318460C37BD465DF8047B704780B4FB
:104F300083B000AF78607B685B6ADBB218460C37E1
:104F4000BD465DF8047B704780B500AF4FF48062CA
:104F50000849094807F0CAFB4FF48052074908483E
:104F600007F0C4FB064B044A0649074807F039F925
:104F700000BF80BD18460020F0450020184A0020E0
:104F80000446002000140140E0450020B0B588B080
:104F900000AF1B4B3C1D1D460FCD0FC495E807000D
:104FA00084E80700FFF79EFF0346BB61FFF7A4FFFD
:104FB0000346BB833B1D184605F043FC0346114ADC
:104FC0001360104B1B68002B05D101210E4802F025
:104FD0002FFD012310E00B4B1B680C4A1A60094B94
:104FE0001C683B1D184605F0FBFB03461A460849A2
:104FF000204606F0DFFF002318462037BD46B0BD2F
:10500000105D01081C5A002030710108155000087D
:10501000F05C010880B582B000AF78600B46FB7091
:10502000FB781946034807F05FF900BF0837BD4613
:1050300080BD00BFE045002080B584B002AF78603D
:1050400039607B68002B03D10021154802F0F0FC89
:1050500078683B68DA683B681B6900931346114A1D
:10506000114907F003FE7B6820337A680621184651
:1050700007F068FE3B685A687B68DA613B689A68AB
:105080007B689A613B681A687B685A617B68203349
:10509000184607F099FE00BF0837BD4680BD00BF27
:1050A00030710108B15100083151000880B588B055
:1050B00002AFFFF749FF022300931E233C220D4954
:1050C0000D4807F0EEF9FFF761FF0C4B7B600C4BCE
:1050D0001B68BB600B4BFB600B4B3B61064B7B6162
:1050E0003B1D19460948FFF7A7FF00BF1837BD460B
:1050F00080BD00BF88450020C4450020F95100084C
:105100001C5A0020E0450020844500204045002036
:1051100080B582B000AF0346FB71FB7919460348A6
:1051200007F0BEFD00BF0837BD4680BD40450020EA
:1051300080B582B000AF786039607B68002B03D106
:105140000721154802F074FC7B689B69184607F03C
:1051500064F87B6820330A220A21184607F014FEFF
:105160000E4B1B680E49184606F024FF0B4B1B68BC
:105170000C49184606F01EFF084B1B680A491846E2
:1051800006F018FF054B1B680849184606F012FF89
:1051900000BF0837BD4680BD307101081C5A002091
:1051A0002C5D01085C5D01087C5D0108985D0108CB
:1051B00080B584B000AF786039607B685B69FB6064
:1051C0007B685B693968786898470346FB72FB7AAD
:1051D000002B08D1FB680649786898477B685B69B3
:1051E00004497868984700BF1037BD4680BD00BFAE
:1051F0003C7101083871010880B582B000AF786059
:1052000039607B68002B03D10321244802F010FC95
:105210003B68002B03D10421204802F009FC3B68C5
:105220001B88013B072B34D801A252F823F000BFA2
:10523000515200089352000863520008935200082C
:1052400093520008715200087F52000889520008EA
:105250007B6820330A220A21184607F095FD0123B6
:1052600018E07B682033184607F0AEFD012311E0FB
:105270000B4B1B68184605F096FB01230AE07B6880
:10528000084A5A61002305E07B68074A5A610023F7
:1052900000E0022318460837BD4680BD3071010882
:1052A0001C5A00203D5300084D54000880B582B0C0
:1052B00000AF0B48FFF728FE0346002B0BD0084831
:1052C000FFF735FE0346FB71064B1B68FA79114662
:1052D000184605F045FB00BF0837BD4680BD00BF3E
:1052E000001401401C5A002080B584B000AF7860E3
:1052F0007B689B69184607F0A1F8F860FB68002BF3
:1053000008D0064B1B78002B04D07B680449184654
:1053100007F0F0FC00BF1037BD4680BD185A0020D2
:105320004071010880B500AFFFF7C0FF0248FFF7EA
:10533000DBFF00BF80BD00BF4045002080B584B0CA
:1053400000AF786039600023FB603B681B88012B4D
:1053500027D0092B46D074E0786800F00DFA1BE0E6
:105360007B689A697B6893F83D3019467B680B44EB
:1053700093F838301946104606F0B6FFF860FB681F
:10538000002B01D001235DE07B6893F83D300133B1
:10539000DAB27B6883F83D207B6893F83D30042BBC
:1053A000DED97B685B6B002BD6D11BE07B689A69EA
:1053B0007B6893F83D3019467B680B4493F838308E
:1053C0001946104606F090FFF860FB68002B01D0EC
:1053D000012337E07B6893F83D300133DAB27B6814
:1053E00083F83D207B6893F83D30042BDED924E020
:1053F000786800F0C1F91BE07B689A697B6893F8D4
:105400003D3019467B680B4493F8383019461046F6
:1054100006F06AFFF860FB68002B01D0012311E061
:105420007B6893F83D300133DAB27B6883F83D2026
:105430007B6893F83D30042BDED97B685B6B002BD7
:10544000D6D1022318461037BD4680BD80B586B040
:1054500000AF786039603B681B88013B0A2B00F283
:10546000018101A252F823F0955400086556000806
:105470006556000865560008655600086556000820
:105480006556000865560008A35500083F550008FA
:105490001B560008764B1B6C5B00764A1A40764B15
:1054A00013433B613B691B0CDBB23B733B691B0A3B
:1054B000DBB27B733B69DBB2BB730023FB750DE092
:1054C0007B689A69FB7D18333B4413F80C3C194602
:1054D000104606F009FFFB7D0133FB75FB7D022BB7
:1054E000EED9664B1B681846FDF7BAFE0123BAE0F9
:1054F000786800F016F91DE07B689A697B6893F87C
:10550000403019467B680B4493F83E3019461046EC
:1055100006F0EAFE0346002B04D0594B01221A7014
:105520000123A0E07B6893F840300133DAB27B6856
:1055300083F840207B6893F84030012BDCD97B68EE
:105540005B6B002BD4D14D4B1B681846FDF7A8FEB2
:10555000012388E07B689A697B6893F8403019469C
:105560007B680B4493F83E301946104606F0BCFEAB
:105570000346002B01D0012375E07B6893F840308F
:105580000133DAB27B6883F840207B685B6B002BC9
:1055900007D13B4B00221A70384B1B681846FDF7A9
:1055A0007FFE7B6893F84030012BD3D92FE07868D9
:1055B00000F0B7F81AE07B689A697B6893F840308E
:1055C00019467B680B4493F83E301946104606F0A6
:1055D0008BFE0346002B01D0012344E07B6893F847
:1055E00040300133DAB27B6883F840207B6893F85F
:1055F0004030012BDFD97B685B6B002B07D1204B40
:1056000000221A701D4B1B681846FDF749FE7B6887
:105610005B6B002BCBD1012325E07B68B3F84230D4
:105620001B0A9BB2DBB23B737B68B3F84230DBB240
:105630007B730023BB750DE07B689A69BB7D1833D3
:105640003B4413F80C3C1946104606F04DFEBB7D5A
:105650000133BB75BB7D012BEED97B68094A5A61CA
:10566000002300E0022318461837BD4680BD00BF66
:105670000C440020FEFF3F000000C0FF1C00002083
:10568000185A0020F951000880B485B000AF786046
:105690000B467B807B881B0A9BB2DBB23B737B880B
:1056A000DBB27B730023FB7331E07B681B881AB28B
:1056B000FB7B10333B4413F8043C1BB21B021BB2B0
:1056C00053401BB29AB27B681A800023BB7318E068
:1056D0007B681B881BB2002B0ADA7B681B881BB215
:1056E0005B001AB241F2210353401BB29BB203E0AC
:1056F0007B681B885B009BB27A681380BB7B01339D
:10570000BB73BB7B072BE3D9FB7B0133FB73FB7BB9
:10571000012BCAD900BF00BF1437BD465DF8047B1A
:10572000704780B584B000AF78607B681B6B991CB4
:105730007A6811631B88FB817B685B6B5A1E7B68F0
:105740005A637B684233FA8911461846FFF79CFF7B
:10575000FB891B0A9BB2DAB27B6883F83E20FB8987
:10576000DAB27B6883F83F207B68002283F8402010
:1057700000BF1037BD4680BDB0B588B000AF7860BF
:105780002B4B07F10C041D460FCD0FC42B68237063
:105790007B681B6B991C7A6811631B88FB837B6891
:1057A0005B6B5A1E7B685A63FB8B1B0B9BB203F02F
:1057B0000F0320333B4413F8142C7B6883F8382004
:1057C000FB8B1B0A9BB203F00F0320333B4413F8FF
:1057D000142C7B6883F83920FB8B1B099BB203F0E8
:1057E0000F0320333B4413F8142C7B6883F83A20D2
:1057F000FB8B03F00F0320333B4413F8142C7B681E
:1058000083F83B207B68202283F83C207B680022C1
:1058100083F83D207B685B6B002B04D1054B1B6834
:105820001846FDF73DFD00BF2037BD46B0BD00BFA7
:10583000C45D01081C00002080B584B002AF786010
:10584000396078683B685A683B689B6800931346E8
:10585000134A144907F00AFA7B6814337A68262140
:10586000184607F06FFA7B6824337A6827211846B8
:1058700007F068FA3B681A687B685A637B684FF4E4
:105880007A729A637B68FF2283F83C207B6814332A
:10589000184607F099FA00BF0837BD4680BD00BF23
:1058A0005D590008ED58000880B586B002AF0223AC
:1058B0000093012302220949094806F0F2FD094A32
:1058C0003B1D07CA83E807003B1D19460648FFF742
:1058D000B3FF00BF1037BD4680BD00BF80DA002097
:1058E00060DA0020D85D010820DA002080B582B09F
:1058F00000AF7860396007F045F87B6803F1140069
:105900007B689B6B99B27B689B6B9BB21A4607F0D6
:105910003BFA02F005FF084806F07FFC02F0DEFECD
:1059200002F0EEFE02F04CF902F05CF902F006FC27
:1059300000BF0837BD4680BD04E0012080B582B0BD
:1059400000AF0346FB71FB791946034807F0A8F93D
:1059500000BF0837BD4680BD20DA002080B582B088
:1059600000AF786039603B681B88262B06D102F0B7
:10597000CEFE02F03FF9786800F006F801231846E1
:105980000837BD4680BD000090B591B000AF78608B
:1059900007F12C0300221A605A609A60DA6007F15E
:1059A0001C0300221A605A609A60DA6007F10C0347
:1059B00000221A605A609A60DA60374BD3ED027A9F
:1059C000B7EEE77A07F12C0303211846B0EE470B38
:1059D00000F074F807F12C031A463049304806F0FD
:1059E000C9FC304B93ED007B9FED295B87EE056B87
:1059F00007F11C0303211846B0EE460B00F05EF8D9
:105A0000294B93ED007B07F10C0303211846B0EE00
:105A1000470B00F053F807F10C0307F11C02234970
:105A20001F4806F0A7FC22491D4806F0A3FC0023EE
:105A300087F83F301DE07B6893F83C301A4697F8B2
:105A40003F3042FA03F303F00103002B0CD097F828
:105A50003F4097F83F30184602F084FB0346224649
:105A600014490F4806F086FC97F83F30013387F859
:105A70003F3097F83F30072BDDD90F49084806F033
:105A800079FC00BF4437BD4690BD00BFAFF3008036
:105A9000000000000000594078DC0020E45D0108AF
:105AA00004E0012090E1022088E10220F85D010875
:105AB000145E01081C5E0108285E010880B58CB0E8
:105AC00000AF87ED040BF8600B46FB7297ED047B8B
:105AD000B5EEC07BF1EE10FA0AD5FB685A1CFA60ED
