:020000040800F2
:100000000000082029310008D52E0008DD2E000848
:10001000E52E0008ED2E0008F52E00080000000077
:10002000000000000000000000000000FD2E00089D
:100030000B2F000800000000192F0008272F0008D0
:1000400079310008793100087931000879310008E8
:1000500079310008793100087931000879310008D8
:1000600079310008793100087931000879310008C8
:100070003B2F0008793100087931000879310008F8
:1000800079310008793100087931000879310008A8
:100090007931000879310008793100087931000898
:1000A00079310008257B0008793100087931000892
:1000B000717B000879310008793100087931000836
:1000C0007931000879310008793100087931000868
:1000D00079310008472F000879310008793100088C
:1000E0007931000879310008793100087931000848
:1000F0007931000879310008793100087931000838
:100100007931000879310008793100087931000827
:100110007931000879310008793100087931000817
:1001200079310008532F0008612F0008E97E00088C
:100130006D2F000879310008793100087931000805
:1001400079310008793100087931000879310008E7
:1001500079310008D97D000879310008055100087F
:1001600079310008793100087931000879310008C7
:100170007931000879310008793100080000000069
:1001800079310008793100085935000879310008C3
:100190007931000879310008793100087931000897
:1001A00000000000000000007931000879310008EB
:1001B0007931000879310008793100087931000877
:1001C0007931000879310008000000007931000819
:1001D0007931000879310008793100087931000857
:1001E0007931000879310008793100087931000847
:0801F000000000007931000855
:1002000010B5054C237833B9044B13B10448AFF350
:1002100000800123237010BD18430020000000005F
:10022000D03B010808B5034B1BB103490348AFF3AA
:10023000008008BD000000001C430020D03B0108E6
:1002400010F8012B11F8013B012A28BF9A42F7D080
:10025000D01A7047000000000000000000000000FD
:1002600001F0FF01102A2BDB10F0070F08D010F867
:10027000013B013A8B422DD010F0070F42B3F6D16B
:10028000F0B441EA012141EA014122F007047FF084
:1002900000070023F0E80256083C85EA010586EADB
:1002A000010685FA47F5A3FA87F586FA47F6A5FA17
:1002B00087F68EB9EED1F0BC01F0FF0102F0070223
:1002C00032B110F8013B013A83EA010313B1F8D1CE
:1002D0000020704701387047002D06BF35460338AF
:1002E000073815F0010F07D1013015F4807F02BFE8
:1002F000013015F4C03F0130F0BC0138704700BF39
:10030000034613F8012B002AFBD1181A0138704755
:1003100080F0004002E000BF81F0004142001FBFBA
:100320005FEA410392EA030F7FEA226C7FEA236CC3
:100330006AD04FEA1262D2EB1363C1BFD2184140B8
:1003400048404140B8BF5B42192B88BF704710F04E
:10035000004F40F4000020F07F4018BF404211F0F1
:10036000004F41F4000121F07F4118BF494292EA59
:10037000030F3FD0A2F1010241FA03FC10EB0C0085
:10038000C3F1200301FA03F100F0004302D5494212
:1003900060EB4000B0F5000F13D3B0F1807F06D3BF
:1003A00040084FEA310102F10102FE2A51D2B1F1B7
:1003B000004F40EBC25008BF20F0010040EA0300AC
:1003C0007047490040EB0000013A28BFB0F5000F2C
:1003D000EDD2B0FA80FCACF1080CB2EB0C0200FAE2
:1003E0000CF0AABF00EBC25052421843BCBFD04031
:1003F0001843704792F0000F81F4000106BF80F4AB
:1004000000000132013BB5E74FEA41037FEA226C6D
:1004100018BF7FEA236C21D092EA030F04D092F038
:10042000000F08BF0846704790EA010F1CBF00206C
:10043000704712F07F4F04D1400028BF40F00040C9
:10044000704712F100723CBF00F50000704700F0E9
:10045000004343F0FE4040F4000070477FEA226210
:1004600016BF08467FEA23630146420206BF5FEAE1
:10047000412390EA010F40F4800070474FF00003E1
:1004800004E000BF10F0004348BF40425FEA000CA8
:1004900008BF704743F0964301464FF000001CE050
:1004A00050EA010208BF70474FF000030AE000BFA6
:1004B00050EA010208BF704711F0004302D54042E4
:1004C00061EB41015FEA010C02BF84460146002056
:1004D00043F0B64308BFA3F18053A3F50003BCFA71
:1004E0008CF2083AA3EBC25310DB01FA02FC63441E
:1004F00000FA02FCC2F12002BCF1004F20FA02F225
:1005000043EB020008BF20F00100704702F1200217
:1005100001FA02FCC2F1200250EA4C0021FA02F278
:1005200043EB020008BF20EADC7070477BB972B968
:100530000029BEBF00204FF0004106E008BF0028A0
:100540001CBF6FF000414FF0FF3000F0D3B9ADF1A8
:10055000080C6DE904CE002909DB002B1ADB00F042
:100560004DF8DDF804E0DDE9022304B070474042B5
:1005700061EB4101002B1BDB00F040F8DDF804E0EB
:10058000DDE9022304B0404261EB4101524263EBDA
:1005900043037047524263EB430300F02FF8DDF84A
:1005A00004E0DDE9022304B0404261EB4101704701
:1005B000524263EB430300F021F8DDF804E0DDE98B
:1005C000022304B0524263EB4303704753B94AB964
:1005D000002908BF00281CBF4FF0FF314FF0FF304B
:1005E00000F088B9ADF1080C6DE904CE00F006F812
:1005F000DDF804E0DDE9022304B070472DE9F0479F
:10060000089D8E4604468846002B4AD18A421746EA
:1006100062D9B2FA82F64EB1C6F1200301FA06F8A9
:1006200020FA03F3B74043EA0808B4404FEA174EF4
:100630001FFA87FCB8FBFEF1230C0EFB118843EA7E
:10064000084301FB0CF29A4209D9FB1801F1FF3073
:1006500080F0EA809A4240F2E78002393B449A1ADD
:10066000A3B2B2FBFEF00EFB102243EA024300FBF2
:100670000CFC9C4509D9FB1800F1FF3280F0D680B4
:100680009C4540F2D3803B44023840EA0140A3EB52
:100690000C0300211DB1F3400022C5E90032BDE882
:1006A000F0878B4205D90DB1C5E90001002108464C
:1006B000F5E7B3FA83F1002946D1734502D38242AC
:1006C00000F20581841A6EEB030201209046002D92
:1006D000E5D0C5E90048E2E7002A00F09080B2FAD0
:1006E00082F6002E40F0A4808A1A030C4FEA174EBF
:1006F00080B2BCB20121B2FBFEFC0EFB1C2243EA1D
:10070000024304FB0CF29A4207D9FB180CF1FF38A4
:1007100002D29A4200F2E080C4469B1AB3FBFEF27A
:100720000EFB123340EA034302FB04F49C4207D958
:10073000FB1802F1FF3002D29C4200F2CA8002464E
:100740001B1B42EA0C40A5E7C1F120068B4022FAB0
:1007500006F71F430EFA01F420FA06F32EFA06FEFE
:100760004FEA1749234300FA01F81FFA87FCBEFB42
:10077000F9F01C0C09FB10EE44EA0E4400FB0CFEE1
:10078000A64502FA01F209D93C1900F1FF3A80F0BE
:100790009C80A64540F2998002383C44A4EB0E04AC
:1007A0001FFA83FEB4FBF9F309FB13444EEA044439
:1007B00003FB0CFCA44508D93C1903F1FF3E80F073
:1007C0008280A4457FD9023B3C4443EA0040A4EB2D
:1007D0000C04A0FB02EC64457346E14662D35FD093
:1007E0005DB1B8EB030264EB090404FA06F622FAE1
:1007F00001F31E43CC40C5E9006400214FE7B1FB83
:10080000F2FC010C41EA0E4180B240EA01423B4653
:1008100038463C46B846BE462026B1FBF7F1A2EB6F
:10082000080241EA0C4166E7014618E710462CE74A
:10083000C6F120022EFA02F3B740B14020FA02F2CC
:100840004FEA174E0A43B3FBFEF8BCB20EFB183357
:10085000110C41EA034108FB04F9B04089454FEA15
:10086000104380B23ED9791808F1FF3C01D2894586
:100870001FD8A1EB0901B1FBFEF909FB04F80EFB3F
:10088000191192B242EA0142424529D2BA1809F13D
:10089000FF31C4D24245C2D2A9F102013A44BEE7B7
:1008A000F0459DD2BEEB02036CEB070C0138E1462C
:1008B00096E7A7EB09094944A8F1020CB1FBFEF940
:1008C00009FB04F8DBE773467FE7504666E7084616
:1008D000FDE63B44023A33E7ACF1020C3B441CE733
:1008E00049469CE7A1EB0901C446B1FBFEF909FBAF
:1008F00004F8C4E7704700BF80B400AF044BDB6866
:100900001B0A03F007031846BD465DF8047B7047D9
:1009100000ED00E080B483B000AF0346FB7197F9AF
:100920000730002B0BDBFB7903F01F02074997F917
:1009300007305B09012000FA02F241F8232000BFD2
:100940000C37BD465DF8047B704700BF00E100E056
:1009500080B483B000AF03463960FB7197F907306C
:10096000002B0ADB3B68DAB20C4997F90730120119
:10097000D2B20B4483F800230AE03B68DAB208499C
:10098000FB7903F00F03043B1201D2B20B441A7639
:1009900000BF0C37BD465DF8047B704700E100E006
:1009A00000ED00E080B489B000AFF860B9607A6013
:1009B000FB6803F00703FB61FB69C3F10703042B2A
:1009C00028BF0423BB61FB690433062B02D9FB69F2
:1009D000033B00E000237B614FF0FF32BB6902FA6A
:1009E00003F3DA43BB681A407B699A404FF0FF314A
:1009F0007B6901FA03F3D9437B680B401343184624
:100A00002437BD465DF8047B704780B489B000AFE1
:100A1000F860B9607A60FB682C331946BB6803F450
:100A200040734FF44072BA61BA6992FAA2F27A61E5
:100A30007A69B2FA82F2D2B2D3409B000B44FB61D6
:100A4000FB691A68BB6803F01F031F2101FA03F357
:100A5000DB431A407B6803F01F01BB6803F01F03F0
:100A600001FA03F31A43FB691A6000BF2437BD463D
:100A70005DF8047B704780B483B000AF7860396064
:100A80007B689B6823F480623B681A437B689A60AA
:100A900000BF0C37BD465DF8047B704780B48DB055
:100AA00000AFF860B9607A60FB680C331946BB6828
:100AB00003F000734FF00072BA61BA6992FAA2F2C1
:100AC0007A617A69B2FA82F2D2B2D3409B000B44C7
:100AD000FB62FB6A1A68BB6803F0F8734FF0F871A9
:100AE0003962396A91FAA1F1F961F969B1FA81F1D2
:100AF000C9B2CB40072101FA03F3DB431A40BB68BC
:100B000003F0F8734FF0F871B962B96A91FAA1F184
:100B10007962796AB1FA81F1C9B2CB40796801FA98
:100B200003F31A43FB6A1A6000BF3437BD465DF811
:100B3000047B704780B485B000AFF860B9607A601C
:100B40000D4ABB6813441B781A46FB6813441B68A4
:100B500023F0C0020849BB680B441B781946FB68A8
:100B60000B4419467B6813430B6000BF1437BD4626
:100B70005DF8047B704700BF985B010880B485B0C6
:100B800000AFF860B9607A600D4ABB6813441B7807
:100B90001A46FB6813441B6823F490720849BB682B
:100BA0000B441B781946FB680B4419467B681343BA
:100BB0000B6000BF1437BD465DF8047B704700BF73
:100BC000985B010880B485B000AFF860B9607A60C6
:100BD0000D4ABB6813441B781A46FB6813441B6814
:100BE00023F400720849BB680B441B781946FB6864
:100BF0000B4419467B6813430B6000BF1437BD4696
:100C00005DF8047B704700BF985B010880B485B035
:100C100000AFF860B9607A600D4ABB6813441B7876
:100C20001A46FB6813441B6823F480620849BB68BA
:100C30000B441B781946FB680B4419467B68134329
:100C40000B6000BF1437BD465DF8047B704700BFE2
:100C5000985B010880B485B000AFF860B9607A6035
:100C60000D4ABB6813441B781A46FB6813441B6883
:100C700023F4C0520849BB680B441B781946FB6833
:100C80000B4419467B6813430B6000BF1437BD4605
:100C90005DF8047B704700BF985B010880B485B0A5
:100CA00000AFF860B9607A600D4ABB6813441B78E6
:100CB0001A46FB6813441B6823F4C0420849BB680A
:100CC0000B441B781946FB680B4419467B68134399
:100CD0000B6000BF1437BD465DF8047B704700BF52
:100CE000985B010880B485B000AFF860B9607A60A5
:100CF0000D4ABB6813441B781A46FB6813441B68F3
:100D000023F440320849BB680B441B781946FB6842
:100D10000B4419467B6813430B6000BF1437BD4674
:100D20005DF8047B704700BF985B010880B485B014
:100D300000AFF860B9607A600D4ABB6813441B7855
:100D40001A46FB6813441B6823F0F0520849BB683D
:100D50000B441B781946FB680B4419467B68134308
:100D60000B6000BF1437BD465DF8047B704700BFC1
:100D7000985B010880B483B000AF786039600C4A9A
:100D80003B6813441B781A467B6813445B69084927
:100D90003A680A44127811467A680A4423F0040338
:100DA000536100BF0C37BD465DF8047B704700BF40
:100DB000985B010880B483B000AF78607B681B68E3
:100DC00043F001027B681A6000BF0C37BD465DF836
:100DD000047B704780B483B000AF78607B681B6889
:100DE00023F400327B681A6000BF0C37BD465DF803
:100DF000047B704780B483B000AF78607B681B6869
:100E000023F400227B681A6000BF0C37BD465DF8F2
:100E1000047B704780B485B000AFF860B9607A6039
:100E2000FB68DA68064B1340B9687A680A431A43CC
:100E3000FB68DA6000BF1437BD465DF8047B70477D
:100E400001F8FFFF80B483B000AF78607B68DB6897
:100E500023F400427B68DA6000BF0C37BD465DF8C2
:100E6000047B704780B483B000AF78607B685B68B8
:100E700043F000727B685A6000BF0C37BD465DF8D6
:100E8000047B704780B483B000AF78607B681B68D8
:100E900043F040027B681A6000BF0C37BD465DF826
:100EA000047B704780B483B000AF786039607B68A2
:100EB0005B6823F010023B681A437B685A6000BFEE
:100EC0000C37BD465DF8047B704780B483B000AF3B
:100ED00078607B685B6843F008027B685A6000BFFB
:100EE0000C37BD465DF8047B704780B483B000AF1B
:100EF00078607B685B6823F008027B685A6000BFFB
:100F00000C37BD465DF8047B704780B483B000AFFA
:100F100078607B681B6843F080027B681A6000BFC2
:100F20000C37BD465DF8047B704780B483B000AFDA
:100F300078607B681B6823F080027B681A6000BFC2
:100F40000C37BD465DF8047B7047000080B485B067
:100F500000AF786039603B68012B28D03B68042BD8
:100F600023D03B68102B1ED03B68402B19D03B6828
:100F7000B3F5807F13D03B68B3F5806F0DD03B682D
:100F8000B3F5805F07D03B68B3F5803F01D10723FD
:100F90000EE008230CE006230AE0052308E0042302
:100FA00006E0032304E0022302E0012300E0002323
:100FB000FB737B6818331946FB7B0B4AD35C0B44ED
:100FC000BB60BB681A68FB7B0849CB5C19460423ED
:100FD0008B40DB431A40BB681A6000BF1437BD4624
:100FE0005DF8047B704700BFA05B0108AC5B0108A3
:100FF00080B485B000AF786039603B68012B28D0A1
:101000003B68042B23D03B68102B1ED03B68402B41
:1010100019D03B68B3F5807F13D03B68B3F5806F80
:101020000DD03B68B3F5805F07D03B68B3F5803FD8
:1010300001D107230EE008230CE006230AE0052374
:1010400008E0042306E0032304E0022302E0012376
:1010500000E00023FB737B6818331946FB7B0A4AC8
:10106000D35C0B44BB60BB681A68FB7B0749CB5C55
:10107000194608238B401A43BB681A6000BF143717
:10108000BD465DF8047B7047A05B0108AC5B0108BE
:1010900080B483B000AF786039607B689A68064B93
:1010A00013403A681A437B689A6000BF0C37BD460C
:1010B0005DF8047B704700BFF8BFFEFF80B483B0CB
:1010C00000AF786039607B685B6823F070023B6832
:1010D0001A437B685A6000BF0C37BD465DF8047B3D
:1010E000704780B483B000AF786039607B685B681C
:1010F00023F470023B681A437B685A6000BF0C37C8
:10110000BD465DF8047B704780B483B000AF786063
:101110007B689B6823F080027B689A6000BF0C3775
:10112000BD465DF8047B704780B483B000AF786043
:101130007B681B6843F001027B681A6000BF0C37B4
:10114000BD465DF8047B704780B483B000AF786023
:101150007B685B6823F490427B685A607B689B687D
:1011600023F02A027B689A6000BF0C37BD465DF809
:10117000047B704780B483B000AF786039607B68CF
:101180003A689A6100BF0C37BD465DF8047B704732
:1011900080B483B000AF786039603B681A047B6824
:1011A0009A6100BF0C37BD465DF8047B70470000B4
:1011B00080B485B000AF7860084B1A6B07497B6834
:1011C00013430B63054B1A6B7B681340FB60FB6892
:1011D00000BF1437BD465DF8047B704700380240FD
:1011E00080B485B000AF7860084B1A6C07497B6803
:1011F00013430B64054B1A6C7B681340FB60FB6860
:1012000000BF1437BD465DF8047B704700380240CC
:1012100080B485B000AF7860084B5A6C07497B6892
:1012200013434B64054B5A6C7B681340FB60FB68AF
:1012300000BF1437BD465DF8047B7047003802409C
:1012400080B500AF0CF0C6FA00F02EF801F010FBEC
:1012500001F092FA00F054FB00F00AFC00F0CEFC22
:1012600000F07EFD00F090F800F0F8FD00F0D8FFEF
:1012700001F0B0F800F070FE01F048F901F0E2F979
:1012800000F0D6F900F084FA00F042FF00F086FF8B
:1012900000F014FB00F0CEFB01F06FFF01F077FFD0
:1012A00001F082FF00BFFDE780B594B000AF07F109
:1012B0001C0334220021184610F0D6F907F1080368
:1012C00000221A605A609A60DA601A612C4B1B6C1B
:1012D0002B4A43F080531364294B1B6C03F080535B
:1012E0007B607B68274B1B68264A43F440431360AE
:1012F000244B1B6803F440433B603B680923FB61BC
:101300004FF480333B6201233B6302237B634FF442
:101310008003BB630C23FB63C0233B6402237B6419
:101320000223BB640223FB6407F11C0318460CF084
:10133000A1FD0346002B01D001F082FD0CF04AFD17
:101340000346002B01D001F07BFD0F23BB6002237D
:10135000FB6000233B614FF4A0537B614FF480534B
:10136000BB6107F10803062118460DF031F803466A
:10137000002B01D001F064FD00BF5037BD4680BD99
:10138000003802400070004080B592B000AF07F115
:101390003C0300221A605A609A6007F12803002279
:1013A0001A605A609A60DA601A6107F11803002225
:1013B0001A605A609A60DA603B4600221A605A60EE
:1013C0009A60DA601A615A614FF48070FFF720FF6B
:1013D0000420FFF7EDFE0220FFF7EAFE01233B6049
:1013E00003237B6000233B613B46194684480DF094
:1013F00078FF02233B6003237B6000233B613B4675
:1014000019467F480DF06DFF04233B6003237B608A
:1014100000233B613B46194679480DF062FF0823E3
:101420003B6003237B6000233B613B4619467448C5
:101430000DF057FF10233B6003237B6000233B61CB
:101440003B4619466E480DF04CFF20233B600323BA
:101450007B6000233B613B46194669480DF041FF24
:1014600001233B6003237B6000233B613B4619461D
:1014700064480DF036FF02233B6003237B600023AA
:101480003B613B4619465F480DF02BFF00220421CB
:101490005D48FFF74BFC002204215B48FFF74AFB45
:1014A000002204215848FFF71DFC4FF480720421EC
:1014B0005548FFF763FB002204215348FFF782FBE6
:1014C0004FF4806204215048FFF7A0FB4FF4006204
:1014D00004214D48FFF7BEFB4FF4005204214A4857
:1014E000FFF7DCFB04214848FFF744FC0023FB63C3
:1014F00000233B644FF480737B6407F13C0319467F
:1015000042480DF075FD0023BB624FF4E003FB621F
:1015100000233B6300237B634FF44073BB6307F1FD
:101520002803194639480DF08FFD00213748FFF791
:10153000A2FA4FF48033BB610023FB6107F118036B
:10154000194633480DF00CFD0A224FF400712F4864
:10155000FFF75BFA01220A212C48FFF79FFA2D4A78
:1015600040F205212948FFF750FA0122294927486E
:10157000FFF794FA284A40F20A212448FFF745FA77
:10158000012225492148FFF789FA244A40F20F2118
:101590001E48FFF73AFA012220491C48FFF77EFA5D
:1015A0001F4A4FF405711948FFF72FFA01221C4911
:1015B0001648FFF773FA1B4A40F219211348FFF748
:1015C00024FA012217491148FFF768FA164A4FF426
:1015D00080710E48FFF719FA012213490B48FFF7F3
:1015E0005DFA124A40F205110848FFF70EFA01228F
:1015F0000E490648FFF752FA00BF4837BD4680BD86
:101600000008024000040240006402400020014043
:10161000002301400B0030000C0060000D00900022
:101620000E00C0000F00F000080080030900B003A6
:1016300080B58EB000AF07F12C0300221A605A600B
:101640009A6007F1180300221A605A609A60DA6003
:101650001A613B4600221A605A609A60DA601A6189
:101660005A614FF40070FFF7D3FD0120FFF7A0FD92
:1016700004233B6003237B6000233B613B46194608
:101680003E480DF02EFE08233B6003237B600023C1
:101690003B613B46194639480DF023FE4FF000727E
:1016A00002213748FFF742FB002202213448FFF7AE
:1016B00041FA002202213248FFF714FB4FF48072F6
:1016C00002212F48FFF75AFA002202212C48FFF787
:1016D00079FA4FF4806202212948FFF797FA4FF414
:1016E000006202212648FFF7B5FA4FF400520221AA
:1016F0002348FFF7D3FA02212148FFF73BFB0023E1
:10170000FB6200233B634FF480737B6307F12C0380
:1017100019461C480DF06CFC0023BB614FF480138C
:10172000FB6100233B6200237B624FF44073BB628A
:1017300007F11803194613480DF086FC4FF4806139
:101740001048FFF798F9104A4FF400710D48FFF761
:101750005CF901220C490B48FFF7A0F90B4A40F253
:1017600005210848FFF751F9002208490548FFF70D
:1017700095F900BF3837BD4680BD00BF000002406C
:101780000064024000210140030090020200600258
:1017900080B58EB000AF07F12C0300221A605A60AA
:1017A0009A6007F1180300221A605A609A60DA60A2
:1017B0001A613B4600221A605A609A60DA601A6128
:1017C0005A614FF48060FFF723FD0120FFF7F0FC22
:1017D00002233B6003237B6000233B613B461946A9
:1017E00032480DF07EFD4FF0806201213048FFF756
:1017F0009DFA002201212E48FFF79CF900220121C9
:101800002B48FFF76FFA4FF4807201212848FFF749
:10181000B5F9002201212648FFF7D4F94FF4806280
:1018200001212348FFF7F2F94FF40062012120481B
:10183000FFF710FA4FF4005201211D48FFF72EFA6E
:1018400001211B48FFF796FA0023FB6200233B634C
:1018500000237B6307F12C03194616480DF0C8FBE3
:101860000023BB610023FB6100233B6200237B62FA
:101870004FF44073BB6207F1180319460D480DF091
:10188000E3FB4FF480610B48FFF7F5F80A4A4FF489
:1018900000710848FFF7B9F8012207490548FFF72A
:1018A000FDF800BF3837BD4680BD00BF00000240D4
:1018B00000640240002201400100300280B500AF08
:1018C0000D4B0E4A1A600C4B00221A710A4B002273
:1018D0005A71094B00225A61074B00229A61064B4C
:1018E00001221A6204480CF0B9F80346002B01D01B
:1018F00001F0A6FA00BF80BD344300200030024052
:1019000080B5B2B000AF07F1AC0300221A605A6094
:101910009A60DA601A615A619A6107F194030022B1
:101920001A605A609A60DA601A615A613B1D90220F
:10193000002118460FF098FE4FF480437B6000238F
:10194000BB663B1D18460CF0F5FE0346002B01D08C
:1019500001F076FA0220FFF72BFC4023C7F8943001
:101960000223C7F898300323C7F89C300123C7F837
:10197000A0300023C7F8A4300423C7F8A83007F12B
:101980009403194628480DF0ACFC8023C7F8943026
:101990000223C7F898300323C7F89C300123C7F807
:1019A000A0300023C7F8A4300423C7F8A83007F1FB
:1019B000940319461C480DF094FC4FF40010FFF7F7
:1019C0000FFC1A48FFF74EFA002200211748FFF7D4
:1019D00021FA1648FFF736FA1448FFF70BFA1348B6
:1019E000FFF7F8F90023C7F8AC30114BC7F8B03057
:1019F0000023C7F8B4300023C7F8B8300023C7F875
:101A0000BC300023C7F8C0300023C7F8C43007F14A
:101A1000AC03194605480DF07BFD0448FFF7CAF9F1
:101A200000BFC837BD4680BD0004024000540040DE
:101A3000D619400080B500AF0B4B0C4A1A600A4B18
:101A400000225A60084B40F6FF72DA60064B40F6FF
:101A5000FF729A6004480CF0F3F80346002B01D0A3
:101A600001F0EEF900BF80BD584300200030004077
:101A700080B590B000AF07F1180328220021184666
:101A80000FF0F2FD3B4600221A605A609A60DA605D
:101A90001A615A614FF48050FFF7BAFB0120FFF73B
:101AA00087FB10233B6002237B600323BB60002382
:101AB000FB6000233B6105237B613B4619464C4894
:101AC0000DF00FFC20233B6002237B600323BB60EF
:101AD0000023FB6000233B6105237B613B461946E5
:101AE00043480DF0FEFB40233B6002237B60032351
:101AF000BB600023FB6000233B6105237B613B4609
:101B000019463B480DF0EDFB80233B6002237B60D0
:101B10000323BB600023FB6000233B6105237B6143
:101B20003B46194632480DF0DCFB4FF0C062032102
:101B30003048FFF7FBF8402203212E48FEF7FAFF5A
:101B40004FF4003203212B48FFF7CCF80022032189
:101B50002848FFF713F8002203212648FFF732F840
:101B60004FF4806203212348FFF750F8002203213D
:101B70002048FFF76FF8002203211E48FFF78EF878
:101B800003211C48FFF7F6F8FEF7B6FE03460022D5
:101B900000211846FEF706FF034619462320FEF7EC
:101BA000D7FE2320FEF7B6FE0023BB610023FB61B6
:101BB0004FF4E0633B6202237B620023BB6200239D
:101BC000FB6200237B630023BB630723FB6307F1F6
:101BD0001803194608480EF073F800210648FFF76D
:101BE00061F90548FFF781F900BF4037BD4680BD68
:101BF00000000240006402400030014080B590B017
:101C000000AF07F118032822002118460FF02CFD21
:101C10003B4600221A605A609A60DA601A615A6183
:101C20004FF48040FFF7DCFA0220FFF7C1FA4FF4CF
:101C300000533B6002237B600323BB600023FB60F7
:101C400000233B6105237B613B46194641480DF06B
:101C500048FB4FF480433B6002237B600323BB605F
:101C60000023FB6000233B6105237B613B46194653
:101C700038480DF036FB4FF400433B6002237B6095
:101C80000323BB600023FB6000233B6105237B61D2
:101C90003B4619462F480DF024FB4FF0905201218E
:101CA0002D48FFF743F8002201212B48FEF742FFA1
:101CB0004FF4403201212848FFF714F84FF48072A6
:101CC00001212548FEF75AFF002201212248FEF794
:101CD00079FF4FF4806201211F48FEF797FF4FF410
:101CE000006201211C48FEF7B5FF4FF400520121AC
:101CF0001948FEF7D3FF01211748FFF73BF80023EF
:101D0000BB614FF48273FB614FF470633B6200234D
:101D10007B620023BB624FF40073FB6200233B63D2
:101D200000237B630023BB630723FB6307F11803D6
:101D300019460A480DF0C4FF00210848FFF7B2F821
:101D40000648FFF7C2F80548FFF79CF800BF403788
:101D5000BD4680BD000402400060024000380040E3
:101D600080B590B000AF07F1180328220021184673
:101D70000FF07AFC3B4600221A605A609A60DA60E3
:101D80001A615A614FF40040FFF72AFA0420FFF766
:101D90000FFA4FF480633B6002237B600323BB6038
:101DA0000023FB6000233B6106237B613B46194611
:101DB00028480DF096FA4FF400633B6002237B60E5
:101DC0000323BB600023FB6000233B6106237B6190
:101DD0003B4619461F480DF084FA4FF480533B6090
:101DE00002237B600323BB600023FB6000233B6175
:101DF00006237B613B46194616480DF072FA002314
:101E0000BB614FF48273FB614FF4E0633B620023DC
:101E10007B620023BB624FF40073FB6200233B63D1
:101E200000237B630023BB630723FB6307F11803D5
:101E3000194609480DF044FF00210748FFF732F822
:101E40000548FFF742F80448FFF71CF800BF403789
:101E5000BD4680BD00080240003C004080B590B007
:101E600000AF07F118032822002118460FF0FCFBF1
:101E70003B4600221A605A609A60DA601A615A6121
:101E80004FF40050FFF7C4F91020FFF791F94FF419
:101E900080533B6002237B600323BB600023FB6015
:101EA00000233B6105237B613B46194628480DF022
:101EB00018FA4FF400533B6002237B600323BB609E
:101EC0000023FB6000233B6105237B613B461946F1
:101ED0001F480DF006FA4FF480433B6002237B60FD
:101EE0000323BB600023FB6000233B6105237B6170
:101EF0003B46194616480DF0F4F90023BB614FF438
:101F00008273FB614FF4E0633B6200237B62012339
:101F1000BB624FF40073FB6220233B6300237B63AF
:101F20000023BB630723FB6307F118031946094825
:101F30000DF0C6FE00210748FEF7B4FF0548FEF786
:101F4000D4FF0448FEF79EFF00BF4037BD4680BD6A
:101F5000001002400034014080B590B000AF07F19E
:101F600018032822002118460FF07EFB3B46002272
:101F70001A605A609A60DA601A615A614FF4001070
:101F8000FFF746F90220FFF713F908233B6002230D
:101F90007B600323BB600023FB6000233B610823BD
:101FA0007B613B46194657480DF09BF910233B6077
:101FB00002237B600323BB600023FB6000233B61A3
:101FC00008237B613B4619464E480DF08AF92023D1
:101FD0003B6002237B600323BB600023FB60002384
:101FE0003B6108237B613B46194646480DF079F971
:101FF0004FF0007205214448FEF798FE402205216B
:102000004148FEF797FD4FF4403205213E48FEF768
:1020100069FE002205213C48FEF7B0FD00220521A3
:102020003948FEF7CFFD4FF4806205213648FEF7B0
:10203000EDFD002205213448FEF70CFE00220521AB
:102040003148FEF72BFE05212F48FEF793FE4FF097
:10205000007206212C48FEF769FE002206212A485C
:10206000FEF768FD4FF4403206212748FEF73AFE9E
:10207000002206212448FEF781FD00220621224885
:10208000FEF7A0FD4FF4806206211F48FEF7BEFD5B
:10209000002206211C48FEF7DDFD002206211A4819
:1020A000FEF7FCFD06211848FEF764FE0023BB6125
:1020B0004FF48273FB614FF4E0633B6200237B6269
:1020C0000023BB624FF40073FB6200233B630023D9
:1020D0007B630023BB630723FB6307F118031946E7
:1020E0000A480DF0EDFD00210848FEF7DBFE074829
:1020F000FEF7EBFE0548FEF7C5FE00BF4037BD46C4
:1021000080BD00BF00040240006402400054014052
:1021100080B586B000AF3B1D00221A605A609A60FD
:10212000DA601A610120FFF773F8FEF7E5FB03465A
:10213000002200211846FEF735FC034619461920F7
:10214000FEF706FC1920FEF7E5FB0023BB80002309
:10215000BB604FF6FF73FB6000233B6100237B6194
:102160003B1D19460C480DF09FFE0B48FEF7DDFEA7
:1021700000210948FEF78CFF00210748FEF79EFF6B
:1021800000210548FEF7ADFF0348FEF7BDFF00BF85
:102190001837BD4680BD00BF0000014080B586B045
:1021A00000AF3B1D00221A605A609A60DA601A6123
:1021B0000120FFF715F8FEF79FFB034600220221DE
:1021C0001846FEF7EFFB034619461C20FEF7C0FB3E
:1021D0001C20FEF79FFB0023BB800023BB604FF059
:1021E000FF33FB6000233B613B1D19464FF08040ED
:1021F0000DF05AFE4FF08040FEF787FE00214FF0B1
:102200008040FEF745FF00214FF08040FEF756FF6B
:102210004FF08040FEF778FF00BF1837BD4680BD05
:1022200080B594B000AF07F13C0300221A605A60F9
:102230009A60DA601A6107F11C0320220021184617
:102240000FF012FA3B1D00221A605A609A60DA60A1
:102250001A615A610420FEF7C3FF0A23BB870023DB
:102260003B644CF250337B644FF40073BB6407F162
:102270003C03194655480DF017FE5448FEF755FE2D
:1022800000215248FEF704FF01215048FEF7B0FE3E
:102290006023FB6100233B6200237B620023BB625F
:1022A0000023FB6207F11C031A46012147480DF089
:1022B00095FE01214548FEF749FE10214348FEF7EF
:1022C00097FE07F11C031A46102140480DF086FEC8
:1022D00010213E48FEF73AFE4FF480713B48FEF76E
:1022E00087FE07F11C031A464FF4807137480DF042
:1022F00075FE4FF480713548FEF728FE4FF480518B
:102300003248FEF775FE07F11C031A464FF4805160
:102310002E480DF063FE4FF480512C48FEF716FE58
:1023200000212A48FEF7CAFE2848FEF7EDFE0820E5
:10233000FEF73EFF4FF480537B600223BB60002317
:10234000FB6000233B6100237B610223BB613B1DDB
:1023500019461F480CF0C5FF4FF400537B60022361
:10236000BB600023FB6000233B6100237B610223F1
:10237000BB613B1D194616480CF0B3FF4FF4804378
:102380007B600223BB600023FB6000233B610023D2
:102390007B610223BB613B1D19460D480CF0A1FF78
:1023A0004FF400437B600223BB600023FB600023EB
:1023B0003B6100237B610223BB613B1D194604483E
:1023C0000CF08FFF00BF5037BD4680BD00080040B5
:1023D000000C024080B5B2B000AF07F1AC030022A0
:1023E0001A605A609A60DA601A615A619A6107F15C
:1023F000940300221A605A609A60DA601A615A6186
:102400003B1D9022002118460FF02EF94FF4805307
:102410007B6000233B663B1D18460CF08BF903469E
:10242000002B01D000F00CFD4FF08040FEF7D8FEED
:102430001020FEF7BDFE8023C7F894300223C7F8B2
:1024400098300323C7F89C300023C7F8A03001233D
:10245000C7F8A4300823C7F8A83007F19403194639
:1024600028480CF03EFF4FF48073C7F894300223E5
:10247000C7F898300323C7F89C300023C7F8A03072
:102480000023C7F8A4300823C7F8A83007F1940345
:1024900019461C480CF025FFFEF72EFA03460022D1
:1024A0000B211846FEF77EFA034619465220FEF726
:1024B0004FFA5220FEF72EFA4FF4E133C7F8AC3052
:1024C0000023C7F8B0300023C7F8B4300023C7F8A2
:1024D000B8300C23C7F8BC300023C7F8C030002345
:1024E000C7F8C43007F1AC03194607480EF096F858
:1024F0000548FEF729FE0448FEF716FE00BFC83760
:10250000BD4680BD001002400078004080B5B2B0EA
:1025100000AF07F1AC0300221A605A609A60DA60DB
:102520001A615A619A6107F1940300221A605A6095
:102530009A60DA601A615A613B1D902200211846A8
:102540000FF092F840237B600023BB643B1D1846CC
:102550000CF0F0F80346002B01D000F071FC1020C5
:10256000FEF756FE0120FEF723FE4FF40073C7F876
:1025700094300223C7F898300323C7F89C30002317
:10258000C7F8A0300023C7F8A4300723C7F8A83045
:1025900007F19403194629480CF0A3FE4FF4806319
:1025A000C7F894300223C7F898300323C7F89C304B
:1025B0000023C7F8A0300123C7F8A4300723C7F8C9
:1025C000A83007F1940319461C480CF08AFEFEF768
:1025D00093F9034600220B211846FEF7E3F9034660
:1025E00019462520FEF7B4F92520FEF793F94FF49C
:1025F000E133C7F8AC300023C7F8B0300023C7F888
:10260000B4300023C7F8B8300C23C7F8BC3000231F
:10261000C7F8C0300023C7F8C43007F1AC0319462F
:1026200007480DF0FBFF0648FEF78EFD0448FEF755
:102630007BFD00BFC837BD4680BD00BF0000024023
:102640000010014080B5B2B000AF07F1AC0300222A
:102650001A605A609A60DA601A615A619A6107F1E9
:10266000940300221A605A609A60DA601A615A6113
:102670003B1D9022002118460EF0F6FF4FF4006338
:102680007B600023FB653B1D18460CF053F80346A6
:10269000002B01D000F0D4FB2020FEF7B9FD042070
:1026A000FEF786FD4023C7F894300223C7F8983020
:1026B0000323C7F89C300023C7F8A0300023C7F8D5
:1026C000A4300823C7F8A83007F194031946284816
:1026D0000CF007FE8023C7F894300223C7F8983027
:1026E0000323C7F89C300023C7F8A0300023C7F8A5
:1026F000A4300823C7F8A83007F1940319461C48F2
:102700000CF0EFFDFEF7F8F8034600220B21184607
:10271000FEF748F9034619464720FEF719F9472006
:10272000FEF7F8F84FF4E133C7F8AC300023C7F8F0
:10273000B0300023C7F8B4300023C7F8B8300C23FA
:10274000C7F8BC300023C7F8C0300023C7F8C43036
:1027500007F1AC03194607480DF060FF0548FEF786
:10276000F3FC0448FEF7E0FC00BFC837BD4680BD5F
:10277000000802400014014080B500AF4FF4800013
:10278000FEF716FD4FF40010FEF712FDFEF7B4F849
:102790000346002200211846FEF704F903461946B5
:1027A0000C20FEF7D5F80C20FEF7B4F8FEF7A4F8DD
:1027B0000346002200211846FEF7F4F803461946A6
:1027C0003920FEF7C5F83920FEF7A4F8FEF794F893
:1027D000034600220A211846FEF7E4F8034619468C
:1027E0003A20FEF7B5F83A20FEF794F8FEF784F8A1
:1027F0000346002200211846FEF7D4F80346194686
:102800003B20FEF7A5F83B20FEF784F8FEF774F8AE
:10281000034600220A211846FEF7C4F8034619466B
:102820003C20FEF795F83C20FEF774F8FEF764F8BC
:102830000346002209211846FEF7B4F8034619465C
:102840004420FEF785F84420FEF764F8FEF754F8BC
:102850000346002201211846FEF7A4F80346194654
:102860004520FEF775F84520FEF754F800BF80BDFF
:1028700080B586B000AF3B4600221A605A609A606D
:10288000DA601A615A611020FEF792FC0420FEF70C
:102890008FFC8020FEF78CFC0120FEF789FC0220D3
:1028A000FEF786FC0820FEF783FC0421C048FEF7F3
:1028B0006FFC0821BE48FEF76BFC1021BC48FEF7F8
:1028C00067FC2021BA48FEF763FC4021B848FEF7B8
:1028D0005FFC4FF40051B748FEF75AFC4FF48041BB
:1028E000B448FEF755FC4FF40041B248FEF750FCE7
:1028F0004FF40061B048FEF74BFC4FF48061AF48E5
:10290000FEF746FC4FF40061AD48FEF741FC4FF482
:102910000041AB48FEF73CFC0121A848FEF738FC1B
:102920000221A648FEF734FC1021A448FEF730FC33
:102930002021A248FEF72CFC4021A048FEF728FCED
:1029400004219D48FEF716FC4FF480619848FEF77D
:1029500011FC4FF400619648FEF70CFC4FF4004167
:102960009348FEF707FC4FF480619348FEF702FCA2
:102970004FF480519048FEF7FDFB4FF480718F4873
:10298000FEF7F8FB4FF400718C48FEF7F3FB4FF4B1
:1029900080718848FEF7EEFB04218848FEF7EAFBC9
:1029A00080218648FEF7E6FB4FF480718248FEF7EF
:1029B000E1FB4FF400718048FEF7DCFB01217C480D
:1029C000FEF7D8FB02217A48FEF7D4FB04233B60D4
:1029D00001237B600023BB600023FB6000233B617D
:1029E0003B46194672480CF07CFC08233B600123EF
:1029F0007B600023BB600023FB6000233B613B4600
:102A000019466B480CF06DFC10233B6001237B6082
:102A10000023BB600023FB6000233B613B4619465B
:102A200063480CF05EFC20233B6001237B600023A5
:102A3000BB600023FB6000233B613B4619465C48BA
:102A40000CF04FFC40233B6001237B600023BB6004
:102A50000023FB6000233B613B46194654480CF0C1
:102A600040FC4FF400533B6001237B600023BB60BC
:102A70000023FB6000233B613B4619464D480CF0A8
:102A800030FC4FF480433B6001237B600023BB603C
:102A90000023FB6000233B613B46194645480CF090
:102AA00020FC4FF400433B6001237B600023BB60AC
:102AB0000023FB6000233B613B4619463D480CF078
:102AC00010FC04233B6001237B600023BB600023D8
:102AD000FB6000233B613B46194637480CF001FC84
:102AE0004FF480633B6001237B600023BB600023C5
:102AF000FB6000233B613B4619462D480CF0F1FB7F
:102B00004FF400633B6001237B600323BB60002321
:102B1000FB6000233B613B46194625480CF0E1FB76
:102B20004FF400433B6001237B600023BB60002324
:102B3000FB6000233B613B4619461D480CF0D1FB6E
:102B40004FF480633B6001237B600023BB60002364
:102B5000FB6001233B613B46194617480CF0C1FB63
:102B60004FF400633B6001237B600023BB600023C4
:102B7000FB6002233B613B4619460F480CF0B1FB5A
:102B80004FF480533B6001237B600023BB60002334
:102B9000FB6000233B613B46194607480CF0A1FB54
:102BA0004FF480733B6001237B6003230AE000BF86
:102BB000001002400008024000040240000C0240E5
:102BC00000000240BB600023FB6000233B613B46EA
:102BD000194696480CF085FB4FF400733B600123C7
:102BE0007B600323BB600023FB6000233B613B460B
:102BF00019468E480CF075FB4FF480633B6001234F
:102C00007B600023BB600023FB6000233B613B46ED
:102C1000194686480CF065FB4FF400633B600023C7
:102C20007B6000233B613B46194680480CF059FB12
:102C30004FF480733B6001237B600023BB60002363
:102C4000FB6001233B613B46194679480CF049FB88
:102C50004FF400733B6000237B6000233B613B46E5
:102C6000194673480CF03DFB4FF480733B60002322
:102C70007B6000233B613B4619466E480CF031FBFC
:102C80004FF400633B6001237B600023BB600023A3
:102C9000FB6000233B613B46194666480CF021FB74
:102CA0004FF400433B6001237B600023BB600023A3
:102CB000FB6000233B613B4619465E480CF011FB6C
:102CC00001233B6001237B600023BB600023FB608A
:102CD00000233B613B46194654480CF002FB02239B
:102CE0003B6001237B600023BB600023FB6000236B
:102CF0003B613B4619464D480CF0F3FA04233B6018
:102D000001237B600023BB600023FB6000233B6149
:102D10003B46194645480CF0E4FA08233B60002383
:102D20007B6000233B613B46194640480CF0D9FAD2
:102D300010233B6001237B600023BB600023FB600A
:102D400000233B613B46194638480CF0CAFA202361
:102D50003B6001237B600023BB600023FB600023FA
:102D60003B613B46194631480CF0BBFA40233B60BF
:102D700001237B600023BB600023FB6000233B61D9
:102D80003B46194629480CF0ACFA80233B600123EE
:102D90007B600023BB600023FB6000233B613B465C
:102DA000194622480CF09DFA4FF480733B600123D2
:102DB0007B600023BB600023FB6000233B613B463C
:102DC00019461D480CF08DFA4FF400733B60012347
:102DD0007B600023BB600023FB6000233B613B461C
:102DE000194615480CF07DFA01233B6001237B60F6
:102DF0000023BB600023FB6000233B613B46194678
:102E00000E480CF06EFA02233B6001237B60002326
:102E1000BB600023FB6000233B613B46194607482B
:102E20000CF05FFA00BF1837BD4680BD000C0240B1
:102E3000000802400000024000040240001002406E
:102E400080B400AF72B600BF00BFFDE780B483B0AE
:102E500000AF0F4B1B6C0E4A43F0805313640C4BB6
:102E60001B6C03F080537B607B68094B5B6C084AEA
:102E700043F480435364064B5B6C03F480433B6034
:102E80003B6800BF0C37BD465DF8047B704700BF50
:102E90000038024080B485B000AF78607B681B6862
:102EA0000A4A93420BD10A4B1B6B094A43F48053E5
:102EB0001363074B1B6B03F48053FB60FB6800BF7D
:102EC0001437BD465DF8047B704700BF00300240F8
:102ED0000038024080B400AF00BFFDE780B400AF0F
:102EE00000BFFDE780B400AF00BFFDE780B400AFD6
:102EF00000BFFDE780B400AF00BFFDE780B400AFC6
:102F000000BFBD465DF8047B704780B400AF00BFD2
:102F1000BD465DF8047B704780B400AF00BFBD467E
:102F20005DF8047B704780B500AF04F0B7FB09F093
:102F30000FFA0AF08DFC00BF80BD80B500AF04F031
:102F40004BFD00BF80BD80B500AF04F0ADFE00BFFB
:102F500080BD80B400AF00BFBD465DF8047B704704
:102F600080B500AF04F0F4FA00BF80BD80B500AFBB
:102F700004F008FC00BF80BD80B400AF01231846F8
:102F8000BD465DF8047B704780B582B000AF7860C5
:102F900039600EF0C9FB034616221A604FF0FF336A
:102FA00018460837BD4680BD80B582B000AF786056
:102FB0004FF0FF317868FFF7E7FF00BFFDE780B50E
:102FC00086B000AFF860B9607A6000237B610AE0E8
:102FD000AFF300800146BB685A1CBA60CAB21A70CF
:102FE0007B6901337B617A697B689A42F0DB7B689D
:102FF00018461837BD4680BD80B586B000AFF86072
:10300000B9607A6000237B6109E0BB685A1CBA6032
:103010001B781846AFF300807B6901337B617A69C6
:103020007B689A42F1DB7B6818461837BD4680BD45
:1030300080B483B000AF78604FF0FF3318460C3790
:10304000BD465DF8047B704780B483B000AF786004
:1030500039603B684FF400525A60002318460C3721
:10306000BD465DF8047B704780B483B000AF7860E4
:10307000012318460C37BD465DF8047B704780B4C9
:1030800085B000AFF860B9607A6000231846143745
:10309000BD465DF8047B704780B586B000AF7860B0
:1030A000144A154BD31A7B617B693B61134B1B6838
:1030B000002B02D1114B124A1A60104B1A687B6820
:1030C00013443A699A4207D20EF02EFB03460C22B3
:1030D0001A604FF0FF3309E0084B1B68FB60074B99
:1030E0001A687B681344054A1360FB681846183752
:1030F000BD4680BD00000820000400006843002099
:1031000018E1022080B400AF064BD3F88830054A9E
:1031100043F47003C2F8883000BFBD465DF8047BFD
:10312000704700BF00ED00E0DFF834D0FFF7EAFFA2
:103130000C480D490D4A002302E0D458C450043312
:10314000C4188C42F9D30A4A0A4C002301E01360E8
:103150000432A242FBD30EF0EDFAFEF771F870478D
:10316000000008200000002014430020A07F010878
:103170001843002018E10220FEE780B500AF01F0FF
:1031800085FE02F081FA03F09FFE00BF80BD80B58E
:1031900000AF042001F0ACFE062002F0BFFA0A20C6
:1031A00003F0CAFE00BF80BD80B500AF08F0B0FFDD
:1031B00000BF80BD80B584B000AFF860B9607A60B0
:1031C000FB70FB68BA68DA63FB687A681A64FB68AC
:1031D000FA7883F84520084B1B684FF6FF72A3F876
:1031E0004220FB680549184609F024F800231846D8
:1031F0001037BD4680BD00BF04000020E45B01081D
:1032000080B582B000AF78607B680022DA637B68AB
:103210004FF480421A647B68012283F84520084BF2
:103220001B684FF6FF72A3F842207B6805491846D9
:1032300009F000F8002318460837BD4680BD00BFDE
:1032400004000020E45B010880B582B000AF786024
:103250007B680449184608F0EDFF0023184608373C
:10326000BD4680BDF85B010880B582B000AF7860D4
:103270007B680449184608F0DDFF0023184608372C
:10328000BD4680BD0C5C010880B582B000AF78609F
:103290007B680449184608F0CDFF0023184608371C
:1032A000BD4680BD205C010880B584B000AFF860E9
:1032B000B9607A60BB68012B02D87B68642B01D9A6
:1032C000062318E0FB6893F84D30002B06D0002051
:1032D00003F0D0FFFB68002283F84D207968B868BE
:1032E00004F0D0F87B68D9B2FA68BB68134449335C
:1032F0000A461A70002318461037BD4680BD80B5B7
:1033000082B000AF786039603B68242B01D9062376
:1033100014E07B6893F84D30012B06D0012003F0B8
:10332000A9FF7B68012283F84D20386803F0E6FF8F
:103330003B68DAB27B6883F84B20002318460837D5
:10334000BD4680BD80B582B000AF786039603B6813
:10335000082B01D9062314E07B6893F84D30012B2C
:1033600006D0012003F086FF7B68012283F84D2000
:10337000386803F0FBFF3B68DAB27B6883F84C20C7
:10338000002318460837BD4680BD80B582B000AF27
:1033900078607B6893F84D30012B06D0012003F054
:1033A00069FF7B68012283F84D2004F011F87B68E7
:1033B000FF2283F84C20002318460837BD4680BD05
:1033C000B0B582B000AF786039603B681B68002BF5
:1033D00004D03B681B68194A934201D9062328E0B0
:1033E0003B681B79002B03D03B681B79242B01D948
:1033F00006231EE03B685B79642B01D9062318E0A5
:103400003B68DB68B3F5006F01D9062311E03B6828
:103410001B69002B01D106230BE07B683A6803F19E
:10342000280415460FCD0FC42B68236000F054F814
:10343000002318460837BD46B0BD00BF50F80C0049
:10344000B0B483B000AF786039603A687B681546E5
:1034500003F128040FCC0FC523682B6000BF0C3785
:10346000BD46B0BC7047000080B584B000AF786046
:103470007B682833FB60FB681B68002B04D0FB686B
:103480001B68134A934201D906231CE0FB681B7991
:10349000002B03D0FB681B79242B01D9062312E0F3
:1034A000FB685B79642B01D906230CE0FB68DB68C1
:1034B000B3F5006F01D9062305E07B68054918467E
:1034C00008F0B8FE002318461037BD4680BD00BF87
:1034D00050F80C00D05B010880B582B000AF03F05B
:1034E0006FFD0F4B4FF0BC321A600E4B9B6A0C4ABB
:1034F00053600C4BDA8D0A4B1A810A4B1A8E084B1B
:103500005A81084B5A8E064B9A8100237B60044AED
:103510007B68136103F078FD00BF0837BD4680BDAE
:10352000004002406C43002080B586B000AF786058
:1035300007F10C0300221A605A609A600E23BB81C7
:103540007B6807F10C021146184608F073FE002351
:1035500018461837BD4680BD80B500AF074BDB6904
:10356000184608F0DCF9054BDB69184608F006FA46
:10357000034B4FF0FF321A6200BF80BDC8430020EA
:103580000078004080B500AF0C4B1B68184603F074
:10359000DCF80346002B01D001230CE0084B1B880C
:1035A000074A12881946074808F08EFE064B01228A
:1035B00083F828200023184680BD00BF08000020A3
:1035C0000C000020344400201C44002080B500AFD3
:1035D000074808F099FE074B1B68184603F044F9AA
:1035E000054B002283F828200023184680BD00BF29
:1035F00034440020080000201C44002080B483B024
:1036000000AF0346FB80044AFB88138000BF0C37E1
:10361000BD465DF8047B70470C00002080B400AF0D
:10362000BFF34F8F00BF064BDB6803F4E062044931
:10363000044B1343CB60BFF34F8F00BF00BFFDE7C8
:1036400000ED00E00400FA0580B584B000AFF8603A
:10365000B9607A6003F0EAFF00BF1037BD4680BD55
:1036600080B5ADF5826D00AF07F58263A3F2044328
:10367000186007F58263A3F58163196007F582631B
:10368000A3F20C431A6007F58263A3F58063184622
:103690004FF480631A4600210DF0E6FF07F1100396
:1036A0001A464FF48061002004F04AFB07F582635C
:1036B000A3F204430849186807F01CFF07F582636A
:1036C000A3F204430549186807F014FF00BF07F58B
:1036D0008267BD4680BD00BFE83B0108F83B01089A
:1036E00080B5ADF5836D00AF07F58363A3F20C439E
:1036F000186007F58363A3F58263196007F5836398
:10370000A3F214431A6007F114031A464FF48061C0
:10371000002004F027FB07F58363A3F20C431F4945
:10372000186807F0E7FE0023C7F8143424E007F513
:103730008363A3F20442D7F8143413441B781A4667
:1037400007F58363A3F20C431549186807F0D2FE0E
:10375000D7F81434013303F00F03002B07D107F51A
:103760008363A3F20C430F49186807F0C3FED7F830
:1037700014340133C7F81434D7F81434B3F5806F18
:10378000D5DB07F58363A3F20C430649186807F0FD
:10379000B1FE00BF07F58367BD4680BDFC3B010855
:1037A000143C01081C3C010880B588B000AFF860EB
:1037B000B9607A6007F11403074A0A2118460DF030
:1037C000CDFD07F114031946F86806F01CFC00BF94
:1037D0002037BD4680BD00BF5446010880B584B087
:1037E00000AFF860B9607A60FFF718FF80B588B065
:1037F00000AFF860B9607A600023BB610023FB82F0
:10380000B86806F0F1FC03467B757B7D012B04D084
:103810002E49F86807F06EFE54E00121B86806F002
:10382000ADFC38613B691B78612B22D10023FB770B
:103830001BE0FB7F184603F037FF0346FB82B7F916
:10384000163013F5004F06D1FB7F1A462049F86861
:1038500007F050FE06E0FA7FB7F916301D49F86808
:1038600007F048FEFB7F0133FB77FB7F072BE0D996
:1038700028E03B691B782F2B20D93B691B78372B1D
:103880001CD838690CF090FF0346BB61B86903F09F
:103890000BFF0346FB82B7F9163013F5004F05D135
:1038A000BA690B49F86807F025FE0BE0B7F9163046
:1038B000BA690849F86807F01DFE03E00649F86890
:1038C00007F018FE2037BD4680BD00BF5C460108EA
:1038D0007C46010890460108A446010880B588B0DE
:1038E00000AFF860B9607A60B86806F07DFC034606
:1038F000FB61FB69012B04D01549F86807F0FAFD5C
:1039000023E0144B1B68184602F0EEFF034683F0D9
:103910000103DBB2002B04D00F49F86807F0EAFD81
:1039200013E00121B86806F029FCB861B8690CF011
:103930003BFF03467B61074B1B687969184602F021
:1039400019FC0649F86807F0D5FD2037BD4680BD53
:103950005C46010810000020B84601080447010831
:1039600080B584B000AFF860B9607A600A4B1B681C
:10397000184602F018FC0346002B04D00749F868EB
:1039800007F0B8FD03E00649F86807F0B3FD00BF93
:103990001037BD4680BD00BF10000020044701085D
:1039A0000C47010880B588B000AFF860B9607A6054
:1039B000B86806F019FC0346BB61BB69012B04D053
:1039C0003849F86807F096FD69E0374B1B681846E0
:1039D00002F08AFF034683F00103DBB2002B04D020
:1039E0003249F86807F086FD59E00121B86806F011
:1039F000C5FB786100233B617B691B78612B25D176
:103A00000023FB611EE0284B1B68F969184602F091
:103A100010FC38613B69002B0CD1234B1B68002242
:103A2000F969184602F0F4FFFA692149F86807F0CD
:103A300061FD04E0FA691F49F86807F05BFDFB6966
:103A40000133FB61FB69032BDDD928E07B691B781F
:103A50002F2B24D97B691B78332B20D878690CF065
:103A6000A3FE0346FB61104B1B68F969184602F080
:103A7000E0FB38613B69002B0CD10B4B1B6800222B
:103A8000F969184602F0C4FFFA690949F86807F0B5
:103A900031FD04E0FA690749F86807F02BFD20378B
:103AA000BD4680BD5C460108100000201447010897
:103AB0005C4701087047010880B588B000AFF86026
:103AC000B9607A60B86806F08FFB0346FB61FB695A
:103AD000012B04D01549F86807F00CFD22E0012104
:103AE000B86806F04BFBB861B8690CF05DFE0346A0
:103AF000FB82FB8AB3F5FA7F04D3FB8A40F6B83227
:103B0000934204D90A49F86807F0F4FC0AE0094B2B
:103B10001B68FA8A1146184602F09EFF0649F868AB
:103B200007F0E8FC2037BD4680BD00BF884701088C
:103B3000B0470108100000200447010880B586B096
:103B400000AFF860B9607A60084B1B68184602F055
:103B50009FFF0346FB82FB8A1A460549F86807F077
:103B6000C9FC00BF1837BD4680BD00BF1000002053
:103B7000E447010880B588B000AFF860B9607A60AA
:103B8000B86806F031FB0346BB61BB69042B04D067
:103B90003149F86807F0AEFC5BE0304B1B68184613
:103BA00002F088FE0346FB750023FB614AE0FB69D7
:103BB0009BB201339BB21946B86806F0DFFA0346A0
:103BC00018460CF0F1FD0346D9B207F11002FB696B
:103BD00013440A461A7007F11002FB6913441B785C
:103BE000012B05D9FA691E49F86807F083FC30E01B
:103BF00007F11002FB6913441B78002B08D1174B07
:103C00001B68FA69D2B21146184602F091FB16E021
:103C1000FB7DFA699A4205D1FA691249F86807F002
:103C200069FC0CE00D4B1B68FA69D2B211461846CC
:103C300002F05DFBFA690C49F86807F05BFCFB6970
:103C40000133FB61FB69032BB1D90849F86807F020
:103C500051FC2037BD4680BD0848010810000020F7
:103C60002C48010854480108784801080447010815
:103C700080B586B000AFF860B9607A60134B1B68FE
:103C8000184602F078FB0346FB7400237B6115E0C5
:103C9000FA7C7B6942FA03F303F00103002B05D0A1
:103CA0007A690B49F86807F025FC04E07A6909494C
:103CB000F86807F01FFC7B6901337B617B69032B8C
:103CC000E6D900BF00BF1837BD4680BD10000020F8
:103CD000784801089048010880B58CB000AFF860C2
:103CE000B9607A60354B1B68184602F0FDFD03464B
:103CF00083F00103DBB2002B04D03149F86807F0F0
:103D0000F9FB58E0B86806F06FFA0346FB62FB6AFD
:103D1000032B04D02B49F86807F0ECFB4BE00121A2
:103D2000B86806F02BFAB862B86A0CF03DFD03469D
:103D30007B627B6A032B04D92349F86807F0DAFB1E
:103D400039E00221B86806F019FA3862386A0CF0D6
:103D50002BFD0346FB61FB69012B04D91B49F86865
:103D600007F0C8FB27E00321B86806F007FAB8613E
:103D7000B8690CF019FD0346FB82FB8A40F6B832A5
:103D8000934204D91249F86807F0B4FB13E00B4BD7
:103D90001868FB8AFA69796A02F0BAFD38613B69F2
:103DA000002B04D00B49F86807F0A4FB03E00A4994
:103DB000F86807F09FFB3037BD4680BD100000203B
:103DC000A8480108CC480108F84801081C49010826
:103DD000404901080C4701080447010880B58AB032
:103DE00000AFF860B9607A602A4B1B68184602F091
:103DF0007BFD034683F00103DBB2002B04D0264990
:103E0000F86807F077FB41E0B86806F0EDF9034683
:103E10007B627B6A022B04D02049F86807F06AFBBA
:103E200034E00121B86806F0A9F93862386A0CF06C
:103E3000BBFC0346FB61FB69032B04D91849F868F6
:103E400007F058FB22E00221B86806F097F9B86144
:103E5000B8690CF0A9FC03467B610E4B18687B69BE
:103E6000002B14BF01230023DBB21A46F96902F0CC
:103E7000CFFD38613B69002B04D00A49F86807F090
:103E800039FB03E00849F86807F034FB2837BD46E2
:103E900080BD00BF10000020A84801086C4901083F
:103EA000F84801080C4701080447010880B58CB0A8
:103EB00000AFF860B9607A60B86806F095F903461B
:103EC000BB62BB6A032B04D04149F86807F012FBC0
:103ED0007AE00121B86806F051F97862786A0CF04E
:103EE00063FC03467B847B8C4EF66022934204D9AC
:103EF0003849F86807F0FEFA66E00221B86806F073
:103F00003DF9F861344B1B68184602F034FA034659
:103F1000FB76FB691B786F2B07D1042387F82F30C2
:103F20002E49F86807F0E6FA1EE0FB691B782F2B94
:103F30001AD9FB691B78332B16D8F8690CF034FCBE
:103F4000034687F82F30FA7E97F82F3042FA03F3B2
:103F500003F00103002B07D097F82F301A462049B1
:103F6000F86807F0C7FA2FE00321B86806F006F9F1
:103F7000786178690CF018FC03463B613B69B3F546
:103F8000FA7F04D33B6940F6B832934204D915490D
:103F9000F86807F0AFFA17E07B8C1846FFF72EFBA6
:103FA0000D4B1B6897F82F201146184602F098FB1E
:103FB000094B1B683A6992B21146184602F0A9FBF8
:103FC0000949F86807F096FA3037BD4680BD00BF52
:103FD0008C490108C049010810000020F04901087F
:103FE000084A0108B04701080447010880B584B0B9
:103FF00000AFF860B9607A60FFF7C4FA0349F86867
:1040000007F078FA00BF1037BD4680BD04470108AD
:1040100080B584B000AFF860B9607A60FFF7D6FA77
:104020000349F86807F066FA00BF1037BD4680BD47
:104030000447010880B586B000AFF860B9607A60C7
:104040000F4B1B68184602F035FC0346FB750C4B02
:104050001B68184602F03BFC0346BB82FB7D042B29
:1040600004D10849F86807F045FA05E0FA7DBB8AF3
:104070000549F86807F03EFA1837BD4680BD00BF15
:1040800010000020F04901082C4A010880B588B0D2
:1040900000AFF860B9607A60B86806F0A5F803462A
:1040A000FB61FB69012B04D01249F86807F022FA82
:1040B0001CE00121B86806F061F8B861B8690CF03D
:1040C00073FB0346FB75FB7D642B04D90A49F86832
:1040D00007F010FA0AE0094B1B68FA7D11461846F2
:1040E00002F056F90649F86807F004FA2037BD4691
:1040F00080BD00BF584A01087C4A0108100000201A
:104100000447010880B586B000AFF860B9607A60F6
:10411000084B1B68184602F051F90346FB75FB7DFE
:104120001A460549F86807F0E5F900BF1837BD469B
:1041300080BD00BF10000020A04A010880B588B0F3
:1041400000AFF860B9607A60B86806F04DF80346D1
:10415000BB61BB69042B04D02649F86807F0CAF993
:1041600045E00023FB613BE0FB699BB201339BB25E
:104170001946B86806F002F8034618460CF014FB1E
:104180000346D9B207F11402FB6913440A461A70B8
:1041900007F11402FB6913441B78012B05D9FA6956
:1041A0001549F86807F0A6F921E007F11402FB6948
:1041B00013441B78002B08D1104B1B68FA69D2B24C
:1041C0001146184602F028F907E00C4B1B68FA6903
:1041D000D2B21146184602F0FEF8FB690133FB61CA
:1041E000FB69032BC0D90649F86807F083F920372B
:1041F000BD4680BDBC4A01082C48010810000020C3
:104200000447010880B586B000AFF860B9607A60F5
:10421000124B1B68184602F022F90346FB74002378
:104220007B6113E0FA7C7B6942FA03F303F001033C
:10423000002B04D00A49F86807F05CF903E009494B
:10424000F86807F057F97B6901337B617B69032BC1
:10425000E8D900BF00BF1837BD4680BD1000002060
:10426000E44A0108FC4A010880B58AB000AFF86052
:10427000B9607A60B86805F0B7FF03467B627B6A75
:10428000022B04D01E49F86807F034F934E001210C
:10429000B86805F073FF3862386A0CF085FA034697
:1042A000FB83B7F91E30B3F57A7F04DD1549F86852
:1042B00007F020F920E00221B86805F05FFFB8613F
:1042C000B8690CF071FA0346FB82B7F9163013F5A2
:1042D0007A7F04DA0C49F86807F00CF90CE00B4B14
:1042E0001B68B7F91620B7F91E10184602F018F926
:1042F0000749F86807F0FEF82837BD4680BD00BFC3
:10430000184B0108504B01087C4B0108100000209D
:104310000447010880B586B000AFF860B9607A60E4
:104320000C4B1B6807F114021146184602F00EF9F7
:10433000B7F914301A460849F86807F0DBF8B7F9FE
:1043400016301A460549F86807F0D4F800BF183748
:10435000BD4680BD10000020AC4B0108CC4B0108CD
:1043600080B588B000AFF860B9607A60B86805F0D1
:104370003BFF0346FB61FB69012B04D00E49F86843
:1043800007F0B8F815E00121B86805F0F7FEB8614C
:10439000B8690CF009FA0346FB82084B1B68B7F9B1
:1043A00016201146184602F067F80549F86807F02C
:1043B000A1F82037BD4680BDEC4B0108100000205D
:1043C0000447010880B586B000AFF860B9607A6034
:1043D000084B1B68184602F05FF80346FB82B7F9EA
:1043E00016301A460449F86807F084F800BF1837F9
:1043F000BD4680BD10000020144C010880B58AB075
:1044000000AFF860B9607A60B86805F0EDFE034669
:104410007B627B6A022B04D01C49F86807F06AF8BB
:1044200030E00121B86805F0A9FE3862386A0CF066
:10443000BBF90346FB61FB69072B04D91449F868F3
:1044400007F058F81EE00221B86805F097FEB86141
:10445000B8690CF0A9F903467B617B69072B04D985
:104460000C49F86807F046F80CE00B4B1B68FA693A
:10447000D1B27A69D2B2184602F01BF80749F8683F
:1044800007F038F82837BD4680BD00BF344C01081E
:104490004C4C0108704C0108100000200447010832
:1044A00080B586B000AFF860B9607A600023BB8247
:1044B0000B4B1B6807F114021146184602F01AF85C
:1044C0003B7D1A460749F86807F014F87B7D1A46C9
:1044D0000549F86807F00EF800BF1837BD4680BDE3
:1044E00010000020944C0108A84C010880B588B049
:1044F00000AFF860B9607A60B86805F075FE0346F1
:10450000FB61FB69012B04D01249F86806F0F2FF49
:104510001CE00121B86805F031FEB861B8690CF003
:1045200043F90346FB75FB7D012B04D90A49F86862
:1045300006F0E0FF0AE0094B1B68FA7D11461846B9
:1045400002F0AEF80649F86806F0D4FF2037BD4601
:1045500080BD00BFBC4C0108D44C010810000020F5
:104560000447010880B586B000AFF860B9607A6092
:104570000A4B1B68184602F0A7F80346FB75FB7D43
:10458000002B01D0064B00E0064B1A460649F8689E
:1045900006F0B0FF00BF1837BD4680BD10000020F8
:1045A000004D0108044D0108084D010880B584B094
:1045B00000AFF860B9607A60064B1B68184601F0DE
:1045C000B5FD0549F86806F095FF00BF1037BD46F8
:1045D00080BD00BF100000200447010880B584B0F2
:1045E00000AFF860B9607A60064B1B68184601F0AE
:1045F00079FD0549F86806F07DFF00BF1037BD461C
:1046000080BD00BF100000200447010880B588B0BD
:1046100000AFF860B9607A60B86805F0E5FD034660
:10462000FB61FB69012B04D01349F86806F062FFB7
:104630001EE00121B86805F0A1FDB861B8690CF071
:10464000B3F80346FB82B7F91630642B04DD0B493F
:10465000F86806F04FFF0BE0094B1B68B7F916200E
:1046600000211846FEF720FE0649F86806F042FFD2
:104670002037BD4680BD00BF244D01084C4D0108C8
:10468000140000200447010880B588B000AFF8602E
:10469000B9607A60B86805F0A7FD0346FB61FB6965
:1046A000012B04D01349F86806F024FF1EE0012115
:1046B000B86805F063FDB861B8690CF075F8034699
:1046C000FB82B7F91630642B04DD0B49F86806F05D
:1046D00011FF0BE0094B1B68B7F9162001211846A2
:1046E000FEF7E2FD0649F86806F004FF2037BD46F4
:1046F00080BD00BF704D01084C4D01081400002022
:104700000447010880B588B000AFF860B9607A60EE
:104710000023FB830023BB83B86805F065FD0346D7
:10472000FB76FB7E012B04D02049F86806F0E2FE00
:1047300039E00121B86805F021FD78617B691B78BB
:10474000612B0ED102F0B2FE0346FB8302F0D6FECF
:104750000346BB83FA8BBB8B1549F86806F0CAFE8B
:1047600021E07B691B78302B0AD102F09FFE0346C3
:10477000FB83FB8B1A460F49F86806F0BBFE12E07C
:104780007B691B78312B0AD102F0B8FE0346BB834C
:10479000BB8B1A460849F86806F0ACFE03E00749EF
:1047A000F86806F0A7FE2037BD4680BD5C460108CC
:1047B000B84D0108F04D01080C4E0108A44601084F
:1047C00080B588B000AFF860B9607A60B86805F06D
:1047D0000BFD0346FB61FB69012B04D01349F8680C
:1047E00006F088FE1EE00121B86805F0C7FCB8613C
:1047F000B8690BF0D9FF78617B69242B02DC7B69F7
:10480000002B04DC0A49F86806F074FE0AE0094B44
:104810001B687A6911461846FEF771FD0649F8686B
:1048200006F068FE2037BD4680BD00BF284E010857
:104830004C4E0108140000200447010880B588B0E0
:1048400000AFF860B9607A60B86805F0CDFC034647
:10485000FB61FB69012B04D01349F86806F04AFE9E
:104860001EE00121B86805F089FCB861B8690BF059
:104870009BFF78617B69082B02DC7B69002B04DCE1
:104880000A49F86806F036FE0AE0094B1B687A69A7
:1048900011461846FEF756FD0649F86806F02AFE4E
:1048A0002037BD4680BD00BF704E0108944E010800
:1048B000140000200447010880B584B000AFF86000
:1048C000B9607A6002F03CFD0349F86806F012FE18
:1048D00000BF1037BD4680BD0447010880B584B0D5
:1048E00000AFF860B9607A60064B1B681846FEF7A7
:1048F0004CFD0549F86806F0FDFD00BF1037BD46C8
:1049000080BD00BF140000200447010880B592B0AC
:1049100000AFF860B9607A60B86805F065FC0346DE
:104920007B647B6C062B04D05E49F86806F0E2FDE0
:10493000B5E00121B86805F021FC034618460BF0EC
:1049400033FF03463B643B6CB3F57A7F03D33B6C88
:10495000554A934204D95549F86806F0CBFD9EE0CC
:104960000221B86805F00AFC034618460BF01CFF4C
:104970000346FB63FB6B002B02D0FB6B242B04D99B
:104980004B49F86806F0B6FD89E00321B86805F0E8
:10499000F5FB034618460BF007FF0346BB63BB6BF2
:1049A000642B04D94349F86806F0A4FD77E004219C
:1049B000B86805F0E3FB034618460BF0F5FE034626
:1049C0007B637B6B002B04D13B49F86806F092FDBA
:1049D00065E00521B86805F0D1FB034618460BF0E9
:1049E000E3FE03463B633B6B002B04D13349F8687D
:1049F00006F080FD53E00621B86805F0BFFB0346D2
:104A000018460BF0D1FE0346FB62FB6A002B04D173
:104A10002B49F86806F06EFD41E07A6B3B6B1A4457
:104A2000FB6A13443A6C02FB03F3264AA2FB0323FE
:104A30001B0CBB62BB6AB3F5006F04D92249F8684E
:104A400006F058FD2BE03B6C7B61FB6BDBB23B76E9
:104A5000BB6BDBB27B767B6B9BB27B833B6B9BB28E
:104A6000BB83FB6A9BB2FB83BB6A3B62174A3B6C0E
:104A7000B2FBF3F37B62164B1B6807F1140211467D
:104A80001846FEF79DFC0346002B04D11149F86837
:104A900006F030FD03E01049F86806F02BFD4837BA
:104AA000BD4680BDB44E010850F80C00204F0108EF
:104AB000484F0108644F0108844F0108A84F0108BE
:104AC000D04F0108D34D6210F44F010840420F004F
:104AD00014000020044701080C470108F0B591B00C
:104AE00006AFF860B9607A60104B1B6807F11402DA
:104AF00011461846FEF7A4FC7A693B7E1E467B7E73
:104B000019467B8B1846BB8B1C46FB8B1D463B6AAC
:104B10000493039502940190009133460449F86888
:104B200006F0E8FC00BF2C37BD46F0BD14000020A5
:104B30001C50010880B584B000AFF860B9607A609D
:104B40000C4B1B681846FEF78FFC0346002B04D065
:104B50000949F86806F0CEFC07E0084B1B681846C8
:104B6000FEF7E2FC064B01221A7000BF1037BD466B
:104B700080BD00BF14000020B850010818000020BC
:104B80004844002080B588B000AFF860B9607A6012
:104B9000B86805F029FB0346FB61FB69032B04D0D1
:104BA0003349F86806F0A6FC5FE0324B1B6893F8C7
:104BB0004830052B10D02F4B1B6893F84830032B3F
:104BC0000AD02C4B1B6893F84830042B04D02A4998
:104BD000F86806F08FFC48E00121B86805F0CEFACD
:104BE000034618460BF0E0FD0346BB61BB69B3F515
:104BF000001F04D32149F86806F07CFC35E002214F
:104C0000B86805F0BBFA034618460BF0CDFD034625
:104C10007B61BB69C3F500137A699A4203D87B694B
:104C2000B3F5007F08D2BB69C3F500131A461449D7
:104C3000F86806F05FFC18E00321B86805F09EFAFA
:104C4000034618460BF0B0FD0346FB74FB7C012BBA
:104C500004D90C49F86806F04DFC06E0054B1868CD
:104C6000FB7C7A69B969FEF7A5FA2037BD4680BD9D
:104C7000D8500108140000201051010830510108DB
:104C80005C5101088851010880B584B000AFF8601C
:104C9000B9607A60084B1B78002B05D0074B1B6866
:104CA0001846FEF7ADFA04E00549F86806F022FC64
:104CB00000BF1037BD4680BD4844002014000020CE
:104CC000C051010880B400AF024B1846BD465DF8E4
:104CD000047B7047345C010880B400AF2E23184673
:104CE000BD465DF8047B704780B483B000AF786048
:104CF0007B68DB6903F02003202B01D1012300E056
:104D0000002318460C37BD465DF8047B704780B41D
:104D100083B000AF78607B685B6ADBB218460C3703
:104D2000BD465DF8047B704780B500AF4FF48062EC
:104D30000849094806F07AFF4FF4805207490848AD
:104D400006F074FF064B044A0649074806F0E9FCE2
:104D500000BF80BD24450020FC44002024490020E1
:104D60001045002000140140EC440020B0B588B08C
:104D700000AF1B4B3C1D1D460FCD0FC495E807002F
:104D800084E80700FFF79EFF0346BB61FFF7A4FF1F
:104D90000346BB833B1D184604F0F3FF0346114A4C
:104DA0001360104B1B68002B05D101210E4802F047
:104DB000FBF8012310E00B4B1B680C4A1A60094BEF
:104DC0001C683B1D184604F0ABFF03461A46084911
:104DD000204606F08FFB002318462037BD46B0BDA5
:104DE000045201082859002084600108F54D00088C
:104DF000E451010880B582B000AF78600B46FB70CB
:104E0000FB781946034806F00FFD00BF0837BD4682
:104E100080BD00BFEC44002080B584B002AF786054
:104E200039607B68002B03D10021154802F0BCF8E3
:104E300078683B68DA683B681B6900931346114A3F
:104E4000114907F0B3F97B6820337A6806211846C8
:104E500007F018FA3B685A687B68DA613B689A6821
:104E60007B689A613B681A687B685A617B6820336B
:104E7000184607F049FA00BF0837BD4680BD00BF9D
:104E800084600108914F0008114F000880B588B078
:104E900002AFFFF749FF022300931E233C220D4976
:104EA0000D4806F09EFDFFF761FF0C4B7B600C4B3D
:104EB0001B68BB600B4BFB600B4B3B61064B7B6184
:104EC0003B1D19460948FFF7A7FF00BF1837BD462D
:104ED00080BD00BF94440020D0440020D94F00087A
:104EE00028590020EC440020904400204C4400202D
:104EF00080B582B000AF0346FB71FB7919460348C9
:104F000007F06EF900BF0837BD4680BD4C44002055
:104F100080B582B000AF786039607B68002B03D128
:104F20000721154802F040F87B689B69184606F097
:104F300014FC7B6820330A220A21184607F0C4F9C2
:104F40000E4B1B680E49184606F0D4FA0B4B1B6833
:104F50000C49184606F0CEFA084B1B680A49184659
:104F600006F0C8FA054B1B680849184606F0C2FA55
:104F700000BF0837BD4680BD846001082859002065
:104F80002052010850520108705201088C52010849
:104F900080B584B000AF786039607B685B69FB6086
:104FA0007B685B693968786898470346FB72FB7ACF
:104FB000002B08D1FB680649786898477B685B69D5
:104FC00004497868984700BF1037BD4680BD00BFD0
:104FD000906001088C60010880B582B000AF7860F5
:104FE00039607B68002B03D10321244801F0DCFFEA
:104FF0003B68002B03D10421204801F0D5FF3B681A
:105000001B88013B072B34D801A252F823F000BFC4
:1050100031500008735000084350000873500008D6
:1050200073500008515000085F5000086950000894
:105030007B6820330A220A21184607F045F901232C
:1050400018E07B682033184607F05EF9012311E071
:105050000B4B1B68184604F046FF01230AE07B68EF
:10506000084A5A61002305E07B68074A5A61002319
:1050700000E0022318460837BD4680BD8460010861
:10508000285900201D5100082D52000880B582B01B
:1050900000AF0B48FFF728FE0346002B0BD0084853
:1050A000FFF735FE0346FB71064B1B68FA79114684
:1050B000184604F0F5FE00BF0837BD4680BD00BFAE
:1050C000001401402859002080B584B000AF7860FA
:1050D0007B689B69184606F051FCF860FB68002B62
:1050E00008D0064B1B78002B04D07B680449184677
:1050F00007F0A0F800BF1037BD4680BD245900203E
:105100009460010880B500AFFFF7C0FF0248FFF7C9
:10511000DBFF00BF80BD00BF4C44002080B584B0E1
:1051200000AF786039600023FB603B681B88012B6F
:1051300027D0092B46D074E0786800F00DFA1BE008
:105140007B689A697B6893F83D3019467B680B440D
:1051500093F838301946104606F066FBF860FB6895
:10516000002B01D001235DE07B6893F83D300133D3
:10517000DAB27B6883F83D207B6893F83D30042BDE
:10518000DED97B685B6B002BD6D11BE07B689A690C
:105190007B6893F83D3019467B680B4493F83830B0
:1051A0001946104606F040FBF860FB68002B01D062
:1051B000012337E07B6893F83D300133DAB27B6836
:1051C00083F83D207B6893F83D30042BDED924E042
:1051D000786800F0C1F91BE07B689A697B6893F8F6
:1051E0003D3019467B680B4493F838301946104619
:1051F00006F01AFBF860FB68002B01D0012311E0D8
:105200007B6893F83D300133DAB27B6883F83D2048
:105210007B6893F83D30042BDED97B685B6B002BF9
:10522000D6D1022318461037BD4680BD80B586B062
:1052300000AF786039603B681B88013B0A2B00F2A5
:10524000018101A252F823F075520008455400086C
:1052500045540008455400084554000845540008CA
:105260004554000845540008835300081F530008A4
:10527000FB530008764B1B6C5B00764A1A40764B5A
:1052800013433B613B691B0CDBB23B733B691B0A5D
:10529000DBB27B733B69DBB2BB730023FB750DE0B4
:1052A0007B689A69FB7D18333B4413F80C3C194624
:1052B000104606F0B9FAFB7D0133FB75FB7D022B2E
:1052C000EED9664B1B681846FDF7BEFF0123BAE016
:1052D000786800F016F91DE07B689A697B6893F89E
:1052E000403019467B680B4493F83E30194610460F
:1052F00006F09AFA0346002B04D0594B01221A708B
:105300000123A0E07B6893F840300133DAB27B6878
:1053100083F840207B6893F84030012BDCD97B6810
:105320005B6B002BD4D14D4B1B681846FDF7ACFFCF
:10533000012388E07B689A697B6893F840301946BE
:105340007B680B4493F83E301946104606F06CFA21
:105350000346002B01D0012375E07B6893F84030B1
:105360000133DAB27B6883F840207B685B6B002BEB
:1053700007D13B4B00221A70384B1B681846FDF7CB
:1053800083FF7B6893F84030012BD3D92FE07868F6
:1053900000F0B7F81AE07B689A697B6893F84030B0
:1053A00019467B680B4493F83E301946104606F0C8
:1053B0003BFA0346002B01D0012344E07B6893F8BD
:1053C00040300133DAB27B6883F840207B6893F881
:1053D0004030012BDFD97B685B6B002B07D1204B62
:1053E00000221A701D4B1B681846FDF74DFF7B68A5
:1053F0005B6B002BCBD1012325E07B68B3F84230F7
:105400001B0A9BB2DBB23B737B68B3F84230DBB262
:105410007B730023BB750DE07B689A69BB7D1833F5
:105420003B4413F80C3C1946104606F0FDF9BB7DD1
:105430000133BB75BB7D012BEED97B68094A5A61EC
:10544000002300E0022318461837BD4680BD00BF88
:105450006C430020FEFF3F000000C0FF1C00002046
:1054600024590020D94F000880B485B000AF78607F
:105470000B467B807B881B0A9BB2DBB23B737B882D
:10548000DBB27B730023FB7331E07B681B881AB2AD
:10549000FB7B10333B4413F8043C1BB21B021BB2D2
:1054A00053401BB29AB27B681A800023BB7318E08A
:1054B0007B681B881BB2002B0ADA7B681B881BB237
:1054C0005B001AB241F2210353401BB29BB203E0CE
:1054D0007B681B885B009BB27A681380BB7B0133BF
:1054E000BB73BB7B072BE3D9FB7B0133FB73FB7BDC
:1054F000012BCAD900BF00BF1437BD465DF8047B3D
:10550000704780B584B000AF78607B681B6B991CD6
:105510007A6811631B88FB817B685B6B5A1E7B6812
:105520005A637B684233FA8911461846FFF79CFF9D
:10553000FB891B0A9BB2DAB27B6883F83E20FB89A9
:10554000DAB27B6883F83F207B68002283F8402032
:1055500000BF1037BD4680BDB0B588B000AF7860E1
:105560002B4B07F10C041D460FCD0FC42B68237085
:105570007B681B6B991C7A6811631B88FB837B68B3
:105580005B6B5A1E7B685A63FB8B1B0B9BB203F051
:105590000F0320333B4413F8142C7B6883F8382026
:1055A000FB8B1B0A9BB203F00F0320333B4413F821
:1055B000142C7B6883F83920FB8B1B099BB203F00A
:1055C0000F0320333B4413F8142C7B6883F83A20F4
:1055D000FB8B03F00F0320333B4413F8142C7B6840
:1055E00083F83B207B68202283F83C207B680022E4
:1055F00083F83D207B685B6B002B04D1054B1B6857
:105600001846FDF741FE00BF2037BD46B0BD00BFC4
:10561000B85201081C00002080B584B002AF786049
:10562000396078683B685A683B689B68009313460A
:10563000134A144906F0BAFD7B6814337A682621B0
:10564000184606F01FFE7B6824337A682721184627
:1056500006F018FE3B681A687B685A637B684FF453
:105660007A729A637B68FF2283F83C207B6814334C
:10567000184606F049FE00BF0837BD4680BD00BF92
:105680003D570008CD56000880B586B002AF022312
:105690000093012302220949094806F0A2F9094AA8
:1056A0003B1D07CA83E807003B1D19460648FFF764
:1056B000B3FF00BF1037BD4680BD00BF8CD90020AE
:1056C0006CD90020CC5201082CD9002080B582B0C2
:1056D00000AF7860396006F0F5FB7B6803F11400D9
:1056E0007B689B6B99B27B689B6B9BB21A4606F0FA
:1056F000EBFD02F0B7FA084806F02FF802F090FA36
:1057000002F0A0FA01F018FD01F028FD01F0B8FF49
:1057100000BF0837BD4680BD28DE012080B582B0BD
:1057200000AF0346FB71FB791946034806F058FDAC
:1057300000BF0837BD4680BD2CD9002080B582B09F
:1057400000AF786039603B681B88262B06D102F0D9
:1057500080FA01F00BFD786800F006F80123184686
:105760000837BD4680BD000090B591B000AF7860AD
:1057700007F12C0300221A605A609A60DA6007F180
:105780001C0300221A605A609A60DA6007F10C0369
:1057900000221A605A609A60DA60374BD3ED027AC1
:1057A000B7EEE77A07F12C0303211846B0EE470B5A
:1057B00000F074F807F12C031A463049304806F01F
:1057C00079F8304B93ED007B9FED295B87EE056BFD
:1057D00007F11C0303211846B0EE460B00F05EF8FB
:1057E000294B93ED007B07F10C0303211846B0EE23
:1057F000470B00F053F807F10C0307F11C02234993
:105800001F4806F057F822491D4806F053F80023B8
:1058100087F83F301DE07B6893F83C301A4697F8D4
:105820003F3042FA03F303F00103002B0CD097F84A
:105830003F4097F83F30184601F036FF03462246B6
:1058400014490F4806F036F897F83F30013387F8CF
:105850003F3097F83F30072BDDD90F49084806F055
:1058600029F800BF4437BD4690BD00BFAFF30080AC
:1058700000000000000059409CDA0020D8520108C6
:1058800028DE0120B8DF0220B0DF0220EC52010840
:1058900008530108105301081C53010880B58CB04F
:1058A00000AF87ED040BF8600B46FB7297ED047BAD
:1058B000B5EEC07BF1EE10FA0AD5FB685A1CFA600F
:1058C0002D221A7097ED047BB1EE477B87ED047BA8
:1058D00097ED047BFCEEC77B17EE903A3B623B6A88
:1058E00007EE903AB8EE677B97ED046B36EE477B98
:1058F00087ED0A7B3A6A2549F8680BF065FD02E0FE
:10590000FB680133FB60FB681B78002BF8D1FB7A46
:10591000002B34D0FB685A1CFA602E221A70002328
:1059200087F8273026E097ED0A7BB2EE046B27EE6E
:10593000067B87ED0A7B97ED0A7BFCEEC77BC7ED04
:10594000017A3B79FB77FB685A1CFA60FA7F3032A8
:10595000D2B21A70FB7F07EE903AB8EEE77B97ED74
:105960000A6B36EE477B87ED0A7B97F827300133C9
:1059700087F8273097F82720FB7A9A42D3D3FB6821
:1059800000221A7000BF3037BD4680BD2053010889
:1059900080B584B000AF786039603B681B88162BF7
:1059A00020D0162B63DC012B02D0032B13D05EE03A
:1059B000082001F05BF97B682033184606F0A4FC50
:1059C000786800F0FDFD786800F047FE7B680122F2
:1059D0009A6101234CE04FF4FA71082001F028F994
:1059E000012345E03B689B78042B3ED17B6893F80C
:1059F0003030002B09D10121786800F0BBFB7868BA
:105A000000F0E3FB786800F0DBFD7B6893F848303A
:105A100018467B6893F8493019467B68B3F95020E3
:105A20007B68B3F9523001F06FFE0346002B04D0BF
:105A30007B68114A5A6100231AE07B6893F848306A
:105A4000184601F031FE0346FB817B68B3F95830FC
:105A5000B7F90E209A4203DD7B68084A5A6102E0DA
:105A60007B68074A5A61002302E0022300E0022318
:105A700018461037BD4680BDB15F0008855A000842
:105A8000C15B000880B584B000AF786039603B68C6
:105A90001B88013B152B00F2878001A252F823F0EE
:105AA000F95A0008A95B0008235B0008A95B0008FD
:105AB000A95B0008A95B0008A95B0008A95B0008B6
:105AC000A95B0008A95B0008A95B0008A95B0008A6
:105AD000A95B0008A95B0008A95B0008A95B000896
