:020000040800F2
:1000000000000820E9300008952E00089D2E000809
:10001000A52E0008AD2E0008B52E00080000000037
:10002000000000000000000000000000BD2E0008DD
:10003000CB2E000800000000D92E0008E72E000893
:1000400039310008393100083931000839310008E8
:1000500039310008393100083931000839310008D8
:1000600039310008393100083931000839310008C8
:10007000FB2E0008393100083931000839310008F9
:1000800039310008393100083931000839310008A8
:100090003931000839310008393100083931000898
:1000A00039310008E57A0008393100083931000893
:1000B000317B000839310008393100083931000836
:1000C0003931000839310008393100083931000868
:1000D00039310008072F000839310008393100088C
:1000E0003931000839310008393100083931000848
:1000F0003931000839310008393100083931000838
:100100003931000839310008393100083931000827
:100110003931000839310008393100083931000817
:1001200039310008132F0008212F0008A97E00088C
:100130002D2F000839310008393100083931000805
:1001400039310008393100083931000839310008E7
:1001500039310008997D000839310008C550000880
:1001600039310008393100083931000839310008C7
:100170003931000839310008393100080000000029
:1001800039310008393100081935000839310008C3
:100190003931000839310008393100083931000897
:1001A000000000000000000039310008393100086B
:1001B0003931000839310008393100083931000877
:1001C00039310008393100080000000039310008D9
:1001D0003931000839310008393100083931000857
:1001E0003931000839310008393100083931000847
:0801F000000000003931000895
:1002000010B5054C237833B9044B13B10448AFF350
:1002100000800123237010BD18430020000000005F
:10022000E83A010808B5034B1BB103490348AFF393
:10023000008008BD000000001C430020E83A0108CF
:1002400010F8012B11F8013B012A28BF9A42F7D080
:10025000D01A7047000000000000000000000000FD
:1002600001F0FF01102A2BDB10F0070F08D010F867
:10027000013B013A8B422DD010F0070F42B3F6D16B
:10028000F0B441EA012141EA014122F007047FF084
:1002900000070023F0E80256083C85EA010586EADB
:1002A000010685FA47F5A3FA87F586FA47F6A5FA17
:1002B00087F68EB9EED1F0BC01F0FF0102F0070223
:1002C00032B110F8013B013A83EA010313B1F8D1CE
:1002D0000020704701387047002D06BF35460338AF
:1002E000073815F0010F07D1013015F4807F02BFE8
:1002F000013015F4C03F0130F0BC0138704700BF39
:10030000034613F8012B002AFBD1181A0138704755
:1003100080F0004002E000BF81F0004142001FBFBA
:100320005FEA410392EA030F7FEA226C7FEA236CC3
:100330006AD04FEA1262D2EB1363C1BFD2184140B8
:1003400048404140B8BF5B42192B88BF704710F04E
:10035000004F40F4000020F07F4018BF404211F0F1
:10036000004F41F4000121F07F4118BF494292EA59
:10037000030F3FD0A2F1010241FA03FC10EB0C0085
:10038000C3F1200301FA03F100F0004302D5494212
:1003900060EB4000B0F5000F13D3B0F1807F06D3BF
:1003A00040084FEA310102F10102FE2A51D2B1F1B7
:1003B000004F40EBC25008BF20F0010040EA0300AC
:1003C0007047490040EB0000013A28BFB0F5000F2C
:1003D000EDD2B0FA80FCACF1080CB2EB0C0200FAE2
:1003E0000CF0AABF00EBC25052421843BCBFD04031
:1003F0001843704792F0000F81F4000106BF80F4AB
:1004000000000132013BB5E74FEA41037FEA226C6D
:1004100018BF7FEA236C21D092EA030F04D092F038
:10042000000F08BF0846704790EA010F1CBF00206C
:10043000704712F07F4F04D1400028BF40F00040C9
:10044000704712F100723CBF00F50000704700F0E9
:10045000004343F0FE4040F4000070477FEA226210
:1004600016BF08467FEA23630146420206BF5FEAE1
:10047000412390EA010F40F4800070474FF00003E1
:1004800004E000BF10F0004348BF40425FEA000CA8
:1004900008BF704743F0964301464FF000001CE050
:1004A00050EA010208BF70474FF000030AE000BFA6
:1004B00050EA010208BF704711F0004302D54042E4
:1004C00061EB41015FEA010C02BF84460146002056
:1004D00043F0B64308BFA3F18053A3F50003BCFA71
:1004E0008CF2083AA3EBC25310DB01FA02FC63441E
:1004F00000FA02FCC2F12002BCF1004F20FA02F225
:1005000043EB020008BF20F00100704702F1200217
:1005100001FA02FCC2F1200250EA4C0021FA02F278
:1005200043EB020008BF20EADC7070477BB972B968
:100530000029BEBF00204FF0004106E008BF0028A0
:100540001CBF6FF000414FF0FF3000F0D3B9ADF1A8
:10055000080C6DE904CE002909DB002B1ADB00F042
:100560004DF8DDF804E0DDE9022304B070474042B5
:1005700061EB4101002B1BDB00F040F8DDF804E0EB
:10058000DDE9022304B0404261EB4101524263EBDA
:1005900043037047524263EB430300F02FF8DDF84A
:1005A00004E0DDE9022304B0404261EB4101704701
:1005B000524263EB430300F021F8DDF804E0DDE98B
:1005C000022304B0524263EB4303704753B94AB964
:1005D000002908BF00281CBF4FF0FF314FF0FF304B
:1005E00000F088B9ADF1080C6DE904CE00F006F812
:1005F000DDF804E0DDE9022304B070472DE9F0479F
:10060000089D8E4604468846002B4AD18A421746EA
:1006100062D9B2FA82F64EB1C6F1200301FA06F8A9
:1006200020FA03F3B74043EA0808B4404FEA174EF4
:100630001FFA87FCB8FBFEF1230C0EFB118843EA7E
:10064000084301FB0CF29A4209D9FB1801F1FF3073
:1006500080F0EA809A4240F2E78002393B449A1ADD
:10066000A3B2B2FBFEF00EFB102243EA024300FBF2
:100670000CFC9C4509D9FB1800F1FF3280F0D680B4
:100680009C4540F2D3803B44023840EA0140A3EB52
:100690000C0300211DB1F3400022C5E90032BDE882
:1006A000F0878B4205D90DB1C5E90001002108464C
:1006B000F5E7B3FA83F1002946D1734502D38242AC
:1006C00000F20581841A6EEB030201209046002D92
:1006D000E5D0C5E90048E2E7002A00F09080B2FAD0
:1006E00082F6002E40F0A4808A1A030C4FEA174EBF
:1006F00080B2BCB20121B2FBFEFC0EFB1C2243EA1D
:10070000024304FB0CF29A4207D9FB180CF1FF38A4
:1007100002D29A4200F2E080C4469B1AB3FBFEF27A
:100720000EFB123340EA034302FB04F49C4207D958
:10073000FB1802F1FF3002D29C4200F2CA8002464E
:100740001B1B42EA0C40A5E7C1F120068B4022FAB0
:1007500006F71F430EFA01F420FA06F32EFA06FEFE
:100760004FEA1749234300FA01F81FFA87FCBEFB42
:10077000F9F01C0C09FB10EE44EA0E4400FB0CFEE1
:10078000A64502FA01F209D93C1900F1FF3A80F0BE
:100790009C80A64540F2998002383C44A4EB0E04AC
:1007A0001FFA83FEB4FBF9F309FB13444EEA044439
:1007B00003FB0CFCA44508D93C1903F1FF3E80F073
:1007C0008280A4457FD9023B3C4443EA0040A4EB2D
:1007D0000C04A0FB02EC64457346E14662D35FD093
:1007E0005DB1B8EB030264EB090404FA06F622FAE1
:1007F00001F31E43CC40C5E9006400214FE7B1FB83
:10080000F2FC010C41EA0E4180B240EA01423B4653
:1008100038463C46B846BE462026B1FBF7F1A2EB6F
:10082000080241EA0C4166E7014618E710462CE74A
:10083000C6F120022EFA02F3B740B14020FA02F2CC
:100840004FEA174E0A43B3FBFEF8BCB20EFB183357
:10085000110C41EA034108FB04F9B04089454FEA15
:10086000104380B23ED9791808F1FF3C01D2894586
:100870001FD8A1EB0901B1FBFEF909FB04F80EFB3F
:10088000191192B242EA0142424529D2BA1809F13D
:10089000FF31C4D24245C2D2A9F102013A44BEE7B7
:1008A000F0459DD2BEEB02036CEB070C0138E1462C
:1008B00096E7A7EB09094944A8F1020CB1FBFEF940
:1008C00009FB04F8DBE773467FE7504666E7084616
:1008D000FDE63B44023A33E7ACF1020C3B441CE733
:1008E00049469CE7A1EB0901C446B1FBFEF909FBAF
:1008F00004F8C4E7704700BF80B400AF044BDB6866
:100900001B0A03F007031846BD465DF8047B7047D9
:1009100000ED00E080B483B000AF0346FB7197F9AF
:100920000730002B0BDBFB7903F01F02074997F917
:1009300007305B09012000FA02F241F8232000BFD2
:100940000C37BD465DF8047B704700BF00E100E056
:1009500080B483B000AF03463960FB7197F907306C
:10096000002B0ADB3B68DAB20C4997F90730120119
:10097000D2B20B4483F800230AE03B68DAB208499C
:10098000FB7903F00F03043B1201D2B20B441A7639
:1009900000BF0C37BD465DF8047B704700E100E006
:1009A00000ED00E080B489B000AFF860B9607A6013
:1009B000FB6803F00703FB61FB69C3F10703042B2A
:1009C00028BF0423BB61FB690433062B02D9FB69F2
:1009D000033B00E000237B614FF0FF32BB6902FA6A
:1009E00003F3DA43BB681A407B699A404FF0FF314A
:1009F0007B6901FA03F3D9437B680B401343184624
:100A00002437BD465DF8047B704780B489B000AFE1
:100A1000F860B9607A60FB682C331946BB6803F450
:100A200040734FF44072BA61BA6992FAA2F27A61E5
:100A30007A69B2FA82F2D2B2D3409B000B44FB61D6
:100A4000FB691A68BB6803F01F031F2101FA03F357
:100A5000DB431A407B6803F01F01BB6803F01F03F0
:100A600001FA03F31A43FB691A6000BF2437BD463D
:100A70005DF8047B704780B483B000AF7860396064
:100A80007B689B6823F480623B681A437B689A60AA
:100A900000BF0C37BD465DF8047B704780B48DB055
:100AA00000AFF860B9607A60FB680C331946BB6828
:100AB00003F000734FF00072BA61BA6992FAA2F2C1
:100AC0007A617A69B2FA82F2D2B2D3409B000B44C7
:100AD000FB62FB6A1A68BB6803F0F8734FF0F871A9
:100AE0003962396A91FAA1F1F961F969B1FA81F1D2
:100AF000C9B2CB40072101FA03F3DB431A40BB68BC
:100B000003F0F8734FF0F871B962B96A91FAA1F184
:100B10007962796AB1FA81F1C9B2CB40796801FA98
:100B200003F31A43FB6A1A6000BF3437BD465DF811
:100B3000047B704780B485B000AFF860B9607A601C
:100B40000D4ABB6813441B781A46FB6813441B68A4
:100B500023F0C0020849BB680B441B781946FB68A8
:100B60000B4419467B6813430B6000BF1437BD4626
:100B70005DF8047B704700BFB05A010880B485B0AF
:100B800000AFF860B9607A600D4ABB6813441B7807
:100B90001A46FB6813441B6823F490720849BB682B
:100BA0000B441B781946FB680B4419467B681343BA
:100BB0000B6000BF1437BD465DF8047B704700BF73
:100BC000B05A010880B485B000AFF860B9607A60AF
:100BD0000D4ABB6813441B781A46FB6813441B6814
:100BE00023F400720849BB680B441B781946FB6864
:100BF0000B4419467B6813430B6000BF1437BD4696
:100C00005DF8047B704700BFB05A010880B485B01E
:100C100000AFF860B9607A600D4ABB6813441B7876
:100C20001A46FB6813441B6823F480620849BB68BA
:100C30000B441B781946FB680B4419467B68134329
:100C40000B6000BF1437BD465DF8047B704700BFE2
:100C5000B05A010880B485B000AFF860B9607A601E
:100C60000D4ABB6813441B781A46FB6813441B6883
:100C700023F4C0520849BB680B441B781946FB6833
:100C80000B4419467B6813430B6000BF1437BD4605
:100C90005DF8047B704700BFB05A010880B485B08E
:100CA00000AFF860B9607A600D4ABB6813441B78E6
:100CB0001A46FB6813441B6823F4C0420849BB680A
:100CC0000B441B781946FB680B4419467B68134399
:100CD0000B6000BF1437BD465DF8047B704700BF52
:100CE000B05A010880B485B000AFF860B9607A608E
:100CF0000D4ABB6813441B781A46FB6813441B68F3
:100D000023F440320849BB680B441B781946FB6842
:100D10000B4419467B6813430B6000BF1437BD4674
:100D20005DF8047B704700BFB05A010880B485B0FD
:100D300000AFF860B9607A600D4ABB6813441B7855
:100D40001A46FB6813441B6823F0F0520849BB683D
:100D50000B441B781946FB680B4419467B68134308
:100D60000B6000BF1437BD465DF8047B704700BFC1
:100D7000B05A010880B483B000AF786039600C4A83
:100D80003B6813441B781A467B6813445B69084927
:100D90003A680A44127811467A680A4423F0040338
:100DA000536100BF0C37BD465DF8047B704700BF40
:100DB000B05A010880B483B000AF78607B681B68CC
:100DC00043F001027B681A6000BF0C37BD465DF836
:100DD000047B704780B483B000AF78607B681B6889
:100DE00023F400327B681A6000BF0C37BD465DF803
:100DF000047B704780B483B000AF78607B681B6869
:100E000023F400227B681A6000BF0C37BD465DF8F2
:100E1000047B704780B485B000AFF860B9607A6039
:100E2000FB68DA68064B1340B9687A680A431A43CC
:100E3000FB68DA6000BF1437BD465DF8047B70477D
:100E400001F8FFFF80B483B000AF78607B68DB6897
:100E500023F400427B68DA6000BF0C37BD465DF8C2
:100E6000047B704780B483B000AF78607B685B68B8
:100E700043F000727B685A6000BF0C37BD465DF8D6
:100E8000047B704780B483B000AF78607B681B68D8
:100E900043F040027B681A6000BF0C37BD465DF826
:100EA000047B704780B483B000AF786039607B68A2
:100EB0005B6823F010023B681A437B685A6000BFEE
:100EC0000C37BD465DF8047B704780B483B000AF3B
:100ED00078607B685B6843F008027B685A6000BFFB
:100EE0000C37BD465DF8047B704780B483B000AF1B
:100EF00078607B685B6823F008027B685A6000BFFB
:100F00000C37BD465DF8047B704780B483B000AFFA
:100F100078607B681B6843F080027B681A6000BFC2
:100F20000C37BD465DF8047B704780B483B000AFDA
:100F300078607B681B6823F080027B681A6000BFC2
:100F40000C37BD465DF8047B7047000080B485B067
:100F500000AF786039603B68012B28D03B68042BD8
:100F600023D03B68102B1ED03B68402B19D03B6828
:100F7000B3F5807F13D03B68B3F5806F0DD03B682D
:100F8000B3F5805F07D03B68B3F5803F01D10723FD
:100F90000EE008230CE006230AE0052308E0042302
:100FA00006E0032304E0022302E0012300E0002323
:100FB000FB737B6818331946FB7B0B4AD35C0B44ED
:100FC000BB60BB681A68FB7B0849CB5C19460423ED
:100FD0008B40DB431A40BB681A6000BF1437BD4624
:100FE0005DF8047B704700BFB85A0108C45A010875
:100FF00080B485B000AF786039603B68012B28D0A1
:101000003B68042B23D03B68102B1ED03B68402B41
:1010100019D03B68B3F5807F13D03B68B3F5806F80
:101020000DD03B68B3F5805F07D03B68B3F5803FD8
:1010300001D107230EE008230CE006230AE0052374
:1010400008E0042306E0032304E0022302E0012376
:1010500000E00023FB737B6818331946FB7B0A4AC8
:10106000D35C0B44BB60BB681A68FB7B0749CB5C55
:10107000194608238B401A43BB681A6000BF143717
:10108000BD465DF8047B7047B85A0108C45A010890
:1010900080B483B000AF786039607B689A68064B93
:1010A00013403A681A437B689A6000BF0C37BD460C
:1010B0005DF8047B704700BFF8BFFEFF80B483B0CB
:1010C00000AF786039607B685B6823F070023B6832
:1010D0001A437B685A6000BF0C37BD465DF8047B3D
:1010E000704780B483B000AF786039607B685B681C
:1010F00023F470023B681A437B685A6000BF0C37C8
:10110000BD465DF8047B704780B483B000AF786063
:101110007B689B6823F080027B689A6000BF0C3775
:10112000BD465DF8047B704780B483B000AF786043
:101130007B681B6843F001027B681A6000BF0C37B4
:10114000BD465DF8047B704780B483B000AF786023
:101150007B685B6823F490427B685A607B689B687D
:1011600023F02A027B689A6000BF0C37BD465DF809
:10117000047B704780B483B000AF786039607B68CF
:101180003A689A6100BF0C37BD465DF8047B704732
:1011900080B483B000AF786039603B681A047B6824
:1011A0009A6100BF0C37BD465DF8047B70470000B4
:1011B00080B485B000AF7860084B1A6B07497B6834
:1011C00013430B63054B1A6B7B681340FB60FB6892
:1011D00000BF1437BD465DF8047B704700380240FD
:1011E00080B485B000AF7860084B1A6C07497B6803
:1011F00013430B64054B1A6C7B681340FB60FB6860
:1012000000BF1437BD465DF8047B704700380240CC
:1012100080B485B000AF7860084B5A6C07497B6892
:1012200013434B64054B5A6C7B681340FB60FB68AF
:1012300000BF1437BD465DF8047B7047003802409C
:1012400080B500AF0CF0A6FA00F02CF801F0F0FA2F
:1012500001F072FA00F052FB00F0EAFB00F0AEFC85
:1012600000F05EFD00F08EF800F0D8FD00F0B8FF51
:1012700001F090F800F050FE01F028F901F0C2F9F9
:1012800000F0D4F900F082FA00F022FF00F066FFCF
:1012900000F012FB01F051FF01F059FF01F064FF73
:1012A00000BFFDE780B594B000AF07F11C03342206
:1012B0000021184610F064F907F1080300221A60B3
:1012C0005A609A60DA601A612C4B1B6C2B4A43F00F
:1012D00080531364294B1B6C03F080537B607B6845
:1012E000274B1B68264A43F440431360244B1B687A
:1012F00003F440433B603B680923FB614FF48033B8
:101300003B6201233B6302237B634FF48003BB6397
:101310000C23FB63C0233B6402237B640223BB6476
:101320000223FB6407F11C0318460CF031FD034651
:10133000002B01D001F064FD0CF0DAFC0346002B19
:1013400001D001F05DFD0F23BB600223FB60002391
:101350003B614FF4A0537B614FF48053BB6107F1B5
:101360000803062118460CF0C1FF0346002B01D0EC
:1013700001F046FD00BF5037BD4680BD0038024039
:101380000070004080B592B000AF07F13C0300222E
:101390001A605A609A6007F1280300221A605A60A6
:1013A0009A60DA601A6107F1180300221A605A6025
:1013B0009A60DA603B4600221A605A609A60DA60EE
:1013C0001A615A614FF48070FFF722FF0420FFF783
:1013D000EFFE0220FFF7ECFE01233B6003237B605E
:1013E00000233B613B46194684480DF008FF022369
:1013F0003B6003237B6000233B613B4619467F48EB
:101400000DF0FDFE04233B6003237B6000233B6162
:101410003B46194679480DF0F2FE08233B60032352
:101420007B6000233B613B46194674480DF0E7FEA4
:1014300010233B6003237B6000233B613B4619463E
:101440006E480DF0DCFE20233B6003237B6000230D
:101450003B613B46194669480DF0D1FE01233B60D4
:1014600003237B6000233B613B46194664480DF033
:10147000C6FE02233B6003237B6000233B613B46A7
:1014800019465F480DF0BBFE002204215D48FFF7BE
:101490004DFC002204215B48FFF74CFB0022042195
:1014A0005848FFF71FFC4FF4807204215548FFF79E
:1014B00065FB002204215348FFF784FB4FF4806250
:1014C00004215048FFF7A2FB4FF4006204214D486D
:1014D000FFF7C0FB4FF4005204214A48FFF7DEFB40
:1014E00004214848FFF746FC0023FB6300233B64CC
:1014F0004FF480737B6407F13C03194642480DF0BA
:1015000005FD0023BB624FF4E003FB6200233B6355
:1015100000237B634FF44073BB6307F12803194634
:1015200039480DF01FFD00213748FFF7A4FA4FF4AA
:101530008033BB610023FB6107F118031946334870
:101540000DF09CFC0A224FF400712F48FFF75DFA62
:1015500001220A212C48FFF7A1FA2D4A40F2052169
:101560002948FFF752FA012229492748FFF796FA3E
:10157000284A40F20A212448FFF747FA0122254968
:101580002148FFF78BFA244A40F20F211E48FFF74B
:101590003CFA012220491C48FFF780FA1F4A4FF409
:1015A00005711948FFF731FA01221C491648FFF767
:1015B00075FA1B4A40F219211348FFF726FA012257
:1015C00017491148FFF76AFA164A4FF480710E481E
:1015D000FFF71BFA012213490B48FFF75FFA124A83
:1015E00040F205110848FFF710FA01220E4906489B
:1015F000FFF754FA00BF4837BD4680BD00080240DF
:101600000004024000640240002001400023014029
:101610000B0030000C0060000D0090000E00C000B8
:101620000F00F000080080030900B00380B58EB001
:1016300000AF07F12C0300221A605A609A6007F18C
:10164000180300221A605A609A60DA601A613B46F9
:1016500000221A605A609A60DA601A615A614FF487
:101660000070FFF7D5FD0120FFF7A2FD04233B60CA
:1016700003237B6000233B613B4619463E480DF047
:10168000BEFD08233B6003237B6000233B613B4698
:10169000194639480DF0B3FD4FF00072022137486A
:1016A000FFF744FB002202213448FFF743FA0022EF
:1016B00002213248FFF716FB4FF4807202212F48B7
:1016C000FFF75CFA002202212C48FFF77BFA4FF467
:1016D000806202212948FFF799FA4FF40062022143
:1016E0002648FFF7B7FA4FF4005202212348FFF7CC
:1016F000D5FA02212148FFF73DFB0023FB620023BE
:101700003B634FF480737B6307F12C0319461C483D
:101710000DF0FCFB0023BB614FF48013FB61002341
:101720003B6200237B624FF44073BB6207F11803F6
:10173000194613480DF016FC4FF480611048FFF76E
:101740009AF9104A4FF400710D48FFF75EF9012233
:101750000C490B48FFF7A2F90B4A40F20521084853
:10176000FFF753F9002208490548FFF797F900BF32
:101770003837BD4680BD00BF000002400064024013
:1017800000210140030090020200600280B58EB08B
:1017900000AF07F12C0300221A605A609A6007F12B
:1017A000180300221A605A609A60DA601A613B4698
:1017B00000221A605A609A60DA601A615A614FF426
:1017C0008060FFF725FD0120FFF7F2FC02233B605C
:1017D00003237B6000233B613B46194632480DF0F2
:1017E0000EFD4FF0806201213048FFF79FFA002282
:1017F00001212E48FFF79EF9002201212B48FFF717
:1018000071FA4FF4807201212848FFF7B7F90022DE
:1018100001212648FFF7D6F94FF4806201212348C1
:10182000FFF7F4F94FF4006201212048FFF712FAA4
:101830004FF4005201211D48FFF730FA01211B48E7
:10184000FFF798FA0023FB6200233B6300237B63CE
:1018500007F12C03194616480DF058FB0023BB6115
:101860000023FB6100233B6200237B624FF4407343
:10187000BB6207F1180319460D480DF073FB4FF4D6
:1018800080610B48FFF7F7F80A4A4FF400710848E7
:10189000FFF7BBF8012207490548FFF7FFF800BF33
:1018A0003837BD4680BD00BF0000024000640240E2
:1018B000002201400100300280B500AF0D4B0E4AFE
:1018C0001A600C4B00221A710A4B00225A71094B04
:1018D00000225A61074B00229A61064B01221A62CC
:1018E00004480CF09BF80346002B01D001F088FA65
:1018F00000BF80BD344300200030024080B5B2B04C
:1019000000AF07F1AC0300221A605A609A60DA60F7
:101910001A615A619A6107F1940300221A605A60B1
:101920009A60DA601A615A613B1D902200211846C4
:101930000FF026FE4FF480437B600023BB663B1D07
:1019400018460CF085FE0346002B01D001F058FA32
:101950000220FFF72DFC4023C7F894300223C7F87C
:1019600098300323C7F89C300123C7F8A030002328
:10197000C7F8A4300423C7F8A83007F19403194628
:1019800028480DF03CFC8023C7F894300223C7F8A8
:1019900098300323C7F89C300123C7F8A0300023F8
:1019A000C7F8A4300423C7F8A83007F194031946F8
:1019B0001C480DF024FC4FF40010FFF711FC1A48EE
:1019C000FFF750FA002200211748FFF723FA1648C4
:1019D000FFF738FA1448FFF70DFA1348FFF7FAF942
:1019E0000023C7F8AC30114BC7F8B0300023C7F85C
:1019F000B4300023C7F8B8300023C7F8BC30002348
:101A0000C7F8C0300023C7F8C43007F1AC0319464B
:101A100005480DF00BFD0448FFF7CCF900BFC837AF
:101A2000BD4680BD0004024000540040D61940006D
:101A300080B590B000AF07F11803282200211846A6
:101A40000FF09EFD3B4600221A605A609A60DA60F1
:101A50001A615A614FF48050FFF7DAFB0120FFF75B
:101A6000A7FB10233B6002237B600323BB600023A2
:101A7000FB6000233B6105237B613B4619464C48D4
:101A80000DF0BDFB20233B6002237B600323BB6082
:101A90000023FB6000233B6105237B613B46194625
:101AA00043480DF0ACFB40233B6002237B600323E3
:101AB000BB600023FB6000233B6105237B613B4649
:101AC00019463B480DF09BFB80233B6002237B6063
:101AD0000323BB600023FB6000233B6105237B6184
:101AE0003B46194632480DF08AFB4FF0C062032195
:101AF0003048FFF71BF9402203212E48FFF71AF860
:101B00004FF4003203212B48FFF7ECF800220321A9
:101B10002848FFF733F8002203212648FFF752F840
:101B20004FF4806203212348FFF770F8002203215D
:101B30002048FFF78FF8002203211E48FFF7AEF878
:101B400003211C48FFF716F9FEF7D6FE03460022D4
:101B500000211846FEF726FF034619462320FEF70C
:101B6000F7FE2320FEF7D6FE0023BB610023FB61B6
:101B70004FF4E0633B6202237B620023BB620023DD
:101B8000FB6200237B630023BB630723FB6307F136
:101B90001803194608480EF021F800210648FFF7FF
:101BA00081F90548FFF7A1F900BF4037BD4680BD68
:101BB00000000240006402400030014080B590B057
:101BC00000AF07F118032822002118460FF0D8FCB7
:101BD0003B4600221A605A609A60DA601A615A61C4
:101BE0004FF48040FFF7FCFA0220FFF7E1FA4FF4D0
:101BF00000533B6002237B600323BB600023FB6038
:101C000000233B6105237B613B46194641480DF0AB
:101C1000F6FA4FF480433B6002237B600323BB60F2
:101C20000023FB6000233B6105237B613B46194693
:101C300038480DF0E4FA4FF400433B6002237B6028
:101C40000323BB600023FB6000233B6105237B6112
:101C50003B4619462F480DF0D2FA4FF09052012121
:101C60002D48FFF763F8002201212B48FEF762FFA1
:101C70004FF4403201212848FFF734F84FF48072C6
:101C800001212548FEF77AFF002201212248FEF7B4
:101C900099FF4FF4806201211F48FEF7B7FF4FF410
:101CA000006201211C48FEF7D5FF4FF400520121CC
:101CB0001948FEF7F3FF01211748FFF75BF80023EF
:101CC000BB614FF48273FB614FF470633B6200238E
:101CD0007B620023BB624FF40073FB6200233B6313
:101CE00000237B630023BB630723FB6307F1180317
:101CF00019460A480DF072FF00210848FFF7D2F894
:101D00000648FFF7E2F80548FFF7BCF800BF403788
:101D1000BD4680BD00040240006002400038004023
:101D200080B590B000AF07F11803282200211846B3
:101D30000FF026FC3B4600221A605A609A60DA6077
:101D40001A615A614FF40040FFF74AFA0420FFF786
:101D50002FFA4FF480633B6002237B600323BB6058
:101D60000023FB6000233B6106237B613B46194651
:101D700028480DF044FA4FF400633B6002237B6077
:101D80000323BB600023FB6000233B6106237B61D0
:101D90003B4619461F480DF032FA4FF480533B6022
:101DA00002237B600323BB600023FB6000233B61B5
:101DB00006237B613B46194616480DF020FA0023A6
:101DC000BB614FF48273FB614FF4E0633B6200231D
:101DD0007B620023BB624FF40073FB6200233B6312
:101DE00000237B630023BB630723FB6307F1180316
:101DF000194609480DF0F2FE00210748FFF752F896
:101E00000548FFF762F80448FFF73CF800BF403789
:101E1000BD4680BD00080240003C004080B590B047
:101E200000AF07F118032822002118460FF0A8FB85
:101E30003B4600221A605A609A60DA601A615A6161
:101E40004FF40050FFF7E4F91020FFF7B1F94FF419
:101E500080533B6002237B600323BB600023FB6055
:101E600000233B6105237B613B46194628480DF062
:101E7000C6F94FF400533B6002237B600323BB6031
:101E80000023FB6000233B6105237B613B46194631
:101E90001F480DF0B4F94FF480433B6002237B6090
:101EA0000323BB600023FB6000233B6105237B61B0
:101EB0003B46194616480DF0A2F90023BB614FF4CA
:101EC0008273FB614FF4E0633B6200237B6201237A
:101ED000BB624FF40073FB6220233B6300237B63F0
:101EE0000023BB630723FB6307F118031946094866
:101EF0000DF074FE00210748FEF7D4FF0548FEF7F9
:101F0000F4FF0448FEF7BEFF00BF4037BD4680BD6A
:101F1000001002400034014080B590B000AF07F1DE
:101F200018032822002118460FF02AFB3B46002206
:101F30001A605A609A60DA601A615A614FF40010B0
:101F4000FFF766F90220FFF733F908233B6002230D
:101F50007B600323BB600023FB6000233B610823FD
:101F60007B613B46194657480DF049F910233B6009
:101F700002237B600323BB600023FB6000233B61E3
:101F800008237B613B4619464E480DF038F9202363
:101F90003B6002237B600323BB600023FB600023C4
:101FA0003B6108237B613B46194646480DF027F903
:101FB0004FF0007205214448FEF7B8FE402205218B
:101FC0004148FEF7B7FD4FF4403205213E48FEF789
:101FD00089FE002205213C48FEF7D0FD00220521A4
:101FE0003948FEF7EFFD4FF4806205213648FEF7D1
:101FF0000DFE002205213448FEF72CFE00220521AB
:102000003148FEF74BFE05212F48FEF7B3FE4FF097
:10201000007206212C48FEF789FE002206212A487C
:10202000FEF788FD4FF4403206212748FEF75AFE9E
:10203000002206212448FEF7A1FD002206212248A5
:10204000FEF7C0FD4FF4806206211F48FEF7DEFD5B
:10205000002206211C48FEF7FDFD002206211A4839
:10206000FEF71CFE06211848FEF784FE0023BB6124
:102070004FF48273FB614FF4E0633B6200237B62A9
:102080000023BB624FF40073FB6200233B63002319
:102090007B630023BB630723FB6307F11803194627
:1020A0000A480DF09BFD00210848FEF7FBFE07489B
:1020B000FEF70BFF0548FEF7E5FE00BF4037BD46C3
:1020C00080BD00BF00040240006402400054014093
:1020D00080B586B000AF3B1D00221A605A609A603E
:1020E000DA601A610120FFF793F8FEF705FC03465A
:1020F000002200211846FEF755FC03461946192018
:10210000FEF726FC1920FEF705FC0023BB80002308
:10211000BB604FF6FF73FB6000233B6100237B61D4
:102120003B1D19460C480DF04DFE0B48FEF7FDFE19
:1021300000210948FEF7ACFF00210748FEF7BEFF6B
:1021400000210548FEF7CDFF0348FEF7DDFF00BF85
:102150001837BD4680BD00BF0000014080B586B085
:1021600000AF3B1D00221A605A609A60DA601A6163
:102170000120FFF735F8FEF7BFFB034600220221DE
:102180001846FEF70FFC034619461C20FEF7E0FB3D
:102190001C20FEF7BFFB0023BB800023BB604FF079
:1021A000FF33FB6000233B613B1D19464FF080402D
:1021B0000DF008FE4FF08040FEF7A7FE00214FF023
:1021C0008040FEF765FF00214FF08040FEF776FF6C
:1021D0004FF08040FEF798FF00BF1837BD4680BD26
:1021E00080B594B000AF07F13C0300221A605A603A
:1021F0009A60DA601A6107F11C0320220021184658
:102200000FF0BEF93B1D00221A605A609A60DA6036
:102210001A615A610420FEF7E3FF0A23BB870023FB
:102220003B644CF250337B644FF40073BB6407F1A2
:102230003C03194655480DF0C5FD5448FEF775FEA0
:1022400000215248FEF724FF01215048FEF7D0FE3E
:102250006023FB6100233B6200237B620023BB629F
:102260000023FB6207F11C031A46012147480DF0C9
:1022700043FE01214548FEF769FE10214348FEF761
:10228000B7FE07F11C031A46102140480DF034FE3A
:1022900010213E48FEF75AFE4FF480713B48FEF78E
:1022A000A7FE07F11C031A464FF4807137480DF062
:1022B00023FE4FF480713548FEF748FE4FF48051FD
:1022C0003248FEF795FE07F11C031A464FF4805181
:1022D0002E480DF011FE4FF480512C48FEF736FECB
:1022E00000212A48FEF7EAFE2848FEF70DFF0820E5
:1022F000FEF75EFF4FF480537B600223BB60002338
:10230000FB6000233B6100237B610223BB613B1D1B
:1023100019461F480CF073FF4FF400537B600223F3
:10232000BB600023FB6000233B6100237B61022331
:10233000BB613B1D194616480CF061FF4FF480430A
:102340007B600223BB600023FB6000233B61002312
:102350007B610223BB613B1D19460D480CF04FFF0A
:102360004FF400437B600223BB600023FB6000232B
:102370003B6100237B610223BB613B1D194604487E
:102380000CF03DFF00BF5037BD4680BD0008004047
:10239000000C024080B5B2B000AF07F1AC030022E0
:1023A0001A605A609A60DA601A615A619A6107F19C
:1023B000940300221A605A609A60DA601A615A61C6
:1023C0003B1D9022002118460FF0DAF84FF480539D
:1023D0007B6000233B663B1D18460CF039F9034631
:1023E000002B01D000F00CFD4FF08040FEF7F8FE0E
:1023F0001020FEF7DDFE8023C7F894300223C7F8D3
:1024000098300323C7F89C300023C7F8A03001237D
:10241000C7F8A4300823C7F8A83007F19403194679
:1024200028480CF0ECFE4FF48073C7F89430022378
:10243000C7F898300323C7F89C300023C7F8A030B2
:102440000023C7F8A4300823C7F8A83007F1940385
:1024500019461C480CF0D3FEFEF74EFA0346002244
:102460000B211846FEF79EFA034619465220FEF746
:102470006FFA5220FEF74EFA4FF4E133C7F8AC3052
:102480000023C7F8B0300023C7F8B4300023C7F8E2
:10249000B8300C23C7F8BC300023C7F8C030002385
:1024A000C7F8C43007F1AC03194607480EF044F8EA
:1024B0000548FEF749FE0448FEF736FE00BFC83760
:1024C000BD4680BD001002400078004080B5B2B02B
:1024D00000AF07F1AC0300221A605A609A60DA601C
:1024E0001A615A619A6107F1940300221A605A60D6
:1024F0009A60DA601A615A613B1D902200211846E9
:102500000FF03EF840237B600023BB643B1D184660
:102510000CF09EF80346002B01D000F071FC102057
:10252000FEF776FE0120FEF743FE4FF40073C7F876
:1025300094300223C7F898300323C7F89C30002357
:10254000C7F8A0300023C7F8A4300723C7F8A83085
:1025500007F19403194629480CF051FE4FF48063AB
:10256000C7F894300223C7F898300323C7F89C308B
:102570000023C7F8A0300123C7F8A4300723C7F809
:10258000A83007F1940319461C480CF038FEFEF7FA
:10259000B3F9034600220B211846FEF703FA03465F
:1025A00019462520FEF7D4F92520FEF7B3F94FF49C
:1025B000E133C7F8AC300023C7F8B0300023C7F8C8
:1025C000B4300023C7F8B8300C23C7F8BC30002360
:1025D000C7F8C0300023C7F8C43007F1AC03194670
:1025E00007480DF0A9FF0648FEF7AEFD0448FEF7C8
:1025F0009BFD00BFC837BD4680BD00BF0000024044
:102600000010014080B5B2B000AF07F1AC0300226A
:102610001A605A609A60DA601A615A619A6107F129
:10262000940300221A605A609A60DA601A615A6153
:102630003B1D9022002118460EF0A2FF4FF40063CC
:102640007B600023FB653B1D18460CF001F8034638
:10265000002B01D000F0D4FB2020FEF7D9FD042090
:10266000FEF7A6FD4023C7F894300223C7F8983040
:102670000323C7F89C300023C7F8A0300023C7F815
:10268000A4300823C7F8A83007F194031946284856
:102690000CF0B5FD8023C7F894300223C7F89830BA
:1026A0000323C7F89C300023C7F8A0300023C7F8E5
:1026B000A4300823C7F8A83007F1940319461C4832
:1026C0000CF09DFDFEF718F9034600220B21184679
:1026D000FEF768F9034619464720FEF739F9472007
:1026E000FEF718F94FF4E133C7F8AC300023C7F810
:1026F000B0300023C7F8B4300023C7F8B8300C233B
:10270000C7F8BC300023C7F8C0300023C7F8C43076
:1027100007F1AC03194607480DF00EFF0548FEF718
:1027200013FD0448FEF700FD00BFC837BD4680BD5D
:10273000000802400014014080B500AF4FF4800053
:10274000FEF736FD4FF40010FEF732FDFEF7D4F829
:102750000346002200211846FEF724F903461946D5
:102760000C20FEF7F5F80C20FEF7D4F8FEF7C4F8BD
:102770000346002200211846FEF714F903461946C5
:102780003920FEF7E5F83920FEF7C4F8FEF7B4F873
:10279000034600220A211846FEF704F903461946AB
:1027A0003A20FEF7D5F83A20FEF7B4F8FEF7A4F881
:1027B0000346002200211846FEF7F4F803461946A6
:1027C0003B20FEF7C5F83B20FEF7A4F8FEF794F88F
:1027D000034600220A211846FEF7E4F8034619468C
:1027E0003C20FEF7B5F83C20FEF794F8FEF784F89D
:1027F0000346002209211846FEF7D4F8034619467D
:102800004420FEF7A5F84420FEF784F8FEF774F89C
:102810000346002201211846FEF7C4F80346194674
:102820004520FEF795F84520FEF774F800BF80BDFF
:1028300080B586B000AF3B4600221A605A609A60AD
:10284000DA601A615A611020FEF7B2FC0420FEF72C
:10285000AFFC8020FEF7ACFC0120FEF7A9FC0220B3
:10286000FEF7A6FC0820FEF7A3FC0421C048FEF7F3
:102870008FFC0821BE48FEF78BFC1021BC48FEF7F8
:1028800087FC2021BA48FEF783FC4021B848FEF7B8
:102890007FFC4FF40051B748FEF77AFC4FF48041BB
:1028A000B448FEF775FC4FF40041B248FEF770FCE7
:1028B0004FF40061B048FEF76BFC4FF48061AF4805
:1028C000FEF766FC4FF40061AD48FEF761FC4FF483
:1028D0000041AB48FEF75CFC0121A848FEF758FC1C
:1028E0000221A648FEF754FC1021A448FEF750FC34
:1028F0002021A248FEF74CFC4021A048FEF748FCEE
:1029000004219D48FEF736FC4FF480619848FEF79D
:1029100031FC4FF400619648FEF72CFC4FF4004167
:102920009348FEF727FC4FF480619348FEF722FCA2
:102930004FF480519048FEF71DFC4FF480718F4892
:10294000FEF718FC4FF400718C48FEF713FC4FF4AF
:1029500080718848FEF70EFC04218848FEF70AFCC7
:1029600080218648FEF706FC4FF480718248FEF70E
:1029700001FC4FF400718048FEF7FCFB01217C480C
:10298000FEF7F8FB02217A48FEF7F4FB04233B60D4
:1029900001237B600023BB600023FB6000233B61BD
:1029A0003B46194672480CF02AFC08233B60012381
:1029B0007B600023BB600023FB6000233B613B4640
:1029C00019466B480CF01BFC10233B6001237B6015
:1029D0000023BB600023FB6000233B613B4619469C
:1029E00063480CF00CFC20233B6001237B60002338
:1029F000BB600023FB6000233B613B4619465C48FB
:102A00000CF0FDFB40233B6001237B600023BB6097
:102A10000023FB6000233B613B46194654480CF001
:102A2000EEFB4FF400533B6001237B600023BB604F
:102A30000023FB6000233B613B4619464D480CF0E8
:102A4000DEFB4FF480433B6001237B600023BB60CF
:102A50000023FB6000233B613B46194645480CF0D0
:102A6000CEFB4FF400433B6001237B600023BB603F
:102A70000023FB6000233B613B4619463D480CF0B8
:102A8000BEFB04233B6001237B600023BB6000236B
:102A9000FB6000233B613B46194637480CF0AFFB17
:102AA0004FF480633B6001237B600023BB60002305
:102AB000FB6000233B613B4619462D480CF09FFB11
:102AC0004FF400633B6001237B600323BB60002362
:102AD000FB6000233B613B46194625480CF08FFB09
:102AE0004FF400433B6001237B600023BB60002365
:102AF000FB6000233B613B4619461D480CF07FFB01
:102B00004FF480633B6001237B600023BB600023A4
:102B1000FB6001233B613B46194617480CF06FFBF5
:102B20004FF400633B6001237B600023BB60002304
:102B3000FB6002233B613B4619460F480CF05FFBEC
:102B40004FF480533B6001237B600023BB60002374
:102B5000FB6000233B613B46194607480CF04FFBE6
:102B60004FF480733B6001237B6003230AE000BFC6
:102B7000001002400008024000040240000C024025
:102B800000000240BB600023FB6000233B613B462A
:102B9000194696480CF033FB4FF400733B60012359
:102BA0007B600323BB600023FB6000233B613B464B
:102BB00019468E480CF023FB4FF480633B600123E1
:102BC0007B600023BB600023FB6000233B613B462E
:102BD000194686480CF013FB4FF400633B6000235A
:102BE0007B6000233B613B46194680480CF007FBA5
:102BF0004FF480733B6001237B600023BB600023A4
:102C0000FB6001233B613B46194679480CF0F7FA1B
:102C10004FF400733B6000237B6000233B613B4625
:102C2000194673480CF0EBFA4FF480733B600023B5
:102C30007B6000233B613B4619466E480CF0DFFA8F
:102C40004FF400633B6001237B600023BB600023E3
:102C5000FB6000233B613B46194666480CF0CFFA07
:102C60004FF400433B6001237B600023BB600023E3
:102C7000FB6000233B613B4619465E480CF0BFFAFF
:102C800001233B6001237B600023BB600023FB60CA
:102C900000233B613B46194654480CF0B0FA02232E
:102CA0003B6001237B600023BB600023FB600023AB
:102CB0003B613B4619464D480CF0A1FA04233B60AA
:102CC00001237B600023BB600023FB6000233B618A
:102CD0003B46194645480CF092FA08233B60002316
:102CE0007B6000233B613B46194640480CF087FA65
:102CF00010233B6001237B600023BB600023FB604B
:102D000000233B613B46194638480CF078FA2023F3
:102D10003B6001237B600023BB600023FB6000233A
:102D20003B613B46194631480CF069FA40233B6051
:102D300001237B600023BB600023FB6000233B6119
:102D40003B46194629480CF05AFA80233B60012380
:102D50007B600023BB600023FB6000233B613B469C
:102D6000194622480CF04BFA4FF480733B60012364
:102D70007B600023BB600023FB6000233B613B467C
:102D800019461D480CF03BFA4FF400733B600123D9
:102D90007B600023BB600023FB6000233B613B465C
:102DA000194615480CF02BFA01233B6001237B6088
:102DB0000023BB600023FB6000233B613B461946B8
:102DC0000E480CF01CFA02233B6001237B600023B9
:102DD000BB600023FB6000233B613B46194607486C
:102DE0000CF00DFA00BF1837BD4680BD000C024044
:102DF00000080240000002400004024000100240AF
:102E000080B400AF72B600BF00BFFDE780B483B0EE
:102E100000AF0F4B1B6C0E4A43F0805313640C4BF6
:102E20001B6C03F080537B607B68094B5B6C084A2A
:102E300043F480435364064B5B6C03F480433B6074
:102E40003B6800BF0C37BD465DF8047B704700BF90
:102E50000038024080B485B000AF78607B681B68A2
:102E60000A4A93420BD10A4B1B6B094A43F4805325
:102E70001363074B1B6B03F48053FB60FB6800BFBD
:102E80001437BD465DF8047B704700BF0030024038
:102E90000038024080B400AF00BFFDE780B400AF4F
:102EA00000BFFDE780B400AF00BFFDE780B400AF16
:102EB00000BFFDE780B400AF00BFFDE780B400AF06
:102EC00000BFBD465DF8047B704780B400AF00BF13
:102ED000BD465DF8047B704780B400AF00BFBD46BF
:102EE0005DF8047B704780B500AF04F0B7FB09F0D4
:102EF0000FFA0AF08DFC00BF80BD80B500AF04F072
:102F00004BFD00BF80BD80B500AF04F0ADFE00BF3B
:102F100080BD80B400AF00BFBD465DF8047B704744
:102F200080B500AF04F0F4FA00BF80BD80B500AFFB
:102F300004F008FC00BF80BD80B400AF0123184638
:102F4000BD465DF8047B704780B582B000AF786005
:102F500039600EF075FB034616221A604FF0FF33FE
:102F600018460837BD4680BD80B582B000AF786096
:102F70004FF0FF317868FFF7E7FF00BFFDE780B54E
:102F800086B000AFF860B9607A6000237B610AE028
:102F9000AFF300800146BB685A1CBA60CAB21A700F
:102FA0007B6901337B617A697B689A42F0DB7B68DD
:102FB00018461837BD4680BD80B586B000AFF860B2
:102FC000B9607A6000237B6109E0BB685A1CBA6073
:102FD0001B781846AFF300807B6901337B617A6907
:102FE0007B689A42F1DB7B6818461837BD4680BD86
:102FF00080B483B000AF78604FF0FF3318460C37D1
:10300000BD465DF8047B704780B483B000AF786044
:1030100039603B684FF400525A60002318460C3761
:10302000BD465DF8047B704780B483B000AF786024
:10303000012318460C37BD465DF8047B704780B409
:1030400085B000AFF860B9607A6000231846143785
:10305000BD465DF8047B704780B586B000AF7860F0
:10306000144A154BD31A7B617B693B61134B1B6878
:10307000002B02D1114B124A1A60104B1A687B6860
:1030800013443A699A4207D20EF0DAFA03460C2248
:103090001A604FF0FF3309E0084B1B68FB60074BD9
:1030A0001A687B681344054A1360FB681846183792
:1030B000BD4680BD000008200004000058430020E9
:1030C00008E1022080B400AF064BD3F88830054AEF
:1030D00043F47003C2F8883000BFBD465DF8047B3E
:1030E000704700BF00ED00E0DFF834D0FFF7EAFFE3
:1030F0000C480D490D4A002302E0D458C450043353
:10310000C4188C42F9D30A4A0A4C002301E0136028
:103110000432A242FBD30EF099FAFEF791F8704701
:10312000000008200000002014430020B87E0108A1
:103130001843002008E10220FEE780B500AF01F04F
:1031400085FE02F081FA03F09FFE00BF80BD80B5CE
:1031500000AF042001F0ACFE062002F0BFFA0A2006
:1031600003F0CAFE00BF80BD80B500AF08F0B0FF1D
:1031700000BF80BD80B584B000AFF860B9607A60F0
:10318000FB70FB68BA68DA63FB687A681A64FB68EC
:10319000FA7883F84520084B1B684FF6FF72A3F8B6
:1031A0004220FB680549184609F024F80023184618
:1031B0001037BD4680BD00BF04000020FC5A010846
:1031C00080B582B000AF78607B680022DA637B68EC
:1031D0004FF480421A647B68012283F84520084B33
:1031E0001B684FF6FF72A3F842207B68054918461A
:1031F00009F000F8002318460837BD4680BD00BF1F
:1032000004000020FC5A010880B582B000AF78604D
:103210007B680449184608F0EDFF0023184608377C
:10322000BD4680BD105B010880B582B000AF7860FC
:103230007B680449184608F0DDFF0023184608376C
:10324000BD4680BD245B010880B582B000AF7860C8
:103250007B680449184608F0CDFF0023184608375C
:10326000BD4680BD385B010880B584B000AFF86012
:10327000B9607A60BB68012B02D87B68642B01D9E6
:10328000062318E0FB6893F84D30002B06D0002091
:1032900003F0D0FFFB68002283F84D207968B868FE
:1032A00004F0D0F87B68D9B2FA68BB68134449339C
:1032B0000A461A70002318461037BD4680BD80B5F7
:1032C00082B000AF786039603B68242B01D90623B7
:1032D00014E07B6893F84D30012B06D0012003F0F9
:1032E000A9FF7B68012283F84D20386803F0E6FFD0
:1032F0003B68DAB27B6883F84B2000231846083716
:10330000BD4680BD80B582B000AF786039603B6853
:10331000082B01D9062314E07B6893F84D30012B6C
:1033200006D0012003F086FF7B68012283F84D2040
:10333000386803F0FBFF3B68DAB27B6883F84C2007
:10334000002318460837BD4680BD80B582B000AF67
:1033500078607B6893F84D30012B06D0012003F094
:1033600069FF7B68012283F84D2004F011F87B6827
:10337000FF2283F84C20002318460837BD4680BD45
:10338000B0B582B000AF786039603B681B68002B35
:1033900004D03B681B68194A934201D9062328E0F0
:1033A0003B681B79002B03D03B681B79242B01D988
:1033B00006231EE03B685B79642B01D9062318E0E5
:1033C0003B68DB68B3F5006F01D9062311E03B6869
:1033D0001B69002B01D106230BE07B683A6803F1DF
:1033E000280415460FCD0FC42B68236000F054F855
:1033F000002318460837BD46B0BD00BF50F80C008A
:10340000B0B483B000AF786039603A687B68154625
:1034100003F128040FCC0FC523682B6000BF0C37C5
:10342000BD46B0BC7047000080B584B000AF786086
:103430007B682833FB60FB681B68002B04D0FB68AB
:103440001B68134A934201D906231CE0FB681B79D1
:10345000002B03D0FB681B79242B01D9062312E033
:10346000FB685B79642B01D906230CE0FB68DB6801
:10347000B3F5006F01D9062305E07B6805491846BE
:1034800008F0B8FE002318461037BD4680BD00BFC7
:1034900050F80C00E85A010880B582B000AF03F084
:1034A0006FFD0F4B4FF0BC321A600E4B9B6A0C4AFB
:1034B00053600C4BDA8D0A4B1A810A4B1A8E084B5B
:1034C0005A81084B5A8E064B9A8100237B60044A2E
:1034D0007B68136103F078FD00BF0837BD4680BDEF
:1034E000004002405C43002080B586B000AF7860A9
:1034F00007F10C0300221A605A609A600E23BB8108
:103500007B6807F10C021146184608F073FE002391
:1035100018461837BD4680BD80B500AF074BDB6944
:10352000184608F0DCF9054BDB69184608F006FA86
:10353000034B4FF0FF321A6200BF80BDB84300203A
:103540000078004080B500AF0C4B1B68184603F0B4
:10355000DCF80346002B01D001230CE0084B1B884C
:10356000074A12881946074808F08EFE064B0122CA
:1035700083F828200023184680BD00BF08000020E3
:103580000C000020244400200C44002080B500AF33
:10359000074808F099FE074B1B68184603F044F9EA
:1035A000054B002283F828200023184680BD00BF69
:1035B00024440020080000200C44002080B483B084
:1035C00000AF0346FB80044AFB88138000BF0C3722
:1035D000BD465DF8047B70470C00002080B400AF4E
:1035E000BFF34F8F00BF064BDB6803F4E062044972
:1035F000044B1343CB60BFF34F8F00BF00BFFDE709
:1036000000ED00E00400FA0580B584B000AFF8607A
:10361000B9607A6003F0EAFF00BF1037BD4680BD95
:1036200080B5ADF5826D00AF07F58263A3F2044368
:10363000186007F58263A3F58163196007F582635B
:10364000A3F20C431A6007F58263A3F58063184662
:103650004FF480631A4600210DF092FF07F110032A
:103660001A464FF48061002004F04AFB07F582639C
:10367000A3F204430849186807F01CFF07F58263AA
:10368000A3F204430549186807F014FF00BF07F5CB
:103690008267BD4680BD00BF003B0108103B0108AA
:1036A00080B5ADF5836D00AF07F58363A3F20C43DE
:1036B000186007F58363A3F58263196007F58363D8
:1036C000A3F214431A6007F114031A464FF4806101
:1036D000002004F027FB07F58363A3F20C431F4986
:1036E000186807F0E7FE0023C7F8143424E007F554
:1036F0008363A3F20442D7F8143413441B781A46A8
:1037000007F58363A3F20C431549186807F0D2FE4E
:10371000D7F81434013303F00F03002B07D107F55A
:103720008363A3F20C430F49186807F0C3FED7F870
:1037300014340133C7F81434D7F81434B3F5806F58
:10374000D5DB07F58363A3F20C430649186807F03D
:10375000B1FE00BF07F58367BD4680BD143B01087D
:103760002C3B0108343B010880B588B000AFF860FD
:10377000B9607A6007F11403074A0A2118460DF070
:1037800079FD07F114031946F86806F01CFC00BF28
:103790002037BD4680BD00BF6C45010880B584B0B0
:1037A00000AFF860B9607A60FFF718FF80B588B0A5
:1037B00000AFF860B9607A600023BB610023FB8230
:1037C000B86806F0F1FC03467B757B7D012B04D0C5
:1037D0002E49F86807F06EFE54E00121B86806F043
:1037E000ADFC38613B691B78612B22D10023FB774C
:1037F0001BE0FB7F184603F037FF0346FB82B7F957
:10380000163013F5004F06D1FB7F1A462049F868A1
:1038100007F050FE06E0FA7FB7F916301D49F86848
:1038200007F048FEFB7F0133FB77FB7F072BE0D9D6
:1038300028E03B691B782F2B20D93B691B78372B5D
:103840001CD838690CF03EFF0346BB61B86903F031
:103850000BFF0346FB82B7F9163013F5004F05D175
:10386000BA690B49F86807F025FE0BE0B7F9163086
:10387000BA690849F86807F01DFE03E00649F868D0
:1038800007F018FE2037BD4680BD00BF7445010813
:1038900094450108A8450108BC45010880B588B0D9
:1038A00000AFF860B9607A60B86806F07DFC034646
:1038B000FB61FB69012B04D01549F86807F0FAFD9C
:1038C00023E0144B1B68184602F0EEFF034683F01A
:1038D0000103DBB2002B04D00F49F86807F0EAFDC2
:1038E00013E00121B86806F029FCB861B8690CF052
:1038F000E9FE03467B61074B1B687969184602F0B5
:1039000019FC0649F86807F0D5FD2037BD4680BD93
:103910007445010810000020D04501081C4601082C
:1039200080B584B000AFF860B9607A600A4B1B685C
:10393000184602F018FC0346002B04D00749F8682B
:1039400007F0B8FD03E00649F86807F0B3FD00BFD3
:103950001037BD4680BD00BF100000201C46010886
:103960002446010880B588B000AFF860B9607A607D
:10397000B86806F019FC0346BB61BB69012B04D093
:103980003849F86807F096FD69E0374B1B68184620
:1039900002F08AFF034683F00103DBB2002B04D060
:1039A0003249F86807F086FD59E00121B86806F051
:1039B000C5FB786100233B617B691B78612B25D1B6
:1039C0000023FB611EE0284B1B68F969184602F0D2
:1039D00010FC38613B69002B0CD1234B1B68002283
:1039E000F969184602F0F4FFFA692149F86807F00E
:1039F00061FD04E0FA691F49F86807F05BFDFB69A7
:103A00000133FB61FB69032BDDD928E07B691B785F
:103A10002F2B24D97B691B78332B20D878690CF0A5
:103A200051FE0346FB61104B1B68F969184602F012
:103A3000E0FB38613B69002B0CD10B4B1B6800226B
:103A4000F969184602F0C4FFFA690949F86807F0F5
:103A500031FD04E0FA690749F86807F02BFD2037CB
:103A6000BD4680BD74450108100000202C460108A9
:103A7000744601088846010880B588B000AFF86038
:103A8000B9607A60B86806F08FFB0346FB61FB699A
:103A9000012B04D01549F86807F00CFD22E0012144
:103AA000B86806F04BFBB861B8690CF00BFE034632
:103AB000FB82FB8AB3F5FA7F04D3FB8A40F6B83267
:103AC000934204D90A49F86807F0F4FC0AE0094B6C
:103AD0001B68FA8A1146184602F09EFF0649F868EC
:103AE00007F0E8FC2037BD4680BD00BFA0460108B6
:103AF000C8460108100000201C46010880B586B0A9
:103B000000AFF860B9607A60084B1B68184602F095
:103B10009FFF0346FB82FB8A1A460549F86807F0B7
:103B2000C9FC00BF1837BD4680BD00BF1000002093
:103B3000FC46010880B588B000AFF860B9607A60D3
:103B4000B86806F031FB0346BB61BB69042B04D0A7
:103B50003149F86807F0AEFC5BE0304B1B68184653
:103B600002F088FE0346FB750023FB614AE0FB6917
:103B70009BB201339BB21946B86806F0DFFA0346E0
:103B800018460CF09FFD0346D9B207F11002FB69FD
:103B900013440A461A7007F11002FB6913441B789C
:103BA000012B05D9FA691E49F86807F083FC30E05B
:103BB00007F11002FB6913441B78002B08D1174B47
:103BC0001B68FA69D2B21146184602F091FB16E062
:103BD000FB7DFA699A4205D1FA691249F86807F043
:103BE00069FC0CE00D4B1B68FA69D2B2114618460D
:103BF00002F05DFBFA690C49F86807F05BFCFB69B1
:103C00000133FB61FB69032BB1D90849F86807F060
:103C100051FC2037BD4680BD204701081000002020
:103C2000444701086C470108904701081C460108F9
:103C300080B586B000AFF860B9607A60134B1B683E
:103C4000184602F078FB0346FB7400237B6115E005
:103C5000FA7C7B6942FA03F303F00103002B05D0E1
:103C60007A690B49F86807F025FC04E07A6909498C
:103C7000F86807F01FFC7B6901337B617B69032BCC
:103C8000E6D900BF00BF1837BD4680BD1000002038
:103C900090470108A847010880B58CB000AFF860D4
:103CA000B9607A60354B1B68184602F0FDFD03468B
:103CB00083F00103DBB2002B04D03149F86807F030
:103CC000F9FB58E0B86806F06FFA0346FB62FB6A3E
:103CD000032B04D02B49F86807F0ECFB4BE00121E3
:103CE000B86806F02BFAB862B86A0CF0EBFC034631
:103CF0007B627B6A032B04D92349F86807F0DAFB5F
:103D000039E00221B86806F019FA3862386A0CF016
:103D1000D9FC0346FB61FB69012B04D91B49F868F8
:103D200007F0C8FB27E00321B86806F007FAB8617E
:103D3000B8690CF0C7FC0346FB82FB8A40F6B83238
:103D4000934204D91249F86807F0B4FB13E00B4B17
:103D50001868FB8AFA69796A02F0BAFD38613B6932
:103D6000002B04D00B49F86807F0A4FB03E00A49D4
:103D7000F86807F09FFB3037BD4680BD100000207B
:103D8000C0470108E4470108104801083448010809
:103D900058480108244601081C46010880B58AB02D
:103DA00000AFF860B9607A602A4B1B68184602F0D1
:103DB0007BFD034683F00103DBB2002B04D02649D0
:103DC000F86807F077FB41E0B86806F0EDF90346C4
:103DD0007B627B6A022B04D02049F86807F06AFBFB
:103DE00034E00121B86806F0A9F93862386A0CF0AD
:103DF00069FC0346FB61FB69032B04D91849F86889
:103E000007F058FB22E00221B86806F097F9B86184
:103E1000B8690CF057FC03467B610E4B18687B6950
:103E2000002B14BF01230023DBB21A46F96902F00C
:103E3000CFFD38613B69002B04D00A49F86807F0D0
:103E400039FB03E00849F86807F034FB2837BD4622
:103E500080BD00BF10000020C04701088448010851
:103E600010480108244601081C46010880B58CB0A2
:103E700000AFF860B9607A60B86806F095F903465B
:103E8000BB62BB6A032B04D04149F86807F012FB00
:103E90007AE00121B86806F051F97862786A0CF08E
:103EA00011FC03467B847B8C4EF66022934204D93E
:103EB0003849F86807F0FEFA66E00221B86806F0B3
:103EC0003DF9F861344B1B68184602F034FA03469A
:103ED000FB76FB691B786F2B07D1042387F82F3003
:103EE0002E49F86807F0E6FA1EE0FB691B782F2BD5
:103EF0001AD9FB691B78332B16D8F8690CF0E2FB52
:103F0000034687F82F30FA7E97F82F3042FA03F3F2
:103F100003F00103002B07D097F82F301A462049F1
:103F2000F86807F0C7FA2FE00321B86806F006F931
:103F3000786178690CF0C6FB03463B613B69B3F5D9
:103F4000FA7F04D33B6940F6B832934204D915494D
:103F5000F86807F0AFFA17E07B8C1846FFF72EFBE6
:103F60000D4B1B6897F82F201146184602F098FB5E
:103F7000094B1B683A6992B21146184602F0A9FB38
:103F80000949F86807F096FA3037BD4680BD00BF92
:103F9000A4480108D8480108100000200849010879
:103FA00020490108C84601081C46010880B584B0B4
:103FB00000AFF860B9607A60FFF7C4FA0349F868A7
:103FC00007F078FA00BF1037BD4680BD1C460108D7
:103FD00080B584B000AFF860B9607A60FFF7D6FAB8
:103FE0000349F86807F066FA00BF1037BD4680BD88
:103FF0001C46010880B586B000AFF860B9607A60F1
:104000000F4B1B68184602F035FC0346FB750C4B42
:104010001B68184602F03BFC0346BB82FB7D042B69
:1040200004D10849F86807F045FA05E0FA7DBB8A33
:104030000549F86807F03EFA1837BD4680BD00BF55
:1040400010000020084901084449010880B588B0E3
:1040500000AFF860B9607A60B86806F0A5F803466A
:10406000FB61FB69012B04D01249F86807F022FAC2
:104070001CE00121B86806F061F8B861B8690CF07D
:1040800021FB0346FB75FB7D642B04D90A49F868C4
:1040900007F010FA0AE0094B1B68FA7D1146184632
:1040A00002F056F90649F86807F004FA2037BD46D1
:1040B00080BD00BF7049010894490108100000202C
:1040C0001C46010880B586B000AFF860B9607A6020
:1040D000084B1B68184602F051F90346FB75FB7D3F
:1040E0001A460549F86807F0E5F900BF1837BD46DC
:1040F00080BD00BF10000020B849010880B588B01D
:1041000000AFF860B9607A60B86806F04DF8034611
:10411000BB61BB69042B04D02649F86807F0CAF9D3
:1041200045E00023FB613BE0FB699BB201339BB29E
:104130001946B86806F002F8034618460CF0C2FAB1
:104140000346D9B207F11402FB6913440A461A70F8
:1041500007F11402FB6913441B78012B05D9FA6996
:104160001549F86807F0A6F921E007F11402FB6988
:1041700013441B78002B08D1104B1B68FA69D2B28C
:104180001146184602F028F907E00C4B1B68FA6943
:10419000D2B21146184602F0FEF8FB690133FB610A
:1041A000FB69032BC0D90649F86807F083F920376B
:1041B000BD4680BDD44901084447010810000020D5
:1041C0001C46010880B586B000AFF860B9607A601F
:1041D000124B1B68184602F022F90346FB740023B9
:1041E0007B6113E0FA7C7B6942FA03F303F001037D
:1041F000002B04D00A49F86807F05CF903E009498C
:10420000F86807F057F97B6901337B617B69032B01
:10421000E8D900BF00BF1837BD4680BD10000020A0
:10422000FC490108144A010880B58AB000AFF86063
:10423000B9607A60B86805F0B7FF03467B627B6AB5
:10424000022B04D01E49F86807F034F934E001214C
:10425000B86805F073FF3862386A0CF033FA034629
:10426000FB83B7F91E30B3F57A7F04DD1549F86892
:1042700007F020F920E00221B86805F05FFFB8617F
:10428000B8690CF01FFA0346FB82B7F9163013F534
:104290007A7F04DA0C49F86807F00CF90CE00B4B54
:1042A0001B68B7F91620B7F91E10184602F018F966
:1042B0000749F86807F0FEF82837BD4680BD00BF03
:1042C000304A0108684A0108944A01081000002099
:1042D0001C46010880B586B000AFF860B9607A600E
:1042E0000C4B1B6807F114021146184602F00EF938
:1042F000B7F914301A460849F86807F0DBF8B7F93F
:1043000016301A460549F86807F0D4F800BF183788
:10431000BD4680BD10000020C44A0108E44A0108DF
:1043200080B588B000AFF860B9607A60B86805F011
:104330003BFF0346FB61FB69012B04D00E49F86883
:1043400007F0B8F815E00121B86805F0F7FEB8618C
:10435000B8690CF0B7F90346FB82084B1B68B7F944
:1043600016201146184602F067F80549F86807F06C
:10437000A1F82037BD4680BD044B01081000002085
:104380001C46010880B586B000AFF860B9607A605D
:10439000084B1B68184602F05FF80346FB82B7F92A
:1043A00016301A460449F86807F084F800BF183739
:1043B000BD4680BD100000202C4B010880B58AB09E
:1043C00000AFF860B9607A60B86805F0EDFE0346AA
:1043D0007B627B6A022B04D01C49F86807F06AF8FC
:1043E00030E00121B86805F0A9FE3862386A0CF0A7
:1043F00069F90346FB61FB69072B04D91449F86886
:1044000007F058F81EE00221B86805F097FEB86181
:10441000B8690CF057F903467B617B69072B04D917
:104420000C49F86807F046F80CE00B4B1B68FA697A
:10443000D1B27A69D2B2184602F01BF80749F8687F
:1044400007F038F82837BD4680BD00BF4C4B010847
:10445000644B0108884B0108100000201C4601082D
:1044600080B586B000AFF860B9607A600023BB8287
:104470000B4B1B6807F114021146184602F01AF89C
:104480003B7D1A460749F86807F014F87B7D1A4609
:104490000549F86807F00EF800BF1837BD4680BD23
:1044A00010000020AC4B0108C04B010880B588B05B
:1044B00000AFF860B9607A60B86805F075FE034631
:1044C000FB61FB69012B04D01249F86806F0F2FF8A
:1044D0001CE00121B86805F031FEB861B8690CF044
:1044E000F1F80346FB75FB7D012B04D90A49F868F6
:1044F00006F0E0FF0AE0094B1B68FA7D11461846FA
:1045000002F0AEF80649F86806F0D4FF2037BD4641
:1045100080BD00BFD44B0108EC4B01081000002007
:104520001C46010880B586B000AFF860B9607A60BB
:104530000A4B1B68184602F0A7F80346FB75FB7D83
:10454000002B01D0064B00E0064B1A460649F868DE
:1045500006F0B0FF00BF1837BD4680BD1000002038
:10456000184C01081C4C0108204C010880B584B08F
:1045700000AFF860B9607A60064B1B68184601F01E
:10458000B5FD0549F86806F095FF00BF1037BD4638
:1045900080BD00BF100000201C46010880B584B01B
:1045A00000AFF860B9607A60064B1B68184601F0EE
:1045B00079FD0549F86806F07DFF00BF1037BD465C
:1045C00080BD00BF100000201C46010880B588B0E7
:1045D00000AFF860B9607A60B86805F0E5FD0346A1
:1045E000FB61FB69012B04D01349F86806F062FFF8
:1045F0001EE00121B86805F0A1FDB861B8690CF0B2
:1046000061F80346FB82B7F91630642B04DD0B49D1
:10461000F86806F04FFF0BE0094B1B68B7F916204E
:1046200000211846FEF720FE0649F86806F042FF12
:104630002037BD4680BD00BF3C4C0108644C0108DA
:10464000140000201C46010880B588B000AFF86057
:10465000B9607A60B86805F0A7FD0346FB61FB69A5
:10466000012B04D01349F86806F024FF1EE0012155
:10467000B86805F063FDB861B8690CF023F803462B
:10468000FB82B7F91630642B04DD0B49F86806F09D
:1046900011FF0BE0094B1B68B7F9162001211846E2
:1046A000FEF7E2FD0649F86806F004FF2037BD4634
:1046B00080BD00BF884C0108644C01081400002034
:1046C0001C46010880B588B000AFF860B9607A6018
:1046D0000023FB830023BB83B86805F065FD034618
:1046E000FB76FB7E012B04D02049F86806F0E2FE41
:1046F00039E00121B86805F021FD78617B691B78FC
:10470000612B0ED102F0B2FE0346FB8302F0D6FE0F
:104710000346BB83FA8BBB8B1549F86806F0CAFECB
:1047200021E07B691B78302B0AD102F09FFE034603
:10473000FB83FB8B1A460F49F86806F0BBFE12E0BC
:104740007B691B78312B0AD102F0B8FE0346BB838C
:10475000BB8B1A460849F86806F0ACFE03E007492F
:10476000F86806F0A7FE2037BD4680BD74450108F5
:10477000D04C0108084D0108244D0108BC45010832
:1047800080B588B000AFF860B9607A60B86805F0AD
:104790000BFD0346FB61FB69012B04D01349F8684C
:1047A00006F088FE1EE00121B86805F0C7FCB8617C
:1047B000B8690BF087FF78617B69242B02DC7B6989
:1047C000002B04DC0A49F86806F074FE0AE0094B85
:1047D0001B687A6911461846FEF771FD0649F868AC
:1047E00006F068FE2037BD4680BD00BF404D010881
:1047F000644D0108140000201C46010880B588B0F3
:1048000000AFF860B9607A60B86805F0CDFC034687
:10481000FB61FB69012B04D01349F86806F04AFEDE
:104820001EE00121B86805F089FCB861B8690BF099
:1048300049FF78617B69082B02DC7B69002B04DC73
:104840000A49F86806F036FE0AE0094B1B687A69E7
:1048500011461846FEF756FD0649F86806F02AFE8E
:104860002037BD4680BD00BF884D0108AC4D010812
:10487000140000201C46010880B584B000AFF86029
:10488000B9607A6002F03CFD0349F86806F012FE58
:1048900000BF1037BD4680BD1C46010880B584B0FE
:1048A00000AFF860B9607A60064B1B681846FEF7E7
:1048B0004CFD0549F86806F0FDFD00BF1037BD4608
:1048C00080BD00BF140000201C46010880B592B0D6
:1048D00000AFF860B9607A60B86805F065FC03461F
:1048E0007B647B6C062B04D05E49F86806F0E2FD21
:1048F000B5E00121B86805F021FC034618460BF02D
:10490000E1FE03463B643B6CB3F57A7F03D33B6C1B
:10491000554A934204D95549F86806F0CBFD9EE00C
:104920000221B86805F00AFC034618460BF0CAFEDF
:104930000346FB63FB6B002B02D0FB6B242B04D9DB
:104940004B49F86806F0B6FD89E00321B86805F028
:10495000F5FB034618460BF0B5FE0346BB63BB6B85
:10496000642B04D94349F86806F0A4FD77E00421DC
:10497000B86805F0E3FB034618460BF0A3FE0346B8
:104980007B637B6B002B04D13B49F86806F092FDFA
:1049900065E00521B86805F0D1FB034618460BF029
:1049A00091FE03463B633B6B002B04D13349F8680F
:1049B00006F080FD53E00621B86805F0BFFB034612
:1049C00018460BF07FFE0346FB62FB6A002B04D106
:1049D0002B49F86806F06EFD41E07A6B3B6B1A4498
:1049E000FB6A13443A6C02FB03F3264AA2FB03233F
:1049F0001B0CBB62BB6AB3F5006F04D92249F8688F
:104A000006F058FD2BE03B6C7B61FB6BDBB23B7629
:104A1000BB6BDBB27B767B6B9BB27B833B6B9BB2CE
:104A2000BB83FB6A9BB2FB83BB6A3B62174A3B6C4E
:104A3000B2FBF3F37B62164B1B6807F114021146BD
:104A40001846FEF79DFC0346002B04D11149F86877
:104A500006F030FD03E01049F86806F02BFD4837FA
:104A6000BD4680BDCC4D010850F80C00384E010801
:104A7000604E01087C4E01089C4E0108C04E0108A2
:104A8000E84E0108D34D62100C4F010840420F0060
:104A9000140000201C46010824460108F0B591B01E
:104AA00006AFF860B9607A60104B1B6807F114021A
:104AB00011461846FEF7A4FC7A693B7E1E467B7EB3
:104AC00019467B8B1846BB8B1C46FB8B1D463B6AED
:104AD0000493039502940190009133460449F868C9
:104AE00006F0E8FC00BF2C37BD46F0BD14000020E6
:104AF000344F010880B584B000AFF860B9607A60C7
:104B00000C4B1B681846FEF78FFC0346002B04D0A5
:104B10000949F86806F0CEFC07E0084B1B68184608
:104B2000FEF7E2FC064B01221A7000BF1037BD46AB
:104B300080BD00BF14000020D04F010818000020E5
:104B40003844002080B588B000AFF860B9607A6062
:104B5000B86805F029FB0346FB61FB69032B04D011
:104B60003349F86806F0A6FC5FE0324B1B6893F807
:104B70004830052B10D02F4B1B6893F84830032B7F
:104B80000AD02C4B1B6893F84830042B04D02A49D8
:104B9000F86806F08FFC48E00121B86805F0CEFA0D
:104BA000034618460BF08EFD0346BB61BB69B3F5A7
:104BB000001F04D32149F86806F07CFC35E002218F
:104BC000B86805F0BBFA034618460BF07BFD0346B8
:104BD0007B61BB69C3F500137A699A4203D87B698C
:104BE000B3F5007F08D2BB69C3F500131A46144918
:104BF000F86806F05FFC18E00321B86805F09EFA3B
:104C0000034618460BF05EFD0346FB74FB7C012B4C
:104C100004D90C49F86806F04DFC06E0054B18680D
:104C2000FB7C7A69B969FEF7A5FA2037BD4680BDDD
:104C3000F04F0108140000202850010848500108D6
:104C400074500108A050010880B584B000AFF8602E
:104C5000B9607A60084B1B78002B05D0074B1B68A6
:104C60001846FEF7ADFA04E00549F86806F022FCA4
:104C700000BF1037BD4680BD38440020140000201E
:104C8000D850010880B400AF024B1846BD465DF80D
:104C9000047B70474C5B010880B400AF2E2318469C
:104CA000BD465DF8047B704780B483B000AF786088
:104CB0007B68DB6903F02003202B01D1012300E096
:104CC000002318460C37BD465DF8047B704780B45E
:104CD00083B000AF78607B685B6ADBB218460C3744
:104CE000BD465DF8047B704780B500AF4FF480622D
:104CF0000849094806F07AFF4FF4805207490848EE
:104D000006F074FF064B044A0649074806F0E9FC22
:104D100000BF80BD14450020EC4400201449002051
:104D20000045002000140140DC440020B0B588B0EC
:104D300000AF1B4B3C1D1D460FCD0FC495E807006F
:104D400084E80700FFF79EFF0346BB61FFF7A4FF5F
:104D50000346BB833B1D184604F0F3FF0346114A8C
:104D60001360104B1B68002B05D101210E4802F087
:104D7000FBF8012310E00B4B1B680C4A1A60094B2F
:104D80001C683B1D184604F0ABFF03461A46084951
:104D9000204606F08FFB002318462037BD46B0BDE5
:104DA0001C510108185900209C5F0108B54D0008EE
:104DB000FC50010880B582B000AF78600B46FB70F4
:104DC000FB781946034806F00FFD00BF0837BD46C3
:104DD00080BD00BFDC44002080B584B002AF7860A5
:104DE00039607B68002B03D10021154802F0BCF824
:104DF00078683B68DA683B681B6900931346114A80
:104E0000114907F0B3F97B6820337A680621184608
:104E100007F018FA3B685A687B68DA613B689A6861
:104E20007B689A613B681A687B685A617B682033AB
:104E3000184607F049FA00BF0837BD4680BD00BFDD
:104E40009C5F0108514F0008D14E000880B588B022
:104E500002AFFFF749FF022300931E233C220D49B6
:104E60000D4806F09EFDFFF761FF0C4B7B600C4B7D
:104E70001B68BB600B4BFB600B4B3B61064B7B61C4
:104E80003B1D19460948FFF7A7FF00BF1837BD466D
:104E900080BD00BF84440020C0440020994F00081A
:104EA00018590020DC440020804400203C440020AD
:104EB00080B582B000AF0346FB71FB791946034809
:104EC00007F06EF900BF0837BD4680BD3C440020A6
:104ED00080B582B000AF786039607B68002B03D169
:104EE0000721154802F040F87B689B69184606F0D8
:104EF00014FC7B6820330A220A21184607F0C4F903
:104F00000E4B1B680E49184606F0D4FA0B4B1B6873
:104F10000C49184606F0CEFA084B1B680A49184699
:104F200006F0C8FA054B1B680849184606F0C2FA95
:104F300000BF0837BD4680BD9C5F0108185900209E
:104F4000385101086851010888510108A45101082D
:104F500080B584B000AF786039607B685B69FB60C6
:104F60007B685B693968786898470346FB72FB7A0F
:104F7000002B08D1FB680649786898477B685B6915
:104F800004497868984700BF1037BD4680BD00BF10
:104F9000A85F0108A45F010880B582B000AF786007
:104FA00039607B68002B03D10321244801F0DCFF2A
:104FB0003B68002B03D10421204801F0D5FF3B685A
:104FC0001B88013B072B34D801A252F823F000BF05
:104FD000F14F000833500008035000083350000818
:104FE00033500008115000081F50000829500008D5
:104FF0007B6820330A220A21184607F045F901236D
:1050000018E07B682033184607F05EF9012311E0B1
:105010000B4B1B68184604F046FF01230AE07B682F
:10502000084A5A61002305E07B68074A5A61002359
:1050300000E0022318460837BD4680BD9C5F01088A
:1050400018590020DD500008ED51000880B582B0ED
:1050500000AF0B48FFF728FE0346002B0BD0084893
:10506000FFF735FE0346FB71064B1B68FA791146C4
:10507000184604F0F5FE00BF0837BD4680BD00BFEE
:10508000001401401859002080B584B000AF78604A
:105090007B689B69184606F051FCF860FB68002BA2
:1050A00008D0064B1B78002B04D07B6804491846B7
:1050B00007F0A0F800BF1037BD4680BD145900208E
:1050C000AC5F010880B500AFFFF7C0FF0248FFF7F3
:1050D000DBFF00BF80BD00BF3C44002080B584B032
:1050E00000AF786039600023FB603B681B88012BB0
:1050F00027D0092B46D074E0786800F00DFA1BE049
:105100007B689A697B6893F83D3019467B680B444D
:1051100093F838301946104606F066FBF860FB68D5
:10512000002B01D001235DE07B6893F83D30013313
:10513000DAB27B6883F83D207B6893F83D30042B1E
:10514000DED97B685B6B002BD6D11BE07B689A694C
:105150007B6893F83D3019467B680B4493F83830F0
:105160001946104606F040FBF860FB68002B01D0A2
:10517000012337E07B6893F83D300133DAB27B6876
:1051800083F83D207B6893F83D30042BDED924E082
:10519000786800F0C1F91BE07B689A697B6893F836
:1051A0003D3019467B680B4493F838301946104659
:1051B00006F01AFBF860FB68002B01D0012311E018
:1051C0007B6893F83D300133DAB27B6883F83D2089
:1051D0007B6893F83D30042BDED97B685B6B002B3A
:1051E000D6D1022318461037BD4680BD80B586B0A3
:1051F00000AF786039603B681B88013B0A2B00F2E6
:10520000018101A252F823F035520008055400082C
:10521000055400080554000805540008055400080A
:10522000055400080554000843530008DF520008E5
:10523000BB530008764B1B6C5B00764A1A40764BDA
:1052400013433B613B691B0CDBB23B733B691B0A9D
:10525000DBB27B733B69DBB2BB730023FB750DE0F4
:105260007B689A69FB7D18333B4413F80C3C194664
:10527000104606F0B9FAFB7D0133FB75FB7D022B6E
:10528000EED9664B1B681846FDF7BEFF0123BAE056
:10529000786800F016F91DE07B689A697B6893F8DE
:1052A000403019467B680B4493F83E30194610464F
:1052B00006F09AFA0346002B04D0594B01221A70CB
:1052C0000123A0E07B6893F840300133DAB27B68B9
:1052D00083F840207B6893F84030012BDCD97B6851
:1052E0005B6B002BD4D14D4B1B681846FDF7ACFF10
:1052F000012388E07B689A697B6893F840301946FF
:105300007B680B4493F83E301946104606F06CFA61
:105310000346002B01D0012375E07B6893F84030F1
:105320000133DAB27B6883F840207B685B6B002B2B
:1053300007D13B4B00221A70384B1B681846FDF70B
:1053400083FF7B6893F84030012BD3D92FE0786836
:1053500000F0B7F81AE07B689A697B6893F84030F0
:1053600019467B680B4493F83E301946104606F008
:105370003BFA0346002B01D0012344E07B6893F8FD
:1053800040300133DAB27B6883F840207B6893F8C1
:105390004030012BDFD97B685B6B002B07D1204BA2
:1053A00000221A701D4B1B681846FDF74DFF7B68E5
:1053B0005B6B002BCBD1012325E07B68B3F8423037
:1053C0001B0A9BB2DBB23B737B68B3F84230DBB2A3
:1053D0007B730023BB750DE07B689A69BB7D183336
:1053E0003B4413F80C3C1946104606F0FDF9BB7D12
:1053F0000133BB75BB7D012BEED97B68094A5A612D
:10540000002300E0022318461837BD4680BD00BFC8
:105410005C430020FEFF3F000000C0FF1C00002096
:1054200014590020994F000880B485B000AF78600F
:105430000B467B807B881B0A9BB2DBB23B737B886D
:10544000DBB27B730023FB7331E07B681B881AB2ED
:10545000FB7B10333B4413F8043C1BB21B021BB212
:1054600053401BB29AB27B681A800023BB7318E0CA
:105470007B681B881BB2002B0ADA7B681B881BB277
:105480005B001AB241F2210353401BB29BB203E00E
:105490007B681B885B009BB27A681380BB7B0133FF
:1054A000BB73BB7B072BE3D9FB7B0133FB73FB7B1C
:1054B000012BCAD900BF00BF1437BD465DF8047B7D
:1054C000704780B584B000AF78607B681B6B991C17
:1054D0007A6811631B88FB817B685B6B5A1E7B6853
:1054E0005A637B684233FA8911461846FFF79CFFDE
:1054F000FB891B0A9BB2DAB27B6883F83E20FB89EA
:10550000DAB27B6883F83F207B68002283F8402072
:1055100000BF1037BD4680BDB0B588B000AF786021
:105520002B4B07F10C041D460FCD0FC42B682370C5
:105530007B681B6B991C7A6811631B88FB837B68F3
:105540005B6B5A1E7B685A63FB8B1B0B9BB203F091
:105550000F0320333B4413F8142C7B6883F8382066
:10556000FB8B1B0A9BB203F00F0320333B4413F861
:10557000142C7B6883F83920FB8B1B099BB203F04A
:105580000F0320333B4413F8142C7B6883F83A2034
:10559000FB8B03F00F0320333B4413F8142C7B6880
:1055A00083F83B207B68202283F83C207B68002224
:1055B00083F83D207B685B6B002B04D1054B1B6897
:1055C0001846FDF741FE00BF2037BD46B0BD00BF05
:1055D000D05101081C00002080B584B002AF786073
:1055E000396078683B685A683B689B68009313464B
:1055F000134A144906F0BAFD7B6814337A682621F1
:10560000184606F01FFE7B6824337A682721184667
:1056100006F018FE3B681A687B685A637B684FF493
:105620007A729A637B68FF2283F83C207B6814338C
:10563000184606F049FE00BF0837BD4680BD00BFD2
:10564000FD5600088D56000880B586B002AF0223D3
:105650000093012302220949094806F0A2F9094AE8
:105660003B1D07CA83E807003B1D19460648FFF7A4
:10567000B3FF00BF1037BD4680BD00BF7CD90020FE
:105680005CD90020E45101081CD9002080B582B00B
:1056900000AF7860396006F0F5FB7B6803F1140019
:1056A0007B689B6B99B27B689B6B9BB21A4606F03A
:1056B000EBFD02F0B7FA084806F02FF802F090FA76
:1056C00002F0A0FA01F018FD01F028FD01F0B8FF8A
:1056D00000BF0837BD4680BD18DE012080B582B00E
:1056E00000AF0346FB71FB791946034806F058FDED
:1056F00000BF0837BD4680BD1CD9002080B582B0F0
:1057000000AF786039603B681B88262B06D102F019
:1057100080FA01F00BFD786800F006F801231846C6
:105720000837BD4680BD000090B591B000AF7860ED
:1057300007F12C0300221A605A609A60DA6007F1C0
:105740001C0300221A605A609A60DA6007F10C03A9
:1057500000221A605A609A60DA60374BD3ED027A01
:10576000B7EEE77A07F12C0303211846B0EE470B9A
:1057700000F074F807F12C031A463049304806F05F
:1057800079F8304B93ED007B9FED295B87EE056B3D
:1057900007F11C0303211846B0EE460B00F05EF83B
:1057A000294B93ED007B07F10C0303211846B0EE63
:1057B000470B00F053F807F10C0307F11C022349D3
:1057C0001F4806F057F822491D4806F053F80023F9
:1057D00087F83F301DE07B6893F83C301A4697F815
:1057E0003F3042FA03F303F00103002B0CD097F88B
:1057F0003F4097F83F30184601F036FF03462246F7
:1058000014490F4806F036F897F83F30013387F80F
:105810003F3097F83F30072BDDD90F49084806F095
:1058200029F800BF4437BD4690BD00BFAFF30080EC
:1058300000000000000059408CDA0020F0510108FF
:1058400018DE0120A8DF0220A0DF02200452010898
:1058500020520108285201083452010880B58CB04A
:1058600000AF87ED040BF8600B46FB7297ED047BED
:10587000B5EEC07BF1EE10FA0AD5FB685A1CFA604F
:105880002D221A7097ED047BB1EE477B87ED047BE8
:1058900097ED047BFCEEC77B17EE903A3B623B6AC8
:1058A00007EE903AB8EE677B97ED046B36EE477BD8
:1058B00087ED0A7B3A6A2549F8680BF011FD02E092
:1058C000FB680133FB60FB681B78002BF8D1FB7A87
:1058D000002B34D0FB685A1CFA602E221A70002369
:1058E00087F8273026E097ED0A7BB2EE046B27EEAF
:1058F000067B87ED0A7B97ED0A7BFCEEC77BC7ED45
:10590000017A3B79FB77FB685A1CFA60FA7F3032E8
:10591000D2B21A70FB7F07EE903AB8EEE77B97EDB4
:105920000A6B36EE477B87ED0A7B97F82730013309
:1059300087F8273097F82720FB7A9A42D3D3FB6861
:1059400000221A7000BF3037BD4680BD38520108B2
:1059500080B584B000AF786039603B681B88162B37
:1059600020D0162B63DC012B02D0032B13D05EE07A
:10597000082001F05BF97B682033184606F0A4FC90
:10598000786800F0FDFD786800F047FE7B68012232
:105990009A6101234CE04FF4FA71082001F028F9D4
:1059A000012345E03B689B78042B3ED17B6893F84C
:1059B0003030002B09D10121786800F0BBFB7868FA
:1059C00000F0E3FB786800F0DBFD7B6893F848307B
:1059D00018467B6893F8493019467B68B3F9502024
:1059E0007B68B3F9523001F06FFE0346002B04D000
:1059F0007B68114A5A6100231AE07B6893F84830AB
:105A0000184601F031FE0346FB817B68B3F958303C
:105A1000B7F90E209A4203DD7B68084A5A6102E01A
:105A20007B68074A5A61002302E0022300E0022358
:105A300018461037BD4680BD715F0008455A000802
:105A4000815B000880B584B000AF786039603B6846
:105A50001B88013B152B00F2878001A252F823F02E
:105A6000B95A0008695B0008E35A0008695B00083E
:105A7000695B0008695B0008695B0008695B0008F6
:105A8000695B0008695B0008695B0008695B0008E6
:105A9000695B0008695B0008695B0008695B0008D6
:105AA000695B0008695B0008695B0008695B0008C6
:105AB000F15A0008535B0008062006F0E9F97B68FC
:105AC0000022DA61786800F0B4FB786800F034FDF9
:105AD0007B68203364226421184606F0D5FB01233D
