:020000040800F2
:1000000000000820D52E0008792C0008812C00085B
:10001000892C0008912C0008992C00080000000091
:10002000000000000000000000000000A12C0008FB
:10003000AF2C000800000000BD2C0008CB2C0008ED
:10004000252F0008252F0008252F0008252F000840
:10005000252F0008252F0008252F0008252F000830
:10006000252F0008252F0008252F0008252F000820
:10007000E72C0008252F0008252F0008252F000851
:10008000252F0008252F0008252F0008252F000800
:10009000252F0008252F0008252F0008252F0008F0
:1000A000252F000855780008252F0008252F000867
:1000B000A1780008252F0008252F0008252F00080B
:1000C000252F0008252F0008252F0008252F0008C0
:1000D000252F0008F32C0008252F0008252F0008E5
:1000E000252F0008252F0008252F0008252F0008A0
:1000F000252F0008252F0008252F0008252F000890
:10010000252F0008252F0008252F0008252F00087F
:10011000252F0008252F0008252F0008252F00086F
:10012000252F0008FF2C00080D2D0008197C000861
:10013000192D0008252F0008252F0008252F00085D
:10014000252F0008252F0008252F0008252F00083F
:10015000252F0008097B0008252F0008B14E000854
:10016000252F0008252F0008252F0008252F00081F
:10017000252F0008252F0008252F0008000000006B
:10018000252F0008252F000805330008252F00081B
:10019000252F0008252F0008252F0008252F0008EF
:1001A0000000000000000000252F0008252F000897
:1001B000252F0008252F0008252F0008252F0008CF
:1001C000252F0008252F000800000000252F00081B
:1001D000252F0008252F0008252F0008252F0008AF
:1001E000252F0008252F0008252F0008252F00089F
:0801F00000000000252F0008AB
:1002000010B5054C237833B9044B13B10448AFF350
:1002100000800123237010BD18430020000000005F
:10022000F82E010808B5034B1BB103490348AFF38F
:10023000008008BD000000001C430020F82E0108CB
:1002400010F8012B11F8013B012A28BF9A42F7D080
:10025000D01A7047000000000000000000000000FD
:1002600001F0FF01102A2BDB10F0070F08D010F867
:10027000013B013A8B422DD010F0070F42B3F6D16B
:10028000F0B441EA012141EA014122F007047FF084
:1002900000070023F0E80256083C85EA010586EADB
:1002A000010685FA47F5A3FA87F586FA47F6A5FA17
:1002B00087F68EB9EED1F0BC01F0FF0102F0070223
:1002C00032B110F8013B013A83EA010313B1F8D1CE
:1002D0000020704701387047002D06BF35460338AF
:1002E000073815F0010F07D1013015F4807F02BFE8
:1002F000013015F4C03F0130F0BC0138704700BF39
:10030000034613F8012B002AFBD1181A0138704755
:100310007BB972B90029BEBF00204FF0004106E052
:1003200008BF00281CBF6FF000414FF0FF3000F005
:10033000D3B9ADF1080C6DE904CE002909DB002B1F
:100340001ADB00F04DF8DDF804E0DDE9022304B02B
:100350007047404261EB4101002B1BDB00F040F88D
:10036000DDF804E0DDE9022304B0404261EB410125
:10037000524263EB43037047524263EB430300F086
:100380002FF8DDF804E0DDE9022304B0404261EB20
:1003900041017047524263EB430300F021F8DDF85E
:1003A00004E0DDE9022304B0524263EB43037047EB
:1003B00053B94AB9002908BF00281CBF4FF0FF31CC
:1003C0004FF0FF3000F088B9ADF1080C6DE904CEB4
:1003D00000F006F8DDF804E0DDE9022304B0704720
:1003E0002DE9F047089D8E4604468846002B4AD1E9
:1003F0008A42174662D9B2FA82F64EB1C6F120039C
:1004000001FA06F820FA03F3B74043EA0808B440BB
:100410004FEA174E1FFA87FCB8FBFEF1230C0EFBC8
:10042000118843EA084301FB0CF29A4209D9FB18F0
:1004300001F1FF3080F0EA809A4240F2E780023911
:100440003B449A1AA3B2B2FBFEF00EFB102243EA21
:10045000024300FB0CFC9C4509D9FB1800F1FF325C
:1004600080F0D6809C4540F2D3803B44023840EA7D
:100470000140A3EB0C0300211DB1F3400022C5E9AC
:100480000032BDE8F0878B4205D90DB1C5E9000106
:1004900000210846F5E7B3FA83F1002946D17345F8
:1004A00002D3824200F20581841A6EEB030201201E
:1004B0009046002DE5D0C5E90048E2E7002A00F0AB
:1004C0009080B2FA82F6002E40F0A4808A1A030CC3
:1004D0004FEA174E80B2BCB20121B2FBFEFC0EFB0C
:1004E0001C2243EA024304FB0CF29A4207D9FB1890
:1004F0000CF1FF3802D29A4200F2E080C4469B1A07
:10050000B3FBFEF20EFB123340EA034302FB04F49A
:100510009C4207D9FB1802F1FF3002D29C4200F244
:10052000CA8002461B1B42EA0C40A5E7C1F1200627
:100530008B4022FA06F71F430EFA01F420FA06F365
:100540002EFA06FE4FEA1749234300FA01F81FFA74
:1005500087FCBEFBF9F01C0C09FB10EE44EA0E44CC
:1005600000FB0CFEA64502FA01F209D93C1900F184
:10057000FF3A80F09C80A64540F2998002383C44C6
:10058000A4EB0E041FFA83FEB4FBF9F309FB13443A
:100590004EEA044403FB0CFCA44508D93C1903F1C2
:1005A000FF3E80F08280A4457FD9023B3C4443EA71
:1005B0000040A4EB0C04A0FB02EC64457346E1464A
:1005C00062D35FD05DB1B8EB030264EB090404FAB7
:1005D00006F622FA01F31E43CC40C5E9006400216F
:1005E0004FE7B1FBF2FC010C41EA0E4180B240EA58
:1005F00001423B4638463C46B846BE462026B1FB43
:10060000F7F1A2EB080241EA0C4166E7014618E760
:1006100010462CE7C6F120022EFA02F3B740B14093
:1006200020FA02F24FEA174E0A43B3FBFEF8BCB2BF
:100630000EFB1833110C41EA034108FB04F9B040EA
:1006400089454FEA104380B23ED9791808F1FF3C42
:1006500001D289451FD8A1EB0901B1FBFEF909FBC5
:1006600004F80EFB191192B242EA0142424529D226
:10067000BA1809F1FF31C4D24245C2D2A9F1020130
:100680003A44BEE7F0459DD2BEEB02036CEB070C8B
:100690000138E14696E7A7EB09094944A8F1020CA5
:1006A000B1FBFEF909FB04F8DBE773467FE7504630
:1006B00066E70846FDE63B44023A33E7ACF1020C3C
:1006C0003B441CE749469CE7A1EB0901C446B1FB4A
:1006D000FEF909FB04F8C4E7704700BF80B400AF1F
:1006E000044BDB681B0A03F007031846BD465DF8A0
:1006F000047B704700ED00E080B483B000AF034698
:10070000FB7197F90730002B0BDBFB7903F01F021D
:10071000074997F907305B09012000FA02F241F816
:10072000232000BF0C37BD465DF8047B704700BF37
:1007300000E100E080B483B000AF03463960FB7194
:1007400097F90730002B0ADB3B68DAB20C4997F9BE
:1007500007301201D2B20B4483F800230AE03B6851
:10076000DAB20849FB7903F00F03043B1201D2B25D
:100770000B441A7600BF0C37BD465DF8047B70470A
:1007800000E100E000ED00E080B489B000AFF86067
:10079000B9607A60FB6803F00703FB61FB69C3F192
:1007A0000703042B28BF0423BB61FB690433062B1A
:1007B00002D9FB69033B00E000237B614FF0FF326D
:1007C000BB6902FA03F3DA43BB681A407B699A40BB
:1007D0004FF0FF317B6901FA03F3D9437B680B408B
:1007E000134318462437BD465DF8047B704780B438
:1007F00089B000AFF860B9607A60FB682C331946A5
:10080000BB6803F440734FF44072BA61BA6992FA5C
:10081000A2F27A617A69B2FA82F2D2B2D3409B0034
:100820000B44FB61FB691A68BB6803F01F031F21BF
:1008300001FA03F3DB431A407B6803F01F01BB6836
:1008400003F01F0301FA03F31A43FB691A6000BFA8
:100850002437BD465DF8047B704780B483B000AF99
:10086000786039607B689B6823F480623B681A4338
:100870007B689A6000BF0C37BD465DF8047B70470B
:1008800080B48DB000AFF860B9607A60FB680C335B
:100890001946BB6803F000734FF00072BA61BA6981
:1008A00092FAA2F27A617A69B2FA82F2D2B2D340B3
:1008B0009B000B44FB62FB6A1A68BB6803F0F87389
:1008C0004FF0F8713962396A91FAA1F1F961F96969
:1008D000B1FA81F1C9B2CB40072101FA03F3DB433E
:1008E0001A40BB6803F0F8734FF0F871B962B96A47
:1008F00091FAA1F17962796AB1FA81F1C9B2CB407A
:10090000796801FA03F31A43FB6A1A6000BF3437AF
:10091000BD465DF8047B704780B485B000AFF860D9
:10092000B9607A600D4ABB6813441B781A46FB68AD
:1009300013441B6823F0C0020849BB680B441B78B2
:100940001946FB680B4419467B6813430B6000BFD4
:100950001437BD465DF8047B704700BFAC4E0108FC
:1009600080B485B000AFF860B9607A600D4ABB68AA
:1009700013441B781A46FB6813441B6823F49072D7
:100980000849BB680B441B781946FB680B441946A1
:100990007B6813430B6000BF1437BD465DF8047BD2
:1009A000704700BFAC4E010880B485B000AFF8605E
:1009B000B9607A600D4ABB6813441B781A46FB681D
:1009C00013441B6823F400720849BB680B441B786E
:1009D0001946FB680B4419467B6813430B6000BF44
:1009E0001437BD465DF8047B704700BFAC4E01086C
:1009F00080B485B000AFF860B9607A600D4ABB681A
:100A000013441B781A46FB6813441B6823F4806266
:100A10000849BB680B441B781946FB680B44194610
:100A20007B6813430B6000BF1437BD465DF8047B41
:100A3000704700BFAC4E010880B485B000AFF860CD
:100A4000B9607A600D4ABB6813441B781A46FB688C
:100A500013441B6823F4C0520849BB680B441B783D
:100A60001946FB680B4419467B6813430B6000BFB3
:100A70001437BD465DF8047B704700BFAC4E0108DB
:100A800080B485B000AFF860B9607A600D4ABB6889
:100A900013441B781A46FB6813441B6823F4C042B6
:100AA0000849BB680B441B781946FB680B44194680
:100AB0007B6813430B6000BF1437BD465DF8047BB1
:100AC000704700BFAC4E010880B485B000AFF8603D
:100AD000B9607A600D4ABB6813441B781A46FB68FC
:100AE00013441B6823F440320849BB680B441B784D
:100AF0001946FB680B4419467B6813430B6000BF23
:100B00001437BD465DF8047B704700BFAC4E01084A
:100B100080B485B000AFF860B9607A600D4ABB68F8
:100B200013441B781A46FB6813441B6823F0F052E9
:100B30000849BB680B441B781946FB680B441946EF
:100B40007B6813430B6000BF1437BD465DF8047B20
:100B5000704700BFAC4E010880B483B000AF78602E
:100B600039600C4A3B6813441B781A467B6813446F
:100B70005B6908493A680A44127811467A680A445F
:100B800023F00403536100BF0C37BD465DF8047BBE
:100B9000704700BFAC4E010880B483B000AF7860EE
:100BA0007B681B6843F001027B681A6000BF0C374A
:100BB000BD465DF8047B704780B483B000AF7860B9
:100BC0007B681B6823F400327B681A6000BF0C3717
:100BD000BD465DF8047B704780B483B000AF786099
:100BE0007B681B6823F400227B681A6000BF0C3707
:100BF000BD465DF8047B704780B485B000AFF860F7
:100C0000B9607A60FB68DA68064B1340B9687A68A5
:100C10000A431A43FB68DA6000BF1437BD465DF82B
:100C2000047B704701F8FFFF80B483B000AF7860A9
:100C30007B68DB6823F400427B68DA6000BF0C3716
:100C4000BD465DF8047B704780B483B000AF786028
:100C50007B685B6843F000727B685A6000BF0C37AA
:100C6000BD465DF8047B704780B483B000AF786008
:100C70007B681B6843F040027B681A6000BF0C373A
:100C8000BD465DF8047B704780B483B000AF7860E8
:100C900039607B685B6823F010023B681A437B680D
:100CA0005A6000BF0C37BD465DF8047B704780B4C6
:100CB00083B000AF78607B685B6843F008027B68B4
:100CC0005A6000BF0C37BD465DF8047B704780B4A6
:100CD00083B000AF78607B685B6823F008027B68B4
:100CE0005A6000BF0C37BD465DF8047B704780B486
:100CF00083B000AF78607B681B6843F080027B683C
:100D00001A6000BF0C37BD465DF8047B704780B4A5
:100D100083B000AF78607B681B6823F080027B683B
:100D20001A6000BF0C37BD465DF8047B70470000B9
:100D300080B485B000AF786039603B68012B28D063
:100D40003B68042B23D03B68102B1ED03B68402B04
:100D500019D03B68B3F5807F13D03B68B3F5806F43
:100D60000DD03B68B3F5805F07D03B68B3F5803F9B
:100D700001D107230EE008230CE006230AE0052337
:100D800008E0042306E0032304E0022302E0012339
:100D900000E00023FB737B6818331946FB7B0B4A8A
:100DA000D35C0B44BB60BB681A68FB7B0849CB5C17
:100DB000194604238B40DB431A40BB681A6000BF0E
:100DC0001437BD465DF8047B704700BFB44E010880
:100DD000C04E010880B485B000AF786039603B68D0
:100DE000012B28D03B68042B23D03B68102B1ED04E
:100DF0003B68402B19D03B68B3F5807F13D03B682C
:100E0000B3F5806F0DD03B68B3F5805F07D03B68CA
:100E1000B3F5803F01D107230EE008230CE0062341
:100E20000AE0052308E0042306E0032304E002238C
:100E300002E0012300E00023FB737B6818331946AE
:100E4000FB7B0A4AD35C0B44BB60BB681A68FB7B24
:100E50000749CB5C194608238B401A43BB681A60CC
:100E600000BF1437BD465DF8047B7047B44E0108DF
:100E7000C04E010880B483B000AF786039607B68F1
:100E80009A68064B13403A681A437B689A6000BF21
:100E90000C37BD465DF8047B704700BFF8BFFEFF0E
:100EA00080B483B000AF786039607B685B6823F002
:100EB00070023B681A437B685A6000BF0C37BD461E
:100EC0005DF8047B704780B483B000AF7860396010
:100ED0007B685B6823F470023B681A437B685A6046
:100EE00000BF0C37BD465DF8047B704780B483B00B
:100EF00000AF78607B689B6823F080027B689A6013
:100F000000BF0C37BD465DF8047B704780B483B0EA
:100F100000AF78607B681B6843F001027B681A6051
:100F200000BF0C37BD465DF8047B704780B483B0CA
:100F300000AF78607B685B6823F490427B685A60FE
:100F40007B689B6823F02A027B689A6000BF0C379D
:100F5000BD465DF8047B704780B483B000AF786015
:100F600039607B683A689A6100BF0C37BD465DF80E
:100F7000047B704780B483B000AF786039603B6811
:100F80001A047B689A6100BF0C37BD465DF8047B8C
:100F90007047000080B485B000AF7860084B1A6BD2
:100FA00007497B6813430B63054B1A6B7B6813403F
:100FB000FB60FB6800BF1437BD465DF8047B7047DB
:100FC0000038024080B485B000AF7860084B1A6CDE
:100FD00007497B6813430B64054B1A6C7B6813400D
:100FE000FB60FB6800BF1437BD465DF8047B7047AB
:100FF0000038024080B485B000AF7860084B5A6C6E
:1010000007497B6813434B64054B5A6C7B6813405C
:10101000FB60FB6800BF1437BD465DF8047B70477A
:101020000038024080B500AF0BF0BCFD00F02CF89A
:1010300001F0F0FA01F072FA00F052FB00F0EAFB66
:1010400000F0AEFC00F05EFD00F08EF800F0D8FD80
:1010500000F0B8FF01F090F800F050FE01F028F920
:1010600001F0C2F900F0D4F900F082FA00F022FF9A
:1010700000F066FF00F012FB01F055FF01F05DFF8C
:1010800001F068FF00BFFDE780B594B000AF07F145
:101090001C033422002118460FF07AFC07F10803E4
:1010A00000221A605A609A60DA601A612C4B1B6C3D
:1010B0002B4A43F080531364294B1B6C03F080537D
:1010C0007B607B68274B1B68264A43F440431360D0
:1010D000244B1B6803F440433B603B680923FB61DE
:1010E0004FF480333B6201233B6302237B634FF465
:1010F0008003BB630C23FB63C0233B6402237B643C
:101100000223BB640223FB6407F11C0318460CF0A6
:1011100047F80346002B01D001F064FD0BF0F0FF0F
:101120000346002B01D001F05DFD0F23BB600223BD
:10113000FB6000233B614FF4A0537B614FF480536D
:10114000BB6107F10803062118460CF0D7FA0346E5
:10115000002B01D001F046FD00BF5037BD4680BDD9
:10116000003802400070004080B592B000AF07F137
:101170003C0300221A605A609A6007F1280300229B
:101180001A605A609A60DA601A6107F11803002247
:101190001A605A609A60DA603B4600221A605A6010
:1011A0009A60DA601A615A614FF48070FFF722FF8B
:1011B0000420FFF7EFFE0220FFF7ECFE01233B6067
:1011C00003237B6000233B613B46194684480DF0B6
:1011D0001EFA02233B6003237B6000233B613B46F6
:1011E00019467F480DF013FA04233B6003237B600C
:1011F00000233B613B46194679480DF008FA082365
:101200003B6003237B6000233B613B4619467448E7
:101210000DF0FDF910233B6003237B6000233B614D
:101220003B4619466E480DF0F2F920233B6003233C
:101230007B6000233B613B46194669480DF0E7F9A6
:1012400001233B6003237B6000233B613B4619463F
:1012500064480DF0DCF902233B6003237B6000232C
:101260003B613B4619465F480DF0D1F9002204214D
:101270005D48FFF74DFC002204215B48FFF74CFB63
:10128000002204215848FFF71FFC4FF4807204210C
:101290005548FFF765FB002204215348FFF784FB04
:1012A0004FF4806204215048FFF7A2FB4FF4006224
:1012B00004214D48FFF7C0FB4FF4005204214A4877
:1012C000FFF7DEFB04214848FFF746FC0023FB63E1
:1012D00000233B644FF480737B6407F13C031946A1
:1012E00042480DF01BF80023BB624FF4E003FB62A1
:1012F00000233B6300237B634FF44073BB6307F120
:101300002803194639480DF035F800213748FFF712
:10131000A4FA4FF48033BB610023FB6107F118038B
:10132000194633480CF0B2FF0A224FF400712F48DF
:10133000FFF75DFA01220A212C48FFF7A1FA2D4A96
:1013400040F205212948FFF752FA0122294927488E
:10135000FFF796FA284A40F20A212448FFF747FA95
:10136000012225492148FFF78BFA244A40F20F2138
:101370001E48FFF73CFA012220491C48FFF780FA7B
:101380001F4A4FF405711948FFF731FA01221C4931
:101390001648FFF775FA1B4A40F219211348FFF768
:1013A00026FA012217491148FFF76AFA164A4FF444
:1013B00080710E48FFF71BFA012213490B48FFF713
:1013C0005FFA124A40F205110848FFF710FA0122AD
:1013D0000E490648FFF754FA00BF4837BD4680BDA6
:1013E0000008024000040240006402400020014066
:1013F000002301400B0030000C0060000D00900045
:101400000E00C0000F00F000080080030900B003C8
:1014100080B58EB000AF07F12C0300221A605A602D
:101420009A6007F1180300221A605A609A60DA6025
:101430001A613B4600221A605A609A60DA601A61AB
:101440005A614FF40070FFF7D5FD0120FFF7A2FDB0
:1014500004233B6003237B6000233B613B4619462A
:101460003E480DF0D4F808233B6003237B60002343
:101470003B613B46194639480DF0C9F84FF0007200
:1014800002213748FFF744FB002202213448FFF7CE
:1014900043FA002202213248FFF716FB4FF4807214
:1014A00002212F48FFF75CFA002202212C48FFF7A7
:1014B0007BFA4FF4806202212948FFF799FA4FF432
:1014C000006202212648FFF7B7FA4FF400520221CA
:1014D0002348FFF7D5FA02212148FFF73DFB0023FF
:1014E000FB6200233B634FF480737B6307F12C03A3
:1014F00019461C480CF012FF0023BB614FF4801307
:10150000FB6100233B6200237B624FF44073BB62AC
:1015100007F11803194613480CF02CFF4FF48061B3
:101520001048FFF79AF9104A4FF400710D48FFF781
:101530005EF901220C490B48FFF7A2F90B4A40F271
:1015400005210848FFF753F9002208490548FFF72D
:1015500097F900BF3837BD4680BD00BF000002408C
:10156000006402400021014003009002020060027A
:1015700080B58EB000AF07F12C0300221A605A60CC
:101580009A6007F1180300221A605A609A60DA60C4
:101590001A613B4600221A605A609A60DA601A614A
:1015A0005A614FF48060FFF725FD0120FFF7F2FC40
:1015B00002233B6003237B6000233B613B461946CB
:1015C00032480DF024F84FF0806201213048FFF7D7
:1015D0009FFA002201212E48FFF79EF900220121E7
:1015E0002B48FFF771FA4FF4807201212848FFF76A
:1015F000B7F9002201212648FFF7D6F94FF480629F
:1016000001212348FFF7F4F94FF40062012120483B
:10161000FFF712FA4FF4005201211D48FFF730FA8C
:1016200001211B48FFF798FA0023FB6200233B636C
:1016300000237B6307F12C03194616480CF06EFE5D
:101640000023BB610023FB6100233B6200237B621C
:101650004FF44073BB6207F1180319460D480CF0B4
:1016600089FE4FF480610B48FFF7F7F80A4A4FF400
:1016700000710848FFF7BBF8012207490548FFF74A
:10168000FFF800BF3837BD4680BD00BF00000240F4
:1016900000640240002201400100300280B500AF2A
:1016A0000D4B0E4A1A600C4B00221A710A4B002295
:1016B0005A71094B00225A61074B00229A61064B6E
:1016C00001221A6204480BF0B1FB0346002B01D043
:1016D00001F088FA00BF80BD344300200030024092
:1016E00080B5B2B000AF07F1AC0300221A605A60B7
:1016F0009A60DA601A615A619A6107F194030022D4
:101700001A605A609A60DA601A615A613B1D902231
:10171000002118460FF03CF94FF480437B60002312
:10172000BB663B1D18460CF09BF90346002B01D00D
:1017300001F058FA0220FFF72DFC4023C7F894303F
:101740000223C7F898300323C7F89C300123C7F859
:10175000A0300023C7F8A4300423C7F8A83007F14D
:101760009403194628480CF052FF8023C7F89430A0
:101770000223C7F898300323C7F89C300123C7F829
:10178000A0300023C7F8A4300423C7F8A83007F11D
:10179000940319461C480CF03AFF4FF40010FFF771
:1017A00011FC1A48FFF750FA002200211748FFF7F2
:1017B00023FA1648FFF738FA1448FFF70DFA1348D2
:1017C000FFF7FAF90023C7F8AC30114BC7F8B03077
:1017D0000023C7F8B4300023C7F8B8300023C7F897
:1017E000BC300023C7F8C0300023C7F8C43007F16D
:1017F000AC03194605480DF021F80448FFF7CCF971
:1018000000BFC837BD4680BD000402400054004000
:10181000D619400080B590B000AF07F11803282218
:10182000002118460FF0B4F83B4600221A605A60B7
:101830009A60DA601A615A614FF48050FFF7DAFB60
:101840000120FFF7A7FB10233B6002237B600323EB
:10185000BB600023FB6000233B6105237B613B46AB
:1018600019464C480CF0D3FE20233B6002237B60DA
:101870000323BB600023FB6000233B6105237B61E6
:101880003B46194643480CF0C2FE40233B6002230E
:101890007B600323BB600023FB6000233B610523C7
:1018A0007B613B4619463B480CF0B1FE80233B6010
:1018B00002237B600323BB600023FB6000233B61AA
:1018C00005237B613B46194632480CF0A0FE4FF0E1
:1018D000C06203213048FFF71BF9402203212E4844
:1018E000FFF71AF84FF4003203212B48FFF7ECF80A
:1018F000002203212848FFF733F80022032126485D
:10190000FFF752F84FF4806203212348FFF770F885
:10191000002203212048FFF78FF8002203211E48F0
:10192000FFF7AEF803211C48FFF716F9FEF7D6FEC5
:101930000346002200211846FEF726FF03461946FB
:101940002320FEF7F7FE2320FEF7D6FE0023BB611F
:101950000023FB614FF4E0633B6202237B620023C0
:10196000BB620023FB6200237B630023BB6307236E
:10197000FB6307F11803194608480DF037FB0021F7
:101980000648FFF781F90548FFF7A1F900BF403786
:10199000BD4680BD000002400064024000300140AE
:1019A00080B590B000AF07F1180328220021184637
:1019B0000EF0EEFF3B4600221A605A609A60DA6031
:1019C0001A615A614FF48040FFF7FCFA0220FFF7DA
:1019D000E1FA4FF400533B6002237B600323BB60BA
:1019E0000023FB6000233B6105237B613B461946D6
:1019F00041480CF00CFE4FF480433B6002237B60B7
:101A00000323BB600023FB6000233B6105237B6154
:101A10003B46194638480CF0FAFD4FF400433B6052
:101A200002237B600323BB600023FB6000233B6138
:101A300005237B613B4619462F480CF0E8FD4FF02B
:101A4000905201212D48FFF763F8002201212B4815
:101A5000FEF762FF4FF4403201212848FFF734F8C7
:101A60004FF4807201212548FEF77AFF0022012100
:101A70002248FEF799FF4FF4806201211F48FEF7CC
:101A8000B7FF4FF4006201211C48FEF7D5FF4FF469
:101A9000005201211948FEF7F3FF01211748FFF713
:101AA0005BF80023BB614FF48273FB614FF47063FA
:101AB0003B6200237B620023BB624FF40073FB6236
:101AC00000233B6300237B630023BB630723FB638B
:101AD00007F1180319460A480DF088FA0021084852
:101AE000FFF7D2F80648FFF7E2F80548FFF7BCF821
:101AF00000BF4037BD4680BD000402400060024088
:101B00000038004080B590B000AF07F118032822DC
:101B1000002118460EF03CFF3B4600221A605A6036
:101B20009A60DA601A615A614FF40040FFF74AFA8E
:101B30000420FFF72FFA4FF480633B6002237B60A1
:101B40000323BB600023FB6000233B6106237B6112
:101B50003B46194628480CF05AFD4FF400633B60A1
:101B600002237B600323BB600023FB6000233B61F7
:101B700006237B613B4619461F480CF048FD4FF495
:101B800080533B6002237B600323BB600023FB6028
:101B900000233B6106237B613B46194616480CF047
:101BA00036FD0023BB614FF48273FB614FF4E063A9
:101BB0003B6200237B620023BB624FF40073FB6235
:101BC00000233B6300237B630023BB630723FB638A
:101BD00007F11803194609480DF008FA00210748D3
:101BE000FFF752F80548FFF762F80448FFF73CF8A2
:101BF00000BF4037BD4680BD00080240003C0040A9
:101C000080B590B000AF07F11803282200211846D4
:101C10000EF0BEFE3B4600221A605A609A60DA60FF
:101C20001A615A614FF40050FFF7E4F91020FFF7F2
:101C3000B1F94FF480533B6002237B600323BB6008
:101C40000023FB6000233B6105237B613B46194673
:101C500028480CF0DCFC4FF400533B6002237B600F
:101C60000323BB600023FB6000233B6105237B61F2
:101C70003B4619461F480CF0CAFC4FF480433B60BA
:101C800002237B600323BB600023FB6000233B61D6
:101C900005237B613B46194616480CF0B8FC00232F
:101CA000BB614FF48273FB614FF4E0633B6200233E
:101CB0007B620123BB624FF40073FB6220233B6312
:101CC00000237B630023BB630723FB6307F1180337
:101CD000194609480DF08AF900210748FEF7D4FF9C
:101CE0000548FEF7F4FF0448FEF7BEFF00BF40378B
:101CF000BD4680BD001002400034014080B590B068
:101D000000AF07F118032822002118460EF040FE0C
:101D10003B4600221A605A609A60DA601A615A6182
:101D20004FF40010FFF766F90220FFF733F908239C
:101D30003B6002237B600323BB600023FB60002326
:101D40003B6108237B613B46194657480CF05FFC1A
:101D500010233B6002237B600323BB600023FB60F6
:101D600000233B6108237B613B4619464E480CF03B
:101D70004EFC20233B6002237B600323BB600023D7
:101D8000FB6000233B6108237B613B4619464648C4
:101D90000CF03DFC4FF0007205214448FEF7B8FE00
:101DA000402205214148FEF7B7FD4FF4403205219E
:101DB0003E48FEF789FE002205213C48FEF7D0FD93
:101DC000002205213948FEF7EFFD4FF4806205211E
:101DD0003648FEF70DFE002205213448FEF72CFEA2
:101DE000002205213148FEF74BFE05212F48FEF762
:101DF000B3FE4FF0007206212C48FEF789FE002248
:101E000006212A48FEF788FD4FF440320621274874
:101E1000FEF75AFE002206212448FEF7A1FD00220B
:101E200006212248FEF7C0FD4FF4806206211F48BC
:101E3000FEF7DEFD002206211C48FEF7FDFD002214
:101E400006211A48FEF71CFE06211848FEF784FEFC
:101E50000023BB614FF48273FB614FF4E0633B628C
:101E600000237B620023BB624FF40073FB620023FC
:101E70003B6300237B630023BB630723FB6307F102
:101E8000180319460A480DF0B1F800210848FEF77A
:101E9000FBFE0748FEF70BFF0548FEF7E5FE00BF17
:101EA0004037BD4680BD00BF0004024000640240D0
:101EB0000054014080B586B000AF3B1D00221A607F
:101EC0005A609A60DA601A610120FFF793F8FEF712
:101ED00005FC0346002200211846FEF755FC034688
:101EE00019461920FEF726FC1920FEF705FC0023F1
:101EF000BB800023BB604FF6FF73FB6000233B6198
:101F000000237B613B1D19460C480DF063F90B481B
:101F1000FEF7FDFE00210948FEF7ACFF002107484F
:101F2000FEF7BEFF00210548FEF7CDFF0348FEF790
:101F3000DDFF00BF1837BD4680BD00BF0000014077
:101F400080B586B000AF3B1D00221A605A609A60CF
:101F5000DA601A610120FFF735F8FEF7BFFB034690
:101F6000002202211846FEF70FFC034619461C20EA
:101F7000FEF7E0FB1C20FEF7BFFB0023BB80002325
:101F8000BB604FF0FF33FB6000233B613B1D1946F4
:101F90004FF080400DF01EF94FF08040FEF7A7FE95
:101FA00000214FF08040FEF765FF00214FF0804098
:101FB000FEF776FF4FF08040FEF798FF00BF18371E
:101FC000BD4680BD80B594B000AF07F13C03002250
:101FD0001A605A609A60DA601A6107F11C032022C5
:101FE000002118460EF0D4FC3B1D00221A605A60F6
:101FF0009A60DA601A615A610420FEF7E3FF0A234F
:10200000BB8700233B644CF250337B644FF4007376
:10201000BB6407F13C03194655480DF0DBF8544802
:10202000FEF775FE00215248FEF724FF01215048BB
:10203000FEF7D0FE6023FB6100233B6200237B623E
:102040000023BB620023FB6207F11C031A46012137
:1020500047480DF059F901214548FEF769FE102166
:102060004348FEF7B7FE07F11C031A46102140480B
:102070000DF04AF910213E48FEF75AFE4FF48071E8
:102080003B48FEF7A7FE07F11C031A464FF4807188
:1020900037480DF039F94FF480713548FEF748FEA6
:1020A0004FF480513248FEF795FE07F11C031A46A3
:1020B0004FF480512E480DF027F94FF480512C48F1
:1020C000FEF736FE00212A48FEF7EAFE2848FEF712
:1020D0000DFF0820FEF75EFF4FF480537B60022364
:1020E000BB600023FB6000233B6100237B61022374
:1020F000BB613B1D19461F480CF089FA4FF4005391
:102100007B600223BB600023FB6000233B61002354
:102110007B610223BB613B1D194616480CF077FA20
:102120004FF480437B600223BB600023FB600023ED
:102130003B6100237B610223BB613B1D19460D48B7
:102140000CF065FA4FF400437B600223BB60002370
:10215000FB6000233B6100237B610223BB613B1DCD
:10216000194604480CF053FA00BF5037BD4680BDF5
:1021700000080040000C024080B5B2B000AF07F18B
:10218000AC0300221A605A609A60DA601A615A61E0
:102190009A6107F1940300221A605A609A60DA602B
:1021A0001A615A613B1D9022002118460EF0F0FB87
:1021B0004FF480537B6000233B663B1D18460BF0B9
:1021C0004FFC0346002B01D000F00CFD4FF0804087
:1021D000FEF7F8FE1020FEF7DDFE8023C7F89430EE
:1021E0000223C7F898300323C7F89C300023C7F8B0
:1021F000A0300123C7F8A4300823C7F8A83007F19E
:102200009403194628480CF002FA4FF48073C7F87B
:1022100094300223C7F898300323C7F89C3000237A
:10222000C7F8A0300023C7F8A4300823C7F8A830A7
:1022300007F1940319461C480CF0E9F9FEF74EFA31
:10224000034600220B211846FEF79EFA0346194664
:102250005220FEF76FFA5220FEF74EFA4FF4E133A8
:10226000C7F8AC300023C7F8B0300023C7F8B4304B
:102270000023C7F8B8300C23C7F8BC300023C7F8D8
:10228000C0300023C7F8C43007F1AC031946074833
:102290000DF05AFB0548FEF749FE0448FEF736FEEE
:1022A00000BFC837BD4680BD001002400078004026
:1022B00080B5B2B000AF07F1AC0300221A605A60DB
:1022C0009A60DA601A615A619A6107F194030022F8
:1022D0001A605A609A60DA601A615A613B1D902256
:1022E000002118460EF054FB40237B600023BB64A2
:1022F0003B1D18460BF0B4FB0346002B01D000F049
:1023000071FC1020FEF776FE0120FEF743FE4FF42D
:102310000073C7F894300223C7F898300323C7F836
:102320009C300023C7F8A0300023C7F8A43007234F
:10233000C7F8A83007F19403194629480CF067F94B
:102340004FF48063C7F894300223C7F89830032312
:10235000C7F89C300023C7F8A0300123C7F8A43089
:102360000723C7F8A83007F1940319461C480CF05E
:102370004EF9FEF7B3F9034600220B211846FEF78B
:1023800003FA034619462520FEF7D4F92520FEF767
:10239000B3F94FF4E133C7F8AC300023C7F8B030DD
:1023A0000023C7F8B4300023C7F8B8300C23C7F8AF
:1023B000BC300023C7F8C0300023C7F8C43007F191
:1023C000AC03194607480DF0BFFA0648FEF7AEFD0C
:1023D0000448FEF79BFD00BFC837BD4680BD00BF67
:1023E000000002400010014080B5B2B000AF07F11C
:1023F000AC0300221A605A609A60DA601A615A616E
:102400009A6107F1940300221A605A609A60DA60B8
:102410001A615A613B1D9022002118460EF0B8FA4D
:102420004FF400637B600023FB653B1D18460BF0F7
:1024300017FB0346002B01D000F0D4FB2020FEF751
:10244000D9FD0420FEF7A6FD4023C7F894300223EF
:10245000C7F898300323C7F89C300023C7F8A03092
:102460000023C7F8A4300823C7F8A83007F1940365
:10247000194628480CF0CBF88023C7F89430022383
:10248000C7F898300323C7F89C300023C7F8A03062
:102490000023C7F8A4300823C7F8A83007F1940335
:1024A00019461C480CF0B3F8FEF718F90346002251
:1024B0000B211846FEF768F9034619464720FEF738
:1024C00039F94720FEF718F94FF4E133C7F8AC307B
:1024D0000023C7F8B0300023C7F8B4300023C7F892
:1024E000B8300C23C7F8BC300023C7F8C030002335
:1024F000C7F8C43007F1AC03194607480DF024FAB9
:102500000548FEF713FD0448FEF700FD00BFC8377D
:10251000BD4680BD000802400014014080B500AFF8
:102520004FF48000FEF736FD4FF40010FEF732FD49
:10253000FEF7D4F80346002200211846FEF724F9DE
:10254000034619460C20FEF7F5F80C20FEF7D4F8E8
:10255000FEF7C4F80346002200211846FEF714F9DE
:10256000034619463920FEF7E5F83920FEF7C4F88E
:10257000FEF7B4F8034600220A211846FEF704F9D4
:10258000034619463A20FEF7D5F83A20FEF7B4F88C
:10259000FEF7A4F80346002200211846FEF7F4F8DF
:1025A000034619463B20FEF7C5F83B20FEF7A4F88A
:1025B000FEF794F8034600220A211846FEF7E4F8D5
:1025C000034619463C20FEF7B5F83C20FEF794F888
:1025D000FEF784F80346002209211846FEF7D4F8D6
:1025E000034619464420FEF7A5F84420FEF784F878
:1025F000FEF774F80346002201211846FEF7C4F8DE
:10260000034619464520FEF795F84520FEF774F875
:1026100000BF80BD80B586B000AF3B4600221A6087
:102620005A609A60DA601A615A611020FEF7B2FCB3
:102630000420FEF7AFFC8020FEF7ACFC0120FEF783
:10264000A9FC0220FEF7A6FC0820FEF7A3FC04214B
:10265000C048FEF78FFC0821BE48FEF78BFC102116
:10266000BC48FEF787FC2021BA48FEF783FC4021D6
:10267000B848FEF77FFC4FF40051B748FEF77AFCEC
:102680004FF48041B448FEF775FC4FF40041B24866
:10269000FEF770FC4FF40061B048FEF76BFC4FF49E
:1026A0008061AF48FEF766FC4FF40061AD48FEF76D
:1026B00061FC4FF40041AB48FEF75CFC0121A848E7
:1026C000FEF758FC0221A648FEF754FC1021A4484E
:1026D000FEF750FC2021A248FEF74CFC4021A04808
:1026E000FEF748FC04219D48FEF736FC4FF480615C
:1026F0009848FEF731FC4FF400619648FEF72CFC39
:102700004FF400419348FEF727FC4FF48061934853
:10271000FEF722FC4FF480519048FEF71DFC4FF469
:1027200080718F48FEF718FC4FF400718C48FEF75B
:1027300013FC4FF480718848FEF70EFC0421884892
:10274000FEF70AFC80218648FEF706FC4FF48071F4
:102750008248FEF701FC4FF400718048FEF7FCFB55
:1027600001217C48FEF7F8FB02217A48FEF7F4FBD2
:1027700004233B6001237B600023BB600023FB60DC
:1027800000233B613B46194672480BF040FF08238B
:102790003B6001237B600023BB600023FB600023C0
:1027A0003B613B4619466B480BF031FF10233B6001
:1027B00001237B600023BB600023FB6000233B619F
:1027C0003B46194663480BF022FF20233B60012360
:1027D0007B600023BB600023FB6000233B613B4622
:1027E00019465C480BF013FF40233B6001237B60DC
:1027F0000023BB600023FB6000233B613B4619467E
:1028000054480BF004FF4FF400533B6001237B60FE
:102810000023BB600023FB6000233B613B4619465D
:102820004D480BF0F4FE4FF480433B6001237B6086
:102830000023BB600023FB6000233B613B4619463D
:1028400045480BF0E4FE4FF400433B6001237B60FE
:102850000023BB600023FB6000233B613B4619461D
:102860003D480BF0D4FE04233B6001237B60002332
:10287000BB600023FB6000233B613B4619463748A1
:102880000BF0C5FE4FF480633B6001237B600023A7
:10289000BB600023FB6000233B613B4619462D488B
:1028A0000BF0B5FE4FF400633B6001237B60032314
:1028B000BB600023FB6000233B613B461946254873
:1028C0000BF0A5FE4FF400433B6001237B60002327
:1028D000BB600023FB6000233B613B4619461D485B
:1028E0000BF095FE4FF480633B6001237B60002377
:1028F000BB600023FB6001233B613B461946174840
:102900000BF085FE4FF400633B6001237B600023E6
:10291000BB600023FB6002233B613B4619460F4826
:102920000BF075FE4FF480533B6001237B60002366
:10293000BB600023FB6000233B613B461946074810
:102940000BF065FE4FF480733B6001237B60032333
:102950000AE000BF001002400008024000040240EC
:10296000000C024000000240BB600023FB6000231B
:102970003B613B46194696480BF049FE4FF4007305
:102980003B6001237B600323BB600023FB600023CB
:102990003B613B4619468E480BF039FE4FF480638D
:1029A0003B6001237B600023BB600023FB600023AE
:1029B0003B613B46194686480BF029FE4FF4006305
:1029C0003B6000237B6000233B613B461946804807
:1029D0000BF01DFE4FF480733B6001237B600023EE
:1029E000BB600023FB6001233B613B4619467948ED
:1029F0000BF00DFE4FF400733B6000237B6000235F
:102A00003B613B46194673480BF001FE4FF480735F
:102A10003B6000237B6000233B613B4619466E48C8
:102A20000BF0F5FD4FF400633B6001237B60002356
:102A3000BB600023FB6000233B613B4619466648B0
:102A40000BF0E5FD4FF400433B6001237B60002366
:102A5000BB600023FB6000233B613B4619465E4898
:102A60000BF0D5FD01233B6001237B600023BB609D
:102A70000023FB6000233B613B46194654480BF0A2
:102A8000C6FD02233B6001237B600023BB60002363
:102A9000FB6000233B613B4619464D480BF0B7FDF8
:102AA00004233B6001237B600023BB600023FB60A9
:102AB00000233B613B46194645480BF0A8FD08231F
:102AC0003B6000237B6000233B613B461946404846
:102AD0000BF09DFD10233B6001237B600023BB6056
:102AE0000023FB6000233B613B46194638480BF04E
:102AF0008EFD20233B6001237B600023BB6000230D
:102B0000FB6000233B613B46194631480BF07FFDDB
:102B100040233B6001237B600023BB600023FB60FC
:102B200000233B613B46194629480BF070FD80238A
:102B30003B6001237B600023BB600023FB6000231C
:102B40003B613B46194622480BF061FD4FF4807310
:102B50003B6001237B600023BB600023FB600023FC
:102B60003B613B4619461D480BF051FD4FF4007385
:102B70003B6001237B600023BB600023FB600023DC
:102B80003B613B46194615480BF041FD01233B6074
:102B900001237B600023BB600023FB6000233B61BB
:102BA0003B4619460E480BF032FD02233B600123E1
:102BB0007B600023BB600023FB6000233B613B463E
:102BC000194607480BF023FD00BF1837BD4680BDEE
:102BD000000C0240000802400000024000040240D5
:102BE0000010024080B400AF72B600BF00BFFDE726
:102BF00080B483B000AF0F4B1B6C0E4A43F0805380
:102C000013640C4B1B6C03F080537B607B68094B97
:102C10005B6C084A43F480435364064B5B6C03F4DB
:102C200080433B603B6800BF0C37BD465DF8047BCA
:102C3000704700BF0038024080B485B000AF7860B4
:102C40007B681B680A4A93420BD10A4B1B6B094AEB
:102C500043F480531363074B1B6B03F48053FB60F7
:102C6000FB6800BF1437BD465DF8047B704700BFAA
:102C7000003002400038024080B400AF00BFFDE7E2
:102C800080B400AF00BFFDE780B400AF00BFFDE738
:102C900080B400AF00BFFDE780B400AF00BFFDE728
:102CA00080B400AF00BFBD465DF8047B704780B4C0
:102CB00000AF00BFBD465DF8047B704780B400AF35
:102CC00000BFBD465DF8047B704780B500AF04F0DF
:102CD0007DFB04F0CBFA09F04BFA09F0A1FF05F0F7
:102CE00057F800BF80BD80B500AF04F00DFD00BFF8
:102CF00080BD80B500AF04F06FFE00BF80BD80B422
:102D000000AF00BFBD465DF8047B704780B500AFE3
:102D100004F0B6FA00BF80BD80B500AF04F0CAFB76
:102D200000BF80BD80B400AF01231846BD465DF8EA
:102D3000047B704780B582B000AF786039600DF0D9
:102D400087FE034616221A604FF0FF3318460837F5
:102D5000BD4680BD80B582B000AF78604FF0FF31D6
:102D60007868FFF7E7FF00BFFDE780B586B000AFEA
:102D7000F860B9607A6000237B610AE0AFF30080FD
:102D80000146BB685A1CBA60CAB21A707B6901332B
:102D90007B617A697B689A42F0DB7B68184618375A
:102DA000BD4680BD80B586B000AFF860B9607A607E
:102DB00000237B6109E0BB685A1CBA601B78184687
:102DC000AFF300807B6901337B617A697B689A424B
:102DD000F1DB7B6818461837BD4680BD80B483B0F0
:102DE00000AF78604FF0FF3318460C37BD465DF8F2
:102DF000047B704780B483B000AF786039603B6873
:102E00004FF400525A60002318460C37BD465DF857
:102E1000047B704780B483B000AF7860012318460C
:102E20000C37BD465DF8047B704780B485B000AFB9
:102E3000F860B9607A60002318461437BD465DF823
:102E4000047B704780B586B000AF7860144A154B9C
:102E5000D31A7B617B693B61134B1B68002B02D14A
:102E6000114B124A1A60104B1A687B6813443A6976
:102E70009A4207D20DF0ECFD03460C221A604FF087
:102E8000FF3309E0084B1B68FB60074B1A687B683F
:102E90001344054A1360FB6818461837BD4680BDC9
:102EA000000008200004000058430020C8E0022071
:102EB00080B400AF064BD3F88830054A43F4700362
:102EC000C2F8883000BFBD465DF8047B704700BF84
:102ED00000ED00E0DFF834D0FFF7EAFF0C480D49C1
:102EE0000D4A002302E0D458C4500433C4188C4265
:102EF000F9D30A4A0A4C002301E013600432A242CB
:102F0000FBD30DF0ABFDFEF78DF8704700000820F5
:102F10000000002018430020C07201081843002060
:102F2000C8E00220FEE780B500AF01F085FE02F0A8
:102F300081FA03F079FE00BF80BD80B500AF0420A8
:102F400001F0ACFE062002F0BBFA0A2003F0A4FE5A
:102F500000BF80BD80B500AF08F0EAFF00BF80BDB4
:102F600080B584B000AFF860B9607A60FB70FB6830
:102F7000BA68DA63FB687A681A64FB68FA7883F8DF
:102F80004520084B1B684FF6FF72A3F84220FB68F0
:102F90000549184609F05EF8002318461037BD466B
:102FA00080BD00BF04000020F84E010880B582B04B
:102FB00000AF78607B680022DA637B684FF4804260
:102FC0001A647B68012283F84520084B1B684FF682
:102FD000FF72A3F842207B680549184609F03AF8C9
:102FE000002318460837BD4680BD00BF04000020FE
:102FF000F84E010880B582B000AF78607B68044964
:10300000184609F027F8002318460837BD4680BD4A
:103010000C4F010880B582B000AF78607B6804492E
:10302000184609F017F8002318460837BD4680BD3A
:10303000204F010880B582B000AF78607B680449FA
:10304000184609F007F8002318460837BD4680BD2A
:10305000344F010880B584B000AFF860B9607A6081
:10306000BB68012B02D87B68642B01D9062318E0CA
:10307000FB6893F84D30002B06D0002003F088FF4A
:10308000FB68002283F84D207968B86804F088F85E
:103090007B68D9B2FA68BB68134449330A461A7090
:1030A000002318461037BD4680BD80B582B000AF02
:1030B000786039603B68242B01D9062314E07B68D3
:1030C00093F84D30012B06D0012003F061FF7B689F
:1030D000012283F84D20386803F09EFF3B68DAB286
:1030E0007B6883F84B20002318460837BD4680BD17
:1030F00080B582B000AF786039603B68082B01D999
:10310000062314E07B6893F84D30012B06D0012094
:1031100003F03EFF7B68012283F84D20386803F0FE
:10312000B3FF3B68DAB27B6883F84C200023184673
:103130000837BD4680BD80B582B000AF78607B683F
:1031400093F84D30012B06D0012003F021FF7B685E
:10315000012283F84D2003F0C9FF7B68FF2283F82A
:103160004C20002318460837BD4680BDB0B582B05C
:1031700000AF786039603B681B68002B04D03B6867
:103180001B68194A934201D9062328E03B681B7942
:10319000002B03D03B681B79242B01D906231EE0AA
:1031A0003B685B79642B01D9062318E03B68DB6838
:1031B000B3F5006F01D9062311E03B681B69002BB2
:1031C00001D106230BE07B683A6803F12804154619
:1031D0000FCD0FC42B68236000F054F8002318466D
:1031E0000837BD46B0BD00BF50F80C00B0B483B086
:1031F00000AF786039603A687B68154603F12804AF
:103200000FCC0FC523682B6000BF0C37BD46B0BC88
:103210007047000080B584B000AF78607B682833C9
:10322000FB60FB681B68002B04D0FB681B68134A1B
:10323000934201D906231CE0FB681B79002B03D0C5
:10324000FB681B79242B01D9062312E0FB685B790C
:10325000642B01D906230CE0FB68DB68B3F5006F33
:1032600001D9062305E07B680549184608F0F2FEFF
:10327000002318461037BD4680BD00BF50F80C0033
:10328000E44E010880B582B000AF03F049FD0F4B5A
:103290004FF0BC321A600E4B9B6A0C4A53600C4BC9
:1032A000DA8D0A4B1A810A4B1A8E084B5A81084B49
:1032B0005A8E064B9A8100237B60044A7B68136117
:1032C00003F052FD00BF0837BD4680BD00400240FC
:1032D0005C43002080B586B000AF786007F10C0336
:1032E00000221A605A609A600E23BB817B6807F146
:1032F0000C021146184608F0ADFE00231846183798
:10330000BD4680BD80B500AF074BDB69184608F0AD
:1033100016FA054BDB69184608F040FA034B4FF0EC
:10332000FF321A6200BF80BDB84300200078004021
:1033300080B500AF0C4B1B68184603F0B6F8034687
:10334000002B01D001230CE0084B1B88074A128890
:103350001946074808F0C8FE064B012283F82820CA
:103360000023184680BD00BF080000200C0000208C
:10337000244400200C44002080B500AF074808F02A
:10338000D3FE074B1B68184603F01EF9054B0022BD
:1033900083F828200023184680BD00BF2444002065
:1033A000080000200C44002080B483B000AF034626
:1033B000FB80044AFB88138000BF0C37BD465DF8D4
:1033C000047B70470C00002080B400AFBFF34F8F28
:1033D00000BF064BDB6803F4E0620449044B13436F
:1033E000CB60BFF34F8F00BF00BFFDE700ED00E0F3
:1033F0000400FA0580B584B000AFF860B9607A6067
:1034000003F0ACFF00BF1037BD4680BD80B5ADF501
:10341000826D00AF07F58263A3F20443186007F5DD
:103420008263A3F58163196007F58263A3F20C43FD
:103430001A6007F58263A3F5806318464FF4806332
:103440001A4600210DF0A4FA07F110031A464FF4B2
:103450008061002004F00CFB07F58263A3F20443B3
:103460000849186807F056FF07F58263A3F2044382
:103470000549186807F04EFF00BF07F58267BD4693
:1034800080BD00BF102F0108202F010880B5ADF5C9
:10349000836D00AF07F58363A3F20C43186007F553
:1034A0008363A3F58263196007F58363A3F2144372
:1034B0001A6007F114031A464FF48061002004F0EB
:1034C000E9FA07F58363A3F20C431F49186807F074
:1034D00021FF0023C7F8143424E007F58363A3F227
:1034E0000442D7F8143413441B781A4607F5836353
:1034F000A3F20C431549186807F00CFFD7F81434F1
:10350000013303F00F03002B07D107F58363A3F208
:103510000C430F49186807F0FDFED7F81434013347
:10352000C7F81434D7F81434B3F5806FD5DB07F53A
:103530008363A3F20C430649186807F0EBFE00BF53
:1035400007F58367BD4680BD242F01083C2F010885
:10355000442F010880B588B000AFF860B9607A6088
:1035600007F11403074A0A2118460DF08BF807F1FA
:1035700014031946F86806F056FC00BF2037BD4614
:1035800080BD00BF7C39010880B584B000AFF86011
:10359000B9607A60FFF718FF80B588B000AFF860B7
:1035A000B9607A600023BB610023FB82B86806F033
:1035B0002BFD03467B757B7D012B04D02E49F868DB
:1035C00007F0A8FE54E00121B86806F0E7FC386176
:1035D0003B691B78612B22D10023FB771BE0FB7F2B
:1035E000184603F0F9FE0346FB82B7F9163013F5CF
:1035F000004F06D1FB7F1A462049F86807F08AFE83
:1036000006E0FA7FB7F916301D49F86807F082FE28
:10361000FB7F0133FB77FB7F072BE0D928E03B6979
:103620001B782F2B20D93B691B78372B1CD8386986
:103630000CF050FA0346BB61B86903F0CDFE0346B7
:10364000FB82B7F9163013F5004F05D1BA690B4963
:10365000F86807F05FFE0BE0B7F91630BA69084961
:10366000F86807F057FE03E00649F86807F052FED5
:103670002037BD4680BD00BF84390108A439010848
:10368000B8390108CC39010880B588B000AFF860BE
:10369000B9607A60B86806F0B7FC0346FB61FB6965
:1036A000012B04D01549F86807F034FE23E0144BD1
:1036B0001B68184602F0C8FF034683F00103DBB223
:1036C000002B04D00F49F86807F024FE13E0012115
:1036D000B86806F063FCB861B8690CF0FBF9034602
:1036E0007B61074B1B687969184602F0F3FB0649BA
:1036F000F86807F00FFE2037BD4680BD8439010809
:1037000010000020E03901082C3A010880B584B08F
:1037100000AFF860B9607A600A4B1B68184602F087
:10372000F2FB0346002B04D00749F86807F0F2FDCE
:1037300003E00649F86807F0EDFD00BF1037BD460D
:1037400080BD00BF100000202C3A0108343A010867
:1037500080B588B000AFF860B9607A60B86806F0EC
:1037600053FC0346BB61BB69012B04D03849F868A0
:1037700007F0D0FD69E0374B1B68184602F064FF84
:10378000034683F00103DBB2002B04D03249F86812
:1037900007F0C0FD59E00121B86806F0FFFB786131
:1037A00000233B617B691B78612B25D10023FB61E2
:1037B0001EE0284B1B68F969184602F0EAFB3861E5
:1037C0003B69002B0CD1234B1B680022F96918467A
:1037D00002F0CEFFFA692149F86807F09BFD04E08A
:1037E000FA691F49F86807F095FDFB690133FB6131
:1037F000FB69032BDDD928E07B691B782F2B24D9AB
:103800007B691B78332B20D878690CF063F9034669
:10381000FB61104B1B68F969184602F0BAFB38616E
:103820003B69002B0CD10B4B1B680022F969184631
:1038300002F09EFFFA690949F86807F06BFD04E0A1
:10384000FA690749F86807F065FD2037BD4680BD75
:1038500084390108100000203C3A0108843A01082C
:10386000983A010880B588B000AFF860B9607A6016
:10387000B86806F0C9FB0346FB61FB69012B04D065
:103880001549F86807F046FD22E00121B86806F006
:1038900085FBB861B8690CF01DF90346FB82FB8A11
:1038A000B3F5FA7F04D3FB8A40F6B832934204D9C9
:1038B0000A49F86807F02EFD0AE0094B1B68FA8AEE
:1038C0001146184602F078FF0649F86807F022FD15
:1038D0002037BD4680BD00BFB03A0108D83A010884
:1038E000100000202C3A010880B586B000AFF860C7
:1038F000B9607A60084B1B68184602F079FF0346EE
:10390000FB82FB8A1A460549F86807F003FD00BFF1
:103910001837BD4680BD00BF100000200C3B0108D9
:1039200080B588B000AFF860B9607A60B86806F01A
:103930006BFB0346BB61BB69042B04D03149F868BB
:1039400007F0E8FC5BE0304B1B68184602F062FEB3
:103950000346FB750023FB614AE0FB699BB2013320
:103960009BB21946B86806F019FB034618460CF0DE
:10397000B1F80346D9B207F11002FB6913440A46B5
:103980001A7007F11002FB6913441B78012B05D94B
:10399000FA691E49F86807F0BDFC30E007F1100233
:1039A000FB6913441B78002B08D1174B1B68FA697D
:1039B000D2B21146184602F06BFB16E0FB7DFA69A5
:1039C0009A4205D1FA691249F86807F0A3FC0CE0A5
:1039D0000D4B1B68FA69D2B21146184602F037FB4C
:1039E000FA690C49F86807F095FCFB690133FB6143
:1039F000FB69032BB1D90849F86807F08BFC203725
:103A0000BD4680BD303B010810000020543B01083A
:103A10007C3B0108A03B01082C3A010880B586B028
:103A200000AFF860B9607A60134B1B68184602F06B
:103A300052FB0346FB7400237B6115E0FA7C7B6933
:103A400042FA03F303F00103002B05D07A690B4916
:103A5000F86807F05FFC04E07A690949F86807F044
:103A600059FC7B6901337B617B69032BE6D900BF7D
:103A700000BF1837BD4680BD10000020A03B0108E4
:103A8000B83B010880B58CB000AFF860B9607A60CF
:103A9000354B1B68184602F0D7FD034683F001033F
:103AA000DBB2002B04D03149F86807F033FC58E052
:103AB000B86806F0A9FA0346FB62FB6A032B04D040
:103AC0002B49F86807F026FC4BE00121B86806F0A6
:103AD00065FAB862B86A0BF0FDFF03467B627B6A49
:103AE000032B04D92349F86807F014FC39E00221BC
:103AF000B86806F053FA3862386A0BF0EBFF0346F9
:103B0000FB61FB69012B04D91B49F86807F002FC33
:103B100027E00321B86806F041FAB861B8690BF0F4
:103B2000D9FF0346FB82FB8A40F6B832934204D9A0
:103B30001249F86807F0EEFB13E00B4B1868FB8A9C
:103B4000FA69796A02F094FD38613B69002B04D070
:103B50000B49F86807F0DEFB03E00A49F86807F054
:103B6000D9FB3037BD4680BD10000020D03B010896
:103B7000F43B0108203C0108443C0108683C010872
:103B8000343A01082C3A010880B58AB000AFF860D9
:103B9000B9607A602A4B1B68184602F055FD03464F
:103BA00083F00103DBB2002B04D02649F86807F04C
:103BB000B1FB41E0B86806F027FA03467B627B6AF6
:103BC000022B04D02049F86807F0A4FB34E001215F
:103BD000B86806F0E3F93862386A0BF07BFF0346F9
:103BE000FB61FB69032B04D91849F86807F092FBC5
:103BF00022E00221B86806F0D1F9B861B8690BF08B
:103C000069FF03467B610E4B18687B69002B14BF6C
:103C100001230023DBB21A46F96902F0A9FD3861DD
:103C20003B69002B04D00A49F86807F073FB03E0F6
:103C30000849F86807F06EFB2837BD4680BD00BF15
:103C400010000020D03B0108943C0108203C0108F2
:103C5000343A01082C3A010880B58CB000AFF86006
:103C6000B9607A60B86806F0CFF90346BB62BB6AF8
:103C7000032B04D04149F86807F04CFB7AE001219E
:103C8000B86806F08BF97862786A0BF023FF034678
:103C90007B847B8C4EF66022934204D93849F868C5
:103CA00007F038FB66E00221B86806F077F9F861A2
:103CB000344B1B68184602F00EFA0346FB76FB698C
:103CC0001B786F2B07D1042387F82F302E49F86813
:103CD00007F020FB1EE0FB691B782F2B1AD9FB692C
:103CE0001B78332B16D8F8690BF0F4FE034687F8DF
:103CF0002F30FA7E97F82F3042FA03F303F00103D6
:103D0000002B07D097F82F301A462049F86807F0A3
:103D100001FB2FE00321B86806F040F9786178696B
:103D20000BF0D8FE03463B613B69B3F5FA7F04D341
:103D30003B6940F6B832934204D91549F86807F058
:103D4000E9FA17E07B8C1846FFF72EFB0D4B1B683A
:103D500097F82F201146184602F072FB094B1B689A
:103D60003A6992B21146184602F083FB0949F86895
:103D700007F0D0FA3037BD4680BD00BFB43C010823
:103D8000E83C010810000020183D0108303D010802
:103D9000D83A01082C3A010880B584B000AFF86029
:103DA000B9607A60FFF7C4FA0349F86807F0B2FA1D
:103DB00000BF1037BD4680BD2C3A010880B584B0E5
:103DC00000AFF860B9607A60FFF7D6FA0349F86887
:103DD00007F0A0FA00BF1037BD4680BD2C3A01089D
:103DE00080B586B000AFF860B9607A600F4B1B6891
:103DF000184602F00FFC0346FB750C4B1B68184677
:103E000002F015FC0346BB82FB7D042B04D108495C
:103E1000F86807F07FFA05E0FA7DBB8A0549F86883
:103E200007F078FA1837BD4680BD00BF10000020AB
:103E3000183D0108543D010880B588B000AFF86016
:103E4000B9607A60B86806F0DFF80346FB61FB6989
:103E5000012B04D01249F86807F05CFA1CE001213C
:103E6000B86806F09BF8B861B8690BF033FE0346FA
:103E7000FB75FB7D642B04D90A49F86807F04AFA00
:103E80000AE0094B1B68FA7D1146184602F030F92A
:103E90000649F86807F03EFA2037BD4680BD00BFEE
:103EA000803D0108A43D0108100000202C3A0108C3
:103EB00080B586B000AFF860B9607A60084B1B68C7
:103EC000184602F02BF90346FB75FB7D1A4605499F
:103ED000F86807F01FFA00BF1837BD4680BD00BF65
:103EE00010000020C83D010880B588B000AFF86020
:103EF000B9607A60B86806F087F80346BB61BB69B1
:103F0000042B04D02649F86807F004FA45E00023A2
:103F1000FB613BE0FB699BB201339BB21946B86879
:103F200006F03CF8034618460BF0D4FD0346D9B220
:103F300007F11402FB6913440A461A7007F11402D0
:103F4000FB6913441B78012B05D9FA691549F868F8
:103F500007F0E0F921E007F11402FB6913441B7834
:103F6000002B08D1104B1B68FA69D2B211461846D3
:103F700002F002F907E00C4B1B68FA69D2B2114655
:103F8000184602F0D8F8FB690133FB61FB69032B8B
:103F9000C0D90649F86807F0BDF92037BD4680BD95
:103FA000E43D0108543B0108100000202C3A0108B0
:103FB00080B586B000AFF860B9607A60124B1B68BC
:103FC000184602F0FCF80346FB7400237B6113E003
:103FD000FA7C7B6942FA03F303F00103002B04D05F
:103FE0000A49F86807F096F903E00949F86807F00C
:103FF00091F97B6901337B617B69032BE8D900BFB1
:1040000000BF1837BD4680BD100000200C3E0108DF
:10401000243E010880B58AB000AFF860B9607A60CC
:10402000B86805F0F1FF03467B627B6A022B04D07F
:104030001E49F86807F06EF934E00121B86805F010
:10404000ADFF3862386A0BF045FD0346FB83B7F9D4
:104050001E30B3F57A7F04DD1549F86807F05AF988
:1040600020E00221B86805F099FFB861B8690BF04B
:1040700031FD0346FB82B7F9163013F57A7F04DA77
:104080000C49F86807F046F90CE00B4B1B68B7F9D0
:104090001620B7F91E10184602F0F2F80749F86822
:1040A00007F038F92837BD4680BD00BF403E010803
:1040B000783E0108A43E0108100000202C3A0108B7
:1040C00080B586B000AFF860B9607A600C4B1B68B1
:1040D00007F114021146184602F0E8F8B7F9143057
:1040E0001A460849F86807F015F9B7F916301A4664
:1040F0000549F86807F00EF900BF1837BD4680BDC6
:1041000010000020D43E0108F43E010880B588B0BC
:1041100000AFF860B9607A60B86805F075FF0346D3
:10412000FB61FB69012B04D00E49F86807F0F2F837
:1041300015E00121B86805F031FFB861B8690BF0EE
:10414000C9FC0346FB82084B1B68B7F916201146D1
:10415000184602F041F80549F86807F0DBF8203707
:10416000BD4680BD143F0108100000202C3A010814
:1041700080B586B000AFF860B9607A60084B1B6804
:10418000184602F039F80346FB82B7F916301A4692
:104190000449F86807F0BEF800BF1837BD4680BD77
:1041A000100000203C3F010880B58AB000AFF860E5
:1041B000B9607A60B86805F027FF03467B627B6AC6
:1041C000022B04D01C49F86807F0A4F830E0012164
:1041D000B86805F0E3FE3862386A0BF07BFC0346F2
:1041E000FB61FB69072B04D91449F86807F092F8C2
:1041F0001EE00221B86805F0D1FEB861B8690BF085
:1042000069FC03467B617B69072B04D90C49F8687C
:1042100007F080F80CE00B4B1B68FA69D1B27A69A1
:10422000D2B2184601F0F5FF0749F86807F072F8B6
:104230002837BD4680BD00BF5C3F0108743F0108C0
:10424000983F0108100000202C3A010880B586B084
:1042500000AFF860B9607A600023BB820B4B1B682B
:1042600007F114021146184601F0F4FF3B7D1A468F
:104270000749F86807F04EF87B7D1A460549F8684B
:1042800007F048F800BF1837BD4680BD1000002079
:10429000BC3F0108D03F010880B588B000AFF8608E
:1042A000B9607A60B86805F0AFFE0346FB61FB6950
:1042B000012B04D01249F86807F02CF81CE001210A
:1042C000B86805F06BFEB861B8690BF003FC0346F3
:1042D000FB75FB7D012B04D90A49F86807F01AF831
:1042E0000AE0094B1B68FA7D1146184602F088F86F
:1042F0000649F86807F00EF82037BD4680BD00BFBC
:10430000E43F0108FC3F0108100000202C3A01089E
:1043100080B586B000AFF860B9607A600A4B1B6860
:10432000184602F081F80346FB75FB7D002B01D097
:10433000064B00E0064B1A460649F86806F0EAFF0D
:1043400000BF1837BD4680BD10000020284001087E
:104350002C4001083040010880B584B000AFF860FF
:10436000B9607A60064B1B68184601F08FFD05495D
:10437000F86806F0CFFF00BF1037BD4680BD00BF14
:10438000100000202C3A010880B584B000AFF8601E
:10439000B9607A60064B1B68184601F053FD054969
:1043A000F86806F0B7FF00BF1037BD4680BD00BFFC
:1043B000100000202C3A010880B588B000AFF860EA
:1043C000B9607A60B86805F01FFE0346FB61FB69BF
:1043D000012B04D01349F86806F09CFF1EE0012170
:1043E000B86805F0DBFDB861B8690BF073FB0346F4
:1043F000FB82B7F91630642B04DD0B49F86806F030
:1044000089FF0BE0094B1B68B7F9162000211846FD
:10441000FEF720FE0649F86806F07CFF2037BD460F
:1044200080BD00BF4C40010874400108140000200A
:104430002C3A010880B588B000AFF860B9607A60A6
:10444000B86805F0E1FD0346FB61FB69012B04D070
:104450001349F86806F05EFF1EE00121B86805F018
:104460009DFDB861B8690BF035FB0346FB82B7F9D7
:104470001630642B04DD0B49F86806F04BFF0BE0A7
:10448000094B1B68B7F9162001211846FEF7E2FD1B
:104490000649F86806F03EFF2037BD4680BD00BFE4
:1044A0009840010874400108140000202C3A0108CB
:1044B00080B588B000AFF860B9607A600023FB83F4
:1044C0000023BB83B86805F09FFD0346FB76FB7EA7
:1044D000012B04D02049F86806F01CFF39E00121C7
:1044E000B86805F05BFD78617B691B78612B0ED1A4
:1044F00002F06AFE0346FB8302F08EFE0346BB8396
:10450000FA8BBB8B1549F86806F004FF21E07B6944
:104510001B78302B0AD102F057FE0346FB83FB8B3E
:104520001A460F49F86806F0F5FE12E07B691B7821
:10453000312B0AD102F070FE0346BB83BB8B1A46B7
:104540000849F86806F0E6FE03E00749F86806F057
:10455000E1FE2037BD4680BD84390108E0400108F6
:104560001841010834410108CC39010880B588B0F0
:1045700000AFF860B9607A60B86805F045FD0346A1
:10458000FB61FB69012B04D01349F86806F0C2FEF9
:104590001EE00121B86805F001FDB861B8690BF0B3
:1045A00099FA78617B69242B02DC7B69002B04DC9F
:1045B0000A49F86806F0AEFE0AE0094B1B687A6902
:1045C00011461846FEF771FD0649F86806F0A2FE8E
:1045D0002037BD4680BD00BF50410108744101082D
:1045E000140000202C3A010880B588B000AFF860B4
:1045F000B9607A60B86805F007FD0346FB61FB69A6
:10460000012B04D01349F86806F084FE1EE0012156
:10461000B86805F0C3FCB861B8690BF05BFA786163
:104620007B69082B02DC7B69002B04DC0A49F868F3
:1046300006F070FE0AE0094B1B687A6911461846BD
:10464000FEF756FD0649F86806F064FE2037BD46C1
:1046500080BD00BF98410108BC4101081400002042
:104660002C3A010880B584B000AFF860B9607A6078
:1046700002F0F4FC0349F86806F04CFE00BF103766
:10468000BD4680BD2C3A010880B584B000AFF8600B
:10469000B9607A60064B1B681846FEF74CFD054969
:1046A000F86806F037FE00BF1037BD4680BD00BF7A
:1046B000140000202C3A010880B592B000AFF860D9
:1046C000B9607A60B86805F09FFC03467B647B6C38
:1046D000062B04D05E49F86806F01CFEB5E0012107
:1046E000B86805F05BFC034618460BF0F3F9034687
:1046F0003B643B6CB3F57A7F03D33B6C554A9342E2
:1047000004D95549F86806F005FE9EE00221B86814
:1047100005F044FC034618460BF0DCF90346FB6346
:10472000FB6B002B02D0FB6B242B04D94B49F868A0
:1047300006F0F0FD89E00321B86805F02FFC034680
:1047400018460BF0C7F90346BB63BB6B642B04D957
:104750004349F86806F0DEFD77E00421B86805F00B
:104760001DFC034618460BF0B5F903467B637B6BD3
:10477000002B04D13B49F86806F0CCFD65E005212B
:10478000B86805F00BFC034618460BF0A3F9034686
:104790003B633B6B002B04D13349F86806F0BAFD4C
:1047A00053E00621B86805F0F9FB034618460BF004
:1047B00091F90346FB62FB6A002B04D12B49F86890
:1047C00006F0A8FD41E07A6B3B6B1A44FB6A134488
:1047D0003A6C02FB03F3264AA2FB03231B0CBB62C9
:1047E000BB6AB3F5006F04D92249F86806F092FD60
:1047F0002BE03B6C7B61FB6BDBB23B76BB6BDBB2D4
:104800007B767B6B9BB27B833B6B9BB2BB83FB6AF0
:104810009BB2FB83BB6A3B62174A3B6CB2FBF3F370
:104820007B62164B1B6807F1140211461846FEF70F
:104830009DFC0346002B04D11149F86806F06AFD7F
:1048400003E01049F86806F065FD4837BD4680BDB5
:10485000DC41010850F80C00484201087042010890
:104860008C420108AC420108D0420108F84201081C
:10487000D34D62101C43010840420F001400002079
:104880002C3A0108343A0108F0B591B006AFF8604F
:10489000B9607A60104B1B6807F114021146184684
:1048A000FEF7A4FC7A693B7E1E467B7E19467B8B15
:1048B0001846BB8B1C46FB8B1D463B6A0493039535
:1048C00002940190009133460449F86806F022FDF5
:1048D00000BF2C37BD46F0BD140000204443010842
:1048E00080B584B000AFF860B9607A600C4B1B688B
:1048F0001846FEF78FFC0346002B04D00949F868E0
:1049000006F008FD07E0084B1B681846FEF7E2FCBE
:10491000064B01221A7000BF1037BD4680BD00BF94
:1049200014000020E0430108180000203844002053
:1049300080B588B000AFF860B9607A60B86805F0FB
:1049400063FB0346FB61FB69032B04D03349F86822
:1049500006F0E0FC5FE0324B1B6893F84830052B13
:1049600010D02F4B1B6893F84830032B0AD02C4BE8
:104970001B6893F84830042B04D02A49F86806F0E5
:10498000C9FC48E00121B86805F008FB0346184659
:104990000BF0A0F80346BB61BB69B3F5001F04D35D
:1049A0002149F86806F0B6FC35E00221B86805F048
:1049B000F5FA034618460BF08DF803467B61BB6998
:1049C000C3F500137A699A4203D87B69B3F5007F77
:1049D00008D2BB69C3F500131A461449F86806F0FB
:1049E00099FC18E00321B86805F0D8FA0346184688
:1049F0000BF070F80346FB74FB7C012B04D90C49C7
:104A0000F86806F087FC06E0054B1868FB7C7A69BD
:104A1000B969FEF7A5FA2037BD4680BD00440108FC
:104A20001400002038440108584401088444010857
:104A3000B044010880B584B000AFF860B9607A6016
:104A4000084B1B78002B05D0074B1B681846FEF758
:104A5000ADFA04E00549F86806F05CFC00BF1037C9
:104A6000BD4680BD3844002014000020E844010801
:104A700080B400AF024B1846BD465DF8047B70471A
:104A8000484F010880B400AF2E231846BD465DF89C
:104A9000047B704780B483B000AF78607B68DB69CB
:104AA00003F02003202B01D1012300E0002318464E
:104AB0000C37BD465DF8047B704780B483B000AF0F
:104AC00078607B685B6ADBB218460C37BD465DF8E0
:104AD000047B704780B500AF4FF4806208490948F5
:104AE00006F0B4FF4FF480520749084806F0AEFFC5
:104AF000064B044A0649074806F023FD00BF80BD67
:104B000014450020EC4400201449002000450020FA
:104B100000140140DC440020B0B588B000AF1B4B4E
:104B20003C1D1D460FCD0FC495E8070084E8070023
:104B3000FFF79EFF0346BB61FFF7A4FF0346BB835D
:104B40003B1D184605F02DF80346114A1360104B23
:104B50001B68002B05D101210E4802F0D5F8012376
:104B600010E00B4B1B680C4A1A60094B1C683B1D7C
:104B7000184604F0E5FF03461A460849204606F0A9
:104B8000C9FB002318462037BD46B0BD2C4501089F
:104B90001859002098530108A14B00080C45010842
:104BA00080B582B000AF78600B46FB70FB78194689
:104BB000034806F049FD00BF0837BD4680BD00BF71
:104BC000DC44002080B584B002AF786039607B6837
:104BD000002B03D10021154802F096F878683B6855
:104BE000DA683B681B6900931346114A114907F0C4
:104BF000EDF97B6820337A680621184607F052FAEF
:104C00003B685A687B68DA613B689A687B689A619E
:104C10003B681A687B685A617B682033184607F046
:104C200083FA00BF0837BD4680BD00BF9853010816
:104C30003D4D0008BD4C000880B588B002AFFFF7BD
:104C400049FF022300931E233C220D490D4806F024
:104C5000D8FDFFF761FF0C4B7B600C4B1B68BB6002
:104C60000B4BFB600B4B3B61064B7B613B1D1946BD
:104C70000948FFF7A7FF00BF1837BD4680BD00BF3A
:104C800084440020C0440020854D000818590020AD
:104C9000DC440020804400203C44002080B582B0E9
:104CA00000AF0346FB71FB791946034807F0A8F9EA
:104CB00000BF0837BD4680BD3C44002080B582B0AF
:104CC00000AF786039607B68002B03D1072115485D
:104CD00002F01AF87B689B69184606F04EFC7B6868
:104CE00020330A220A21184607F0FEF90E4B1B68F2
:104CF0000E49184606F00EFB0B4B1B680C49184674
:104D000006F008FB084B1B680A49184606F002FB30
:104D1000054B1B680849184606F0FCFA00BF083727
:104D2000BD4680BD98530108185900204845010828
:104D30007845010898450108B445010880B584B05C
:104D400000AF786039607B685B69FB607B685B699A
:104D50003968786898470346FB72FB7A002B08D1C4
:104D6000FB680649786898477B685B6904497868FE
:104D7000984700BF1037BD4680BD00BFA45301084F
:104D8000A053010880B582B000AF786039607B68BD
:104D9000002B03D10321244801F0B6FF3B68002B10
:104DA00003D10421204801F0AFFF3B681B88013B81
:104DB000072B34D801A252F823F000BFDD4D0008C4
:104DC0001F4E0008EF4D00081F4E00081F4E000840
:104DD000FD4D00080B4E0008154E00087B6820337F
:104DE0000A220A21184607F07FF9012318E07B68A0
:104DF0002033184607F098F9012311E00B4B1B688C
:104E0000184604F080FF01230AE07B68084A5A61D3
:104E1000002305E07B68074A5A61002300E0022373
:104E200018460837BD4680BD985301081859002020
:104E3000C94E0008D94F000880B582B000AF0B48BA
:104E4000FFF728FE0346002B0BD00848FFF735FE7E
:104E50000346FB71064B1B68FA791146184604F0AD
:104E60002FFF00BF0837BD4680BD00BF00140140C2
:104E70001859002080B584B000AF78607B689B69CA
:104E8000184606F08BFCF860FB68002B08D0064B38
:104E90001B78002B04D07B680449184607F0DAF829
:104EA00000BF1037BD4680BD14590020A85301082B
:104EB00080B500AFFFF7C0FF0248FFF7DBFF00BF80
:104EC00080BD00BF3C44002080B584B000AF786056
:104ED00039600023FB603B681B88012B27D0092B1E
:104EE00046D074E0786800F00DFA1BE07B689A69A0
:104EF0007B6893F83D3019467B680B4493F8383053
:104F00001946104606F0A0FBF860FB68002B01D0A4
:104F100001235DE07B6893F83D300133DAB27B68B2
:104F200083F83D207B6893F83D30042BDED97B6805
:104F30005B6B002BD6D11BE07B689A697B6893F88A
:104F40003D3019467B680B4493F8383019461046BB
:104F500006F07AFBF860FB68002B01D0012337E0F4
:104F60007B6893F83D300133DAB27B6883F83D20EB
:104F70007B6893F83D30042BDED924E0786800F09C
:104F8000C1F91BE07B689A697B6893F83D3019464C
:104F90007B680B4493F838301946104606F054FBF2
:104FA000F860FB68002B01D0012311E07B6893F8C7
:104FB0003D300133DAB27B6883F83D207B6893F89B
:104FC0003D30042BDED97B685B6B002BD6D10223EE
:104FD00018461037BD4680BD80B586B000AF7860FA
:104FE00039603B681B88013B0A2B00F2018101A25A
:104FF00052F823F021500008F1510008F151000847
:10500000F1510008F1510008F1510008F151000878
:10501000F15100082F510008CB500008A75100089B
:10502000764B1B6C5B00764A1A40764B13433B6110
:105030003B691B0CDBB23B733B691B0ADBB27B7326
:105040003B69DBB2BB730023FB750DE07B689A699B
:10505000FB7D18333B4413F80C3C1946104606F010
:10506000F3FAFB7D0133FB75FB7D022BEED9664B1A
:105070001B681846FDF7BEFF0123BAE0786800F010
:1050800016F91DE07B689A697B6893F840301946F1
:105090007B680B4493F83E301946104606F0D4FA6C
:1050A0000346002B04D0594B01221A700123A0E0C3
:1050B0007B6893F840300133DAB27B6883F8402094
:1050C0007B6893F84030012BDCD97B685B6B002B4D
:1050D000D4D14D4B1B681846FDF7ACFF012388E087
:1050E0007B689A697B6893F8403019467B680B446B
:1050F00093F83E301946104606F0A6FA0346002BF8
:1051000001D0012375E07B6893F840300133DAB2B7
:105110007B6883F840207B685B6B002B07D13B4B9F
:1051200000221A70384B1B681846FDF783FF7B6816
:1051300093F84030012BD3D92FE0786800F0B7F80E
:105140001AE07B689A697B6893F8403019467B685F
:105150000B4493F83E301946104606F075FA0346A4
:10516000002B01D0012344E07B6893F840300133E9
:10517000DAB27B6883F840207B6893F84030012BDB
:10518000DFD97B685B6B002B07D1204B00221A70A4
:105190001D4B1B681846FDF74DFF7B685B6B002BB2
:1051A000CBD1012325E07B68B3F842301B0A9BB2C8
:1051B000DBB23B737B68B3F84230DBB27B73002316
:1051C000BB750DE07B689A69BB7D18333B4413F8CF
:1051D0000C3C1946104606F037FABB7D0133BB750F
:1051E000BB7D012BEED97B68094A5A61002300E0A0
:1051F000022318461837BD4680BD00BF5C4300201F
:10520000FEFF3F000000C0FF1C00002014590020DA
:10521000854D000880B485B000AF78600B467B8078
:105220007B881B0A9BB2DBB23B737B88DBB27B7350
:105230000023FB7331E07B681B881AB2FB7B1033C1
:105240003B4413F8043C1BB21B021BB253401BB27D
:105250009AB27B681A800023BB7318E07B681B88B6
:105260001BB2002B0ADA7B681B881BB25B001AB2E8
:1052700041F2210353401BB29BB203E07B681B88C1
:105280005B009BB27A681380BB7B0133BB73BB7B33
:10529000072BE3D9FB7B0133FB73FB7B012BCAD9C3
:1052A00000BF00BF1437BD465DF8047B704780B572
:1052B00084B000AF78607B681B6B991C7A681163BF
:1052C0001B88FB817B685B6B5A1E7B685A637B681B
:1052D0004233FA8911461846FFF79CFFFB891B0AE7
:1052E0009BB2DAB27B6883F83E20FB89DAB27B6836
:1052F00083F83F207B68002283F8402000BF1037EE
:10530000BD4680BDB0B588B000AF78602B4B07F1CB
:105310000C041D460FCD0FC42B6823707B681B6BDC
:10532000991C7A6811631B88FB837B685B6B5A1E30
:105330007B685A63FB8B1B0B9BB203F00F0320337C
:105340003B4413F8142C7B6883F83820FB8B1B0A32
:105350009BB203F00F0320333B4413F8142C7B68FB
:1053600083F83920FB8B1B099BB203F00F0320331A
:105370003B4413F8142C7B6883F83A20FB8B03F032
:105380000F0320333B4413F8142C7B6883F83B2035
:105390007B68202283F83C207B68002283F83D2034
:1053A0007B685B6B002B04D1054B1B681846FDF72F
:1053B00041FE00BF2037BD46B0BD00BFE04501083B
:1053C0001C00002080B584B002AF78603960786836
:1053D0003B685A683B689B6800931346134A14491C
:1053E00006F0F4FD7B6814337A682621184606F02F
:1053F00059FE7B6824337A682721184606F052FE4E
:105400003B681A687B685A637B684FF47A729A63C8
:105410007B68FF2283F83C207B681433184606F033
:1054200083FE00BF0837BD4680BD00BFE1540008C1
:105430007954000880B586B002AF0223009301239F
:1054400002220949094806F0DCF9094A3B1D07CA4E
:1054500083E807003B1D19460648FFF7B3FF00BF6E
:105460001037BD4680BD00BF7CD900205CD900202C
:10547000F44501081CD9002080B582B000AF7860E7
:10548000396006F02FFC7B6803F114007B689B6B8E
:1054900099B27B689B6B9BB21A4606F025FE02F020
:1054A00079FA064806F069F802F052FA02F062FA58
:1054B00001F07EFF00BF0837BD4680BD0CDE012035
:1054C00080B582B000AF0346FB71FB7919460348F3
:1054D00006F096FD00BF0837BD4680BD1CD90020F0
:1054E00080B582B000AF786039603B681B88262B9E
:1054F00004D102F046FA786800F006F80123184655
:105500000837BD4680BD000090B58DB000AF786013
:1055100007F11C0300221A605A609A60DA6007F1F2
:105520000C0300221A605A609A60DA602C4B93EDEB
:10553000007B9FED295B87EE056B07F11C030321C0
:105540001846B0EE460B00F059F8264B93ED007B61
:1055500007F10C0303211846B0EE470B00F04EF89C
:1055600007F10C0307F11C021F49204806F0B2F8AE
:105570001F491E4806F0AEF8002387F82F301DE0C3
:105580007B6893F83C301A4697F82F3042FA03F3C1
:1055900003F00103002B0CD097F82F4097F82F3021
:1055A000184601F019FF0346224612490F4806F03B
:1055B00091F897F82F30013387F82F3097F82F3074
:1055C000072BDDD90C49094806F084F800BF3437B1
:1055D000BD4690BDAFF300800000000000005940C0
:1055E00068DF022060DF0220004601080CDE012097
:1055F0001C460108244601083046010880B58CB0DD
:1056000000AF87ED040BF8600B46FB7297ED047B4F
:10561000B5EEC07BF1EE10FA0AD5FB685A1CFA60B1
:105620002D221A7097ED047BB1EE477B87ED047B4A
:1056300097ED047BFCEEC77B17EE903A3B623B6A2A
:1056400007EE903AB8EE677B97ED046B36EE477B3A
:1056500087ED0A7B3A6A2549F8680BF049F802E0C1
:10566000FB680133FB60FB681B78002BF8D1FB7AE9
:10567000002B34D0FB685A1CFA602E221A700023CB
:1056800087F8273026E097ED0A7BB2EE046B27EE11
:10569000067B87ED0A7B97ED0A7BFCEEC77BC7EDA7
:1056A000017A3B79FB77FB685A1CFA60FA7F30324B
:1056B000D2B21A70FB7F07EE903AB8EEE77B97ED17
:1056C0000A6B36EE477B87ED0A7B97F8273001336C
:1056D00087F8273097F82720FB7A9A42D3D3FB68C4
:1056E00000221A7000BF3037BD4680BD3446010825
:1056F00080B584B000AF786039603B681B88162B9A
:1057000020D0162B63DC012B02D0032B13D05EE0DC
:10571000082001F05BF97B682033184606F004FD91
:10572000786800F0FDFD786800F047FE7B68012294
:105730009A6101234CE04FF4FA71082001F028F936
:10574000012345E03B689B78042B3ED17B6893F8AE
:105750003030002B09D10121786800F0BBFB78685C
:1057600000F0E3FB786800F0DBFD7B6893F84830DD
:1057700018467B6893F8493019467B68B3F9502086
:105780007B68B3F9523001F057FE0346002B04D07A
:105790007B68114A5A6100231AE07B6893F848300D
:1057A000184601F019FE0346FB817B68B3F95830B7
:1057B000B7F90E209A4203DD7B68084A5A6102E07D
:1057C0007B68074A5A61002302E0022300E00223BB
:1057D00018461037BD4680BD115D0008E55700082A
:1057E0002159000880B584B000AF786039603B680B
:1057F0001B88013B152B00F2878001A252F823F091
:105800005958000809590008835800080959000828
:1058100009590008095900080959000809590008E0
:1058200009590008095900080959000809590008D0
:1058300009590008095900080959000809590008C0
:1058400009590008095900080959000809590008B0
:1058500091580008F3580008062006F049FA7B68C2
:105860000022DA61786800F0B4FB786800F034FD5B
:105870007B68203364226421184606F035FC01233E
:1058800043E07B682033184606F04EFC01233CE0E1
:10589000082001F0B5F87B6893F8483018467B681B
:1058A00093F8493019467B68B3F950207B68B3F907
:1058B000523001F0C1FD0346002B04D07B68154A2D
:1058C0005A61002321E07B6893F84830184601F0C4
:1058D00083FD0346FB817B68B3F95830B7F90E208E
:1058E0009A4201DD012310E07B680B4A5A610023D4
:1058F0000BE03B689B78052B04D17B68074A5A6113
:10590000002302E0022300E0022318461037BD46C0
:1059100080BD00BF115D000821590008F156000844
:1059200080B584B000AF786039603B681B88013B6C
:10593000152B00F2998001A252F823F09559000826
:10594000695A0008B9590008695A0008695A0008DC
:10595000695A0008695A0008695A0008695A00081B
:10596000695A0008695A0008695A0008695A00080B
:10597000695A0008695A0008695A0008695A0008FB
:10598000695A0008695A0008695A0008C75900088E
:10599000535A00087B680022DA61786800F0C0FC86
:1059A000786800F00AFD7B68203364226421184681
:1059B00006F09AFB012358E07B682033184606F076
:1059C000B3FB012351E0082001F01AF87B6893F83B
:1059D000483018467B6893F8493019467B68B3F91C
:1059E00050207B68B3F9523001F026FD0346002BAE
:1059F00004D07B681F4A5A61002336E07B6893F825
:105A00004830184601F0E8FC0346FB817B68B3F997
:105A10005830B7F90E209A4204DD7B68164A5A6165
:105A2000002322E07B68DB695A1C7B68DA617B68B3
:105A3000DB691D2B08D87B68B3F958301A46B7F9D3
:105A40000E30D31A0A2B04DD7B680C4A5A610023FE
:105A50000BE03B689B78052B04D17B68084A5A61B0
:105A6000002302E0022300E0022318461037BD465F
:105A700080BD00BF115D0008E5570008855A000889
:105A8000F156000880B584B000AF786039603B689B
:105A90001B88013B152B00F2878001A252F823F0EE
:105AA000F95A0008A95B0008235B0008A95B0008FD
:105AB000A95B0008A95B0008A95B0008A95B0008B6
:105AC000A95B0008A95B0008A95B0008A95B0008A6
:105AD000A95B0008A95B0008A95B0008A95B000896
